{"contracts/AiAgentToken.sol":{"AiAgentToken":{"abi":[{"inputs":[{"internalType":"string","name":"name_","type":"string"},{"internalType":"string","name":"symbol_","type":"string"},{"internalType":"address","name":"_adminWallet","type":"address"},{"internalType":"address","name":"_stakingWallet","type":"address"},{"internalType":"address","name":"_creatorWallet","type":"address"},{"internalType":"uint256","name":"_totalSupply","type":"uint256"}],"stateMutability":"nonpayable","type":"constructor"},{"inputs":[{"internalType":"address","name":"owner","type":"address"}],"name":"OwnableInvalidOwner","type":"error"},{"inputs":[{"internalType":"address","name":"account","type":"address"}],"name":"OwnableUnauthorizedAccount","type":"error"},{"anonymous":false,"inputs":[{"indexed":true,"internalType":"address","name":"owner","type":"address"},{"indexed":true,"internalType":"address","name":"spender","type":"address"},{"indexed":false,"internalType":"uint256","name":"value","type":"uint256"}],"name":"Approval","type":"event"},{"anonymous":false,"inputs":[{"indexed":true,"internalType":"address","name":"previousOwner","type":"address"},{"indexed":true,"internalType":"address","name":"newOwner","type":"address"}],"name":"OwnershipTransferred","type":"event"},{"anonymous":false,"inputs":[{"indexed":true,"internalType":"address","name":"account","type":"address"},{"indexed":false,"internalType":"uint256","name":"amount","type":"uint256"}],"name":"TokensVested","type":"event"},{"anonymous":false,"inputs":[{"indexed":true,"internalType":"address","name":"from","type":"address"},{"indexed":true,"internalType":"address","name":"to","type":"address"},{"indexed":false,"internalType":"uint256","name":"value","type":"uint256"}],"name":"Transfer","type":"event"},{"anonymous":false,"inputs":[{"indexed":true,"internalType":"address","name":"account","type":"address"},{"indexed":false,"internalType":"uint256","name":"totalAmount","type":"uint256"}],"name":"VestingCompleted","type":"event"},{"anonymous":false,"inputs":[{"indexed":true,"internalType":"address","name":"account","type":"address"},{"indexed":false,"internalType":"uint256","name":"amount","type":"uint256"}],"name":"VestingTokensClaimed","type":"event"},{"inputs":[],"name":"BASE_BURN_RATE","outputs":[{"internalType":"uint256","name":"","type":"uint256"}],"stateMutability":"view","type":"function"},{"inputs":[],"name":"BONDING_CURVE_PERCENT","outputs":[{"internalType":"uint256","name":"","type":"uint256"}],"stateMutability":"view","type":"function"},{"inputs":[],"name":"BONDING_UNLOCK_PERCENT","outputs":[{"internalType":"uint256","name":"","type":"uint256"}],"stateMutability":"view","type":"function"},{"inputs":[],"name":"BONDING_VESTING_PERCENT","outputs":[{"internalType":"uint256","name":"","type":"uint256"}],"stateMutability":"view","type":"function"},{"inputs":[],"name":"BONDING_VESTING_TIMES","outputs":[{"internalType":"uint256","name":"","type":"uint256"}],"stateMutability":"view","type":"function"},{"inputs":[],"name":"CLIFF_PERIOD","outputs":[{"internalType":"uint256","name":"","type":"uint256"}],"stateMutability":"view","type":"function"},{"inputs":[],"name":"CREATOR_PERCENT","outputs":[{"internalType":"uint256","name":"","type":"uint256"}],"stateMutability":"view","type":"function"},{"inputs":[],"name":"CREATOR_UNLOCK_PERCENT","outputs":[{"internalType":"uint256","name":"","type":"uint256"}],"stateMutability":"view","type":"function"},{"inputs":[],"name":"CREATOR_VESTING_PERCENT","outputs":[{"internalType":"uint256","name":"","type":"uint256"}],"stateMutability":"view","type":"function"},{"inputs":[],"name":"CREATOR_VESTING_TIMES","outputs":[{"internalType":"uint256","name":"","type":"uint256"}],"stateMutability":"view","type":"function"},{"inputs":[],"name":"FEE_DENOMINATOR","outputs":[{"internalType":"uint256","name":"","type":"uint256"}],"stateMutability":"view","type":"function"},{"inputs":[],"name":"LIQUIDITY_PERCENT","outputs":[{"internalType":"uint256","name":"","type":"uint256"}],"stateMutability":"view","type":"function"},{"inputs":[],"name":"MIN_FEE","outputs":[{"internalType":"uint256","name":"","type":"uint256"}],"stateMutability":"view","type":"function"},{"inputs":[],"name":"STAKING_REWARD_PERCENT","outputs":[{"internalType":"uint256","name":"","type":"uint256"}],"stateMutability":"view","type":"function"},{"inputs":[{"internalType":"address","name":"spender","type":"address"},{"internalType":"uint256","name":"amount","type":"uint256"}],"name":"approve","outputs":[{"internalType":"bool","name":"","type":"bool"}],"stateMutability":"nonpayable","type":"function"},{"inputs":[{"internalType":"address","name":"account","type":"address"}],"name":"balanceOf","outputs":[{"internalType":"uint256","name":"","type":"uint256"}],"stateMutability":"view","type":"function"},{"inputs":[],"name":"bondingWallet","outputs":[{"internalType":"address","name":"","type":"address"}],"stateMutability":"view","type":"function"},{"inputs":[{"internalType":"address","name":"account","type":"address"},{"internalType":"uint256","name":"amount","type":"uint256"}],"name":"burn","outputs":[],"stateMutability":"nonpayable","type":"function"},{"inputs":[{"internalType":"address","name":"account","type":"address"},{"internalType":"uint256","name":"amount","type":"uint256"}],"name":"createVestingScheduleForBuyer","outputs":[],"stateMutability":"nonpayable","type":"function"},{"inputs":[{"internalType":"address","name":"account","type":"address"},{"internalType":"uint256","name":"amount","type":"uint256"}],"name":"createVestingScheduleForCreator","outputs":[],"stateMutability":"nonpayable","type":"function"},{"inputs":[],"name":"creatorWallet","outputs":[{"internalType":"address","name":"","type":"address"}],"stateMutability":"view","type":"function"},{"inputs":[{"internalType":"address","name":"","type":"address"}],"name":"dailySellAmount","outputs":[{"internalType":"uint256","name":"","type":"uint256"}],"stateMutability":"view","type":"function"},{"inputs":[],"name":"decimals","outputs":[{"internalType":"uint8","name":"","type":"uint8"}],"stateMutability":"view","type":"function"},{"inputs":[{"internalType":"address","name":"account","type":"address"}],"name":"getDetailsAccount","outputs":[{"internalType":"uint256","name":"actualBalance","type":"uint256"},{"internalType":"uint256","name":"vestedBalance","type":"uint256"},{"internalType":"uint256","name":"claimableAmount","type":"uint256"},{"internalType":"uint256","name":"totalBalance","type":"uint256"},{"internalType":"uint256","name":"vestingEndTime","type":"uint256"},{"internalType":"uint256","name":"releasedAmount","type":"uint256"}],"stateMutability":"view","type":"function"},{"inputs":[{"internalType":"address","name":"account","type":"address"}],"name":"isAdmin","outputs":[{"internalType":"bool","name":"","type":"bool"}],"stateMutability":"view","type":"function"},{"inputs":[{"internalType":"address","name":"","type":"address"}],"name":"lastSellTime","outputs":[{"internalType":"uint256","name":"","type":"uint256"}],"stateMutability":"view","type":"function"},{"inputs":[],"name":"liquidityWallet","outputs":[{"internalType":"address","name":"","type":"address"}],"stateMutability":"view","type":"function"},{"inputs":[{"internalType":"address","name":"to","type":"address"},{"internalType":"uint256","name":"amount","type":"uint256"}],"name":"mint","outputs":[],"stateMutability":"nonpayable","type":"function"},{"inputs":[],"name":"name","outputs":[{"internalType":"string","name":"","type":"string"}],"stateMutability":"view","type":"function"},{"inputs":[],"name":"owner","outputs":[{"internalType":"address","name":"","type":"address"}],"stateMutability":"view","type":"function"},{"inputs":[],"name":"renounceOwnership","outputs":[],"stateMutability":"nonpayable","type":"function"},{"inputs":[{"internalType":"address","name":"account","type":"address"},{"internalType":"bool","name":"_isAdmin","type":"bool"}],"name":"setAdmin","outputs":[],"stateMutability":"nonpayable","type":"function"},{"inputs":[],"name":"stakingWallet","outputs":[{"internalType":"address","name":"","type":"address"}],"stateMutability":"view","type":"function"},{"inputs":[],"name":"symbol","outputs":[{"internalType":"string","name":"","type":"string"}],"stateMutability":"view","type":"function"},{"inputs":[],"name":"totalSupply","outputs":[{"internalType":"uint256","name":"","type":"uint256"}],"stateMutability":"view","type":"function"},{"inputs":[{"internalType":"address","name":"to","type":"address"},{"internalType":"uint256","name":"amount","type":"uint256"}],"name":"transfer","outputs":[{"internalType":"bool","name":"","type":"bool"}],"stateMutability":"nonpayable","type":"function"},{"inputs":[{"internalType":"address","name":"from","type":"address"},{"internalType":"address","name":"to","type":"address"},{"internalType":"uint256","name":"amount","type":"uint256"}],"name":"transferFrom","outputs":[{"internalType":"bool","name":"","type":"bool"}],"stateMutability":"nonpayable","type":"function"},{"inputs":[{"internalType":"address","name":"newOwner","type":"address"}],"name":"transferOwnership","outputs":[],"stateMutability":"nonpayable","type":"function"},{"inputs":[{"internalType":"address","name":"account","type":"address"}],"name":"vestingDetails","outputs":[{"components":[{"internalType":"uint256","name":"totalAmount","type":"uint256"},{"internalType":"uint256","name":"startTime","type":"uint256"},{"internalType":"uint256","name":"cliffEnd","type":"uint256"},{"internalType":"uint256","name":"endTime","type":"uint256"},{"internalType":"uint256","name":"lastClaimTime","type":"uint256"},{"internalType":"uint256","name":"releasedAmount","type":"uint256"},{"internalType":"bool","name":"revoked","type":"bool"}],"internalType":"struct AiAgentToken.VestingSchedule","name":"schedule","type":"tuple"}],"stateMutability":"view","type":"function"},{"inputs":[{"internalType":"address","name":"","type":"address"}],"name":"vestingSchedules","outputs":[{"internalType":"uint256","name":"totalAmount","type":"uint256"},{"internalType":"uint256","name":"startTime","type":"uint256"},{"internalType":"uint256","name":"cliffEnd","type":"uint256"},{"internalType":"uint256","name":"endTime","type":"uint256"},{"internalType":"uint256","name":"lastClaimTime","type":"uint256"},{"internalType":"uint256","name":"releasedAmount","type":"uint256"},{"internalType":"bool","name":"revoked","type":"bool"}],"stateMutability":"view","type":"function"}],"evm":{"bytecode":{"linkReferences":{},"object":"60406080815234620005055762001f77803803806200001e816200050a565b928339810160c082820312620005055781516001600160401b0391908281116200050557816200005091850162000546565b91602091828501519082821162000505576200006e91860162000546565b906200007c868601620005b8565b946200008b60608201620005b8565b9460a06200009c60808401620005b8565b9201516001600160a01b03979093908816928315620004ed57600080546001600160a01b0319808216871783558c519b929a9095949391839190889083167f8be0079c531659141344cd1fd0a4f28419497f9722a3daafe3b4186f6b6457e08e80a3169a8b15620004ab575016938415620004675788526005958688528a8920926001938460ff19825416179055805190838211620004535784548581811c9116801562000448575b8b82101462000434579180918b8d9594601f8097818311620003db575b92505050508b908d86841160011462000375579262000369575b5050600019600383901b1c191690851b1784555b805192831162000355576002548481811c911680156200034a575b8a8210146200033657828111620002ef575b508891831160011462000289579282939183928b946200027d575b50501b916000199060031b1c1916176002555b601260ff1960035416176003558681600d541617600d55600e541617600e558060045581810291818304149015171562000269579060647fddf252ad1be2c89b69c2b068fc378daa952ba7f163c4a11628f55a4df523b3ef9204848452600682528584208181540190558551908152a3516119a99081620005ce8239f35b634e487b7160e01b83526011600452602483fd5b015192503880620001d8565b60028a52888a20919083601f1981168c5b8c88838310620002d75750505010620002bd575b505050811b01600255620001eb565b015160001960f88460031b161c19169055388080620002ae565b8686015188559096019594850194879350016200029a565b60028b52898b20838086018b1c8201928c87106200032c575b018a1c019085905b82811062000320575050620001bd565b8c815501859062000310565b9250819262000308565b634e487b7160e01b8b52602260045260248bfd5b90607f1690620001ab565b634e487b7160e01b8a52604160045260248afd5b0151905038806200017c565b8881528d8120899550929190601f198516908f5b828210620003c35750508411620003a9575b505050811b01845562000190565b015160001960f88460031b161c191690553880806200039b565b8385015186558b979095019493840193018f62000389565b8a81528390209394508581018e1c8401939290919086106200042a575b85949391018d1c9091019088908f5b8382106200041b578f935088915062000162565b81558594508991018f62000407565b92508192620003f8565b634e487b7160e01b8c52602260045260248cfd5b90607f169062000145565b634e487b7160e01b8b52604160045260248bfd5b8a5162461bcd60e51b815260048101899052601c60248201527f496e76616c69642063726561746f7257616c6c65742077616c6c6574000000006044820152606490fd5b62461bcd60e51b8152600481018a9052601660248201527f496e76616c6964207374616b696e672077616c6c6574000000000000000000006044820152606490fd5b8951631e4fbdf760e01b815260006004820152602490fd5b600080fd5b6040519190601f01601f191682016001600160401b038111838210176200053057604052565b634e487b7160e01b600052604160045260246000fd5b919080601f84011215620005055782516001600160401b03811162000530576020906200057c601f8201601f191683016200050a565b92818452828287010111620005055760005b818110620005a457508260009394955001015290565b85810183015184820184015282016200058e565b51906001600160a01b0382168203620005055756fe608060408181526004908136101561001657600080fd5b600091823560e01c93846306ee6ad81461112d5750836306fdde03146110735783630808976d14610f3f578363095ea7b314610f1657836318160ddd14610efa57836323b872dd14610e2957836324d7806c14610dec5783632f05edba14610dd1578363313ce56714610db05783633a8d009714610cf25783633ccfbabf146101df5783633fd35853146103ba57836340c10f1914610cb55783634b0bddd214610c595783634c420c3b1461091d5783634e11b01f146109025783636f293d59146108e757836370a08231146108bb578363715018a61461086157836376c7a3c71461085c578363771a4bfd1461085c5783637a9e361c146108415783637cdc65f21461081957836383042cd2146107fb5783638b927075146107d35783638cad856f146107b95783638da5cb5b1461079257836395d89b4114610691578363996b2759146105e85783639dc29fac1461048f578363a9059cbb146103bf578363b0468185146103ba578363b44b4b8014610383578363d46980161461035b578363d73792a91461033f578363dfa728b314610308578363f2fde38b14610283578363fdb20ccb1461020557508263fe0af304146101e457505063ff458f77146101df57600080fd5b6111b6565b3461020157816003193601126102015760209051630163f5008152f35b5080fd5b3461027f57602036600319011261027f5760e09282906001600160a01b0361022b61119b565b16815260086020522080549260018201549260028301546003840154918401549260ff600660058701549601541695815197885260208801528601526060850152608084015260a0830152151560c0820152f35b8280fd5b3461027f57602036600319011261027f5761029c61119b565b906102a561120a565b6001600160a01b039182169283156102f257505082546001600160a01b0319811683178455167f8be0079c531659141344cd1fd0a4f28419497f9722a3daafe3b4186f6b6457e08380a380f35b51631e4fbdf760e01b8152908101849052602490fd5b50346102015760203660031901126102015760209181906001600160a01b0361032f61119b565b168152600a845220549051908152f35b5034610201578160031936011261020157602090516127108152f35b5034610201578160031936011261020157600c5490516001600160a01b039091168152602090f35b50346102015760203660031901126102015760209181906001600160a01b036103aa61119b565b1681526009845220549051908152f35b6111d2565b823461048c578260031936011261048c57506103d961119b565b60243591336001600160a01b0383161461044957826103f733611354565b106104115760208461040a8585336117a1565b5160018152f35b606490602085519162461bcd60e51b835282015260126024820152714e6f7420656e6f75676820616d6f756e742160701b6044820152fd5b606490602085519162461bcd60e51b8352820152601860248201527f4e6f7420616c6c6f772073656c66207472616e736665722100000000000000006044820152fd5b80fd5b8290346102015782600319360112610201576104a961119b565b90602435338452602091600583526104c660ff8787205416611236565b6001600160a01b03841693841561059b57848652600684528686205491836104ed83611354565b1061054d575095828287988260008051602061193483398151915297969510610526575b5086885260068552038187205551908152a380f35b906105349061053a936112f2565b906115de565b5084865260068352818187205489610511565b875162461bcd60e51b8152908101859052602260248201527f45524332303a206275726e20616d6f756e7420657863656564732062616c616e604482015261636560f01b6064820152608490fd5b865162461bcd60e51b8152808301859052602160248201527f45524332303a206275726e2066726f6d20746865207a65726f206164647265736044820152607360f81b6064820152608490fd5b50346102015760203660031901126102015760c061064f8260e09461060b61119b565b818584516106188161129e565b82815282602082015282868201528260608201528260808201528260a0820152015260018060a01b031681526008602052206112ff565b82519281518452602082015160208501528082015190840152606081015160608401526080810151608084015260a081015160a08401520151151560c0820152f35b903461027f578260031936011261027f57805191836002549060019082821c928281168015610788575b6020958686108214610775575084885290811561075357506001146106fa575b6106f686866106ec828b03836112d0565b5191829182611152565b0390f35b929550600283527f405787fa12a823e0f2b7631cc41b3ba8828b3321ca811111fa75cd3aa3bb5ace5b82841061074057505050826106f6946106ec9282010194866106db565b8054868501880152928601928101610723565b60ff191687860152505050151560051b83010192506106ec826106f6866106db565b634e487b7160e01b845260229052602483fd5b93607f16936106bb565b5034610201578160031936011261020157905490516001600160a01b039091168152602090f35b503461020157816003193601126102015751908152602090f35b5034610201578160031936011261020157600b5490516001600160a01b039091168152602090f35b5034610201578160031936011261020157602090516303b538008152f35b5034610201578160031936011261020157600e5490516001600160a01b039091168152602090f35b503461020157816003193601126102015760209051604b8152f35b6111ee565b823461048c578060031936011261048c5761087a61120a565b80546001600160a01b03198116825581906001600160a01b03167f8be0079c531659141344cd1fd0a4f28419497f9722a3daafe3b4186f6b6457e08280a380f35b5034610201576020366003190112610201576020906108e06108db61119b565b611354565b9051908152f35b50346102015781600319360112610201576020905160468152f35b50346102015781600319360112610201576020905160198152f35b82903461020157826003193601126102015761093761119b565b6024938435903385526020926005845261095660ff8388205416611236565b6001600160a01b0316938415610c19578215610bd957600a8302838104600a03610bc7576064900492605a8102908104605a03610bc757606486910493818852600686528388206109a882825461127b565b90558351908152600080516020611934833981519152863092a384865260088452818620805490979015610aed5760ff600689015416610aad5750610a3f60068689610aa5948a6000805160206119548339815191529a9b9c54928a610a1c8b610a17600585015480986112f2565b61127b565b928a60018401549160086002860154948860038801549701549784519d8e61129e565b8d52808d01948552838d0195865260608d0196875260808d0197885260a08d01998a5260c08d019a838c528352522098518955516001890155516002880155516003870155519085015551600584015551151591019060ff801983541691151516179055565b51908152a280f35b601c9085606494519362461bcd60e51b85528401528201527f4578697374696e67207363686564756c65206973207265766f6b6564000000006044820152fd5b90965085610bb657630163f500420190814211610ba35750849596600660008051602061195483398151915296610b9e93855193610b2a8561129e565b878552888501914283528786019042825260608701908152608087019142835260a08801946000865260c08901966000885260005260088d528a60002098518955516001890155516002880155516003870155519085015551600584015551151591019060ff801983541691151516179055565b610aa5565b634e487b7160e01b600090815260118952fd5b634e487b7160e01b86526011875285fd5b634e487b7160e01b8752601182528787fd5b601d8785606494519362461bcd60e51b85528401528201527f416d6f756e74206d7573742062652067726561746572207468616e20300000006044820152fd5b60178785606494519362461bcd60e51b85528401528201527f496e76616c6964206163636f756e7420616464726573730000000000000000006044820152fd5b5034610201578060031936011261020157610c7261119b565b90602435908115158203610cb157610cae92610c8c61120a565b60018060a01b03168452600560205283209060ff801983541691151516179055565b80f35b8380fd5b5034610201578060031936011261020157610cae90610ce960ff610cd761119b565b92338652600560205285205416611236565b6024359061155b565b5034610201576020366003190112610201579060c091610d1061119b565b60018060a01b0316825260066020528082205491809181610d3782846008602052206112ff565b91825180151580610da5575b80610d98575b610d7d575b5060a0610d5b838861127b565b93015194815196875260208701528501526060840152608083015260a0820152f35b94509250610d8c9050816113c4565b60608201519287610d4e565b5081840151421015610d49565b508784015115610d43565b503461020157816003193601126102015760209060ff600354169051908152f35b503461020157816003193601126102015760209051605a8152f35b50346102015760203660031901126102015760209160ff9082906001600160a01b03610e1661119b565b1681526005855220541690519015158152f35b82903461020157606036600319011261020157610e4461119b565b6001600160a01b03926024359290848416840361048c578590604435958416815260076020528181203382526020522054906000198203610e8e575b60208661040a8787876117a1565b848210610eb75750918391610eac6020969561040a95033383611471565b919394819350610e80565b606490602087519162461bcd60e51b8352820152601d60248201527f45524332303a20696e73756666696369656e7420616c6c6f77616e63650000006044820152fd5b3461027f578260031936011261027f5760209250549051908152f35b503461020157806003193601126102015760209061040a610f3561119b565b6024359033611471565b829034610201578260031936011261020157610f5961119b565b60249384359033855260209260058452610f7860ff8388205416611236565b6001600160a01b0316938415610c19578215610bd95760198302838104601903610bc7576064900492604b8102908104604b03610bc75760648691049381885260068652838820610fca82825461127b565b90558351908152600080516020611934833981519152863092a3848652600884528186208054909790156110395760ff600689015416610aad5750610a3f60068689610aa5948a6000805160206119548339815191529a9b9c54928a610a1c8b610a17600585015480986112f2565b95909650946303b53800420190814211610ba35750849596600660008051602061195483398151915296610b9e93855193610b2a8561129e565b903461027f578260031936011261027f5780519183600180549182821c928281168015611123575b6020958686108214610775575084885290811561075357506001146110cb576106f686866106ec828b03836112d0565b9295508083527fb10e2d527612073b26eecdfd717e6a320cf44b4afac2b0732d9fcbe2b7fa0cf65b82841061111057505050826106f6946106ec9282010194866106db565b80548685018801529286019281016110f3565b93607f169361109b565b839034610201578160031936011261020157600d546001600160a01b03168152602090f35b6020808252825181830181905290939260005b82811061118757505060409293506000838284010152601f8019910116010190565b818101860151848201604001528501611165565b600435906001600160a01b03821682036111b157565b600080fd5b346111b15760003660031901126111b157602060405160148152f35b346111b15760003660031901126111b157602060405160058152f35b346111b15760003660031901126111b1576020604051600a8152f35b6000546001600160a01b0316330361121e57565b60405163118cdaa760e01b8152336004820152602490fd5b1561123d57565b60405162461bcd60e51b815260206004820152601660248201527531b0b63632b91034b9903737ba1030b71030b236b4b760511b6044820152606490fd5b9190820180921161128857565b634e487b7160e01b600052601160045260246000fd5b60e0810190811067ffffffffffffffff8211176112ba57604052565b634e487b7160e01b600052604160045260246000fd5b90601f8019910116810190811067ffffffffffffffff8211176112ba57604052565b9190820391821161128857565b9060405161130c8161129e565b60c060ff600683958054855260018101546020860152600281015460408601526003810154606086015260048101546080860152600581015460a08601520154161515910152565b60018060a01b03166000526006602052604060002054600860205261137c60406000206112ff565b80511515806113b8575b806113aa575b611394575090565b906113a16113a7926113c4565b9061127b565b90565b50604081015142101561138c565b5060c081015115611386565b6040810151421061146b57606081018051421015611459576113f8602083016113ee8151426112f2565b92519051906112f2565b9082518181029181830414901517156112885781156114435704815180821161143b575b5060a060009201519081811161143157505090565b6113a792506112f2565b90503861141c565b634e487b7160e01b600052601260045260246000fd5b508060a06113a79251910151906112f2565b50600090565b6001600160a01b0390811691821561151757169182156114d25760207f8c5be1e5ebec7d5bd14f71427d1e84f3dd0314c0f7b2291e5b200ac8c7c3b925918360005260078252604060002085600052825280604060002055604051908152a3565b60405162461bcd60e51b815260206004820152601e60248201527f45524332303a20617070726f766520746f207a65726f206164647265737300006044820152606490fd5b606460405162461bcd60e51b815260206004820152602060248201527f45524332303a20617070726f76652066726f6d207a65726f20616464726573736044820152fd5b6001600160a01b03169081156115995760008051602061193483398151915260206000928484526006825260408420818154019055604051908152a3565b60405162461bcd60e51b815260206004820152601f60248201527f45524332303a206d696e7420746f20746865207a65726f2061646472657373006044820152606490fd5b60018060a01b03811690600090828252602091600883526040918282209060ff60068301541661176b576002820154421061172e5786611625611620846112ff565b6113c4565b106116ea579184827f5952e800de5564aff4cc315e219327cf6d706cbba481d1613c32f4b1aa17dcdd96959461166d8a60058b97019261166682855461127b565b845561155b565b4260048301555481541115611689575b5050505051848152a290565b82847fc6cfdb244e262cc2d7da34a1f8d576a0b4bceb631ac57ea5858a7bed7255279f94526008835260068682208281558260018201558260028201558260038201558260048201558260058201550155548451908152a28338838161167d565b835162461bcd60e51b815260048101869052601a60248201527f496e73756666696369656e742076657374656420746f6b656e730000000000006044820152606490fd5b835162461bcd60e51b815260048101869052601660248201527510db1a5999881c195c9a5bd9081b9bdd08195b99195960521b6044820152606490fd5b835162461bcd60e51b815260048101869052600f60248201526e15995cdd1a5b99c81c995d9bdad959608a1b6044820152606490fd5b916001600160a01b038084169283156118e0571692831561188f57600083815260066020526040918282205490846117d882611354565b1061183c5792849283836020966000805160206119348339815191529885961061181b575b508883526006875203828220558781522082815401905551908152a3565b9061053490611829936112f2565b50868152600685528382822054386117fd565b835162461bcd60e51b815260206004820152602660248201527f45524332303a207472616e7366657220616d6f756e7420657863656564732062604482015265616c616e636560d01b6064820152608490fd5b60405162461bcd60e51b815260206004820152602360248201527f45524332303a207472616e7366657220746f20746865207a65726f206164647260448201526265737360e81b6064820152608490fd5b60405162461bcd60e51b815260206004820152602560248201527f45524332303a207472616e736665722066726f6d20746865207a65726f206164604482015264647265737360d81b6064820152608490fdfeddf252ad1be2c89b69c2b068fc378daa952ba7f163c4a11628f55a4df523b3efd4691cc79b8fc72aac1e8c0d15a2ca06d71a386c983f815266f0fce713dc5ea7a264697066735822122069ac83c00edd3871532ca4b188b0c70e18baf512de22addaf3d253572bc0f3e564736f6c63430008140033","opcodes":"PUSH1 0x40 PUSH1 0x80 DUP2 MSTORE CALLVALUE PUSH3 0x505 JUMPI PUSH3 0x1F77 DUP1 CODESIZE SUB DUP1 PUSH3 0x1E DUP2 PUSH3 0x50A JUMP JUMPDEST SWAP3 DUP4 CODECOPY DUP2 ADD PUSH1 0xC0 DUP3 DUP3 SUB SLT PUSH3 0x505 JUMPI DUP2 MLOAD PUSH1 0x1 PUSH1 0x1 PUSH1 0x40 SHL SUB SWAP2 SWAP1 DUP3 DUP2 GT PUSH3 0x505 JUMPI DUP2 PUSH3 0x50 SWAP2 DUP6 ADD PUSH3 0x546 JUMP JUMPDEST SWAP2 PUSH1 0x20 SWAP2 DUP3 DUP6 ADD MLOAD SWAP1 DUP3 DUP3 GT PUSH3 0x505 JUMPI PUSH3 0x6E SWAP2 DUP7 ADD PUSH3 0x546 JUMP JUMPDEST SWAP1 PUSH3 0x7C DUP7 DUP7 ADD PUSH3 0x5B8 JUMP JUMPDEST SWAP5 PUSH3 0x8B PUSH1 0x60 DUP3 ADD PUSH3 0x5B8 JUMP JUMPDEST SWAP5 PUSH1 0xA0 PUSH3 0x9C PUSH1 0x80 DUP5 ADD PUSH3 0x5B8 JUMP JUMPDEST SWAP3 ADD MLOAD PUSH1 0x1 PUSH1 0x1 PUSH1 0xA0 SHL SUB SWAP8 SWAP1 SWAP4 SWAP1 DUP9 AND SWAP3 DUP4 ISZERO PUSH3 0x4ED JUMPI PUSH1 0x0 DUP1 SLOAD PUSH1 0x1 PUSH1 0x1 PUSH1 0xA0 SHL SUB NOT DUP1 DUP3 AND DUP8 OR DUP4 SSTORE DUP13 MLOAD SWAP12 SWAP3 SWAP11 SWAP1 SWAP6 SWAP5 SWAP4 SWAP2 DUP4 SWAP2 SWAP1 DUP9 SWAP1 DUP4 AND PUSH32 0x8BE0079C531659141344CD1FD0A4F28419497F9722A3DAAFE3B4186F6B6457E0 DUP15 DUP1 LOG3 AND SWAP11 DUP12 ISZERO PUSH3 0x4AB JUMPI POP AND SWAP4 DUP5 ISZERO PUSH3 0x467 JUMPI DUP9 MSTORE PUSH1 0x5 SWAP6 DUP7 DUP9 MSTORE DUP11 DUP10 KECCAK256 SWAP3 PUSH1 0x1 SWAP4 DUP5 PUSH1 0xFF NOT DUP3 SLOAD AND OR SWAP1 SSTORE DUP1 MLOAD SWAP1 DUP4 DUP3 GT PUSH3 0x453 JUMPI DUP5 SLOAD DUP6 DUP2 DUP2 SHR SWAP2 AND DUP1 ISZERO PUSH3 0x448 JUMPI JUMPDEST DUP12 DUP3 LT EQ PUSH3 0x434 JUMPI SWAP2 DUP1 SWAP2 DUP12 DUP14 SWAP6 SWAP5 PUSH1 0x1F DUP1 SWAP8 DUP2 DUP4 GT PUSH3 0x3DB JUMPI JUMPDEST SWAP3 POP POP POP POP DUP12 SWAP1 DUP14 DUP7 DUP5 GT PUSH1 0x1 EQ PUSH3 0x375 JUMPI SWAP3 PUSH3 0x369 JUMPI JUMPDEST POP POP PUSH1 0x0 NOT PUSH1 0x3 DUP4 SWAP1 SHL SHR NOT AND SWAP1 DUP6 SHL OR DUP5 SSTORE JUMPDEST DUP1 MLOAD SWAP3 DUP4 GT PUSH3 0x355 JUMPI PUSH1 0x2 SLOAD DUP5 DUP2 DUP2 SHR SWAP2 AND DUP1 ISZERO PUSH3 0x34A JUMPI JUMPDEST DUP11 DUP3 LT EQ PUSH3 0x336 JUMPI DUP3 DUP2 GT PUSH3 0x2EF JUMPI JUMPDEST POP DUP9 SWAP2 DUP4 GT PUSH1 0x1 EQ PUSH3 0x289 JUMPI SWAP3 DUP3 SWAP4 SWAP2 DUP4 SWAP3 DUP12 SWAP5 PUSH3 0x27D JUMPI JUMPDEST POP POP SHL SWAP2 PUSH1 0x0 NOT SWAP1 PUSH1 0x3 SHL SHR NOT AND OR PUSH1 0x2 SSTORE JUMPDEST PUSH1 0x12 PUSH1 0xFF NOT PUSH1 0x3 SLOAD AND OR PUSH1 0x3 SSTORE DUP7 DUP2 PUSH1 0xD SLOAD AND OR PUSH1 0xD SSTORE PUSH1 0xE SLOAD AND OR PUSH1 0xE SSTORE DUP1 PUSH1 0x4 SSTORE DUP2 DUP2 MUL SWAP2 DUP2 DUP4 DIV EQ SWAP1 ISZERO OR ISZERO PUSH3 0x269 JUMPI SWAP1 PUSH1 0x64 PUSH32 0xDDF252AD1BE2C89B69C2B068FC378DAA952BA7F163C4A11628F55A4DF523B3EF SWAP3 DIV DUP5 DUP5 MSTORE PUSH1 0x6 DUP3 MSTORE DUP6 DUP5 KECCAK256 DUP2 DUP2 SLOAD ADD SWAP1 SSTORE DUP6 MLOAD SWAP1 DUP2 MSTORE LOG3 MLOAD PUSH2 0x19A9 SWAP1 DUP2 PUSH3 0x5CE DUP3 CODECOPY RETURN JUMPDEST PUSH4 0x4E487B71 PUSH1 0xE0 SHL DUP4 MSTORE PUSH1 0x11 PUSH1 0x4 MSTORE PUSH1 0x24 DUP4 REVERT JUMPDEST ADD MLOAD SWAP3 POP CODESIZE DUP1 PUSH3 0x1D8 JUMP JUMPDEST PUSH1 0x2 DUP11 MSTORE DUP9 DUP11 KECCAK256 SWAP2 SWAP1 DUP4 PUSH1 0x1F NOT DUP2 AND DUP13 JUMPDEST DUP13 DUP9 DUP4 DUP4 LT PUSH3 0x2D7 JUMPI POP POP POP LT PUSH3 0x2BD JUMPI JUMPDEST POP POP POP DUP2 SHL ADD PUSH1 0x2 SSTORE PUSH3 0x1EB JUMP JUMPDEST ADD MLOAD PUSH1 0x0 NOT PUSH1 0xF8 DUP5 PUSH1 0x3 SHL AND SHR NOT AND SWAP1 SSTORE CODESIZE DUP1 DUP1 PUSH3 0x2AE JUMP JUMPDEST DUP7 DUP7 ADD MLOAD DUP9 SSTORE SWAP1 SWAP7 ADD SWAP6 SWAP5 DUP6 ADD SWAP5 DUP8 SWAP4 POP ADD PUSH3 0x29A JUMP JUMPDEST PUSH1 0x2 DUP12 MSTORE DUP10 DUP12 KECCAK256 DUP4 DUP1 DUP7 ADD DUP12 SHR DUP3 ADD SWAP3 DUP13 DUP8 LT PUSH3 0x32C JUMPI JUMPDEST ADD DUP11 SHR ADD SWAP1 DUP6 SWAP1 JUMPDEST DUP3 DUP2 LT PUSH3 0x320 JUMPI POP POP PUSH3 0x1BD JUMP JUMPDEST DUP13 DUP2 SSTORE ADD DUP6 SWAP1 PUSH3 0x310 JUMP JUMPDEST SWAP3 POP DUP2 SWAP3 PUSH3 0x308 JUMP JUMPDEST PUSH4 0x4E487B71 PUSH1 0xE0 SHL DUP12 MSTORE PUSH1 0x22 PUSH1 0x4 MSTORE PUSH1 0x24 DUP12 REVERT JUMPDEST SWAP1 PUSH1 0x7F AND SWAP1 PUSH3 0x1AB JUMP JUMPDEST PUSH4 0x4E487B71 PUSH1 0xE0 SHL DUP11 MSTORE PUSH1 0x41 PUSH1 0x4 MSTORE PUSH1 0x24 DUP11 REVERT JUMPDEST ADD MLOAD SWAP1 POP CODESIZE DUP1 PUSH3 0x17C JUMP JUMPDEST DUP9 DUP2 MSTORE DUP14 DUP2 KECCAK256 DUP10 SWAP6 POP SWAP3 SWAP2 SWAP1 PUSH1 0x1F NOT DUP6 AND SWAP1 DUP16 JUMPDEST DUP3 DUP3 LT PUSH3 0x3C3 JUMPI POP POP DUP5 GT PUSH3 0x3A9 JUMPI JUMPDEST POP POP POP DUP2 SHL ADD DUP5 SSTORE PUSH3 0x190 JUMP JUMPDEST ADD MLOAD PUSH1 0x0 NOT PUSH1 0xF8 DUP5 PUSH1 0x3 SHL AND SHR NOT AND SWAP1 SSTORE CODESIZE DUP1 DUP1 PUSH3 0x39B JUMP JUMPDEST DUP4 DUP6 ADD MLOAD DUP7 SSTORE DUP12 SWAP8 SWAP1 SWAP6 ADD SWAP5 SWAP4 DUP5 ADD SWAP4 ADD DUP16 PUSH3 0x389 JUMP JUMPDEST DUP11 DUP2 MSTORE DUP4 SWAP1 KECCAK256 SWAP4 SWAP5 POP DUP6 DUP2 ADD DUP15 SHR DUP5 ADD SWAP4 SWAP3 SWAP1 SWAP2 SWAP1 DUP7 LT PUSH3 0x42A JUMPI JUMPDEST DUP6 SWAP5 SWAP4 SWAP2 ADD DUP14 SHR SWAP1 SWAP2 ADD SWAP1 DUP9 SWAP1 DUP16 JUMPDEST DUP4 DUP3 LT PUSH3 0x41B JUMPI DUP16 SWAP4 POP DUP9 SWAP2 POP PUSH3 0x162 JUMP JUMPDEST DUP2 SSTORE DUP6 SWAP5 POP DUP10 SWAP2 ADD DUP16 PUSH3 0x407 JUMP JUMPDEST SWAP3 POP DUP2 SWAP3 PUSH3 0x3F8 JUMP JUMPDEST PUSH4 0x4E487B71 PUSH1 0xE0 SHL DUP13 MSTORE PUSH1 0x22 PUSH1 0x4 MSTORE PUSH1 0x24 DUP13 REVERT JUMPDEST SWAP1 PUSH1 0x7F AND SWAP1 PUSH3 0x145 JUMP JUMPDEST PUSH4 0x4E487B71 PUSH1 0xE0 SHL DUP12 MSTORE PUSH1 0x41 PUSH1 0x4 MSTORE PUSH1 0x24 DUP12 REVERT JUMPDEST DUP11 MLOAD PUSH3 0x461BCD PUSH1 0xE5 SHL DUP2 MSTORE PUSH1 0x4 DUP2 ADD DUP10 SWAP1 MSTORE PUSH1 0x1C PUSH1 0x24 DUP3 ADD MSTORE PUSH32 0x496E76616C69642063726561746F7257616C6C65742077616C6C657400000000 PUSH1 0x44 DUP3 ADD MSTORE PUSH1 0x64 SWAP1 REVERT JUMPDEST PUSH3 0x461BCD PUSH1 0xE5 SHL DUP2 MSTORE PUSH1 0x4 DUP2 ADD DUP11 SWAP1 MSTORE PUSH1 0x16 PUSH1 0x24 DUP3 ADD MSTORE PUSH32 0x496E76616C6964207374616B696E672077616C6C657400000000000000000000 PUSH1 0x44 DUP3 ADD MSTORE PUSH1 0x64 SWAP1 REVERT JUMPDEST DUP10 MLOAD PUSH4 0x1E4FBDF7 PUSH1 0xE0 SHL DUP2 MSTORE PUSH1 0x0 PUSH1 0x4 DUP3 ADD MSTORE PUSH1 0x24 SWAP1 REVERT JUMPDEST PUSH1 0x0 DUP1 REVERT JUMPDEST PUSH1 0x40 MLOAD SWAP2 SWAP1 PUSH1 0x1F ADD PUSH1 0x1F NOT AND DUP3 ADD PUSH1 0x1 PUSH1 0x1 PUSH1 0x40 SHL SUB DUP2 GT DUP4 DUP3 LT OR PUSH3 0x530 JUMPI PUSH1 0x40 MSTORE JUMP JUMPDEST PUSH4 0x4E487B71 PUSH1 0xE0 SHL PUSH1 0x0 MSTORE PUSH1 0x41 PUSH1 0x4 MSTORE PUSH1 0x24 PUSH1 0x0 REVERT JUMPDEST SWAP2 SWAP1 DUP1 PUSH1 0x1F DUP5 ADD SLT ISZERO PUSH3 0x505 JUMPI DUP3 MLOAD PUSH1 0x1 PUSH1 0x1 PUSH1 0x40 SHL SUB DUP2 GT PUSH3 0x530 JUMPI PUSH1 0x20 SWAP1 PUSH3 0x57C PUSH1 0x1F DUP3 ADD PUSH1 0x1F NOT AND DUP4 ADD PUSH3 0x50A JUMP JUMPDEST SWAP3 DUP2 DUP5 MSTORE DUP3 DUP3 DUP8 ADD ADD GT PUSH3 0x505 JUMPI PUSH1 0x0 JUMPDEST DUP2 DUP2 LT PUSH3 0x5A4 JUMPI POP DUP3 PUSH1 0x0 SWAP4 SWAP5 SWAP6 POP ADD ADD MSTORE SWAP1 JUMP JUMPDEST DUP6 DUP2 ADD DUP4 ADD MLOAD DUP5 DUP3 ADD DUP5 ADD MSTORE DUP3 ADD PUSH3 0x58E JUMP JUMPDEST MLOAD SWAP1 PUSH1 0x1 PUSH1 0x1 PUSH1 0xA0 SHL SUB DUP3 AND DUP3 SUB PUSH3 0x505 JUMPI JUMP INVALID PUSH1 0x80 PUSH1 0x40 DUP2 DUP2 MSTORE PUSH1 0x4 SWAP1 DUP2 CALLDATASIZE LT ISZERO PUSH2 0x16 JUMPI PUSH1 0x0 DUP1 REVERT JUMPDEST PUSH1 0x0 SWAP2 DUP3 CALLDATALOAD PUSH1 0xE0 SHR SWAP4 DUP5 PUSH4 0x6EE6AD8 EQ PUSH2 0x112D JUMPI POP DUP4 PUSH4 0x6FDDE03 EQ PUSH2 0x1073 JUMPI DUP4 PUSH4 0x808976D EQ PUSH2 0xF3F JUMPI DUP4 PUSH4 0x95EA7B3 EQ PUSH2 0xF16 JUMPI DUP4 PUSH4 0x18160DDD EQ PUSH2 0xEFA JUMPI DUP4 PUSH4 0x23B872DD EQ PUSH2 0xE29 JUMPI DUP4 PUSH4 0x24D7806C EQ PUSH2 0xDEC JUMPI DUP4 PUSH4 0x2F05EDBA EQ PUSH2 0xDD1 JUMPI DUP4 PUSH4 0x313CE567 EQ PUSH2 0xDB0 JUMPI DUP4 PUSH4 0x3A8D0097 EQ PUSH2 0xCF2 JUMPI DUP4 PUSH4 0x3CCFBABF EQ PUSH2 0x1DF JUMPI DUP4 PUSH4 0x3FD35853 EQ PUSH2 0x3BA JUMPI DUP4 PUSH4 0x40C10F19 EQ PUSH2 0xCB5 JUMPI DUP4 PUSH4 0x4B0BDDD2 EQ PUSH2 0xC59 JUMPI DUP4 PUSH4 0x4C420C3B EQ PUSH2 0x91D JUMPI DUP4 PUSH4 0x4E11B01F EQ PUSH2 0x902 JUMPI DUP4 PUSH4 0x6F293D59 EQ PUSH2 0x8E7 JUMPI DUP4 PUSH4 0x70A08231 EQ PUSH2 0x8BB JUMPI DUP4 PUSH4 0x715018A6 EQ PUSH2 0x861 JUMPI DUP4 PUSH4 0x76C7A3C7 EQ PUSH2 0x85C JUMPI DUP4 PUSH4 0x771A4BFD EQ PUSH2 0x85C JUMPI DUP4 PUSH4 0x7A9E361C EQ PUSH2 0x841 JUMPI DUP4 PUSH4 0x7CDC65F2 EQ PUSH2 0x819 JUMPI DUP4 PUSH4 0x83042CD2 EQ PUSH2 0x7FB JUMPI DUP4 PUSH4 0x8B927075 EQ PUSH2 0x7D3 JUMPI DUP4 PUSH4 0x8CAD856F EQ PUSH2 0x7B9 JUMPI DUP4 PUSH4 0x8DA5CB5B EQ PUSH2 0x792 JUMPI DUP4 PUSH4 0x95D89B41 EQ PUSH2 0x691 JUMPI DUP4 PUSH4 0x996B2759 EQ PUSH2 0x5E8 JUMPI DUP4 PUSH4 0x9DC29FAC EQ PUSH2 0x48F JUMPI DUP4 PUSH4 0xA9059CBB EQ PUSH2 0x3BF JUMPI DUP4 PUSH4 0xB0468185 EQ PUSH2 0x3BA JUMPI DUP4 PUSH4 0xB44B4B80 EQ PUSH2 0x383 JUMPI DUP4 PUSH4 0xD4698016 EQ PUSH2 0x35B JUMPI DUP4 PUSH4 0xD73792A9 EQ PUSH2 0x33F JUMPI DUP4 PUSH4 0xDFA728B3 EQ PUSH2 0x308 JUMPI DUP4 PUSH4 0xF2FDE38B EQ PUSH2 0x283 JUMPI DUP4 PUSH4 0xFDB20CCB EQ PUSH2 0x205 JUMPI POP DUP3 PUSH4 0xFE0AF304 EQ PUSH2 0x1E4 JUMPI POP POP PUSH4 0xFF458F77 EQ PUSH2 0x1DF JUMPI PUSH1 0x0 DUP1 REVERT JUMPDEST PUSH2 0x11B6 JUMP JUMPDEST CALLVALUE PUSH2 0x201 JUMPI DUP2 PUSH1 0x3 NOT CALLDATASIZE ADD SLT PUSH2 0x201 JUMPI PUSH1 0x20 SWAP1 MLOAD PUSH4 0x163F500 DUP2 MSTORE RETURN JUMPDEST POP DUP1 REVERT JUMPDEST CALLVALUE PUSH2 0x27F JUMPI PUSH1 0x20 CALLDATASIZE PUSH1 0x3 NOT ADD SLT PUSH2 0x27F JUMPI PUSH1 0xE0 SWAP3 DUP3 SWAP1 PUSH1 0x1 PUSH1 0x1 PUSH1 0xA0 SHL SUB PUSH2 0x22B PUSH2 0x119B JUMP JUMPDEST AND DUP2 MSTORE PUSH1 0x8 PUSH1 0x20 MSTORE KECCAK256 DUP1 SLOAD SWAP3 PUSH1 0x1 DUP3 ADD SLOAD SWAP3 PUSH1 0x2 DUP4 ADD SLOAD PUSH1 0x3 DUP5 ADD SLOAD SWAP2 DUP5 ADD SLOAD SWAP3 PUSH1 0xFF PUSH1 0x6 PUSH1 0x5 DUP8 ADD SLOAD SWAP7 ADD SLOAD AND SWAP6 DUP2 MLOAD SWAP8 DUP9 MSTORE PUSH1 0x20 DUP9 ADD MSTORE DUP7 ADD MSTORE PUSH1 0x60 DUP6 ADD MSTORE PUSH1 0x80 DUP5 ADD MSTORE PUSH1 0xA0 DUP4 ADD MSTORE ISZERO ISZERO PUSH1 0xC0 DUP3 ADD MSTORE RETURN JUMPDEST DUP3 DUP1 REVERT JUMPDEST CALLVALUE PUSH2 0x27F JUMPI PUSH1 0x20 CALLDATASIZE PUSH1 0x3 NOT ADD SLT PUSH2 0x27F JUMPI PUSH2 0x29C PUSH2 0x119B JUMP JUMPDEST SWAP1 PUSH2 0x2A5 PUSH2 0x120A JUMP JUMPDEST PUSH1 0x1 PUSH1 0x1 PUSH1 0xA0 SHL SUB SWAP2 DUP3 AND SWAP3 DUP4 ISZERO PUSH2 0x2F2 JUMPI POP POP DUP3 SLOAD PUSH1 0x1 PUSH1 0x1 PUSH1 0xA0 SHL SUB NOT DUP2 AND DUP4 OR DUP5 SSTORE AND PUSH32 0x8BE0079C531659141344CD1FD0A4F28419497F9722A3DAAFE3B4186F6B6457E0 DUP4 DUP1 LOG3 DUP1 RETURN JUMPDEST MLOAD PUSH4 0x1E4FBDF7 PUSH1 0xE0 SHL DUP2 MSTORE SWAP1 DUP2 ADD DUP5 SWAP1 MSTORE PUSH1 0x24 SWAP1 REVERT JUMPDEST POP CALLVALUE PUSH2 0x201 JUMPI PUSH1 0x20 CALLDATASIZE PUSH1 0x3 NOT ADD SLT PUSH2 0x201 JUMPI PUSH1 0x20 SWAP2 DUP2 SWAP1 PUSH1 0x1 PUSH1 0x1 PUSH1 0xA0 SHL SUB PUSH2 0x32F PUSH2 0x119B JUMP JUMPDEST AND DUP2 MSTORE PUSH1 0xA DUP5 MSTORE KECCAK256 SLOAD SWAP1 MLOAD SWAP1 DUP2 MSTORE RETURN JUMPDEST POP CALLVALUE PUSH2 0x201 JUMPI DUP2 PUSH1 0x3 NOT CALLDATASIZE ADD SLT PUSH2 0x201 JUMPI PUSH1 0x20 SWAP1 MLOAD PUSH2 0x2710 DUP2 MSTORE RETURN JUMPDEST POP CALLVALUE PUSH2 0x201 JUMPI DUP2 PUSH1 0x3 NOT CALLDATASIZE ADD SLT PUSH2 0x201 JUMPI PUSH1 0xC SLOAD SWAP1 MLOAD PUSH1 0x1 PUSH1 0x1 PUSH1 0xA0 SHL SUB SWAP1 SWAP2 AND DUP2 MSTORE PUSH1 0x20 SWAP1 RETURN JUMPDEST POP CALLVALUE PUSH2 0x201 JUMPI PUSH1 0x20 CALLDATASIZE PUSH1 0x3 NOT ADD SLT PUSH2 0x201 JUMPI PUSH1 0x20 SWAP2 DUP2 SWAP1 PUSH1 0x1 PUSH1 0x1 PUSH1 0xA0 SHL SUB PUSH2 0x3AA PUSH2 0x119B JUMP JUMPDEST AND DUP2 MSTORE PUSH1 0x9 DUP5 MSTORE KECCAK256 SLOAD SWAP1 MLOAD SWAP1 DUP2 MSTORE RETURN JUMPDEST PUSH2 0x11D2 JUMP JUMPDEST DUP3 CALLVALUE PUSH2 0x48C JUMPI DUP3 PUSH1 0x3 NOT CALLDATASIZE ADD SLT PUSH2 0x48C JUMPI POP PUSH2 0x3D9 PUSH2 0x119B JUMP JUMPDEST PUSH1 0x24 CALLDATALOAD SWAP2 CALLER PUSH1 0x1 PUSH1 0x1 PUSH1 0xA0 SHL SUB DUP4 AND EQ PUSH2 0x449 JUMPI DUP3 PUSH2 0x3F7 CALLER PUSH2 0x1354 JUMP JUMPDEST LT PUSH2 0x411 JUMPI PUSH1 0x20 DUP5 PUSH2 0x40A DUP6 DUP6 CALLER PUSH2 0x17A1 JUMP JUMPDEST MLOAD PUSH1 0x1 DUP2 MSTORE RETURN JUMPDEST PUSH1 0x64 SWAP1 PUSH1 0x20 DUP6 MLOAD SWAP2 PUSH3 0x461BCD PUSH1 0xE5 SHL DUP4 MSTORE DUP3 ADD MSTORE PUSH1 0x12 PUSH1 0x24 DUP3 ADD MSTORE PUSH18 0x4E6F7420656E6F75676820616D6F756E7421 PUSH1 0x70 SHL PUSH1 0x44 DUP3 ADD MSTORE REVERT JUMPDEST PUSH1 0x64 SWAP1 PUSH1 0x20 DUP6 MLOAD SWAP2 PUSH3 0x461BCD PUSH1 0xE5 SHL DUP4 MSTORE DUP3 ADD MSTORE PUSH1 0x18 PUSH1 0x24 DUP3 ADD MSTORE PUSH32 0x4E6F7420616C6C6F772073656C66207472616E73666572210000000000000000 PUSH1 0x44 DUP3 ADD MSTORE REVERT JUMPDEST DUP1 REVERT JUMPDEST DUP3 SWAP1 CALLVALUE PUSH2 0x201 JUMPI DUP3 PUSH1 0x3 NOT CALLDATASIZE ADD SLT PUSH2 0x201 JUMPI PUSH2 0x4A9 PUSH2 0x119B JUMP JUMPDEST SWAP1 PUSH1 0x24 CALLDATALOAD CALLER DUP5 MSTORE PUSH1 0x20 SWAP2 PUSH1 0x5 DUP4 MSTORE PUSH2 0x4C6 PUSH1 0xFF DUP8 DUP8 KECCAK256 SLOAD AND PUSH2 0x1236 JUMP JUMPDEST PUSH1 0x1 PUSH1 0x1 PUSH1 0xA0 SHL SUB DUP5 AND SWAP4 DUP5 ISZERO PUSH2 0x59B JUMPI DUP5 DUP7 MSTORE PUSH1 0x6 DUP5 MSTORE DUP7 DUP7 KECCAK256 SLOAD SWAP2 DUP4 PUSH2 0x4ED DUP4 PUSH2 0x1354 JUMP JUMPDEST LT PUSH2 0x54D JUMPI POP SWAP6 DUP3 DUP3 DUP8 SWAP9 DUP3 PUSH1 0x0 DUP1 MLOAD PUSH1 0x20 PUSH2 0x1934 DUP4 CODECOPY DUP2 MLOAD SWAP2 MSTORE SWAP8 SWAP7 SWAP6 LT PUSH2 0x526 JUMPI JUMPDEST POP DUP7 DUP9 MSTORE PUSH1 0x6 DUP6 MSTORE SUB DUP2 DUP8 KECCAK256 SSTORE MLOAD SWAP1 DUP2 MSTORE LOG3 DUP1 RETURN JUMPDEST SWAP1 PUSH2 0x534 SWAP1 PUSH2 0x53A SWAP4 PUSH2 0x12F2 JUMP JUMPDEST SWAP1 PUSH2 0x15DE JUMP JUMPDEST POP DUP5 DUP7 MSTORE PUSH1 0x6 DUP4 MSTORE DUP2 DUP2 DUP8 KECCAK256 SLOAD DUP10 PUSH2 0x511 JUMP JUMPDEST DUP8 MLOAD PUSH3 0x461BCD PUSH1 0xE5 SHL DUP2 MSTORE SWAP1 DUP2 ADD DUP6 SWAP1 MSTORE PUSH1 0x22 PUSH1 0x24 DUP3 ADD MSTORE PUSH32 0x45524332303A206275726E20616D6F756E7420657863656564732062616C616E PUSH1 0x44 DUP3 ADD MSTORE PUSH2 0x6365 PUSH1 0xF0 SHL PUSH1 0x64 DUP3 ADD MSTORE PUSH1 0x84 SWAP1 REVERT JUMPDEST DUP7 MLOAD PUSH3 0x461BCD PUSH1 0xE5 SHL DUP2 MSTORE DUP1 DUP4 ADD DUP6 SWAP1 MSTORE PUSH1 0x21 PUSH1 0x24 DUP3 ADD MSTORE PUSH32 0x45524332303A206275726E2066726F6D20746865207A65726F20616464726573 PUSH1 0x44 DUP3 ADD MSTORE PUSH1 0x73 PUSH1 0xF8 SHL PUSH1 0x64 DUP3 ADD MSTORE PUSH1 0x84 SWAP1 REVERT JUMPDEST POP CALLVALUE PUSH2 0x201 JUMPI PUSH1 0x20 CALLDATASIZE PUSH1 0x3 NOT ADD SLT PUSH2 0x201 JUMPI PUSH1 0xC0 PUSH2 0x64F DUP3 PUSH1 0xE0 SWAP5 PUSH2 0x60B PUSH2 0x119B JUMP JUMPDEST DUP2 DUP6 DUP5 MLOAD PUSH2 0x618 DUP2 PUSH2 0x129E JUMP JUMPDEST DUP3 DUP2 MSTORE DUP3 PUSH1 0x20 DUP3 ADD MSTORE DUP3 DUP7 DUP3 ADD MSTORE DUP3 PUSH1 0x60 DUP3 ADD MSTORE DUP3 PUSH1 0x80 DUP3 ADD MSTORE DUP3 PUSH1 0xA0 DUP3 ADD MSTORE ADD MSTORE PUSH1 0x1 DUP1 PUSH1 0xA0 SHL SUB AND DUP2 MSTORE PUSH1 0x8 PUSH1 0x20 MSTORE KECCAK256 PUSH2 0x12FF JUMP JUMPDEST DUP3 MLOAD SWAP3 DUP2 MLOAD DUP5 MSTORE PUSH1 0x20 DUP3 ADD MLOAD PUSH1 0x20 DUP6 ADD MSTORE DUP1 DUP3 ADD MLOAD SWAP1 DUP5 ADD MSTORE PUSH1 0x60 DUP2 ADD MLOAD PUSH1 0x60 DUP5 ADD MSTORE PUSH1 0x80 DUP2 ADD MLOAD PUSH1 0x80 DUP5 ADD MSTORE PUSH1 0xA0 DUP2 ADD MLOAD PUSH1 0xA0 DUP5 ADD MSTORE ADD MLOAD ISZERO ISZERO PUSH1 0xC0 DUP3 ADD MSTORE RETURN JUMPDEST SWAP1 CALLVALUE PUSH2 0x27F JUMPI DUP3 PUSH1 0x3 NOT CALLDATASIZE ADD SLT PUSH2 0x27F JUMPI DUP1 MLOAD SWAP2 DUP4 PUSH1 0x2 SLOAD SWAP1 PUSH1 0x1 SWAP1 DUP3 DUP3 SHR SWAP3 DUP3 DUP2 AND DUP1 ISZERO PUSH2 0x788 JUMPI JUMPDEST PUSH1 0x20 SWAP6 DUP7 DUP7 LT DUP3 EQ PUSH2 0x775 JUMPI POP DUP5 DUP9 MSTORE SWAP1 DUP2 ISZERO PUSH2 0x753 JUMPI POP PUSH1 0x1 EQ PUSH2 0x6FA JUMPI JUMPDEST PUSH2 0x6F6 DUP7 DUP7 PUSH2 0x6EC DUP3 DUP12 SUB DUP4 PUSH2 0x12D0 JUMP JUMPDEST MLOAD SWAP2 DUP3 SWAP2 DUP3 PUSH2 0x1152 JUMP JUMPDEST SUB SWAP1 RETURN JUMPDEST SWAP3 SWAP6 POP PUSH1 0x2 DUP4 MSTORE PUSH32 0x405787FA12A823E0F2B7631CC41B3BA8828B3321CA811111FA75CD3AA3BB5ACE JUMPDEST DUP3 DUP5 LT PUSH2 0x740 JUMPI POP POP POP DUP3 PUSH2 0x6F6 SWAP5 PUSH2 0x6EC SWAP3 DUP3 ADD ADD SWAP5 DUP7 PUSH2 0x6DB JUMP JUMPDEST DUP1 SLOAD DUP7 DUP6 ADD DUP9 ADD MSTORE SWAP3 DUP7 ADD SWAP3 DUP2 ADD PUSH2 0x723 JUMP JUMPDEST PUSH1 0xFF NOT AND DUP8 DUP7 ADD MSTORE POP POP POP ISZERO ISZERO PUSH1 0x5 SHL DUP4 ADD ADD SWAP3 POP PUSH2 0x6EC DUP3 PUSH2 0x6F6 DUP7 PUSH2 0x6DB JUMP JUMPDEST PUSH4 0x4E487B71 PUSH1 0xE0 SHL DUP5 MSTORE PUSH1 0x22 SWAP1 MSTORE PUSH1 0x24 DUP4 REVERT JUMPDEST SWAP4 PUSH1 0x7F AND SWAP4 PUSH2 0x6BB JUMP JUMPDEST POP CALLVALUE PUSH2 0x201 JUMPI DUP2 PUSH1 0x3 NOT CALLDATASIZE ADD SLT PUSH2 0x201 JUMPI SWAP1 SLOAD SWAP1 MLOAD PUSH1 0x1 PUSH1 0x1 PUSH1 0xA0 SHL SUB SWAP1 SWAP2 AND DUP2 MSTORE PUSH1 0x20 SWAP1 RETURN JUMPDEST POP CALLVALUE PUSH2 0x201 JUMPI DUP2 PUSH1 0x3 NOT CALLDATASIZE ADD SLT PUSH2 0x201 JUMPI MLOAD SWAP1 DUP2 MSTORE PUSH1 0x20 SWAP1 RETURN JUMPDEST POP CALLVALUE PUSH2 0x201 JUMPI DUP2 PUSH1 0x3 NOT CALLDATASIZE ADD SLT PUSH2 0x201 JUMPI PUSH1 0xB SLOAD SWAP1 MLOAD PUSH1 0x1 PUSH1 0x1 PUSH1 0xA0 SHL SUB SWAP1 SWAP2 AND DUP2 MSTORE PUSH1 0x20 SWAP1 RETURN JUMPDEST POP CALLVALUE PUSH2 0x201 JUMPI DUP2 PUSH1 0x3 NOT CALLDATASIZE ADD SLT PUSH2 0x201 JUMPI PUSH1 0x20 SWAP1 MLOAD PUSH4 0x3B53800 DUP2 MSTORE RETURN JUMPDEST POP CALLVALUE PUSH2 0x201 JUMPI DUP2 PUSH1 0x3 NOT CALLDATASIZE ADD SLT PUSH2 0x201 JUMPI PUSH1 0xE SLOAD SWAP1 MLOAD PUSH1 0x1 PUSH1 0x1 PUSH1 0xA0 SHL SUB SWAP1 SWAP2 AND DUP2 MSTORE PUSH1 0x20 SWAP1 RETURN JUMPDEST POP CALLVALUE PUSH2 0x201 JUMPI DUP2 PUSH1 0x3 NOT CALLDATASIZE ADD SLT PUSH2 0x201 JUMPI PUSH1 0x20 SWAP1 MLOAD PUSH1 0x4B DUP2 MSTORE RETURN JUMPDEST PUSH2 0x11EE JUMP JUMPDEST DUP3 CALLVALUE PUSH2 0x48C JUMPI DUP1 PUSH1 0x3 NOT CALLDATASIZE ADD SLT PUSH2 0x48C JUMPI PUSH2 0x87A PUSH2 0x120A JUMP JUMPDEST DUP1 SLOAD PUSH1 0x1 PUSH1 0x1 PUSH1 0xA0 SHL SUB NOT DUP2 AND DUP3 SSTORE DUP2 SWAP1 PUSH1 0x1 PUSH1 0x1 PUSH1 0xA0 SHL SUB AND PUSH32 0x8BE0079C531659141344CD1FD0A4F28419497F9722A3DAAFE3B4186F6B6457E0 DUP3 DUP1 LOG3 DUP1 RETURN JUMPDEST POP CALLVALUE PUSH2 0x201 JUMPI PUSH1 0x20 CALLDATASIZE PUSH1 0x3 NOT ADD SLT PUSH2 0x201 JUMPI PUSH1 0x20 SWAP1 PUSH2 0x8E0 PUSH2 0x8DB PUSH2 0x119B JUMP JUMPDEST PUSH2 0x1354 JUMP JUMPDEST SWAP1 MLOAD SWAP1 DUP2 MSTORE RETURN JUMPDEST POP CALLVALUE PUSH2 0x201 JUMPI DUP2 PUSH1 0x3 NOT CALLDATASIZE ADD SLT PUSH2 0x201 JUMPI PUSH1 0x20 SWAP1 MLOAD PUSH1 0x46 DUP2 MSTORE RETURN JUMPDEST POP CALLVALUE PUSH2 0x201 JUMPI DUP2 PUSH1 0x3 NOT CALLDATASIZE ADD SLT PUSH2 0x201 JUMPI PUSH1 0x20 SWAP1 MLOAD PUSH1 0x19 DUP2 MSTORE RETURN JUMPDEST DUP3 SWAP1 CALLVALUE PUSH2 0x201 JUMPI DUP3 PUSH1 0x3 NOT CALLDATASIZE ADD SLT PUSH2 0x201 JUMPI PUSH2 0x937 PUSH2 0x119B JUMP JUMPDEST PUSH1 0x24 SWAP4 DUP5 CALLDATALOAD SWAP1 CALLER DUP6 MSTORE PUSH1 0x20 SWAP3 PUSH1 0x5 DUP5 MSTORE PUSH2 0x956 PUSH1 0xFF DUP4 DUP9 KECCAK256 SLOAD AND PUSH2 0x1236 JUMP JUMPDEST PUSH1 0x1 PUSH1 0x1 PUSH1 0xA0 SHL SUB AND SWAP4 DUP5 ISZERO PUSH2 0xC19 JUMPI DUP3 ISZERO PUSH2 0xBD9 JUMPI PUSH1 0xA DUP4 MUL DUP4 DUP2 DIV PUSH1 0xA SUB PUSH2 0xBC7 JUMPI PUSH1 0x64 SWAP1 DIV SWAP3 PUSH1 0x5A DUP2 MUL SWAP1 DUP2 DIV PUSH1 0x5A SUB PUSH2 0xBC7 JUMPI PUSH1 0x64 DUP7 SWAP2 DIV SWAP4 DUP2 DUP9 MSTORE PUSH1 0x6 DUP7 MSTORE DUP4 DUP9 KECCAK256 PUSH2 0x9A8 DUP3 DUP3 SLOAD PUSH2 0x127B JUMP JUMPDEST SWAP1 SSTORE DUP4 MLOAD SWAP1 DUP2 MSTORE PUSH1 0x0 DUP1 MLOAD PUSH1 0x20 PUSH2 0x1934 DUP4 CODECOPY DUP2 MLOAD SWAP2 MSTORE DUP7 ADDRESS SWAP3 LOG3 DUP5 DUP7 MSTORE PUSH1 0x8 DUP5 MSTORE DUP2 DUP7 KECCAK256 DUP1 SLOAD SWAP1 SWAP8 SWAP1 ISZERO PUSH2 0xAED JUMPI PUSH1 0xFF PUSH1 0x6 DUP10 ADD SLOAD AND PUSH2 0xAAD JUMPI POP PUSH2 0xA3F PUSH1 0x6 DUP7 DUP10 PUSH2 0xAA5 SWAP5 DUP11 PUSH1 0x0 DUP1 MLOAD PUSH1 0x20 PUSH2 0x1954 DUP4 CODECOPY DUP2 MLOAD SWAP2 MSTORE SWAP11 SWAP12 SWAP13 SLOAD SWAP3 DUP11 PUSH2 0xA1C DUP12 PUSH2 0xA17 PUSH1 0x5 DUP6 ADD SLOAD DUP1 SWAP9 PUSH2 0x12F2 JUMP JUMPDEST PUSH2 0x127B JUMP JUMPDEST SWAP3 DUP11 PUSH1 0x1 DUP5 ADD SLOAD SWAP2 PUSH1 0x8 PUSH1 0x2 DUP7 ADD SLOAD SWAP5 DUP9 PUSH1 0x3 DUP9 ADD SLOAD SWAP8 ADD SLOAD SWAP8 DUP5 MLOAD SWAP14 DUP15 PUSH2 0x129E JUMP JUMPDEST DUP14 MSTORE DUP1 DUP14 ADD SWAP5 DUP6 MSTORE DUP4 DUP14 ADD SWAP6 DUP7 MSTORE PUSH1 0x60 DUP14 ADD SWAP7 DUP8 MSTORE PUSH1 0x80 DUP14 ADD SWAP8 DUP9 MSTORE PUSH1 0xA0 DUP14 ADD SWAP10 DUP11 MSTORE PUSH1 0xC0 DUP14 ADD SWAP11 DUP4 DUP13 MSTORE DUP4 MSTORE MSTORE KECCAK256 SWAP9 MLOAD DUP10 SSTORE MLOAD PUSH1 0x1 DUP10 ADD SSTORE MLOAD PUSH1 0x2 DUP9 ADD SSTORE MLOAD PUSH1 0x3 DUP8 ADD SSTORE MLOAD SWAP1 DUP6 ADD SSTORE MLOAD PUSH1 0x5 DUP5 ADD SSTORE MLOAD ISZERO ISZERO SWAP2 ADD SWAP1 PUSH1 0xFF DUP1 NOT DUP4 SLOAD AND SWAP2 ISZERO ISZERO AND OR SWAP1 SSTORE JUMP JUMPDEST MLOAD SWAP1 DUP2 MSTORE LOG2 DUP1 RETURN JUMPDEST PUSH1 0x1C SWAP1 DUP6 PUSH1 0x64 SWAP5 MLOAD SWAP4 PUSH3 0x461BCD PUSH1 0xE5 SHL DUP6 MSTORE DUP5 ADD MSTORE DUP3 ADD MSTORE PUSH32 0x4578697374696E67207363686564756C65206973207265766F6B656400000000 PUSH1 0x44 DUP3 ADD MSTORE REVERT JUMPDEST SWAP1 SWAP7 POP DUP6 PUSH2 0xBB6 JUMPI PUSH4 0x163F500 TIMESTAMP ADD SWAP1 DUP2 TIMESTAMP GT PUSH2 0xBA3 JUMPI POP DUP5 SWAP6 SWAP7 PUSH1 0x6 PUSH1 0x0 DUP1 MLOAD PUSH1 0x20 PUSH2 0x1954 DUP4 CODECOPY DUP2 MLOAD SWAP2 MSTORE SWAP7 PUSH2 0xB9E SWAP4 DUP6 MLOAD SWAP4 PUSH2 0xB2A DUP6 PUSH2 0x129E JUMP JUMPDEST DUP8 DUP6 MSTORE DUP9 DUP6 ADD SWAP2 TIMESTAMP DUP4 MSTORE DUP8 DUP7 ADD SWAP1 TIMESTAMP DUP3 MSTORE PUSH1 0x60 DUP8 ADD SWAP1 DUP2 MSTORE PUSH1 0x80 DUP8 ADD SWAP2 TIMESTAMP DUP4 MSTORE PUSH1 0xA0 DUP9 ADD SWAP5 PUSH1 0x0 DUP7 MSTORE PUSH1 0xC0 DUP10 ADD SWAP7 PUSH1 0x0 DUP9 MSTORE PUSH1 0x0 MSTORE PUSH1 0x8 DUP14 MSTORE DUP11 PUSH1 0x0 KECCAK256 SWAP9 MLOAD DUP10 SSTORE MLOAD PUSH1 0x1 DUP10 ADD SSTORE MLOAD PUSH1 0x2 DUP9 ADD SSTORE MLOAD PUSH1 0x3 DUP8 ADD SSTORE MLOAD SWAP1 DUP6 ADD SSTORE MLOAD PUSH1 0x5 DUP5 ADD SSTORE MLOAD ISZERO ISZERO SWAP2 ADD SWAP1 PUSH1 0xFF DUP1 NOT DUP4 SLOAD AND SWAP2 ISZERO ISZERO AND OR SWAP1 SSTORE JUMP JUMPDEST PUSH2 0xAA5 JUMP JUMPDEST PUSH4 0x4E487B71 PUSH1 0xE0 SHL PUSH1 0x0 SWAP1 DUP2 MSTORE PUSH1 0x11 DUP10 MSTORE REVERT JUMPDEST PUSH4 0x4E487B71 PUSH1 0xE0 SHL DUP7 MSTORE PUSH1 0x11 DUP8 MSTORE DUP6 REVERT JUMPDEST PUSH4 0x4E487B71 PUSH1 0xE0 SHL DUP8 MSTORE PUSH1 0x11 DUP3 MSTORE DUP8 DUP8 REVERT JUMPDEST PUSH1 0x1D DUP8 DUP6 PUSH1 0x64 SWAP5 MLOAD SWAP4 PUSH3 0x461BCD PUSH1 0xE5 SHL DUP6 MSTORE DUP5 ADD MSTORE DUP3 ADD MSTORE PUSH32 0x416D6F756E74206D7573742062652067726561746572207468616E2030000000 PUSH1 0x44 DUP3 ADD MSTORE REVERT JUMPDEST PUSH1 0x17 DUP8 DUP6 PUSH1 0x64 SWAP5 MLOAD SWAP4 PUSH3 0x461BCD PUSH1 0xE5 SHL DUP6 MSTORE DUP5 ADD MSTORE DUP3 ADD MSTORE PUSH32 0x496E76616C6964206163636F756E742061646472657373000000000000000000 PUSH1 0x44 DUP3 ADD MSTORE REVERT JUMPDEST POP CALLVALUE PUSH2 0x201 JUMPI DUP1 PUSH1 0x3 NOT CALLDATASIZE ADD SLT PUSH2 0x201 JUMPI PUSH2 0xC72 PUSH2 0x119B JUMP JUMPDEST SWAP1 PUSH1 0x24 CALLDATALOAD SWAP1 DUP2 ISZERO ISZERO DUP3 SUB PUSH2 0xCB1 JUMPI PUSH2 0xCAE SWAP3 PUSH2 0xC8C PUSH2 0x120A JUMP JUMPDEST PUSH1 0x1 DUP1 PUSH1 0xA0 SHL SUB AND DUP5 MSTORE PUSH1 0x5 PUSH1 0x20 MSTORE DUP4 KECCAK256 SWAP1 PUSH1 0xFF DUP1 NOT DUP4 SLOAD AND SWAP2 ISZERO ISZERO AND OR SWAP1 SSTORE JUMP JUMPDEST DUP1 RETURN JUMPDEST DUP4 DUP1 REVERT JUMPDEST POP CALLVALUE PUSH2 0x201 JUMPI DUP1 PUSH1 0x3 NOT CALLDATASIZE ADD SLT PUSH2 0x201 JUMPI PUSH2 0xCAE SWAP1 PUSH2 0xCE9 PUSH1 0xFF PUSH2 0xCD7 PUSH2 0x119B JUMP JUMPDEST SWAP3 CALLER DUP7 MSTORE PUSH1 0x5 PUSH1 0x20 MSTORE DUP6 KECCAK256 SLOAD AND PUSH2 0x1236 JUMP JUMPDEST PUSH1 0x24 CALLDATALOAD SWAP1 PUSH2 0x155B JUMP JUMPDEST POP CALLVALUE PUSH2 0x201 JUMPI PUSH1 0x20 CALLDATASIZE PUSH1 0x3 NOT ADD SLT PUSH2 0x201 JUMPI SWAP1 PUSH1 0xC0 SWAP2 PUSH2 0xD10 PUSH2 0x119B JUMP JUMPDEST PUSH1 0x1 DUP1 PUSH1 0xA0 SHL SUB AND DUP3 MSTORE PUSH1 0x6 PUSH1 0x20 MSTORE DUP1 DUP3 KECCAK256 SLOAD SWAP2 DUP1 SWAP2 DUP2 PUSH2 0xD37 DUP3 DUP5 PUSH1 0x8 PUSH1 0x20 MSTORE KECCAK256 PUSH2 0x12FF JUMP JUMPDEST SWAP2 DUP3 MLOAD DUP1 ISZERO ISZERO DUP1 PUSH2 0xDA5 JUMPI JUMPDEST DUP1 PUSH2 0xD98 JUMPI JUMPDEST PUSH2 0xD7D JUMPI JUMPDEST POP PUSH1 0xA0 PUSH2 0xD5B DUP4 DUP9 PUSH2 0x127B JUMP JUMPDEST SWAP4 ADD MLOAD SWAP5 DUP2 MLOAD SWAP7 DUP8 MSTORE PUSH1 0x20 DUP8 ADD MSTORE DUP6 ADD MSTORE PUSH1 0x60 DUP5 ADD MSTORE PUSH1 0x80 DUP4 ADD MSTORE PUSH1 0xA0 DUP3 ADD MSTORE RETURN JUMPDEST SWAP5 POP SWAP3 POP PUSH2 0xD8C SWAP1 POP DUP2 PUSH2 0x13C4 JUMP JUMPDEST PUSH1 0x60 DUP3 ADD MLOAD SWAP3 DUP8 PUSH2 0xD4E JUMP JUMPDEST POP DUP2 DUP5 ADD MLOAD TIMESTAMP LT ISZERO PUSH2 0xD49 JUMP JUMPDEST POP DUP8 DUP5 ADD MLOAD ISZERO PUSH2 0xD43 JUMP JUMPDEST POP CALLVALUE PUSH2 0x201 JUMPI DUP2 PUSH1 0x3 NOT CALLDATASIZE ADD SLT PUSH2 0x201 JUMPI PUSH1 0x20 SWAP1 PUSH1 0xFF PUSH1 0x3 SLOAD AND SWAP1 MLOAD SWAP1 DUP2 MSTORE RETURN JUMPDEST POP CALLVALUE PUSH2 0x201 JUMPI DUP2 PUSH1 0x3 NOT CALLDATASIZE ADD SLT PUSH2 0x201 JUMPI PUSH1 0x20 SWAP1 MLOAD PUSH1 0x5A DUP2 MSTORE RETURN JUMPDEST POP CALLVALUE PUSH2 0x201 JUMPI PUSH1 0x20 CALLDATASIZE PUSH1 0x3 NOT ADD SLT PUSH2 0x201 JUMPI PUSH1 0x20 SWAP2 PUSH1 0xFF SWAP1 DUP3 SWAP1 PUSH1 0x1 PUSH1 0x1 PUSH1 0xA0 SHL SUB PUSH2 0xE16 PUSH2 0x119B JUMP JUMPDEST AND DUP2 MSTORE PUSH1 0x5 DUP6 MSTORE KECCAK256 SLOAD AND SWAP1 MLOAD SWAP1 ISZERO ISZERO DUP2 MSTORE RETURN JUMPDEST DUP3 SWAP1 CALLVALUE PUSH2 0x201 JUMPI PUSH1 0x60 CALLDATASIZE PUSH1 0x3 NOT ADD SLT PUSH2 0x201 JUMPI PUSH2 0xE44 PUSH2 0x119B JUMP JUMPDEST PUSH1 0x1 PUSH1 0x1 PUSH1 0xA0 SHL SUB SWAP3 PUSH1 0x24 CALLDATALOAD SWAP3 SWAP1 DUP5 DUP5 AND DUP5 SUB PUSH2 0x48C JUMPI DUP6 SWAP1 PUSH1 0x44 CALLDATALOAD SWAP6 DUP5 AND DUP2 MSTORE PUSH1 0x7 PUSH1 0x20 MSTORE DUP2 DUP2 KECCAK256 CALLER DUP3 MSTORE PUSH1 0x20 MSTORE KECCAK256 SLOAD SWAP1 PUSH1 0x0 NOT DUP3 SUB PUSH2 0xE8E JUMPI JUMPDEST PUSH1 0x20 DUP7 PUSH2 0x40A DUP8 DUP8 DUP8 PUSH2 0x17A1 JUMP JUMPDEST DUP5 DUP3 LT PUSH2 0xEB7 JUMPI POP SWAP2 DUP4 SWAP2 PUSH2 0xEAC PUSH1 0x20 SWAP7 SWAP6 PUSH2 0x40A SWAP6 SUB CALLER DUP4 PUSH2 0x1471 JUMP JUMPDEST SWAP2 SWAP4 SWAP5 DUP2 SWAP4 POP PUSH2 0xE80 JUMP JUMPDEST PUSH1 0x64 SWAP1 PUSH1 0x20 DUP8 MLOAD SWAP2 PUSH3 0x461BCD PUSH1 0xE5 SHL DUP4 MSTORE DUP3 ADD MSTORE PUSH1 0x1D PUSH1 0x24 DUP3 ADD MSTORE PUSH32 0x45524332303A20696E73756666696369656E7420616C6C6F77616E6365000000 PUSH1 0x44 DUP3 ADD MSTORE REVERT JUMPDEST CALLVALUE PUSH2 0x27F JUMPI DUP3 PUSH1 0x3 NOT CALLDATASIZE ADD SLT PUSH2 0x27F JUMPI PUSH1 0x20 SWAP3 POP SLOAD SWAP1 MLOAD SWAP1 DUP2 MSTORE RETURN JUMPDEST POP CALLVALUE PUSH2 0x201 JUMPI DUP1 PUSH1 0x3 NOT CALLDATASIZE ADD SLT PUSH2 0x201 JUMPI PUSH1 0x20 SWAP1 PUSH2 0x40A PUSH2 0xF35 PUSH2 0x119B JUMP JUMPDEST PUSH1 0x24 CALLDATALOAD SWAP1 CALLER PUSH2 0x1471 JUMP JUMPDEST DUP3 SWAP1 CALLVALUE PUSH2 0x201 JUMPI DUP3 PUSH1 0x3 NOT CALLDATASIZE ADD SLT PUSH2 0x201 JUMPI PUSH2 0xF59 PUSH2 0x119B JUMP JUMPDEST PUSH1 0x24 SWAP4 DUP5 CALLDATALOAD SWAP1 CALLER DUP6 MSTORE PUSH1 0x20 SWAP3 PUSH1 0x5 DUP5 MSTORE PUSH2 0xF78 PUSH1 0xFF DUP4 DUP9 KECCAK256 SLOAD AND PUSH2 0x1236 JUMP JUMPDEST PUSH1 0x1 PUSH1 0x1 PUSH1 0xA0 SHL SUB AND SWAP4 DUP5 ISZERO PUSH2 0xC19 JUMPI DUP3 ISZERO PUSH2 0xBD9 JUMPI PUSH1 0x19 DUP4 MUL DUP4 DUP2 DIV PUSH1 0x19 SUB PUSH2 0xBC7 JUMPI PUSH1 0x64 SWAP1 DIV SWAP3 PUSH1 0x4B DUP2 MUL SWAP1 DUP2 DIV PUSH1 0x4B SUB PUSH2 0xBC7 JUMPI PUSH1 0x64 DUP7 SWAP2 DIV SWAP4 DUP2 DUP9 MSTORE PUSH1 0x6 DUP7 MSTORE DUP4 DUP9 KECCAK256 PUSH2 0xFCA DUP3 DUP3 SLOAD PUSH2 0x127B JUMP JUMPDEST SWAP1 SSTORE DUP4 MLOAD SWAP1 DUP2 MSTORE PUSH1 0x0 DUP1 MLOAD PUSH1 0x20 PUSH2 0x1934 DUP4 CODECOPY DUP2 MLOAD SWAP2 MSTORE DUP7 ADDRESS SWAP3 LOG3 DUP5 DUP7 MSTORE PUSH1 0x8 DUP5 MSTORE DUP2 DUP7 KECCAK256 DUP1 SLOAD SWAP1 SWAP8 SWAP1 ISZERO PUSH2 0x1039 JUMPI PUSH1 0xFF PUSH1 0x6 DUP10 ADD SLOAD AND PUSH2 0xAAD JUMPI POP PUSH2 0xA3F PUSH1 0x6 DUP7 DUP10 PUSH2 0xAA5 SWAP5 DUP11 PUSH1 0x0 DUP1 MLOAD PUSH1 0x20 PUSH2 0x1954 DUP4 CODECOPY DUP2 MLOAD SWAP2 MSTORE SWAP11 SWAP12 SWAP13 SLOAD SWAP3 DUP11 PUSH2 0xA1C DUP12 PUSH2 0xA17 PUSH1 0x5 DUP6 ADD SLOAD DUP1 SWAP9 PUSH2 0x12F2 JUMP JUMPDEST SWAP6 SWAP1 SWAP7 POP SWAP5 PUSH4 0x3B53800 TIMESTAMP ADD SWAP1 DUP2 TIMESTAMP GT PUSH2 0xBA3 JUMPI POP DUP5 SWAP6 SWAP7 PUSH1 0x6 PUSH1 0x0 DUP1 MLOAD PUSH1 0x20 PUSH2 0x1954 DUP4 CODECOPY DUP2 MLOAD SWAP2 MSTORE SWAP7 PUSH2 0xB9E SWAP4 DUP6 MLOAD SWAP4 PUSH2 0xB2A DUP6 PUSH2 0x129E JUMP JUMPDEST SWAP1 CALLVALUE PUSH2 0x27F JUMPI DUP3 PUSH1 0x3 NOT CALLDATASIZE ADD SLT PUSH2 0x27F JUMPI DUP1 MLOAD SWAP2 DUP4 PUSH1 0x1 DUP1 SLOAD SWAP2 DUP3 DUP3 SHR SWAP3 DUP3 DUP2 AND DUP1 ISZERO PUSH2 0x1123 JUMPI JUMPDEST PUSH1 0x20 SWAP6 DUP7 DUP7 LT DUP3 EQ PUSH2 0x775 JUMPI POP DUP5 DUP9 MSTORE SWAP1 DUP2 ISZERO PUSH2 0x753 JUMPI POP PUSH1 0x1 EQ PUSH2 0x10CB JUMPI PUSH2 0x6F6 DUP7 DUP7 PUSH2 0x6EC DUP3 DUP12 SUB DUP4 PUSH2 0x12D0 JUMP JUMPDEST SWAP3 SWAP6 POP DUP1 DUP4 MSTORE PUSH32 0xB10E2D527612073B26EECDFD717E6A320CF44B4AFAC2B0732D9FCBE2B7FA0CF6 JUMPDEST DUP3 DUP5 LT PUSH2 0x1110 JUMPI POP POP POP DUP3 PUSH2 0x6F6 SWAP5 PUSH2 0x6EC SWAP3 DUP3 ADD ADD SWAP5 DUP7 PUSH2 0x6DB JUMP JUMPDEST DUP1 SLOAD DUP7 DUP6 ADD DUP9 ADD MSTORE SWAP3 DUP7 ADD SWAP3 DUP2 ADD PUSH2 0x10F3 JUMP JUMPDEST SWAP4 PUSH1 0x7F AND SWAP4 PUSH2 0x109B JUMP JUMPDEST DUP4 SWAP1 CALLVALUE PUSH2 0x201 JUMPI DUP2 PUSH1 0x3 NOT CALLDATASIZE ADD SLT PUSH2 0x201 JUMPI PUSH1 0xD SLOAD PUSH1 0x1 PUSH1 0x1 PUSH1 0xA0 SHL SUB AND DUP2 MSTORE PUSH1 0x20 SWAP1 RETURN JUMPDEST PUSH1 0x20 DUP1 DUP3 MSTORE DUP3 MLOAD DUP2 DUP4 ADD DUP2 SWAP1 MSTORE SWAP1 SWAP4 SWAP3 PUSH1 0x0 JUMPDEST DUP3 DUP2 LT PUSH2 0x1187 JUMPI POP POP PUSH1 0x40 SWAP3 SWAP4 POP PUSH1 0x0 DUP4 DUP3 DUP5 ADD ADD MSTORE PUSH1 0x1F DUP1 NOT SWAP2 ADD AND ADD ADD SWAP1 JUMP JUMPDEST DUP2 DUP2 ADD DUP7 ADD MLOAD DUP5 DUP3 ADD PUSH1 0x40 ADD MSTORE DUP6 ADD PUSH2 0x1165 JUMP JUMPDEST PUSH1 0x4 CALLDATALOAD SWAP1 PUSH1 0x1 PUSH1 0x1 PUSH1 0xA0 SHL SUB DUP3 AND DUP3 SUB PUSH2 0x11B1 JUMPI JUMP JUMPDEST PUSH1 0x0 DUP1 REVERT JUMPDEST CALLVALUE PUSH2 0x11B1 JUMPI PUSH1 0x0 CALLDATASIZE PUSH1 0x3 NOT ADD SLT PUSH2 0x11B1 JUMPI PUSH1 0x20 PUSH1 0x40 MLOAD PUSH1 0x14 DUP2 MSTORE RETURN JUMPDEST CALLVALUE PUSH2 0x11B1 JUMPI PUSH1 0x0 CALLDATASIZE PUSH1 0x3 NOT ADD SLT PUSH2 0x11B1 JUMPI PUSH1 0x20 PUSH1 0x40 MLOAD PUSH1 0x5 DUP2 MSTORE RETURN JUMPDEST CALLVALUE PUSH2 0x11B1 JUMPI PUSH1 0x0 CALLDATASIZE PUSH1 0x3 NOT ADD SLT PUSH2 0x11B1 JUMPI PUSH1 0x20 PUSH1 0x40 MLOAD PUSH1 0xA DUP2 MSTORE RETURN JUMPDEST PUSH1 0x0 SLOAD PUSH1 0x1 PUSH1 0x1 PUSH1 0xA0 SHL SUB AND CALLER SUB PUSH2 0x121E JUMPI JUMP JUMPDEST PUSH1 0x40 MLOAD PUSH4 0x118CDAA7 PUSH1 0xE0 SHL DUP2 MSTORE CALLER PUSH1 0x4 DUP3 ADD MSTORE PUSH1 0x24 SWAP1 REVERT JUMPDEST ISZERO PUSH2 0x123D JUMPI JUMP JUMPDEST PUSH1 0x40 MLOAD PUSH3 0x461BCD PUSH1 0xE5 SHL DUP2 MSTORE PUSH1 0x20 PUSH1 0x4 DUP3 ADD MSTORE PUSH1 0x16 PUSH1 0x24 DUP3 ADD MSTORE PUSH22 0x31B0B63632B91034B9903737BA1030B71030B236B4B7 PUSH1 0x51 SHL PUSH1 0x44 DUP3 ADD MSTORE PUSH1 0x64 SWAP1 REVERT JUMPDEST SWAP2 SWAP1 DUP3 ADD DUP1 SWAP3 GT PUSH2 0x1288 JUMPI JUMP JUMPDEST PUSH4 0x4E487B71 PUSH1 0xE0 SHL PUSH1 0x0 MSTORE PUSH1 0x11 PUSH1 0x4 MSTORE PUSH1 0x24 PUSH1 0x0 REVERT JUMPDEST PUSH1 0xE0 DUP2 ADD SWAP1 DUP2 LT PUSH8 0xFFFFFFFFFFFFFFFF DUP3 GT OR PUSH2 0x12BA JUMPI PUSH1 0x40 MSTORE JUMP JUMPDEST PUSH4 0x4E487B71 PUSH1 0xE0 SHL PUSH1 0x0 MSTORE PUSH1 0x41 PUSH1 0x4 MSTORE PUSH1 0x24 PUSH1 0x0 REVERT JUMPDEST SWAP1 PUSH1 0x1F DUP1 NOT SWAP2 ADD AND DUP2 ADD SWAP1 DUP2 LT PUSH8 0xFFFFFFFFFFFFFFFF DUP3 GT OR PUSH2 0x12BA JUMPI PUSH1 0x40 MSTORE JUMP JUMPDEST SWAP2 SWAP1 DUP3 SUB SWAP2 DUP3 GT PUSH2 0x1288 JUMPI JUMP JUMPDEST SWAP1 PUSH1 0x40 MLOAD PUSH2 0x130C DUP2 PUSH2 0x129E JUMP JUMPDEST PUSH1 0xC0 PUSH1 0xFF PUSH1 0x6 DUP4 SWAP6 DUP1 SLOAD DUP6 MSTORE PUSH1 0x1 DUP2 ADD SLOAD PUSH1 0x20 DUP7 ADD MSTORE PUSH1 0x2 DUP2 ADD SLOAD PUSH1 0x40 DUP7 ADD MSTORE PUSH1 0x3 DUP2 ADD SLOAD PUSH1 0x60 DUP7 ADD MSTORE PUSH1 0x4 DUP2 ADD SLOAD PUSH1 0x80 DUP7 ADD MSTORE PUSH1 0x5 DUP2 ADD SLOAD PUSH1 0xA0 DUP7 ADD MSTORE ADD SLOAD AND ISZERO ISZERO SWAP2 ADD MSTORE JUMP JUMPDEST PUSH1 0x1 DUP1 PUSH1 0xA0 SHL SUB AND PUSH1 0x0 MSTORE PUSH1 0x6 PUSH1 0x20 MSTORE PUSH1 0x40 PUSH1 0x0 KECCAK256 SLOAD PUSH1 0x8 PUSH1 0x20 MSTORE PUSH2 0x137C PUSH1 0x40 PUSH1 0x0 KECCAK256 PUSH2 0x12FF JUMP JUMPDEST DUP1 MLOAD ISZERO ISZERO DUP1 PUSH2 0x13B8 JUMPI JUMPDEST DUP1 PUSH2 0x13AA JUMPI JUMPDEST PUSH2 0x1394 JUMPI POP SWAP1 JUMP JUMPDEST SWAP1 PUSH2 0x13A1 PUSH2 0x13A7 SWAP3 PUSH2 0x13C4 JUMP JUMPDEST SWAP1 PUSH2 0x127B JUMP JUMPDEST SWAP1 JUMP JUMPDEST POP PUSH1 0x40 DUP2 ADD MLOAD TIMESTAMP LT ISZERO PUSH2 0x138C JUMP JUMPDEST POP PUSH1 0xC0 DUP2 ADD MLOAD ISZERO PUSH2 0x1386 JUMP JUMPDEST PUSH1 0x40 DUP2 ADD MLOAD TIMESTAMP LT PUSH2 0x146B JUMPI PUSH1 0x60 DUP2 ADD DUP1 MLOAD TIMESTAMP LT ISZERO PUSH2 0x1459 JUMPI PUSH2 0x13F8 PUSH1 0x20 DUP4 ADD PUSH2 0x13EE DUP2 MLOAD TIMESTAMP PUSH2 0x12F2 JUMP JUMPDEST SWAP3 MLOAD SWAP1 MLOAD SWAP1 PUSH2 0x12F2 JUMP JUMPDEST SWAP1 DUP3 MLOAD DUP2 DUP2 MUL SWAP2 DUP2 DUP4 DIV EQ SWAP1 ISZERO OR ISZERO PUSH2 0x1288 JUMPI DUP2 ISZERO PUSH2 0x1443 JUMPI DIV DUP2 MLOAD DUP1 DUP3 GT PUSH2 0x143B JUMPI JUMPDEST POP PUSH1 0xA0 PUSH1 0x0 SWAP3 ADD MLOAD SWAP1 DUP2 DUP2 GT PUSH2 0x1431 JUMPI POP POP SWAP1 JUMP JUMPDEST PUSH2 0x13A7 SWAP3 POP PUSH2 0x12F2 JUMP JUMPDEST SWAP1 POP CODESIZE PUSH2 0x141C JUMP JUMPDEST PUSH4 0x4E487B71 PUSH1 0xE0 SHL PUSH1 0x0 MSTORE PUSH1 0x12 PUSH1 0x4 MSTORE PUSH1 0x24 PUSH1 0x0 REVERT JUMPDEST POP DUP1 PUSH1 0xA0 PUSH2 0x13A7 SWAP3 MLOAD SWAP2 ADD MLOAD SWAP1 PUSH2 0x12F2 JUMP JUMPDEST POP PUSH1 0x0 SWAP1 JUMP JUMPDEST PUSH1 0x1 PUSH1 0x1 PUSH1 0xA0 SHL SUB SWAP1 DUP2 AND SWAP2 DUP3 ISZERO PUSH2 0x1517 JUMPI AND SWAP2 DUP3 ISZERO PUSH2 0x14D2 JUMPI PUSH1 0x20 PUSH32 0x8C5BE1E5EBEC7D5BD14F71427D1E84F3DD0314C0F7B2291E5B200AC8C7C3B925 SWAP2 DUP4 PUSH1 0x0 MSTORE PUSH1 0x7 DUP3 MSTORE PUSH1 0x40 PUSH1 0x0 KECCAK256 DUP6 PUSH1 0x0 MSTORE DUP3 MSTORE DUP1 PUSH1 0x40 PUSH1 0x0 KECCAK256 SSTORE PUSH1 0x40 MLOAD SWAP1 DUP2 MSTORE LOG3 JUMP JUMPDEST PUSH1 0x40 MLOAD PUSH3 0x461BCD PUSH1 0xE5 SHL DUP2 MSTORE PUSH1 0x20 PUSH1 0x4 DUP3 ADD MSTORE PUSH1 0x1E PUSH1 0x24 DUP3 ADD MSTORE PUSH32 0x45524332303A20617070726F766520746F207A65726F20616464726573730000 PUSH1 0x44 DUP3 ADD MSTORE PUSH1 0x64 SWAP1 REVERT JUMPDEST PUSH1 0x64 PUSH1 0x40 MLOAD PUSH3 0x461BCD PUSH1 0xE5 SHL DUP2 MSTORE PUSH1 0x20 PUSH1 0x4 DUP3 ADD MSTORE PUSH1 0x20 PUSH1 0x24 DUP3 ADD MSTORE PUSH32 0x45524332303A20617070726F76652066726F6D207A65726F2061646472657373 PUSH1 0x44 DUP3 ADD MSTORE REVERT JUMPDEST PUSH1 0x1 PUSH1 0x1 PUSH1 0xA0 SHL SUB AND SWAP1 DUP2 ISZERO PUSH2 0x1599 JUMPI PUSH1 0x0 DUP1 MLOAD PUSH1 0x20 PUSH2 0x1934 DUP4 CODECOPY DUP2 MLOAD SWAP2 MSTORE PUSH1 0x20 PUSH1 0x0 SWAP3 DUP5 DUP5 MSTORE PUSH1 0x6 DUP3 MSTORE PUSH1 0x40 DUP5 KECCAK256 DUP2 DUP2 SLOAD ADD SWAP1 SSTORE PUSH1 0x40 MLOAD SWAP1 DUP2 MSTORE LOG3 JUMP JUMPDEST PUSH1 0x40 MLOAD PUSH3 0x461BCD PUSH1 0xE5 SHL DUP2 MSTORE PUSH1 0x20 PUSH1 0x4 DUP3 ADD MSTORE PUSH1 0x1F PUSH1 0x24 DUP3 ADD MSTORE PUSH32 0x45524332303A206D696E7420746F20746865207A65726F206164647265737300 PUSH1 0x44 DUP3 ADD MSTORE PUSH1 0x64 SWAP1 REVERT JUMPDEST PUSH1 0x1 DUP1 PUSH1 0xA0 SHL SUB DUP2 AND SWAP1 PUSH1 0x0 SWAP1 DUP3 DUP3 MSTORE PUSH1 0x20 SWAP2 PUSH1 0x8 DUP4 MSTORE PUSH1 0x40 SWAP2 DUP3 DUP3 KECCAK256 SWAP1 PUSH1 0xFF PUSH1 0x6 DUP4 ADD SLOAD AND PUSH2 0x176B JUMPI PUSH1 0x2 DUP3 ADD SLOAD TIMESTAMP LT PUSH2 0x172E JUMPI DUP7 PUSH2 0x1625 PUSH2 0x1620 DUP5 PUSH2 0x12FF JUMP JUMPDEST PUSH2 0x13C4 JUMP JUMPDEST LT PUSH2 0x16EA JUMPI SWAP2 DUP5 DUP3 PUSH32 0x5952E800DE5564AFF4CC315E219327CF6D706CBBA481D1613C32F4B1AA17DCDD SWAP7 SWAP6 SWAP5 PUSH2 0x166D DUP11 PUSH1 0x5 DUP12 SWAP8 ADD SWAP3 PUSH2 0x1666 DUP3 DUP6 SLOAD PUSH2 0x127B JUMP JUMPDEST DUP5 SSTORE PUSH2 0x155B JUMP JUMPDEST TIMESTAMP PUSH1 0x4 DUP4 ADD SSTORE SLOAD DUP2 SLOAD GT ISZERO PUSH2 0x1689 JUMPI JUMPDEST POP POP POP POP MLOAD DUP5 DUP2 MSTORE LOG2 SWAP1 JUMP JUMPDEST DUP3 DUP5 PUSH32 0xC6CFDB244E262CC2D7DA34A1F8D576A0B4BCEB631AC57EA5858A7BED7255279F SWAP5 MSTORE PUSH1 0x8 DUP4 MSTORE PUSH1 0x6 DUP7 DUP3 KECCAK256 DUP3 DUP2 SSTORE DUP3 PUSH1 0x1 DUP3 ADD SSTORE DUP3 PUSH1 0x2 DUP3 ADD SSTORE DUP3 PUSH1 0x3 DUP3 ADD SSTORE DUP3 PUSH1 0x4 DUP3 ADD SSTORE DUP3 PUSH1 0x5 DUP3 ADD SSTORE ADD SSTORE SLOAD DUP5 MLOAD SWAP1 DUP2 MSTORE LOG2 DUP4 CODESIZE DUP4 DUP2 PUSH2 0x167D JUMP JUMPDEST DUP4 MLOAD PUSH3 0x461BCD PUSH1 0xE5 SHL DUP2 MSTORE PUSH1 0x4 DUP2 ADD DUP7 SWAP1 MSTORE PUSH1 0x1A PUSH1 0x24 DUP3 ADD MSTORE PUSH32 0x496E73756666696369656E742076657374656420746F6B656E73000000000000 PUSH1 0x44 DUP3 ADD MSTORE PUSH1 0x64 SWAP1 REVERT JUMPDEST DUP4 MLOAD PUSH3 0x461BCD PUSH1 0xE5 SHL DUP2 MSTORE PUSH1 0x4 DUP2 ADD DUP7 SWAP1 MSTORE PUSH1 0x16 PUSH1 0x24 DUP3 ADD MSTORE PUSH22 0x10DB1A5999881C195C9A5BD9081B9BDD08195B991959 PUSH1 0x52 SHL PUSH1 0x44 DUP3 ADD MSTORE PUSH1 0x64 SWAP1 REVERT JUMPDEST DUP4 MLOAD PUSH3 0x461BCD PUSH1 0xE5 SHL DUP2 MSTORE PUSH1 0x4 DUP2 ADD DUP7 SWAP1 MSTORE PUSH1 0xF PUSH1 0x24 DUP3 ADD MSTORE PUSH15 0x15995CDD1A5B99C81C995D9BDAD959 PUSH1 0x8A SHL PUSH1 0x44 DUP3 ADD MSTORE PUSH1 0x64 SWAP1 REVERT JUMPDEST SWAP2 PUSH1 0x1 PUSH1 0x1 PUSH1 0xA0 SHL SUB DUP1 DUP5 AND SWAP3 DUP4 ISZERO PUSH2 0x18E0 JUMPI AND SWAP3 DUP4 ISZERO PUSH2 0x188F JUMPI PUSH1 0x0 DUP4 DUP2 MSTORE PUSH1 0x6 PUSH1 0x20 MSTORE PUSH1 0x40 SWAP2 DUP3 DUP3 KECCAK256 SLOAD SWAP1 DUP5 PUSH2 0x17D8 DUP3 PUSH2 0x1354 JUMP JUMPDEST LT PUSH2 0x183C JUMPI SWAP3 DUP5 SWAP3 DUP4 DUP4 PUSH1 0x20 SWAP7 PUSH1 0x0 DUP1 MLOAD PUSH1 0x20 PUSH2 0x1934 DUP4 CODECOPY DUP2 MLOAD SWAP2 MSTORE SWAP9 DUP6 SWAP7 LT PUSH2 0x181B JUMPI JUMPDEST POP DUP9 DUP4 MSTORE PUSH1 0x6 DUP8 MSTORE SUB DUP3 DUP3 KECCAK256 SSTORE DUP8 DUP2 MSTORE KECCAK256 DUP3 DUP2 SLOAD ADD SWAP1 SSTORE MLOAD SWAP1 DUP2 MSTORE LOG3 JUMP JUMPDEST SWAP1 PUSH2 0x534 SWAP1 PUSH2 0x1829 SWAP4 PUSH2 0x12F2 JUMP JUMPDEST POP DUP7 DUP2 MSTORE PUSH1 0x6 DUP6 MSTORE DUP4 DUP3 DUP3 KECCAK256 SLOAD CODESIZE PUSH2 0x17FD JUMP JUMPDEST DUP4 MLOAD PUSH3 0x461BCD PUSH1 0xE5 SHL DUP2 MSTORE PUSH1 0x20 PUSH1 0x4 DUP3 ADD MSTORE PUSH1 0x26 PUSH1 0x24 DUP3 ADD MSTORE PUSH32 0x45524332303A207472616E7366657220616D6F756E7420657863656564732062 PUSH1 0x44 DUP3 ADD MSTORE PUSH6 0x616C616E6365 PUSH1 0xD0 SHL PUSH1 0x64 DUP3 ADD MSTORE PUSH1 0x84 SWAP1 REVERT JUMPDEST PUSH1 0x40 MLOAD PUSH3 0x461BCD PUSH1 0xE5 SHL DUP2 MSTORE PUSH1 0x20 PUSH1 0x4 DUP3 ADD MSTORE PUSH1 0x23 PUSH1 0x24 DUP3 ADD MSTORE PUSH32 0x45524332303A207472616E7366657220746F20746865207A65726F2061646472 PUSH1 0x44 DUP3 ADD MSTORE PUSH3 0x657373 PUSH1 0xE8 SHL PUSH1 0x64 DUP3 ADD MSTORE PUSH1 0x84 SWAP1 REVERT JUMPDEST PUSH1 0x40 MLOAD PUSH3 0x461BCD PUSH1 0xE5 SHL DUP2 MSTORE PUSH1 0x20 PUSH1 0x4 DUP3 ADD MSTORE PUSH1 0x25 PUSH1 0x24 DUP3 ADD MSTORE PUSH32 0x45524332303A207472616E736665722066726F6D20746865207A65726F206164 PUSH1 0x44 DUP3 ADD MSTORE PUSH5 0x6472657373 PUSH1 0xD8 SHL PUSH1 0x64 DUP3 ADD MSTORE PUSH1 0x84 SWAP1 REVERT INVALID 0xDD CALLCODE MSTORE 0xAD SHL 0xE2 0xC8 SWAP12 PUSH10 0xC2B068FC378DAA952BA7 CALL PUSH4 0xC4A11628 CREATE2 GAS 0x4D CREATE2 0x23 0xB3 0xEF 0xD4 PUSH10 0x1CC79B8FC72AAC1E8C0D ISZERO LOG2 0xCA MOD 0xD7 BYTE CODESIZE PUSH13 0x983F815266F0FCE713DC5EA7A2 PUSH5 0x6970667358 0x22 SLT KECCAK256 PUSH10 0xAC83C00EDD3871532CA4 0xB1 DUP9 0xB0 0xC7 0xE XOR 0xBA CREATE2 SLT 0xDE 0x22 0xAD 0xDA RETURN 0xD2 MSTORE8 JUMPI 0x2B 0xC0 RETURN 0xE5 PUSH5 0x736F6C6343 STOP ADDMOD EQ STOP CALLER "},"methodIdentifiers":{"BASE_BURN_RATE()":"ff458f77","BONDING_CURVE_PERCENT()":"6f293d59","BONDING_UNLOCK_PERCENT()":"771a4bfd","BONDING_VESTING_PERCENT()":"2f05edba","BONDING_VESTING_TIMES()":"fe0af304","CLIFF_PERIOD()":"8cad856f","CREATOR_PERCENT()":"b0468185","CREATOR_UNLOCK_PERCENT()":"4e11b01f","CREATOR_VESTING_PERCENT()":"7a9e361c","CREATOR_VESTING_TIMES()":"83042cd2","FEE_DENOMINATOR()":"d73792a9","LIQUIDITY_PERCENT()":"3ccfbabf","MIN_FEE()":"76c7a3c7","STAKING_REWARD_PERCENT()":"3fd35853","approve(address,uint256)":"095ea7b3","balanceOf(address)":"70a08231","bondingWallet()":"8b927075","burn(address,uint256)":"9dc29fac","createVestingScheduleForBuyer(address,uint256)":"4c420c3b","createVestingScheduleForCreator(address,uint256)":"0808976d","creatorWallet()":"7cdc65f2","dailySellAmount(address)":"dfa728b3","decimals()":"313ce567","getDetailsAccount(address)":"3a8d0097","isAdmin(address)":"24d7806c","lastSellTime(address)":"b44b4b80","liquidityWallet()":"d4698016","mint(address,uint256)":"40c10f19","name()":"06fdde03","owner()":"8da5cb5b","renounceOwnership()":"715018a6","setAdmin(address,bool)":"4b0bddd2","stakingWallet()":"06ee6ad8","symbol()":"95d89b41","totalSupply()":"18160ddd","transfer(address,uint256)":"a9059cbb","transferFrom(address,address,uint256)":"23b872dd","transferOwnership(address)":"f2fde38b","vestingDetails(address)":"996b2759","vestingSchedules(address)":"fdb20ccb"}}}}}