{"contracts/BondingCurve.sol":{"BondingCurve":{"abi":[{"inputs":[{"internalType":"address","name":"_token","type":"address"},{"internalType":"address","name":"initialOwner","type":"address"},{"internalType":"uint256","name":"initSupply","type":"uint256"}],"stateMutability":"nonpayable","type":"constructor"},{"inputs":[{"internalType":"address","name":"owner","type":"address"}],"name":"OwnableInvalidOwner","type":"error"},{"inputs":[{"internalType":"address","name":"account","type":"address"}],"name":"OwnableUnauthorizedAccount","type":"error"},{"inputs":[],"name":"ReentrancyGuardReentrantCall","type":"error"},{"anonymous":false,"inputs":[{"indexed":true,"internalType":"address","name":"previousOwner","type":"address"},{"indexed":true,"internalType":"address","name":"newOwner","type":"address"}],"name":"OwnershipTransferred","type":"event"},{"anonymous":false,"inputs":[{"indexed":true,"internalType":"address","name":"buyer","type":"address"},{"indexed":false,"internalType":"uint256","name":"ethAmount","type":"uint256"},{"indexed":false,"internalType":"uint256","name":"tokenAmount","type":"uint256"},{"indexed":false,"internalType":"uint256","name":"timestamp","type":"uint256"}],"name":"TokensPurchased","type":"event"},{"anonymous":false,"inputs":[{"indexed":true,"internalType":"address","name":"seller","type":"address"},{"indexed":false,"internalType":"uint256","name":"tokenAmount","type":"uint256"},{"indexed":false,"internalType":"uint256","name":"ethAmount","type":"uint256"},{"indexed":false,"internalType":"uint256","name":"timestamp","type":"uint256"}],"name":"TokensSold","type":"event"},{"anonymous":false,"inputs":[{"indexed":true,"internalType":"address","name":"trader","type":"address"},{"indexed":false,"internalType":"uint256","name":"amount","type":"uint256"},{"indexed":false,"internalType":"uint256","name":"price","type":"uint256"},{"indexed":false,"internalType":"uint256","name":"timestamp","type":"uint256"}],"name":"Trade","type":"event"},{"stateMutability":"payable","type":"fallback"},{"inputs":[],"name":"BONDING_TARGET","outputs":[{"internalType":"uint256","name":"","type":"uint256"}],"stateMutability":"view","type":"function"},{"inputs":[],"name":"BURN_PERCENT","outputs":[{"internalType":"uint256","name":"","type":"uint256"}],"stateMutability":"view","type":"function"},{"inputs":[],"name":"DENOMINATOR","outputs":[{"internalType":"uint256","name":"","type":"uint256"}],"stateMutability":"view","type":"function"},{"inputs":[],"name":"FEE_PERCENT","outputs":[{"internalType":"uint256","name":"","type":"uint256"}],"stateMutability":"view","type":"function"},{"inputs":[],"name":"INITIAL_PRICE","outputs":[{"internalType":"uint256","name":"","type":"uint256"}],"stateMutability":"view","type":"function"},{"inputs":[],"name":"MAX_BUY_AMOUNT","outputs":[{"internalType":"uint256","name":"","type":"uint256"}],"stateMutability":"view","type":"function"},{"inputs":[],"name":"MAX_SELL_AMOUNT","outputs":[{"internalType":"uint256","name":"","type":"uint256"}],"stateMutability":"view","type":"function"},{"inputs":[],"name":"MAX_SUPPLY","outputs":[{"internalType":"uint256","name":"","type":"uint256"}],"stateMutability":"view","type":"function"},{"inputs":[],"name":"PRICE_DENOMINATOR","outputs":[{"internalType":"uint256","name":"","type":"uint256"}],"stateMutability":"view","type":"function"},{"inputs":[],"name":"SLOPE","outputs":[{"internalType":"uint256","name":"","type":"uint256"}],"stateMutability":"view","type":"function"},{"inputs":[],"name":"TRADE_COOLDOWN","outputs":[{"internalType":"uint256","name":"","type":"uint256"}],"stateMutability":"view","type":"function"},{"inputs":[],"name":"agentToken","outputs":[{"internalType":"contract AiAgentToken","name":"","type":"address"}],"stateMutability":"view","type":"function"},{"inputs":[],"name":"buyTokens","outputs":[],"stateMutability":"payable","type":"function"},{"inputs":[{"internalType":"uint256","name":"_ethAmount","type":"uint256"}],"name":"calculatePurchaseReturn","outputs":[{"internalType":"uint256","name":"","type":"uint256"}],"stateMutability":"view","type":"function"},{"inputs":[{"internalType":"uint256","name":"tokenAmount","type":"uint256"}],"name":"calculateSaleReturn","outputs":[{"internalType":"uint256","name":"","type":"uint256"}],"stateMutability":"view","type":"function"},{"inputs":[{"internalType":"address","name":"buyer","type":"address"},{"internalType":"uint256","name":"ethValue","type":"uint256"},{"internalType":"uint256","name":"tokenAmount","type":"uint256"}],"name":"creatorBuyEvent","outputs":[],"stateMutability":"nonpayable","type":"function"},{"inputs":[],"name":"getBuyPrice","outputs":[{"internalType":"uint256","name":"","type":"uint256"}],"stateMutability":"view","type":"function"},{"inputs":[],"name":"getCurrentPrice","outputs":[{"internalType":"uint256","name":"","type":"uint256"}],"stateMutability":"view","type":"function"},{"inputs":[{"internalType":"uint256","name":"tokenAmount","type":"uint256"}],"name":"getETHForTokens","outputs":[{"internalType":"uint256","name":"","type":"uint256"}],"stateMutability":"view","type":"function"},{"inputs":[],"name":"getRaisedAmount","outputs":[{"internalType":"uint256","name":"","type":"uint256"}],"stateMutability":"view","type":"function"},{"inputs":[],"name":"getSellPrice","outputs":[{"internalType":"uint256","name":"","type":"uint256"}],"stateMutability":"view","type":"function"},{"inputs":[{"internalType":"uint256","name":"_ethAmount","type":"uint256"}],"name":"getTokensForETH","outputs":[{"internalType":"uint256","name":"","type":"uint256"}],"stateMutability":"view","type":"function"},{"inputs":[],"name":"getTotalSoldAmount","outputs":[{"internalType":"uint256","name":"","type":"uint256"}],"stateMutability":"view","type":"function"},{"inputs":[{"internalType":"uint256","name":"amout","type":"uint256"}],"name":"increaseTotalSold","outputs":[],"stateMutability":"nonpayable","type":"function"},{"inputs":[{"internalType":"address","name":"","type":"address"}],"name":"lastTradeTime","outputs":[{"internalType":"uint256","name":"","type":"uint256"}],"stateMutability":"view","type":"function"},{"inputs":[],"name":"owner","outputs":[{"internalType":"address","name":"","type":"address"}],"stateMutability":"view","type":"function"},{"inputs":[],"name":"renounceOwnership","outputs":[],"stateMutability":"nonpayable","type":"function"},{"inputs":[{"internalType":"uint256","name":"tokenAmount","type":"uint256"}],"name":"sellTokens","outputs":[],"stateMutability":"nonpayable","type":"function"},{"inputs":[],"name":"totalSoldAmount","outputs":[{"internalType":"uint256","name":"","type":"uint256"}],"stateMutability":"view","type":"function"},{"inputs":[{"internalType":"address","name":"newOwner","type":"address"}],"name":"transferOwnership","outputs":[],"stateMutability":"nonpayable","type":"function"},{"stateMutability":"payable","type":"receive"}],"evm":{"bytecode":{"linkReferences":{},"object":"60806040818152346200027a57606082620012548038038091620000248285620002b1565b8339810103126200027a576200003a82620002d5565b916020826200004b828401620002d5565b920151936001600160a01b0392831680156200026257600080546001600160a01b0319808216841783558751929692949093909183167f8be0079c531659141344cd1fd0a4f28419497f9722a3daafe3b4186f6b6457e08880a3600180556001600755169182156200022057506002541617600255629896809384600455600355825193620000da856200027f565b600d85526c494e495449414c5f505249434560981b828601528351918083019284632d839cb360e21b9384865287602484015288519889606485015284835b8b8110620002075750505082620001578392601f9560849c8d92868483850101526044830152871997889101168101036064810184520182620002b1565b516a636f6e736f6c652e6c6f6796875afa50618205806005558651906200017e826200027f565b6005825264534c4f504560d81b84830152875193808501958652886024860152825192836064870152885b848110620001f357505050620001e092601f8386938a8d819d9e9787010152604485015201168101036064810184520182620002b1565b51915afa5051610f699081620002eb8239f35b8181018301518782018d01528201620001a9565b8281018201518682016084015289945086910162000119565b62461bcd60e51b815260048101849052601560248201527f496e76616c696420746f6b656e206164647265737300000000000000000000006044820152606490fd5b8451631e4fbdf760e01b815260006004820152602490fd5b600080fd5b604081019081106001600160401b038211176200029b57604052565b634e487b7160e01b600052604160045260246000fd5b601f909101601f19168101906001600160401b038211908210176200029b57604052565b51906001600160a01b03821682036200027a5756fe6040608081526004908136101561001d575b5050361561001b57005b005b600091823560e01c8063018a25e814610c8e57806303186eef14610c56578063031c439d14610c32578063322d2100146105d757806332cb6b0c14610c135780633f8a32a914610be557806343d32e9c14610bc8578063617d79401461062357806366cb3a4214610b8357806369fcd4ac14610b835780636c11bcd3146107765780636c1516e114610753578063715018a6146106f95780637bfe170d146106de5780637c5e2795146106c157806388d9f5ea146102eb5780638b7cc629146106a25780638da5cb5b1461067a5780638e75e4821461065f578063918f867414610642578063933bdb90146106235780639c9867641461022f578063b05707e9146105fa578063b5e19d23146105d7578063d0febe4c146102f0578063db0e1bdf146102eb578063e371d01b14610234578063eaf98d231461022f578063eb91d37e146102075763f2fde38b146101745750610011565b346102035760203660031901126102035761018d610cab565b90610196610d04565b6001600160a01b039182169283156101ed575050600054826bffffffffffffffffffffffff60a01b821617600055167f8be0079c531659141344cd1fd0a4f28419497f9722a3daafe3b4186f6b6457e0600080a380f35b51631e4fbdf760e01b8152908101849052602490fd5b8280fd5b50503461022b578160031936011261022b57602090610224610d66565b9051908152f35b5080fd5b610ce8565b50503461022b57606036600319011261022b577f150edd20b748bc680273d4bc59d5659c3229edf2f102c013595b9b3238e15886610270610cab565b6024356102e560443592610282610d04565b8551838152602081018590524260408201526001600160a01b0391909116959086907f0d1a0d5e3d583a0e92588799dd06e50fd78c07daf05f0cc06d7b848b1ca445f190606090a251928352602083019190915242604083015281906060820190565b0390a280f35b610cc1565b50908260031936011261020357610305610f10565b34156105a457338352600660205280832054836105915761032890421015610e8d565b61033134610e40565b916b033b2e3c9fd0803ce8000000831161055d5761035183600754610d59565b6003541061051b57600a8302838104600a1484151715610506576103e890049061037b8285610db7565b6002546001600160a01b0391908216803b15610501578551634c420c3b60e01b815233858201908152602081019390935291600091839182908490829060400103925af180156104f6576104de575b50908592916103db86600754610d59565b6007556002541691823b156104da578451632770a7eb60e21b815233928101928352602083019190915291839183919082908490829060400103925af180156104d0576104bc575b50507f150edd20b748bc680273d4bc59d5659c3229edf2f102c013595b9b3238e15886903384526006602052428185205580517f0d1a0d5e3d583a0e92588799dd06e50fd78c07daf05f0cc06d7b848b1ca445f1339180610497428834846040919493926060820195825260208201520152565b0390a251918252346020830152426040830152339180606081015b0390a26001805580f35b6104c590610ec4565b610203578238610423565b83513d84823e3d90fd5b8380fd5b6104eb9193929650610ec4565b6000949091386103ca565b85513d6000823e3d90fd5b600080fd5b601182634e487b7160e01b6000525260246000fd5b6020606492519162461bcd60e51b8352820152601860248201527f4578636565647320617661696c61626c6520737570706c7900000000000000006044820152fd5b6020606492519162461bcd60e51b8352820152600f60248201526e45786365656473206d61782062757960881b6044820152fd5b634e487b7160e01b845260118352602484fd5b906020606492519162461bcd60e51b8352820152600d60248201526c09aeae6e840e6cadcc8408aa89609b1b6044820152fd5b5091346105f75760203660031901126105f7575061022460209235610e40565b80fd5b50503461022b578160031936011261022b5760025490516001600160a01b039091168152602090f35b50503461022b578160031936011261022b576020906007549051908152f35b50503461022b578160031936011261022b57602090516103e88152f35b50503461022b578160031936011261022b5751478152602090f35b50503461022b578160031936011261022b57905490516001600160a01b039091168152602090f35b50503461022b578160031936011261022b576020906005549051908152f35b503461020357826003193601126102035760209250549051908152f35b50503461022b578160031936011261022b5751908152602090f35b83346105f757806003193601126105f757610712610d04565b600080546001600160a01b0319811682556001600160a01b03167f8be0079c531659141344cd1fd0a4f28419497f9722a3daafe3b4186f6b6457e08280a380f35b50503461022b578160031936011261022b5760209051670de0b6b3a76400008152f35b50903461020357602090816003193601126104da57823591610796610f10565b8215610b4c5760025482516370a0823160e01b815233818701526001600160a01b039182169591602491848184818b5afa908115610b42579087918a91610b0d575b5010610ad5576b033b2e3c9fd0803ce80000008611610aa1573388526006845261080785892054421015610e8d565b670de0b6b3a764000061082c61081b610dc4565b610826811515610e04565b88610d30565b0496874710610a5f57600a8702878104600a03610a4b576103e89004916108538389610db7565b91803b15610501578751632770a7eb60e21b80825233888301908152602081019590955293909160009183919082908490829060400103925af18015610a4057610a28575b50908992916002541691823b156104da5787519182523386830190815260208101919091529091839183919082908490829060400103925af18015610a1e57610a06575b5080808089335af13d15610a01573d67ffffffffffffffff81116109ef57855190610910601f8201601f1916870183610eee565b815288853d92013e5b156109b9575050916104b29160067f150edd20b748bc680273d4bc59d5659c3229edf2f102c013595b9b3238e158869433885252428187205561095e82600754610db7565b60075580518281526020810186905242604082015233907f6db63bebf1e6540277744df32846ebdb98385b1a73f2d5de49b28348add63f5090606090a251908152602081019390935242604084015233929081906060820190565b60139192606494519362461bcd60e51b855284015282015272115512081d1c985b9cd9995c8819985a5b1959606a1b6044820152fd5b634e487b7160e01b8952604184528289fd5b610919565b610a0f90610ec4565b610a1a5786386108dc565b8680fd5b86513d84823e3d90fd5b610a359193929a50610ec4565b600098909138610898565b88513d6000823e3d90fd5b83601186634e487b7160e01b600052526000fd5b855162461bcd60e51b8152808501869052601d818501527f496e73756666696369656e7420636f6e74726163742062616c616e63650000006044820152606490fd5b5060109192606494519362461bcd60e51b85528401528201526f115e18d959591cc81b585e081cd95b1b60821b6044820152fd5b5060149192606494519362461bcd60e51b855284015282015273496e73756666696369656e742062616c616e636560601b6044820152fd5b809250868092503d8311610b3b575b610b268183610eee565b81010312610b3757869051386107d8565b8880fd5b503d610b1c565b86513d8b823e3d90fd5b8390606492519162461bcd60e51b835282015260126024820152710416d6f756e74206d757374206265203e20360741b6044820152fd5b5091346105f75760203660031901126105f75750670de0b6b3a7640000610bc0602093610bae610dc4565b90610bba821515610e04565b35610d30565b049051908152f35b50503461022b578160031936011261022b57602090610224610dc4565b83823461022b57602036600319011261022b57610c0d90610c04610d04565b35600754610d59565b60075580f35b50503461022b578160031936011261022b576020906003549051908152f35b50503461022b578160031936011261022b576020905168014d1120d7b16000008152f35b50503461022b57602036600319011261022b5760209181906001600160a01b03610c7e610cab565b1681526006845220549051908152f35b50503461022b578160031936011261022b57602090610224610d8e565b600435906001600160a01b038216820361050157565b346105015760003660031901126105015760206040516b033b2e3c9fd0803ce80000008152f35b34610501576000366003190112610501576020604051600a8152f35b6000546001600160a01b03163303610d1857565b60405163118cdaa760e01b8152336004820152602490fd5b81810292918115918404141715610d4357565b634e487b7160e01b600052601160045260246000fd5b91908201809211610d4357565b610d8b670de0b6b3a7640000610d8160055460075490610d30565b0460045490610d59565b90565b610d96610d66565b600a810290808204600a1481151715610d43576103e8610d8b920490610d59565b91908203918211610d4357565b670de0b6b3a76400006007541115610dff57610dde610d66565b600a810290808204600a1481151715610d43576103e8610d8b920490610db7565b600090565b15610e0b57565b60405162461bcd60e51b815260206004820152600d60248201526c496e76616c696420707269636560981b6044820152606490fd5b610e48610d8e565b908115610e558115610e04565b670de0b6b3a764000091828102928184041490151715610d4357610e77570490565b634e487b7160e01b600052601260045260246000fd5b15610e9457565b60405162461bcd60e51b81526020600482015260086024820152672a37b79039b7b7b760c11b6044820152606490fd5b67ffffffffffffffff8111610ed857604052565b634e487b7160e01b600052604160045260246000fd5b90601f8019910116810190811067ffffffffffffffff821117610ed857604052565b600260015414610f21576002600155565b604051633ee5aeb560e01b8152600490fdfea2646970667358221220a47e5e6b361b01aa8fedd8b6922e8c2371df85a3649142035dcc2056d3aa7b8864736f6c63430008140033","opcodes":"PUSH1 0x80 PUSH1 0x40 DUP2 DUP2 MSTORE CALLVALUE PUSH3 0x27A JUMPI PUSH1 0x60 DUP3 PUSH3 0x1254 DUP1 CODESIZE SUB DUP1 SWAP2 PUSH3 0x24 DUP3 DUP6 PUSH3 0x2B1 JUMP JUMPDEST DUP4 CODECOPY DUP2 ADD SUB SLT PUSH3 0x27A JUMPI PUSH3 0x3A DUP3 PUSH3 0x2D5 JUMP JUMPDEST SWAP2 PUSH1 0x20 DUP3 PUSH3 0x4B DUP3 DUP5 ADD PUSH3 0x2D5 JUMP JUMPDEST SWAP3 ADD MLOAD SWAP4 PUSH1 0x1 PUSH1 0x1 PUSH1 0xA0 SHL SUB SWAP3 DUP4 AND DUP1 ISZERO PUSH3 0x262 JUMPI PUSH1 0x0 DUP1 SLOAD PUSH1 0x1 PUSH1 0x1 PUSH1 0xA0 SHL SUB NOT DUP1 DUP3 AND DUP5 OR DUP4 SSTORE DUP8 MLOAD SWAP3 SWAP7 SWAP3 SWAP5 SWAP1 SWAP4 SWAP1 SWAP2 DUP4 AND PUSH32 0x8BE0079C531659141344CD1FD0A4F28419497F9722A3DAAFE3B4186F6B6457E0 DUP9 DUP1 LOG3 PUSH1 0x1 DUP1 SSTORE PUSH1 0x1 PUSH1 0x7 SSTORE AND SWAP2 DUP3 ISZERO PUSH3 0x220 JUMPI POP PUSH1 0x2 SLOAD AND OR PUSH1 0x2 SSTORE PUSH3 0x989680 SWAP4 DUP5 PUSH1 0x4 SSTORE PUSH1 0x3 SSTORE DUP3 MLOAD SWAP4 PUSH3 0xDA DUP6 PUSH3 0x27F JUMP JUMPDEST PUSH1 0xD DUP6 MSTORE PUSH13 0x494E495449414C5F5052494345 PUSH1 0x98 SHL DUP3 DUP7 ADD MSTORE DUP4 MLOAD SWAP2 DUP1 DUP4 ADD SWAP3 DUP5 PUSH4 0x2D839CB3 PUSH1 0xE2 SHL SWAP4 DUP5 DUP7 MSTORE DUP8 PUSH1 0x24 DUP5 ADD MSTORE DUP9 MLOAD SWAP9 DUP10 PUSH1 0x64 DUP6 ADD MSTORE DUP5 DUP4 JUMPDEST DUP12 DUP2 LT PUSH3 0x207 JUMPI POP POP POP DUP3 PUSH3 0x157 DUP4 SWAP3 PUSH1 0x1F SWAP6 PUSH1 0x84 SWAP13 DUP14 SWAP3 DUP7 DUP5 DUP4 DUP6 ADD ADD MSTORE PUSH1 0x44 DUP4 ADD MSTORE DUP8 NOT SWAP8 DUP9 SWAP2 ADD AND DUP2 ADD SUB PUSH1 0x64 DUP2 ADD DUP5 MSTORE ADD DUP3 PUSH3 0x2B1 JUMP JUMPDEST MLOAD PUSH11 0x636F6E736F6C652E6C6F67 SWAP7 DUP8 GAS STATICCALL POP PUSH2 0x8205 DUP1 PUSH1 0x5 SSTORE DUP7 MLOAD SWAP1 PUSH3 0x17E DUP3 PUSH3 0x27F JUMP JUMPDEST PUSH1 0x5 DUP3 MSTORE PUSH5 0x534C4F5045 PUSH1 0xD8 SHL DUP5 DUP4 ADD MSTORE DUP8 MLOAD SWAP4 DUP1 DUP6 ADD SWAP6 DUP7 MSTORE DUP9 PUSH1 0x24 DUP7 ADD MSTORE DUP3 MLOAD SWAP3 DUP4 PUSH1 0x64 DUP8 ADD MSTORE DUP9 JUMPDEST DUP5 DUP2 LT PUSH3 0x1F3 JUMPI POP POP POP PUSH3 0x1E0 SWAP3 PUSH1 0x1F DUP4 DUP7 SWAP4 DUP11 DUP14 DUP2 SWAP14 SWAP15 SWAP8 DUP8 ADD ADD MSTORE PUSH1 0x44 DUP6 ADD MSTORE ADD AND DUP2 ADD SUB PUSH1 0x64 DUP2 ADD DUP5 MSTORE ADD DUP3 PUSH3 0x2B1 JUMP JUMPDEST MLOAD SWAP2 GAS STATICCALL POP MLOAD PUSH2 0xF69 SWAP1 DUP2 PUSH3 0x2EB DUP3 CODECOPY RETURN JUMPDEST DUP2 DUP2 ADD DUP4 ADD MLOAD DUP8 DUP3 ADD DUP14 ADD MSTORE DUP3 ADD PUSH3 0x1A9 JUMP JUMPDEST DUP3 DUP2 ADD DUP3 ADD MLOAD DUP7 DUP3 ADD PUSH1 0x84 ADD MSTORE DUP10 SWAP5 POP DUP7 SWAP2 ADD PUSH3 0x119 JUMP JUMPDEST PUSH3 0x461BCD PUSH1 0xE5 SHL DUP2 MSTORE PUSH1 0x4 DUP2 ADD DUP5 SWAP1 MSTORE PUSH1 0x15 PUSH1 0x24 DUP3 ADD MSTORE PUSH32 0x496E76616C696420746F6B656E20616464726573730000000000000000000000 PUSH1 0x44 DUP3 ADD MSTORE PUSH1 0x64 SWAP1 REVERT JUMPDEST DUP5 MLOAD PUSH4 0x1E4FBDF7 PUSH1 0xE0 SHL DUP2 MSTORE PUSH1 0x0 PUSH1 0x4 DUP3 ADD MSTORE PUSH1 0x24 SWAP1 REVERT JUMPDEST PUSH1 0x0 DUP1 REVERT JUMPDEST PUSH1 0x40 DUP2 ADD SWAP1 DUP2 LT PUSH1 0x1 PUSH1 0x1 PUSH1 0x40 SHL SUB DUP3 GT OR PUSH3 0x29B JUMPI PUSH1 0x40 MSTORE JUMP JUMPDEST PUSH4 0x4E487B71 PUSH1 0xE0 SHL PUSH1 0x0 MSTORE PUSH1 0x41 PUSH1 0x4 MSTORE PUSH1 0x24 PUSH1 0x0 REVERT JUMPDEST PUSH1 0x1F SWAP1 SWAP2 ADD PUSH1 0x1F NOT AND DUP2 ADD SWAP1 PUSH1 0x1 PUSH1 0x1 PUSH1 0x40 SHL SUB DUP3 GT SWAP1 DUP3 LT OR PUSH3 0x29B JUMPI PUSH1 0x40 MSTORE JUMP JUMPDEST MLOAD SWAP1 PUSH1 0x1 PUSH1 0x1 PUSH1 0xA0 SHL SUB DUP3 AND DUP3 SUB PUSH3 0x27A JUMPI JUMP INVALID PUSH1 0x40 PUSH1 0x80 DUP2 MSTORE PUSH1 0x4 SWAP1 DUP2 CALLDATASIZE LT ISZERO PUSH2 0x1D JUMPI JUMPDEST POP POP CALLDATASIZE ISZERO PUSH2 0x1B JUMPI STOP JUMPDEST STOP JUMPDEST PUSH1 0x0 SWAP2 DUP3 CALLDATALOAD PUSH1 0xE0 SHR DUP1 PUSH4 0x18A25E8 EQ PUSH2 0xC8E JUMPI DUP1 PUSH4 0x3186EEF EQ PUSH2 0xC56 JUMPI DUP1 PUSH4 0x31C439D EQ PUSH2 0xC32 JUMPI DUP1 PUSH4 0x322D2100 EQ PUSH2 0x5D7 JUMPI DUP1 PUSH4 0x32CB6B0C EQ PUSH2 0xC13 JUMPI DUP1 PUSH4 0x3F8A32A9 EQ PUSH2 0xBE5 JUMPI DUP1 PUSH4 0x43D32E9C EQ PUSH2 0xBC8 JUMPI DUP1 PUSH4 0x617D7940 EQ PUSH2 0x623 JUMPI DUP1 PUSH4 0x66CB3A42 EQ PUSH2 0xB83 JUMPI DUP1 PUSH4 0x69FCD4AC EQ PUSH2 0xB83 JUMPI DUP1 PUSH4 0x6C11BCD3 EQ PUSH2 0x776 JUMPI DUP1 PUSH4 0x6C1516E1 EQ PUSH2 0x753 JUMPI DUP1 PUSH4 0x715018A6 EQ PUSH2 0x6F9 JUMPI DUP1 PUSH4 0x7BFE170D EQ PUSH2 0x6DE JUMPI DUP1 PUSH4 0x7C5E2795 EQ PUSH2 0x6C1 JUMPI DUP1 PUSH4 0x88D9F5EA EQ PUSH2 0x2EB JUMPI DUP1 PUSH4 0x8B7CC629 EQ PUSH2 0x6A2 JUMPI DUP1 PUSH4 0x8DA5CB5B EQ PUSH2 0x67A JUMPI DUP1 PUSH4 0x8E75E482 EQ PUSH2 0x65F JUMPI DUP1 PUSH4 0x918F8674 EQ PUSH2 0x642 JUMPI DUP1 PUSH4 0x933BDB90 EQ PUSH2 0x623 JUMPI DUP1 PUSH4 0x9C986764 EQ PUSH2 0x22F JUMPI DUP1 PUSH4 0xB05707E9 EQ PUSH2 0x5FA JUMPI DUP1 PUSH4 0xB5E19D23 EQ PUSH2 0x5D7 JUMPI DUP1 PUSH4 0xD0FEBE4C EQ PUSH2 0x2F0 JUMPI DUP1 PUSH4 0xDB0E1BDF EQ PUSH2 0x2EB JUMPI DUP1 PUSH4 0xE371D01B EQ PUSH2 0x234 JUMPI DUP1 PUSH4 0xEAF98D23 EQ PUSH2 0x22F JUMPI DUP1 PUSH4 0xEB91D37E EQ PUSH2 0x207 JUMPI PUSH4 0xF2FDE38B EQ PUSH2 0x174 JUMPI POP PUSH2 0x11 JUMP JUMPDEST CALLVALUE PUSH2 0x203 JUMPI PUSH1 0x20 CALLDATASIZE PUSH1 0x3 NOT ADD SLT PUSH2 0x203 JUMPI PUSH2 0x18D PUSH2 0xCAB JUMP JUMPDEST SWAP1 PUSH2 0x196 PUSH2 0xD04 JUMP JUMPDEST PUSH1 0x1 PUSH1 0x1 PUSH1 0xA0 SHL SUB SWAP2 DUP3 AND SWAP3 DUP4 ISZERO PUSH2 0x1ED JUMPI POP POP PUSH1 0x0 SLOAD DUP3 PUSH12 0xFFFFFFFFFFFFFFFFFFFFFFFF PUSH1 0xA0 SHL DUP3 AND OR PUSH1 0x0 SSTORE AND PUSH32 0x8BE0079C531659141344CD1FD0A4F28419497F9722A3DAAFE3B4186F6B6457E0 PUSH1 0x0 DUP1 LOG3 DUP1 RETURN JUMPDEST MLOAD PUSH4 0x1E4FBDF7 PUSH1 0xE0 SHL DUP2 MSTORE SWAP1 DUP2 ADD DUP5 SWAP1 MSTORE PUSH1 0x24 SWAP1 REVERT JUMPDEST DUP3 DUP1 REVERT JUMPDEST POP POP CALLVALUE PUSH2 0x22B JUMPI DUP2 PUSH1 0x3 NOT CALLDATASIZE ADD SLT PUSH2 0x22B JUMPI PUSH1 0x20 SWAP1 PUSH2 0x224 PUSH2 0xD66 JUMP JUMPDEST SWAP1 MLOAD SWAP1 DUP2 MSTORE RETURN JUMPDEST POP DUP1 REVERT JUMPDEST PUSH2 0xCE8 JUMP JUMPDEST POP POP CALLVALUE PUSH2 0x22B JUMPI PUSH1 0x60 CALLDATASIZE PUSH1 0x3 NOT ADD SLT PUSH2 0x22B JUMPI PUSH32 0x150EDD20B748BC680273D4BC59D5659C3229EDF2F102C013595B9B3238E15886 PUSH2 0x270 PUSH2 0xCAB JUMP JUMPDEST PUSH1 0x24 CALLDATALOAD PUSH2 0x2E5 PUSH1 0x44 CALLDATALOAD SWAP3 PUSH2 0x282 PUSH2 0xD04 JUMP JUMPDEST DUP6 MLOAD DUP4 DUP2 MSTORE PUSH1 0x20 DUP2 ADD DUP6 SWAP1 MSTORE TIMESTAMP PUSH1 0x40 DUP3 ADD MSTORE PUSH1 0x1 PUSH1 0x1 PUSH1 0xA0 SHL SUB SWAP2 SWAP1 SWAP2 AND SWAP6 SWAP1 DUP7 SWAP1 PUSH32 0xD1A0D5E3D583A0E92588799DD06E50FD78C07DAF05F0CC06D7B848B1CA445F1 SWAP1 PUSH1 0x60 SWAP1 LOG2 MLOAD SWAP3 DUP4 MSTORE PUSH1 0x20 DUP4 ADD SWAP2 SWAP1 SWAP2 MSTORE TIMESTAMP PUSH1 0x40 DUP4 ADD MSTORE DUP2 SWAP1 PUSH1 0x60 DUP3 ADD SWAP1 JUMP JUMPDEST SUB SWAP1 LOG2 DUP1 RETURN JUMPDEST PUSH2 0xCC1 JUMP JUMPDEST POP SWAP1 DUP3 PUSH1 0x3 NOT CALLDATASIZE ADD SLT PUSH2 0x203 JUMPI PUSH2 0x305 PUSH2 0xF10 JUMP JUMPDEST CALLVALUE ISZERO PUSH2 0x5A4 JUMPI CALLER DUP4 MSTORE PUSH1 0x6 PUSH1 0x20 MSTORE DUP1 DUP4 KECCAK256 SLOAD DUP4 PUSH2 0x591 JUMPI PUSH2 0x328 SWAP1 TIMESTAMP LT ISZERO PUSH2 0xE8D JUMP JUMPDEST PUSH2 0x331 CALLVALUE PUSH2 0xE40 JUMP JUMPDEST SWAP2 PUSH12 0x33B2E3C9FD0803CE8000000 DUP4 GT PUSH2 0x55D JUMPI PUSH2 0x351 DUP4 PUSH1 0x7 SLOAD PUSH2 0xD59 JUMP JUMPDEST PUSH1 0x3 SLOAD LT PUSH2 0x51B JUMPI PUSH1 0xA DUP4 MUL DUP4 DUP2 DIV PUSH1 0xA EQ DUP5 ISZERO OR ISZERO PUSH2 0x506 JUMPI PUSH2 0x3E8 SWAP1 DIV SWAP1 PUSH2 0x37B DUP3 DUP6 PUSH2 0xDB7 JUMP JUMPDEST PUSH1 0x2 SLOAD PUSH1 0x1 PUSH1 0x1 PUSH1 0xA0 SHL SUB SWAP2 SWAP1 DUP3 AND DUP1 EXTCODESIZE ISZERO PUSH2 0x501 JUMPI DUP6 MLOAD PUSH4 0x4C420C3B PUSH1 0xE0 SHL DUP2 MSTORE CALLER DUP6 DUP3 ADD SWAP1 DUP2 MSTORE PUSH1 0x20 DUP2 ADD SWAP4 SWAP1 SWAP4 MSTORE SWAP2 PUSH1 0x0 SWAP2 DUP4 SWAP2 DUP3 SWAP1 DUP5 SWAP1 DUP3 SWAP1 PUSH1 0x40 ADD SUB SWAP3 GAS CALL DUP1 ISZERO PUSH2 0x4F6 JUMPI PUSH2 0x4DE JUMPI JUMPDEST POP SWAP1 DUP6 SWAP3 SWAP2 PUSH2 0x3DB DUP7 PUSH1 0x7 SLOAD PUSH2 0xD59 JUMP JUMPDEST PUSH1 0x7 SSTORE PUSH1 0x2 SLOAD AND SWAP2 DUP3 EXTCODESIZE ISZERO PUSH2 0x4DA JUMPI DUP5 MLOAD PUSH4 0x2770A7EB PUSH1 0xE2 SHL DUP2 MSTORE CALLER SWAP3 DUP2 ADD SWAP3 DUP4 MSTORE PUSH1 0x20 DUP4 ADD SWAP2 SWAP1 SWAP2 MSTORE SWAP2 DUP4 SWAP2 DUP4 SWAP2 SWAP1 DUP3 SWAP1 DUP5 SWAP1 DUP3 SWAP1 PUSH1 0x40 ADD SUB SWAP3 GAS CALL DUP1 ISZERO PUSH2 0x4D0 JUMPI PUSH2 0x4BC JUMPI JUMPDEST POP POP PUSH32 0x150EDD20B748BC680273D4BC59D5659C3229EDF2F102C013595B9B3238E15886 SWAP1 CALLER DUP5 MSTORE PUSH1 0x6 PUSH1 0x20 MSTORE TIMESTAMP DUP2 DUP6 KECCAK256 SSTORE DUP1 MLOAD PUSH32 0xD1A0D5E3D583A0E92588799DD06E50FD78C07DAF05F0CC06D7B848B1CA445F1 CALLER SWAP2 DUP1 PUSH2 0x497 TIMESTAMP DUP9 CALLVALUE DUP5 PUSH1 0x40 SWAP2 SWAP5 SWAP4 SWAP3 PUSH1 0x60 DUP3 ADD SWAP6 DUP3 MSTORE PUSH1 0x20 DUP3 ADD MSTORE ADD MSTORE JUMP JUMPDEST SUB SWAP1 LOG2 MLOAD SWAP2 DUP3 MSTORE CALLVALUE PUSH1 0x20 DUP4 ADD MSTORE TIMESTAMP PUSH1 0x40 DUP4 ADD MSTORE CALLER SWAP2 DUP1 PUSH1 0x60 DUP2 ADD JUMPDEST SUB SWAP1 LOG2 PUSH1 0x1 DUP1 SSTORE DUP1 RETURN JUMPDEST PUSH2 0x4C5 SWAP1 PUSH2 0xEC4 JUMP JUMPDEST PUSH2 0x203 JUMPI DUP3 CODESIZE PUSH2 0x423 JUMP JUMPDEST DUP4 MLOAD RETURNDATASIZE DUP5 DUP3 RETURNDATACOPY RETURNDATASIZE SWAP1 REVERT JUMPDEST DUP4 DUP1 REVERT JUMPDEST PUSH2 0x4EB SWAP2 SWAP4 SWAP3 SWAP7 POP PUSH2 0xEC4 JUMP JUMPDEST PUSH1 0x0 SWAP5 SWAP1 SWAP2 CODESIZE PUSH2 0x3CA JUMP JUMPDEST DUP6 MLOAD RETURNDATASIZE PUSH1 0x0 DUP3 RETURNDATACOPY RETURNDATASIZE SWAP1 REVERT JUMPDEST PUSH1 0x0 DUP1 REVERT JUMPDEST PUSH1 0x11 DUP3 PUSH4 0x4E487B71 PUSH1 0xE0 SHL PUSH1 0x0 MSTORE MSTORE PUSH1 0x24 PUSH1 0x0 REVERT JUMPDEST PUSH1 0x20 PUSH1 0x64 SWAP3 MLOAD SWAP2 PUSH3 0x461BCD PUSH1 0xE5 SHL DUP4 MSTORE DUP3 ADD MSTORE PUSH1 0x18 PUSH1 0x24 DUP3 ADD MSTORE PUSH32 0x4578636565647320617661696C61626C6520737570706C790000000000000000 PUSH1 0x44 DUP3 ADD MSTORE REVERT JUMPDEST PUSH1 0x20 PUSH1 0x64 SWAP3 MLOAD SWAP2 PUSH3 0x461BCD PUSH1 0xE5 SHL DUP4 MSTORE DUP3 ADD MSTORE PUSH1 0xF PUSH1 0x24 DUP3 ADD MSTORE PUSH15 0x45786365656473206D617820627579 PUSH1 0x88 SHL PUSH1 0x44 DUP3 ADD MSTORE REVERT JUMPDEST PUSH4 0x4E487B71 PUSH1 0xE0 SHL DUP5 MSTORE PUSH1 0x11 DUP4 MSTORE PUSH1 0x24 DUP5 REVERT JUMPDEST SWAP1 PUSH1 0x20 PUSH1 0x64 SWAP3 MLOAD SWAP2 PUSH3 0x461BCD PUSH1 0xE5 SHL DUP4 MSTORE DUP3 ADD MSTORE PUSH1 0xD PUSH1 0x24 DUP3 ADD MSTORE PUSH13 0x9AEAE6E840E6CADCC8408AA89 PUSH1 0x9B SHL PUSH1 0x44 DUP3 ADD MSTORE REVERT JUMPDEST POP SWAP2 CALLVALUE PUSH2 0x5F7 JUMPI PUSH1 0x20 CALLDATASIZE PUSH1 0x3 NOT ADD SLT PUSH2 0x5F7 JUMPI POP PUSH2 0x224 PUSH1 0x20 SWAP3 CALLDATALOAD PUSH2 0xE40 JUMP JUMPDEST DUP1 REVERT JUMPDEST POP POP CALLVALUE PUSH2 0x22B JUMPI DUP2 PUSH1 0x3 NOT CALLDATASIZE ADD SLT PUSH2 0x22B JUMPI PUSH1 0x2 SLOAD SWAP1 MLOAD PUSH1 0x1 PUSH1 0x1 PUSH1 0xA0 SHL SUB SWAP1 SWAP2 AND DUP2 MSTORE PUSH1 0x20 SWAP1 RETURN JUMPDEST POP POP CALLVALUE PUSH2 0x22B JUMPI DUP2 PUSH1 0x3 NOT CALLDATASIZE ADD SLT PUSH2 0x22B JUMPI PUSH1 0x20 SWAP1 PUSH1 0x7 SLOAD SWAP1 MLOAD SWAP1 DUP2 MSTORE RETURN JUMPDEST POP POP CALLVALUE PUSH2 0x22B JUMPI DUP2 PUSH1 0x3 NOT CALLDATASIZE ADD SLT PUSH2 0x22B JUMPI PUSH1 0x20 SWAP1 MLOAD PUSH2 0x3E8 DUP2 MSTORE RETURN JUMPDEST POP POP CALLVALUE PUSH2 0x22B JUMPI DUP2 PUSH1 0x3 NOT CALLDATASIZE ADD SLT PUSH2 0x22B JUMPI MLOAD SELFBALANCE DUP2 MSTORE PUSH1 0x20 SWAP1 RETURN JUMPDEST POP POP CALLVALUE PUSH2 0x22B JUMPI DUP2 PUSH1 0x3 NOT CALLDATASIZE ADD SLT PUSH2 0x22B JUMPI SWAP1 SLOAD SWAP1 MLOAD PUSH1 0x1 PUSH1 0x1 PUSH1 0xA0 SHL SUB SWAP1 SWAP2 AND DUP2 MSTORE PUSH1 0x20 SWAP1 RETURN JUMPDEST POP POP CALLVALUE PUSH2 0x22B JUMPI DUP2 PUSH1 0x3 NOT CALLDATASIZE ADD SLT PUSH2 0x22B JUMPI PUSH1 0x20 SWAP1 PUSH1 0x5 SLOAD SWAP1 MLOAD SWAP1 DUP2 MSTORE RETURN JUMPDEST POP CALLVALUE PUSH2 0x203 JUMPI DUP3 PUSH1 0x3 NOT CALLDATASIZE ADD SLT PUSH2 0x203 JUMPI PUSH1 0x20 SWAP3 POP SLOAD SWAP1 MLOAD SWAP1 DUP2 MSTORE RETURN JUMPDEST POP POP CALLVALUE PUSH2 0x22B JUMPI DUP2 PUSH1 0x3 NOT CALLDATASIZE ADD SLT PUSH2 0x22B JUMPI MLOAD SWAP1 DUP2 MSTORE PUSH1 0x20 SWAP1 RETURN JUMPDEST DUP4 CALLVALUE PUSH2 0x5F7 JUMPI DUP1 PUSH1 0x3 NOT CALLDATASIZE ADD SLT PUSH2 0x5F7 JUMPI PUSH2 0x712 PUSH2 0xD04 JUMP JUMPDEST PUSH1 0x0 DUP1 SLOAD PUSH1 0x1 PUSH1 0x1 PUSH1 0xA0 SHL SUB NOT DUP2 AND DUP3 SSTORE PUSH1 0x1 PUSH1 0x1 PUSH1 0xA0 SHL SUB AND PUSH32 0x8BE0079C531659141344CD1FD0A4F28419497F9722A3DAAFE3B4186F6B6457E0 DUP3 DUP1 LOG3 DUP1 RETURN JUMPDEST POP POP CALLVALUE PUSH2 0x22B JUMPI DUP2 PUSH1 0x3 NOT CALLDATASIZE ADD SLT PUSH2 0x22B JUMPI PUSH1 0x20 SWAP1 MLOAD PUSH8 0xDE0B6B3A7640000 DUP2 MSTORE RETURN JUMPDEST POP SWAP1 CALLVALUE PUSH2 0x203 JUMPI PUSH1 0x20 SWAP1 DUP2 PUSH1 0x3 NOT CALLDATASIZE ADD SLT PUSH2 0x4DA JUMPI DUP3 CALLDATALOAD SWAP2 PUSH2 0x796 PUSH2 0xF10 JUMP JUMPDEST DUP3 ISZERO PUSH2 0xB4C JUMPI PUSH1 0x2 SLOAD DUP3 MLOAD PUSH4 0x70A08231 PUSH1 0xE0 SHL DUP2 MSTORE CALLER DUP2 DUP8 ADD MSTORE PUSH1 0x1 PUSH1 0x1 PUSH1 0xA0 SHL SUB SWAP2 DUP3 AND SWAP6 SWAP2 PUSH1 0x24 SWAP2 DUP5 DUP2 DUP5 DUP2 DUP12 GAS STATICCALL SWAP1 DUP2 ISZERO PUSH2 0xB42 JUMPI SWAP1 DUP8 SWAP2 DUP11 SWAP2 PUSH2 0xB0D JUMPI JUMPDEST POP LT PUSH2 0xAD5 JUMPI PUSH12 0x33B2E3C9FD0803CE8000000 DUP7 GT PUSH2 0xAA1 JUMPI CALLER DUP9 MSTORE PUSH1 0x6 DUP5 MSTORE PUSH2 0x807 DUP6 DUP10 KECCAK256 SLOAD TIMESTAMP LT ISZERO PUSH2 0xE8D JUMP JUMPDEST PUSH8 0xDE0B6B3A7640000 PUSH2 0x82C PUSH2 0x81B PUSH2 0xDC4 JUMP JUMPDEST PUSH2 0x826 DUP2 ISZERO ISZERO PUSH2 0xE04 JUMP JUMPDEST DUP9 PUSH2 0xD30 JUMP JUMPDEST DIV SWAP7 DUP8 SELFBALANCE LT PUSH2 0xA5F JUMPI PUSH1 0xA DUP8 MUL DUP8 DUP2 DIV PUSH1 0xA SUB PUSH2 0xA4B JUMPI PUSH2 0x3E8 SWAP1 DIV SWAP2 PUSH2 0x853 DUP4 DUP10 PUSH2 0xDB7 JUMP JUMPDEST SWAP2 DUP1 EXTCODESIZE ISZERO PUSH2 0x501 JUMPI DUP8 MLOAD PUSH4 0x2770A7EB PUSH1 0xE2 SHL DUP1 DUP3 MSTORE CALLER DUP9 DUP4 ADD SWAP1 DUP2 MSTORE PUSH1 0x20 DUP2 ADD SWAP6 SWAP1 SWAP6 MSTORE SWAP4 SWAP1 SWAP2 PUSH1 0x0 SWAP2 DUP4 SWAP2 SWAP1 DUP3 SWAP1 DUP5 SWAP1 DUP3 SWAP1 PUSH1 0x40 ADD SUB SWAP3 GAS CALL DUP1 ISZERO PUSH2 0xA40 JUMPI PUSH2 0xA28 JUMPI JUMPDEST POP SWAP1 DUP10 SWAP3 SWAP2 PUSH1 0x2 SLOAD AND SWAP2 DUP3 EXTCODESIZE ISZERO PUSH2 0x4DA JUMPI DUP8 MLOAD SWAP2 DUP3 MSTORE CALLER DUP7 DUP4 ADD SWAP1 DUP2 MSTORE PUSH1 0x20 DUP2 ADD SWAP2 SWAP1 SWAP2 MSTORE SWAP1 SWAP2 DUP4 SWAP2 DUP4 SWAP2 SWAP1 DUP3 SWAP1 DUP5 SWAP1 DUP3 SWAP1 PUSH1 0x40 ADD SUB SWAP3 GAS CALL DUP1 ISZERO PUSH2 0xA1E JUMPI PUSH2 0xA06 JUMPI JUMPDEST POP DUP1 DUP1 DUP1 DUP10 CALLER GAS CALL RETURNDATASIZE ISZERO PUSH2 0xA01 JUMPI RETURNDATASIZE PUSH8 0xFFFFFFFFFFFFFFFF DUP2 GT PUSH2 0x9EF JUMPI DUP6 MLOAD SWAP1 PUSH2 0x910 PUSH1 0x1F DUP3 ADD PUSH1 0x1F NOT AND DUP8 ADD DUP4 PUSH2 0xEEE JUMP JUMPDEST DUP2 MSTORE DUP9 DUP6 RETURNDATASIZE SWAP3 ADD RETURNDATACOPY JUMPDEST ISZERO PUSH2 0x9B9 JUMPI POP POP SWAP2 PUSH2 0x4B2 SWAP2 PUSH1 0x6 PUSH32 0x150EDD20B748BC680273D4BC59D5659C3229EDF2F102C013595B9B3238E15886 SWAP5 CALLER DUP9 MSTORE MSTORE TIMESTAMP DUP2 DUP8 KECCAK256 SSTORE PUSH2 0x95E DUP3 PUSH1 0x7 SLOAD PUSH2 0xDB7 JUMP JUMPDEST PUSH1 0x7 SSTORE DUP1 MLOAD DUP3 DUP2 MSTORE PUSH1 0x20 DUP2 ADD DUP7 SWAP1 MSTORE TIMESTAMP PUSH1 0x40 DUP3 ADD MSTORE CALLER SWAP1 PUSH32 0x6DB63BEBF1E6540277744DF32846EBDB98385B1A73F2D5DE49B28348ADD63F50 SWAP1 PUSH1 0x60 SWAP1 LOG2 MLOAD SWAP1 DUP2 MSTORE PUSH1 0x20 DUP2 ADD SWAP4 SWAP1 SWAP4 MSTORE TIMESTAMP PUSH1 0x40 DUP5 ADD MSTORE CALLER SWAP3 SWAP1 DUP2 SWAP1 PUSH1 0x60 DUP3 ADD SWAP1 JUMP JUMPDEST PUSH1 0x13 SWAP2 SWAP3 PUSH1 0x64 SWAP5 MLOAD SWAP4 PUSH3 0x461BCD PUSH1 0xE5 SHL DUP6 MSTORE DUP5 ADD MSTORE DUP3 ADD MSTORE PUSH19 0x115512081D1C985B9CD9995C8819985A5B1959 PUSH1 0x6A SHL PUSH1 0x44 DUP3 ADD MSTORE REVERT JUMPDEST PUSH4 0x4E487B71 PUSH1 0xE0 SHL DUP10 MSTORE PUSH1 0x41 DUP5 MSTORE DUP3 DUP10 REVERT JUMPDEST PUSH2 0x919 JUMP JUMPDEST PUSH2 0xA0F SWAP1 PUSH2 0xEC4 JUMP JUMPDEST PUSH2 0xA1A JUMPI DUP7 CODESIZE PUSH2 0x8DC JUMP JUMPDEST DUP7 DUP1 REVERT JUMPDEST DUP7 MLOAD RETURNDATASIZE DUP5 DUP3 RETURNDATACOPY RETURNDATASIZE SWAP1 REVERT JUMPDEST PUSH2 0xA35 SWAP2 SWAP4 SWAP3 SWAP11 POP PUSH2 0xEC4 JUMP JUMPDEST PUSH1 0x0 SWAP9 SWAP1 SWAP2 CODESIZE PUSH2 0x898 JUMP JUMPDEST DUP9 MLOAD RETURNDATASIZE PUSH1 0x0 DUP3 RETURNDATACOPY RETURNDATASIZE SWAP1 REVERT JUMPDEST DUP4 PUSH1 0x11 DUP7 PUSH4 0x4E487B71 PUSH1 0xE0 SHL PUSH1 0x0 MSTORE MSTORE PUSH1 0x0 REVERT JUMPDEST DUP6 MLOAD PUSH3 0x461BCD PUSH1 0xE5 SHL DUP2 MSTORE DUP1 DUP6 ADD DUP7 SWAP1 MSTORE PUSH1 0x1D DUP2 DUP6 ADD MSTORE PUSH32 0x496E73756666696369656E7420636F6E74726163742062616C616E6365000000 PUSH1 0x44 DUP3 ADD MSTORE PUSH1 0x64 SWAP1 REVERT JUMPDEST POP PUSH1 0x10 SWAP2 SWAP3 PUSH1 0x64 SWAP5 MLOAD SWAP4 PUSH3 0x461BCD PUSH1 0xE5 SHL DUP6 MSTORE DUP5 ADD MSTORE DUP3 ADD MSTORE PUSH16 0x115E18D959591CC81B585E081CD95B1B PUSH1 0x82 SHL PUSH1 0x44 DUP3 ADD MSTORE REVERT JUMPDEST POP PUSH1 0x14 SWAP2 SWAP3 PUSH1 0x64 SWAP5 MLOAD SWAP4 PUSH3 0x461BCD PUSH1 0xE5 SHL DUP6 MSTORE DUP5 ADD MSTORE DUP3 ADD MSTORE PUSH20 0x496E73756666696369656E742062616C616E6365 PUSH1 0x60 SHL PUSH1 0x44 DUP3 ADD MSTORE REVERT JUMPDEST DUP1 SWAP3 POP DUP7 DUP1 SWAP3 POP RETURNDATASIZE DUP4 GT PUSH2 0xB3B JUMPI JUMPDEST PUSH2 0xB26 DUP2 DUP4 PUSH2 0xEEE JUMP JUMPDEST DUP2 ADD SUB SLT PUSH2 0xB37 JUMPI DUP7 SWAP1 MLOAD CODESIZE PUSH2 0x7D8 JUMP JUMPDEST DUP9 DUP1 REVERT JUMPDEST POP RETURNDATASIZE PUSH2 0xB1C JUMP JUMPDEST DUP7 MLOAD RETURNDATASIZE DUP12 DUP3 RETURNDATACOPY RETURNDATASIZE SWAP1 REVERT JUMPDEST DUP4 SWAP1 PUSH1 0x64 SWAP3 MLOAD SWAP2 PUSH3 0x461BCD PUSH1 0xE5 SHL DUP4 MSTORE DUP3 ADD MSTORE PUSH1 0x12 PUSH1 0x24 DUP3 ADD MSTORE PUSH18 0x416D6F756E74206D757374206265203E203 PUSH1 0x74 SHL PUSH1 0x44 DUP3 ADD MSTORE REVERT JUMPDEST POP SWAP2 CALLVALUE PUSH2 0x5F7 JUMPI PUSH1 0x20 CALLDATASIZE PUSH1 0x3 NOT ADD SLT PUSH2 0x5F7 JUMPI POP PUSH8 0xDE0B6B3A7640000 PUSH2 0xBC0 PUSH1 0x20 SWAP4 PUSH2 0xBAE PUSH2 0xDC4 JUMP JUMPDEST SWAP1 PUSH2 0xBBA DUP3 ISZERO ISZERO PUSH2 0xE04 JUMP JUMPDEST CALLDATALOAD PUSH2 0xD30 JUMP JUMPDEST DIV SWAP1 MLOAD SWAP1 DUP2 MSTORE RETURN JUMPDEST POP POP CALLVALUE PUSH2 0x22B JUMPI DUP2 PUSH1 0x3 NOT CALLDATASIZE ADD SLT PUSH2 0x22B JUMPI PUSH1 0x20 SWAP1 PUSH2 0x224 PUSH2 0xDC4 JUMP JUMPDEST DUP4 DUP3 CALLVALUE PUSH2 0x22B JUMPI PUSH1 0x20 CALLDATASIZE PUSH1 0x3 NOT ADD SLT PUSH2 0x22B JUMPI PUSH2 0xC0D SWAP1 PUSH2 0xC04 PUSH2 0xD04 JUMP JUMPDEST CALLDATALOAD PUSH1 0x7 SLOAD PUSH2 0xD59 JUMP JUMPDEST PUSH1 0x7 SSTORE DUP1 RETURN JUMPDEST POP POP CALLVALUE PUSH2 0x22B JUMPI DUP2 PUSH1 0x3 NOT CALLDATASIZE ADD SLT PUSH2 0x22B JUMPI PUSH1 0x20 SWAP1 PUSH1 0x3 SLOAD SWAP1 MLOAD SWAP1 DUP2 MSTORE RETURN JUMPDEST POP POP CALLVALUE PUSH2 0x22B JUMPI DUP2 PUSH1 0x3 NOT CALLDATASIZE ADD SLT PUSH2 0x22B JUMPI PUSH1 0x20 SWAP1 MLOAD PUSH9 0x14D1120D7B1600000 DUP2 MSTORE RETURN JUMPDEST POP POP CALLVALUE PUSH2 0x22B JUMPI PUSH1 0x20 CALLDATASIZE PUSH1 0x3 NOT ADD SLT PUSH2 0x22B JUMPI PUSH1 0x20 SWAP2 DUP2 SWAP1 PUSH1 0x1 PUSH1 0x1 PUSH1 0xA0 SHL SUB PUSH2 0xC7E PUSH2 0xCAB JUMP JUMPDEST AND DUP2 MSTORE PUSH1 0x6 DUP5 MSTORE KECCAK256 SLOAD SWAP1 MLOAD SWAP1 DUP2 MSTORE RETURN JUMPDEST POP POP CALLVALUE PUSH2 0x22B JUMPI DUP2 PUSH1 0x3 NOT CALLDATASIZE ADD SLT PUSH2 0x22B JUMPI PUSH1 0x20 SWAP1 PUSH2 0x224 PUSH2 0xD8E JUMP JUMPDEST PUSH1 0x4 CALLDATALOAD SWAP1 PUSH1 0x1 PUSH1 0x1 PUSH1 0xA0 SHL SUB DUP3 AND DUP3 SUB PUSH2 0x501 JUMPI JUMP JUMPDEST CALLVALUE PUSH2 0x501 JUMPI PUSH1 0x0 CALLDATASIZE PUSH1 0x3 NOT ADD SLT PUSH2 0x501 JUMPI PUSH1 0x20 PUSH1 0x40 MLOAD PUSH12 0x33B2E3C9FD0803CE8000000 DUP2 MSTORE RETURN JUMPDEST CALLVALUE PUSH2 0x501 JUMPI PUSH1 0x0 CALLDATASIZE PUSH1 0x3 NOT ADD SLT PUSH2 0x501 JUMPI PUSH1 0x20 PUSH1 0x40 MLOAD PUSH1 0xA DUP2 MSTORE RETURN JUMPDEST PUSH1 0x0 SLOAD PUSH1 0x1 PUSH1 0x1 PUSH1 0xA0 SHL SUB AND CALLER SUB PUSH2 0xD18 JUMPI JUMP JUMPDEST PUSH1 0x40 MLOAD PUSH4 0x118CDAA7 PUSH1 0xE0 SHL DUP2 MSTORE CALLER PUSH1 0x4 DUP3 ADD MSTORE PUSH1 0x24 SWAP1 REVERT JUMPDEST DUP2 DUP2 MUL SWAP3 SWAP2 DUP2 ISZERO SWAP2 DUP5 DIV EQ OR ISZERO PUSH2 0xD43 JUMPI JUMP JUMPDEST PUSH4 0x4E487B71 PUSH1 0xE0 SHL PUSH1 0x0 MSTORE PUSH1 0x11 PUSH1 0x4 MSTORE PUSH1 0x24 PUSH1 0x0 REVERT JUMPDEST SWAP2 SWAP1 DUP3 ADD DUP1 SWAP3 GT PUSH2 0xD43 JUMPI JUMP JUMPDEST PUSH2 0xD8B PUSH8 0xDE0B6B3A7640000 PUSH2 0xD81 PUSH1 0x5 SLOAD PUSH1 0x7 SLOAD SWAP1 PUSH2 0xD30 JUMP JUMPDEST DIV PUSH1 0x4 SLOAD SWAP1 PUSH2 0xD59 JUMP JUMPDEST SWAP1 JUMP JUMPDEST PUSH2 0xD96 PUSH2 0xD66 JUMP JUMPDEST PUSH1 0xA DUP2 MUL SWAP1 DUP1 DUP3 DIV PUSH1 0xA EQ DUP2 ISZERO OR ISZERO PUSH2 0xD43 JUMPI PUSH2 0x3E8 PUSH2 0xD8B SWAP3 DIV SWAP1 PUSH2 0xD59 JUMP JUMPDEST SWAP2 SWAP1 DUP3 SUB SWAP2 DUP3 GT PUSH2 0xD43 JUMPI JUMP JUMPDEST PUSH8 0xDE0B6B3A7640000 PUSH1 0x7 SLOAD GT ISZERO PUSH2 0xDFF JUMPI PUSH2 0xDDE PUSH2 0xD66 JUMP JUMPDEST PUSH1 0xA DUP2 MUL SWAP1 DUP1 DUP3 DIV PUSH1 0xA EQ DUP2 ISZERO OR ISZERO PUSH2 0xD43 JUMPI PUSH2 0x3E8 PUSH2 0xD8B SWAP3 DIV SWAP1 PUSH2 0xDB7 JUMP JUMPDEST PUSH1 0x0 SWAP1 JUMP JUMPDEST ISZERO PUSH2 0xE0B JUMPI JUMP JUMPDEST PUSH1 0x40 MLOAD PUSH3 0x461BCD PUSH1 0xE5 SHL DUP2 MSTORE PUSH1 0x20 PUSH1 0x4 DUP3 ADD MSTORE PUSH1 0xD PUSH1 0x24 DUP3 ADD MSTORE PUSH13 0x496E76616C6964207072696365 PUSH1 0x98 SHL PUSH1 0x44 DUP3 ADD MSTORE PUSH1 0x64 SWAP1 REVERT JUMPDEST PUSH2 0xE48 PUSH2 0xD8E JUMP JUMPDEST SWAP1 DUP2 ISZERO PUSH2 0xE55 DUP2 ISZERO PUSH2 0xE04 JUMP JUMPDEST PUSH8 0xDE0B6B3A7640000 SWAP2 DUP3 DUP2 MUL SWAP3 DUP2 DUP5 DIV EQ SWAP1 ISZERO OR ISZERO PUSH2 0xD43 JUMPI PUSH2 0xE77 JUMPI DIV SWAP1 JUMP JUMPDEST PUSH4 0x4E487B71 PUSH1 0xE0 SHL PUSH1 0x0 MSTORE PUSH1 0x12 PUSH1 0x4 MSTORE PUSH1 0x24 PUSH1 0x0 REVERT JUMPDEST ISZERO PUSH2 0xE94 JUMPI JUMP JUMPDEST PUSH1 0x40 MLOAD PUSH3 0x461BCD PUSH1 0xE5 SHL DUP2 MSTORE PUSH1 0x20 PUSH1 0x4 DUP3 ADD MSTORE PUSH1 0x8 PUSH1 0x24 DUP3 ADD MSTORE PUSH8 0x2A37B79039B7B7B7 PUSH1 0xC1 SHL PUSH1 0x44 DUP3 ADD MSTORE PUSH1 0x64 SWAP1 REVERT JUMPDEST PUSH8 0xFFFFFFFFFFFFFFFF DUP2 GT PUSH2 0xED8 JUMPI PUSH1 0x40 MSTORE JUMP JUMPDEST PUSH4 0x4E487B71 PUSH1 0xE0 SHL PUSH1 0x0 MSTORE PUSH1 0x41 PUSH1 0x4 MSTORE PUSH1 0x24 PUSH1 0x0 REVERT JUMPDEST SWAP1 PUSH1 0x1F DUP1 NOT SWAP2 ADD AND DUP2 ADD SWAP1 DUP2 LT PUSH8 0xFFFFFFFFFFFFFFFF DUP3 GT OR PUSH2 0xED8 JUMPI PUSH1 0x40 MSTORE JUMP JUMPDEST PUSH1 0x2 PUSH1 0x1 SLOAD EQ PUSH2 0xF21 JUMPI PUSH1 0x2 PUSH1 0x1 SSTORE JUMP JUMPDEST PUSH1 0x40 MLOAD PUSH4 0x3EE5AEB5 PUSH1 0xE0 SHL DUP2 MSTORE PUSH1 0x4 SWAP1 REVERT INVALID LOG2 PUSH5 0x6970667358 0x22 SLT KECCAK256 LOG4 PUSH31 0x5E6B361B01AA8FEDD8B6922E8C2371DF85A3649142035DCC2056D3AA7B8864 PUSH20 0x6F6C634300081400330000000000000000000000 "},"methodIdentifiers":{"BONDING_TARGET()":"031c439d","BURN_PERCENT()":"9c986764","DENOMINATOR()":"918f8674","FEE_PERCENT()":"eaf98d23","INITIAL_PRICE()":"7c5e2795","MAX_BUY_AMOUNT()":"88d9f5ea","MAX_SELL_AMOUNT()":"db0e1bdf","MAX_SUPPLY()":"32cb6b0c","PRICE_DENOMINATOR()":"6c1516e1","SLOPE()":"8b7cc629","TRADE_COOLDOWN()":"7bfe170d","agentToken()":"b05707e9","buyTokens()":"d0febe4c","calculatePurchaseReturn(uint256)":"322d2100","calculateSaleReturn(uint256)":"69fcd4ac","creatorBuyEvent(address,uint256,uint256)":"e371d01b","getBuyPrice()":"018a25e8","getCurrentPrice()":"eb91d37e","getETHForTokens(uint256)":"66cb3a42","getRaisedAmount()":"8e75e482","getSellPrice()":"43d32e9c","getTokensForETH(uint256)":"b5e19d23","getTotalSoldAmount()":"933bdb90","increaseTotalSold(uint256)":"3f8a32a9","lastTradeTime(address)":"03186eef","owner()":"8da5cb5b","renounceOwnership()":"715018a6","sellTokens(uint256)":"6c11bcd3","totalSoldAmount()":"617d7940","transferOwnership(address)":"f2fde38b"}}}}}