{
  "_format": "hh-sol-artifact-1",
  "contractName": "AiAgentToken",
  "sourceName": "contracts/AiAgentToken.sol",
  "abi": [
    {
      "inputs": [
        {
          "internalType": "string",
          "name": "name_",
          "type": "string"
        },
        {
          "internalType": "string",
          "name": "symbol_",
          "type": "string"
        },
        {
          "internalType": "address",
          "name": "_adminWallet",
          "type": "address"
        },
        {
          "internalType": "address",
          "name": "_stakingWallet",
          "type": "address"
        },
        {
          "internalType": "address",
          "name": "_creatorWallet",
          "type": "address"
        },
        {
          "internalType": "uint256",
          "name": "_totalSupply",
          "type": "uint256"
        }
      ],
      "stateMutability": "nonpayable",
      "type": "constructor"
    },
    {
      "inputs": [
        {
          "internalType": "address",
          "name": "owner",
          "type": "address"
        }
      ],
      "name": "OwnableInvalidOwner",
      "type": "error"
    },
    {
      "inputs": [
        {
          "internalType": "address",
          "name": "account",
          "type": "address"
        }
      ],
      "name": "OwnableUnauthorizedAccount",
      "type": "error"
    },
    {
      "anonymous": false,
      "inputs": [
        {
          "indexed": true,
          "internalType": "address",
          "name": "owner",
          "type": "address"
        },
        {
          "indexed": true,
          "internalType": "address",
          "name": "spender",
          "type": "address"
        },
        {
          "indexed": false,
          "internalType": "uint256",
          "name": "value",
          "type": "uint256"
        }
      ],
      "name": "Approval",
      "type": "event"
    },
    {
      "anonymous": false,
      "inputs": [
        {
          "indexed": true,
          "internalType": "address",
          "name": "previousOwner",
          "type": "address"
        },
        {
          "indexed": true,
          "internalType": "address",
          "name": "newOwner",
          "type": "address"
        }
      ],
      "name": "OwnershipTransferred",
      "type": "event"
    },
    {
      "anonymous": false,
      "inputs": [
        {
          "indexed": true,
          "internalType": "address",
          "name": "account",
          "type": "address"
        },
        {
          "indexed": false,
          "internalType": "uint256",
          "name": "amount",
          "type": "uint256"
        }
      ],
      "name": "TokensVested",
      "type": "event"
    },
    {
      "anonymous": false,
      "inputs": [
        {
          "indexed": true,
          "internalType": "address",
          "name": "from",
          "type": "address"
        },
        {
          "indexed": true,
          "internalType": "address",
          "name": "to",
          "type": "address"
        },
        {
          "indexed": false,
          "internalType": "uint256",
          "name": "value",
          "type": "uint256"
        }
      ],
      "name": "Transfer",
      "type": "event"
    },
    {
      "anonymous": false,
      "inputs": [
        {
          "indexed": true,
          "internalType": "address",
          "name": "account",
          "type": "address"
        },
        {
          "indexed": false,
          "internalType": "uint256",
          "name": "totalAmount",
          "type": "uint256"
        }
      ],
      "name": "VestingCompleted",
      "type": "event"
    },
    {
      "anonymous": false,
      "inputs": [
        {
          "indexed": true,
          "internalType": "address",
          "name": "account",
          "type": "address"
        },
        {
          "indexed": false,
          "internalType": "uint256",
          "name": "amount",
          "type": "uint256"
        }
      ],
      "name": "VestingTokensClaimed",
      "type": "event"
    },
    {
      "inputs": [],
      "name": "BASE_BURN_RATE",
      "outputs": [
        {
          "internalType": "uint256",
          "name": "",
          "type": "uint256"
        }
      ],
      "stateMutability": "view",
      "type": "function"
    },
    {
      "inputs": [],
      "name": "BONDING_CURVE_PERCENT",
      "outputs": [
        {
          "internalType": "uint256",
          "name": "",
          "type": "uint256"
        }
      ],
      "stateMutability": "view",
      "type": "function"
    },
    {
      "inputs": [],
      "name": "BONDING_UNLOCK_PERCENT",
      "outputs": [
        {
          "internalType": "uint256",
          "name": "",
          "type": "uint256"
        }
      ],
      "stateMutability": "view",
      "type": "function"
    },
    {
      "inputs": [],
      "name": "BONDING_VESTING_PERCENT",
      "outputs": [
        {
          "internalType": "uint256",
          "name": "",
          "type": "uint256"
        }
      ],
      "stateMutability": "view",
      "type": "function"
    },
    {
      "inputs": [],
      "name": "BONDING_VESTING_TIMES",
      "outputs": [
        {
          "internalType": "uint256",
          "name": "",
          "type": "uint256"
        }
      ],
      "stateMutability": "view",
      "type": "function"
    },
    {
      "inputs": [],
      "name": "CLIFF_PERIOD",
      "outputs": [
        {
          "internalType": "uint256",
          "name": "",
          "type": "uint256"
        }
      ],
      "stateMutability": "view",
      "type": "function"
    },
    {
      "inputs": [],
      "name": "CREATOR_PERCENT",
      "outputs": [
        {
          "internalType": "uint256",
          "name": "",
          "type": "uint256"
        }
      ],
      "stateMutability": "view",
      "type": "function"
    },
    {
      "inputs": [],
      "name": "CREATOR_UNLOCK_PERCENT",
      "outputs": [
        {
          "internalType": "uint256",
          "name": "",
          "type": "uint256"
        }
      ],
      "stateMutability": "view",
      "type": "function"
    },
    {
      "inputs": [],
      "name": "CREATOR_VESTING_PERCENT",
      "outputs": [
        {
          "internalType": "uint256",
          "name": "",
          "type": "uint256"
        }
      ],
      "stateMutability": "view",
      "type": "function"
    },
    {
      "inputs": [],
      "name": "CREATOR_VESTING_TIMES",
      "outputs": [
        {
          "internalType": "uint256",
          "name": "",
          "type": "uint256"
        }
      ],
      "stateMutability": "view",
      "type": "function"
    },
    {
      "inputs": [],
      "name": "FEE_DENOMINATOR",
      "outputs": [
        {
          "internalType": "uint256",
          "name": "",
          "type": "uint256"
        }
      ],
      "stateMutability": "view",
      "type": "function"
    },
    {
      "inputs": [],
      "name": "LIQUIDITY_PERCENT",
      "outputs": [
        {
          "internalType": "uint256",
          "name": "",
          "type": "uint256"
        }
      ],
      "stateMutability": "view",
      "type": "function"
    },
    {
      "inputs": [],
      "name": "MIN_FEE",
      "outputs": [
        {
          "internalType": "uint256",
          "name": "",
          "type": "uint256"
        }
      ],
      "stateMutability": "view",
      "type": "function"
    },
    {
      "inputs": [],
      "name": "STAKING_REWARD_PERCENT",
      "outputs": [
        {
          "internalType": "uint256",
          "name": "",
          "type": "uint256"
        }
      ],
      "stateMutability": "view",
      "type": "function"
    },
    {
      "inputs": [
        {
          "internalType": "address",
          "name": "spender",
          "type": "address"
        },
        {
          "internalType": "uint256",
          "name": "amount",
          "type": "uint256"
        }
      ],
      "name": "approve",
      "outputs": [
        {
          "internalType": "bool",
          "name": "",
          "type": "bool"
        }
      ],
      "stateMutability": "nonpayable",
      "type": "function"
    },
    {
      "inputs": [
        {
          "internalType": "address",
          "name": "account",
          "type": "address"
        }
      ],
      "name": "balanceOf",
      "outputs": [
        {
          "internalType": "uint256",
          "name": "",
          "type": "uint256"
        }
      ],
      "stateMutability": "view",
      "type": "function"
    },
    {
      "inputs": [],
      "name": "bondingWallet",
      "outputs": [
        {
          "internalType": "address",
          "name": "",
          "type": "address"
        }
      ],
      "stateMutability": "view",
      "type": "function"
    },
    {
      "inputs": [
        {
          "internalType": "address",
          "name": "account",
          "type": "address"
        },
        {
          "internalType": "uint256",
          "name": "amount",
          "type": "uint256"
        }
      ],
      "name": "burn",
      "outputs": [],
      "stateMutability": "nonpayable",
      "type": "function"
    },
    {
      "inputs": [
        {
          "internalType": "address",
          "name": "account",
          "type": "address"
        },
        {
          "internalType": "uint256",
          "name": "amount",
          "type": "uint256"
        }
      ],
      "name": "createVestingScheduleForBuyer",
      "outputs": [],
      "stateMutability": "nonpayable",
      "type": "function"
    },
    {
      "inputs": [
        {
          "internalType": "address",
          "name": "account",
          "type": "address"
        },
        {
          "internalType": "uint256",
          "name": "amount",
          "type": "uint256"
        }
      ],
      "name": "createVestingScheduleForCreator",
      "outputs": [],
      "stateMutability": "nonpayable",
      "type": "function"
    },
    {
      "inputs": [],
      "name": "creatorWallet",
      "outputs": [
        {
          "internalType": "address",
          "name": "",
          "type": "address"
        }
      ],
      "stateMutability": "view",
      "type": "function"
    },
    {
      "inputs": [
        {
          "internalType": "address",
          "name": "",
          "type": "address"
        }
      ],
      "name": "dailySellAmount",
      "outputs": [
        {
          "internalType": "uint256",
          "name": "",
          "type": "uint256"
        }
      ],
      "stateMutability": "view",
      "type": "function"
    },
    {
      "inputs": [],
      "name": "decimals",
      "outputs": [
        {
          "internalType": "uint8",
          "name": "",
          "type": "uint8"
        }
      ],
      "stateMutability": "view",
      "type": "function"
    },
    {
      "inputs": [
        {
          "internalType": "address",
          "name": "account",
          "type": "address"
        }
      ],
      "name": "getDetailsAccount",
      "outputs": [
        {
          "internalType": "uint256",
          "name": "actualBalance",
          "type": "uint256"
        },
        {
          "internalType": "uint256",
          "name": "vestedBalance",
          "type": "uint256"
        },
        {
          "internalType": "uint256",
          "name": "claimableAmount",
          "type": "uint256"
        },
        {
          "internalType": "uint256",
          "name": "totalBalance",
          "type": "uint256"
        },
        {
          "internalType": "uint256",
          "name": "vestingEndTime",
          "type": "uint256"
        },
        {
          "internalType": "uint256",
          "name": "releasedAmount",
          "type": "uint256"
        }
      ],
      "stateMutability": "view",
      "type": "function"
    },
    {
      "inputs": [],
      "name": "getHolderCount",
      "outputs": [
        {
          "internalType": "uint256",
          "name": "",
          "type": "uint256"
        }
      ],
      "stateMutability": "view",
      "type": "function"
    },
    {
      "inputs": [
        {
          "internalType": "address",
          "name": "account",
          "type": "address"
        }
      ],
      "name": "isAdmin",
      "outputs": [
        {
          "internalType": "bool",
          "name": "",
          "type": "bool"
        }
      ],
      "stateMutability": "view",
      "type": "function"
    },
    {
      "inputs": [
        {
          "internalType": "address",
          "name": "",
          "type": "address"
        }
      ],
      "name": "lastSellTime",
      "outputs": [
        {
          "internalType": "uint256",
          "name": "",
          "type": "uint256"
        }
      ],
      "stateMutability": "view",
      "type": "function"
    },
    {
      "inputs": [],
      "name": "liquidityWallet",
      "outputs": [
        {
          "internalType": "address",
          "name": "",
          "type": "address"
        }
      ],
      "stateMutability": "view",
      "type": "function"
    },
    {
      "inputs": [
        {
          "internalType": "address",
          "name": "to",
          "type": "address"
        },
        {
          "internalType": "uint256",
          "name": "amount",
          "type": "uint256"
        }
      ],
      "name": "mint",
      "outputs": [],
      "stateMutability": "nonpayable",
      "type": "function"
    },
    {
      "inputs": [],
      "name": "name",
      "outputs": [
        {
          "internalType": "string",
          "name": "",
          "type": "string"
        }
      ],
      "stateMutability": "view",
      "type": "function"
    },
    {
      "inputs": [],
      "name": "owner",
      "outputs": [
        {
          "internalType": "address",
          "name": "",
          "type": "address"
        }
      ],
      "stateMutability": "view",
      "type": "function"
    },
    {
      "inputs": [],
      "name": "renounceOwnership",
      "outputs": [],
      "stateMutability": "nonpayable",
      "type": "function"
    },
    {
      "inputs": [
        {
          "internalType": "address",
          "name": "account",
          "type": "address"
        },
        {
          "internalType": "bool",
          "name": "_isAdmin",
          "type": "bool"
        }
      ],
      "name": "setAdmin",
      "outputs": [],
      "stateMutability": "nonpayable",
      "type": "function"
    },
    {
      "inputs": [],
      "name": "stakingWallet",
      "outputs": [
        {
          "internalType": "address",
          "name": "",
          "type": "address"
        }
      ],
      "stateMutability": "view",
      "type": "function"
    },
    {
      "inputs": [],
      "name": "symbol",
      "outputs": [
        {
          "internalType": "string",
          "name": "",
          "type": "string"
        }
      ],
      "stateMutability": "view",
      "type": "function"
    },
    {
      "inputs": [],
      "name": "totalSupply",
      "outputs": [
        {
          "internalType": "uint256",
          "name": "",
          "type": "uint256"
        }
      ],
      "stateMutability": "view",
      "type": "function"
    },
    {
      "inputs": [
        {
          "internalType": "address",
          "name": "to",
          "type": "address"
        },
        {
          "internalType": "uint256",
          "name": "amount",
          "type": "uint256"
        }
      ],
      "name": "transfer",
      "outputs": [
        {
          "internalType": "bool",
          "name": "",
          "type": "bool"
        }
      ],
      "stateMutability": "nonpayable",
      "type": "function"
    },
    {
      "inputs": [
        {
          "internalType": "address",
          "name": "from",
          "type": "address"
        },
        {
          "internalType": "address",
          "name": "to",
          "type": "address"
        },
        {
          "internalType": "uint256",
          "name": "amount",
          "type": "uint256"
        }
      ],
      "name": "transferFrom",
      "outputs": [
        {
          "internalType": "bool",
          "name": "",
          "type": "bool"
        }
      ],
      "stateMutability": "nonpayable",
      "type": "function"
    },
    {
      "inputs": [
        {
          "internalType": "address",
          "name": "newOwner",
          "type": "address"
        }
      ],
      "name": "transferOwnership",
      "outputs": [],
      "stateMutability": "nonpayable",
      "type": "function"
    },
    {
      "inputs": [
        {
          "internalType": "address",
          "name": "account",
          "type": "address"
        }
      ],
      "name": "vestingDetails",
      "outputs": [
        {
          "components": [
            {
              "internalType": "uint256",
              "name": "totalAmount",
              "type": "uint256"
            },
            {
              "internalType": "uint256",
              "name": "startTime",
              "type": "uint256"
            },
            {
              "internalType": "uint256",
              "name": "cliffEnd",
              "type": "uint256"
            },
            {
              "internalType": "uint256",
              "name": "endTime",
              "type": "uint256"
            },
            {
              "internalType": "uint256",
              "name": "lastClaimTime",
              "type": "uint256"
            },
            {
              "internalType": "uint256",
              "name": "releasedAmount",
              "type": "uint256"
            },
            {
              "internalType": "bool",
              "name": "revoked",
              "type": "bool"
            }
          ],
          "internalType": "struct AiAgentToken.VestingSchedule",
          "name": "schedule",
          "type": "tuple"
        }
      ],
      "stateMutability": "view",
      "type": "function"
    },
    {
      "inputs": [
        {
          "internalType": "address",
          "name": "",
          "type": "address"
        }
      ],
      "name": "vestingSchedules",
      "outputs": [
        {
          "internalType": "uint256",
          "name": "totalAmount",
          "type": "uint256"
        },
        {
          "internalType": "uint256",
          "name": "startTime",
          "type": "uint256"
        },
        {
          "internalType": "uint256",
          "name": "cliffEnd",
          "type": "uint256"
        },
        {
          "internalType": "uint256",
          "name": "endTime",
          "type": "uint256"
        },
        {
          "internalType": "uint256",
          "name": "lastClaimTime",
          "type": "uint256"
        },
        {
          "internalType": "uint256",
          "name": "releasedAmount",
          "type": "uint256"
        },
        {
          "internalType": "bool",
          "name": "revoked",
          "type": "bool"
        }
      ],
      "stateMutability": "view",
      "type": "function"
    }
  ],
  "bytecode": "0x608060405234620005c55762002188803803806200001d81620005ca565b92833981019060c081830312620005c55780516001600160401b038111620005c557826200004d918301620005f0565b602082015190926001600160401b038211620005c55762000070918301620005f0565b916200007f6040830162000662565b926200008e6060840162000662565b9260a06200009f6080830162000662565b9101516001600160a01b039590939086168015620005ac57600080546001600160a01b03198116831782556040519183918a16907f8be0079c531659141344cd1fd0a4f28419497f9722a3daafe3b4186f6b6457e09080a3878716156200056a57508683161562000525576000908152600560205260409020805460ff191660011790558051906001600160401b038211620004165760015490600182811c921680156200051a575b6020831014620003f55781601f849311620004b6575b50602090601f831160011462000438576000926200042c575b50508160011b916000199060031b1c1916176001555b81516001600160401b038111620004165760025492600184811c941680156200040b575b6020851014620003f55783601f8895116200038d575b50602090601f83116001146200030d57600091908362000301575b50508160011b916000199060031b1c1916176002555b601260ff19600354161760035581841660018060a01b0319600e541617600e551660018060a01b0319600f541617600f5580600455600581029080820460051490151715620002e0576064900491808216600052600760205260406000208054848101809255159081620002f6575b50620002ae575b60207fddf252ad1be2c89b69c2b068fc378daa952ba7f163c4a11628f55a4df523b3ef916000936040519586521693a3604051611ad09081620006788239f35b6006549163ffffffff9182841691838314620002e05763ffffffff19909416600192909201909216176006556200026e565b634e487b7160e01b600052601160045260246000fd5b905015153862000267565b015190503880620001e2565b6002600090815290949392916000805160206200214883398151915291601f198416905b818110620003715750958360019596971062000357575b505050811b01600255620001f8565b015160001960f88460031b161c1916905538808062000348565b8783015184558a96506001909301926020928301920162000331565b6002600052929350909160008051602062002148833981519152601f840160051c81019160208510620003ea575b90601f8996959493920160051c01905b818110620003da5750620001c7565b60008155889550600101620003cb565b9091508190620003bb565b634e487b7160e01b600052602260045260246000fd5b93607f1693620001b1565b634e487b7160e01b600052604160045260246000fd5b01519050388062000177565b6001600090815293506000805160206200216883398151915291905b601f19841685106200049a576001945083601f1981161062000480575b505050811b016001556200018d565b015160001960f88460031b161c1916905538808062000471565b8181015183556020948501946001909301929091019062000454565b600160005290915060008051602062002168833981519152601f840160051c810191602085106200050f575b90601f859493920160051c01905b818110620004ff57506200015e565b60008155849350600101620004f0565b9091508190620004e2565b91607f169162000148565b60405162461bcd60e51b815260206004820152601c60248201527f496e76616c69642063726561746f7257616c6c65742077616c6c6574000000006044820152606490fd5b62461bcd60e51b815260206004820152601660248201527f496e76616c6964207374616b696e672077616c6c6574000000000000000000006044820152606490fd5b604051631e4fbdf760e01b815260006004820152602490fd5b600080fd5b6040519190601f01601f191682016001600160401b038111838210176200041657604052565b919080601f84011215620005c55782516001600160401b038111620004165760209062000626601f8201601f19168301620005ca565b92818452828287010111620005c55760005b8181106200064e57508260009394955001015290565b858101830151848201840152820162000638565b51906001600160a01b0382168203620005c55756fe608060408181526004908136101561001657600080fd5b600091823560e01c93846306ee6ad8146111685750836306fdde03146110ae5783630808976d14610fa0578363095ea7b314610f7757836318160ddd14610f5b57836323b872dd14610e8a57836324d7806c14610e4d5783632f05edba14610e32578363313ce56714610e115783633a8d009714610d535783633ccfbabf146101ea5783633fd35853146103c557836340c10f1914610d165783634b0bddd214610cba5783634c420c3b146109a25783634e11b01f146109875783636f293d591461096c57836370a08231146109405783637136982b1461091c578363715018a6146108c257836376c7a3c7146108bd578363771a4bfd146108bd5783637a9e361c146108a25783637cdc65f21461087a57836383042cd21461085c5783638b927075146108345783638cad856f1461081a5783638da5cb5b146107f357836395d89b41146106f2578363996b2759146106495783639dc29fac1461049a578363a9059cbb146103ca578363b0468185146103c5578363b44b4b801461038e578363d469801614610366578363d73792a91461034a578363dfa728b314610313578363f2fde38b1461028e578363fdb20ccb1461021057508263fe0af304146101ef57505063ff458f77146101ea57600080fd5b6111f1565b3461020c578160031936011261020c5760209051630163f5008152f35b5080fd5b3461028a57602036600319011261028a5760e09282906001600160a01b036102366111d6565b16815260096020522080549260018201549260028301546003840154918401549260ff600660058701549601541695815197885260208801528601526060850152608084015260a0830152151560c0820152f35b8280fd5b3461028a57602036600319011261028a576102a76111d6565b906102b0611245565b6001600160a01b039182169283156102fd57505082546001600160a01b0319811683178455167f8be0079c531659141344cd1fd0a4f28419497f9722a3daafe3b4186f6b6457e08380a380f35b51631e4fbdf760e01b8152908101849052602490fd5b503461020c57602036600319011261020c5760209181906001600160a01b0361033a6111d6565b168152600b845220549051908152f35b503461020c578160031936011261020c57602090516127108152f35b503461020c578160031936011261020c57600d5490516001600160a01b039091168152602090f35b503461020c57602036600319011261020c5760209181906001600160a01b036103b56111d6565b168152600a845220549051908152f35b61120d565b8234610497578260031936011261049757506103e46111d6565b60243591336001600160a01b0383161461045457826104023361138f565b1061041c5760208461041585853361183b565b5160018152f35b606490602085519162461bcd60e51b835282015260126024820152714e6f7420656e6f75676820616d6f756e742160701b6044820152fd5b606490602085519162461bcd60e51b8352820152601860248201527f4e6f7420616c6c6f772073656c66207472616e736665722100000000000000006044820152fd5b80fd5b82903461020c578260031936011261020c576104b46111d6565b90602435338452602091600583526104d160ff8787205416611271565b6001600160a01b0384169384156105fc57848652600784528686205491836104f88361138f565b106105ae57509582828798827fddf252ad1be2c89b69c2b068fc378daa952ba7f163c4a11628f55a4df523b3ef97969510610587575b5086885260078552818103838920551480610572575b610551575b51908152a380f35b60065463ffffffff60001981831601169063ffffffff191617600655610549565b50600983528086206005810154905414610544565b906105959061059b9361132d565b90611678565b508486526007835281818720548961052e565b875162461bcd60e51b8152908101859052602260248201527f45524332303a206275726e20616d6f756e7420657863656564732062616c616e604482015261636560f01b6064820152608490fd5b865162461bcd60e51b8152808301859052602160248201527f45524332303a206275726e2066726f6d20746865207a65726f206164647265736044820152607360f81b6064820152608490fd5b503461020c57602036600319011261020c5760c06106b08260e09461066c6111d6565b81858451610679816112d9565b82815282602082015282868201528260608201528260808201528260a0820152015260018060a01b0316815260096020522061133a565b82519281518452602082015160208501528082015190840152606081015160608401526080810151608084015260a081015160a08401520151151560c0820152f35b903461028a578260031936011261028a57805191836002549060019082821c9282811680156107e9575b60209586861082146107d657508488529081156107b4575060011461075b575b610757868661074d828b038361130b565b519182918261118d565b0390f35b929550600283527f405787fa12a823e0f2b7631cc41b3ba8828b3321ca811111fa75cd3aa3bb5ace5b8284106107a157505050826107579461074d92820101948661073c565b8054868501880152928601928101610784565b60ff191687860152505050151560051b830101925061074d826107578661073c565b634e487b7160e01b845260229052602483fd5b93607f169361071c565b503461020c578160031936011261020c57905490516001600160a01b039091168152602090f35b503461020c578160031936011261020c5751908152602090f35b503461020c578160031936011261020c57600c5490516001600160a01b039091168152602090f35b503461020c578160031936011261020c57602090516303b538008152f35b503461020c578160031936011261020c57600f5490516001600160a01b039091168152602090f35b503461020c578160031936011261020c5760209051604b8152f35b611229565b82346104975780600319360112610497576108db611245565b80546001600160a01b03198116825581906001600160a01b03167f8be0079c531659141344cd1fd0a4f28419497f9722a3daafe3b4186f6b6457e08280a380f35b503461020c578160031936011261020c5760209063ffffffff600654169051908152f35b503461020c57602036600319011261020c576020906109656109606111d6565b61138f565b9051908152f35b503461020c578160031936011261020c576020905160468152f35b503461020c578160031936011261020c576020905160198152f35b82903461020c578260031936011261020c576109bc6111d6565b90602493843590338552602092600584526109dc60ff8388205416611271565b6001600160a01b038516948515610c79578315610c3857600a840293808504600a03610c2657605a8102908104605a03610c265790606480610a219304950490611596565b84865260098452818620805490979015610b4c5760ff600689015416610b0c5750610a9e60068689610b04948a600080516020611a7b8339815191529a9b9c54928a610a7b8b610a766005850154809861132d565b6112b6565b928a60018401549160096002860154948860038801549701549784519d8e6112d9565b8d52808d01948552838d0195865260608d0196875260808d0197885260a08d01998a5260c08d019a838c528352522098518955516001890155516002880155516003870155519085015551600584015551151591019060ff801983541691151516179055565b51908152a280f35b601c9085606494519362461bcd60e51b85528401528201527f4578697374696e67207363686564756c65206973207265766f6b6564000000006044820152fd5b90965085610c1557630163f500420190814211610c0257508495966006600080516020611a7b83398151915296610bfd93855193610b89856112d9565b878552888501914283528786019042825260608701908152608087019142835260a08801946000865260c08901966000885260005260098d528a60002098518955516001890155516002880155516003870155519085015551600584015551151591019060ff801983541691151516179055565b610b04565b634e487b7160e01b600090815260118952fd5b634e487b7160e01b86526011875285fd5b634e487b7160e01b8852601183528888fd5b50601d8785606494519362461bcd60e51b85528401528201527f416d6f756e74206d7573742062652067726561746572207468616e20300000006044820152fd5b5060178785606494519362461bcd60e51b85528401528201527f496e76616c6964206163636f756e7420616464726573730000000000000000006044820152fd5b503461020c578060031936011261020c57610cd36111d6565b90602435908115158203610d1257610d0f92610ced611245565b60018060a01b03168452600560205283209060ff801983541691151516179055565b80f35b8380fd5b503461020c578060031936011261020c57610d0f90610d4a60ff610d386111d6565b92338652600560205285205416611271565b60243590611596565b503461020c57602036600319011261020c579060c091610d716111d6565b60018060a01b0316825260076020528082205491809181610d98828460096020522061133a565b91825180151580610e06575b80610df9575b610dde575b5060a0610dbc83886112b6565b93015194815196875260208701528501526060840152608083015260a0820152f35b94509250610ded9050816113ff565b60608201519287610daf565b5081840151421015610daa565b508784015115610da4565b503461020c578160031936011261020c5760209060ff600354169051908152f35b503461020c578160031936011261020c5760209051605a8152f35b503461020c57602036600319011261020c5760209160ff9082906001600160a01b03610e776111d6565b1681526005855220541690519015158152f35b82903461020c57606036600319011261020c57610ea56111d6565b6001600160a01b039260243592908484168403610497578590604435958416815260086020528181203382526020522054906000198203610eef575b60208661041587878761183b565b848210610f185750918391610f0d60209695610415950333836114ac565b919394819350610ee1565b606490602087519162461bcd60e51b8352820152601d60248201527f45524332303a20696e73756666696369656e7420616c6c6f77616e63650000006044820152fd5b3461028a578260031936011261028a5760209250549051908152f35b503461020c578060031936011261020c57602090610415610f966111d6565b60243590336114ac565b82903461020c578260031936011261020c57610fba6111d6565b9060249384359033855260209260058452610fda60ff8388205416611271565b6001600160a01b038516948515610c79578315610c38576019840293808504601903610c2657604b8102908104604b03610c26579060648061101f9304950490611596565b848652600984528186208054909790156110745760ff600689015416610b0c5750610a9e60068689610b04948a600080516020611a7b8339815191529a9b9c54928a610a7b8b610a766005850154809861132d565b95909650946303b53800420190814211610c0257508495966006600080516020611a7b83398151915296610bfd93855193610b89856112d9565b903461028a578260031936011261028a5780519183600180549182821c92828116801561115e575b60209586861082146107d657508488529081156107b4575060011461110657610757868661074d828b038361130b565b9295508083527fb10e2d527612073b26eecdfd717e6a320cf44b4afac2b0732d9fcbe2b7fa0cf65b82841061114b57505050826107579461074d92820101948661073c565b805486850188015292860192810161112e565b93607f16936110d6565b83903461020c578160031936011261020c57600e546001600160a01b03168152602090f35b6020808252825181830181905290939260005b8281106111c257505060409293506000838284010152601f8019910116010190565b8181018601518482016040015285016111a0565b600435906001600160a01b03821682036111ec57565b600080fd5b346111ec5760003660031901126111ec57602060405160148152f35b346111ec5760003660031901126111ec57602060405160058152f35b346111ec5760003660031901126111ec576020604051600a8152f35b6000546001600160a01b0316330361125957565b60405163118cdaa760e01b8152336004820152602490fd5b1561127857565b60405162461bcd60e51b815260206004820152601660248201527531b0b63632b91034b9903737ba1030b71030b236b4b760511b6044820152606490fd5b919082018092116112c357565b634e487b7160e01b600052601160045260246000fd5b60e0810190811067ffffffffffffffff8211176112f557604052565b634e487b7160e01b600052604160045260246000fd5b90601f8019910116810190811067ffffffffffffffff8211176112f557604052565b919082039182116112c357565b90604051611347816112d9565b60c060ff600683958054855260018101546020860152600281015460408601526003810154606086015260048101546080860152600581015460a08601520154161515910152565b60018060a01b0316600052600760205260406000205460096020526113b7604060002061133a565b80511515806113f3575b806113e5575b6113cf575090565b906113dc6113e2926113ff565b906112b6565b90565b5060408101514210156113c7565b5060c0810151156113c1565b604081015142106114a657606081018051421015611494576114336020830161142981514261132d565b925190519061132d565b9082518181029181830414901517156112c357811561147e57048151808211611476575b5060a060009201519081811161146c57505090565b6113e2925061132d565b905038611457565b634e487b7160e01b600052601260045260246000fd5b508060a06113e292519101519061132d565b50600090565b6001600160a01b03908116918215611552571691821561150d5760207f8c5be1e5ebec7d5bd14f71427d1e84f3dd0314c0f7b2291e5b200ac8c7c3b925918360005260088252604060002085600052825280604060002055604051908152a3565b60405162461bcd60e51b815260206004820152601e60248201527f45524332303a20617070726f766520746f207a65726f206164647265737300006044820152606490fd5b606460405162461bcd60e51b815260206004820152602060248201527f45524332303a20617070726f76652066726f6d207a65726f20616464726573736044820152fd5b6001600160a01b03169081156116335781600052600760205260406000208054828101809255159081611629575b506115f9575b7fddf252ad1be2c89b69c2b068fc378daa952ba7f163c4a11628f55a4df523b3ef6020600092604051908152a3565b6006549063ffffffff90818316908282146112c35763ffffffff19909316600191909101909116176006556115ca565b90501515386115c4565b60405162461bcd60e51b815260206004820152601f60248201527f45524332303a206d696e7420746f20746865207a65726f2061646472657373006044820152606490fd5b60018060a01b03811690600090828252602091600983526040918282209060ff60068301541661180557600282015442106117c857866116bf6116ba8461133a565b6113ff565b10611784579184827f5952e800de5564aff4cc315e219327cf6d706cbba481d1613c32f4b1aa17dcdd9695946117078a60058b9701926117008285546112b6565b8455611596565b4260048301555481541115611723575b5050505051848152a290565b82847fc6cfdb244e262cc2d7da34a1f8d576a0b4bceb631ac57ea5858a7bed7255279f94526009835260068682208281558260018201558260028201558260038201558260048201558260058201550155548451908152a283388381611717565b835162461bcd60e51b815260048101869052601a60248201527f496e73756666696369656e742076657374656420746f6b656e730000000000006044820152606490fd5b835162461bcd60e51b815260048101869052601660248201527510db1a5999881c195c9a5bd9081b9bdd08195b99195960521b6044820152606490fd5b835162461bcd60e51b815260048101869052600f60248201526e15995cdd1a5b99c81c995d9bdad959608a1b6044820152606490fd5b9291906001600160a01b03808516918215611a2757169182156119d657600090828252602091600783526040908181205497836118778261138f565b1061198357888391857fddf252ad1be2c89b69c2b068fc378daa952ba7f163c4a11628f55a4df523b3ef98999a9b10611960575b5088835260078652848284205491898552038284205588835281832085815401905587835281832054158061194b575b61192a575b159182611916575b50506118f6575b51908152a3565b60065463ffffffff600181831601169063ffffffff1916176006556118ef565b8881526007865220541515905081386118e8565b60065463ffffffff60001981831601169063ffffffff1916176006556118e0565b506009865281832060058101549054146118db565b906119709250610595908661132d565b50858152600784528180822054386118ab565b825162461bcd60e51b815260048101869052602660248201527f45524332303a207472616e7366657220616d6f756e7420657863656564732062604482015265616c616e636560d01b6064820152608490fd5b60405162461bcd60e51b815260206004820152602360248201527f45524332303a207472616e7366657220746f20746865207a65726f206164647260448201526265737360e81b6064820152608490fd5b60405162461bcd60e51b815260206004820152602560248201527f45524332303a207472616e736665722066726f6d20746865207a65726f206164604482015264647265737360d81b6064820152608490fdfed4691cc79b8fc72aac1e8c0d15a2ca06d71a386c983f815266f0fce713dc5ea7a2646970667358221220d68b9790b407bd936f30118555012efd6cd062cfbf3e49f31e46ce21d90a2e7264736f6c63430008140033405787fa12a823e0f2b7631cc41b3ba8828b3321ca811111fa75cd3aa3bb5aceb10e2d527612073b26eecdfd717e6a320cf44b4afac2b0732d9fcbe2b7fa0cf6",
  "linkReferences": {},
  "deployedLinkReferences": {}
}