{
  "_format": "hh-sol-artifact-1",
  "contractName": "AiAgentToken",
  "sourceName": "contracts/AiAgentToken.sol",
  "abi": [
    {
      "inputs": [
        {
          "internalType": "string",
          "name": "name_",
          "type": "string"
        },
        {
          "internalType": "string",
          "name": "symbol_",
          "type": "string"
        },
        {
          "internalType": "address",
          "name": "_adminWallet",
          "type": "address"
        },
        {
          "internalType": "address",
          "name": "_stakingWallet",
          "type": "address"
        },
        {
          "internalType": "address",
          "name": "_creatorWallet",
          "type": "address"
        },
        {
          "internalType": "uint256",
          "name": "_totalSupply",
          "type": "uint256"
        }
      ],
      "stateMutability": "nonpayable",
      "type": "constructor"
    },
    {
      "inputs": [
        {
          "internalType": "address",
          "name": "owner",
          "type": "address"
        }
      ],
      "name": "OwnableInvalidOwner",
      "type": "error"
    },
    {
      "inputs": [
        {
          "internalType": "address",
          "name": "account",
          "type": "address"
        }
      ],
      "name": "OwnableUnauthorizedAccount",
      "type": "error"
    },
    {
      "anonymous": false,
      "inputs": [
        {
          "indexed": true,
          "internalType": "address",
          "name": "owner",
          "type": "address"
        },
        {
          "indexed": true,
          "internalType": "address",
          "name": "spender",
          "type": "address"
        },
        {
          "indexed": false,
          "internalType": "uint256",
          "name": "value",
          "type": "uint256"
        }
      ],
      "name": "Approval",
      "type": "event"
    },
    {
      "anonymous": false,
      "inputs": [
        {
          "indexed": true,
          "internalType": "address",
          "name": "previousOwner",
          "type": "address"
        },
        {
          "indexed": true,
          "internalType": "address",
          "name": "newOwner",
          "type": "address"
        }
      ],
      "name": "OwnershipTransferred",
      "type": "event"
    },
    {
      "anonymous": false,
      "inputs": [
        {
          "indexed": true,
          "internalType": "address",
          "name": "account",
          "type": "address"
        },
        {
          "indexed": false,
          "internalType": "uint256",
          "name": "amount",
          "type": "uint256"
        }
      ],
      "name": "TokensVested",
      "type": "event"
    },
    {
      "anonymous": false,
      "inputs": [
        {
          "indexed": true,
          "internalType": "address",
          "name": "from",
          "type": "address"
        },
        {
          "indexed": true,
          "internalType": "address",
          "name": "to",
          "type": "address"
        },
        {
          "indexed": false,
          "internalType": "uint256",
          "name": "value",
          "type": "uint256"
        }
      ],
      "name": "Transfer",
      "type": "event"
    },
    {
      "anonymous": false,
      "inputs": [
        {
          "indexed": true,
          "internalType": "address",
          "name": "account",
          "type": "address"
        },
        {
          "indexed": false,
          "internalType": "uint256",
          "name": "totalAmount",
          "type": "uint256"
        }
      ],
      "name": "VestingCompleted",
      "type": "event"
    },
    {
      "anonymous": false,
      "inputs": [
        {
          "indexed": true,
          "internalType": "address",
          "name": "account",
          "type": "address"
        },
        {
          "indexed": false,
          "internalType": "uint256",
          "name": "amount",
          "type": "uint256"
        }
      ],
      "name": "VestingTokensClaimed",
      "type": "event"
    },
    {
      "inputs": [],
      "name": "BASE_BURN_RATE",
      "outputs": [
        {
          "internalType": "uint256",
          "name": "",
          "type": "uint256"
        }
      ],
      "stateMutability": "view",
      "type": "function"
    },
    {
      "inputs": [],
      "name": "BONDING_CURVE_PERCENT",
      "outputs": [
        {
          "internalType": "uint256",
          "name": "",
          "type": "uint256"
        }
      ],
      "stateMutability": "view",
      "type": "function"
    },
    {
      "inputs": [],
      "name": "BONDING_UNLOCK_PERCENT",
      "outputs": [
        {
          "internalType": "uint256",
          "name": "",
          "type": "uint256"
        }
      ],
      "stateMutability": "view",
      "type": "function"
    },
    {
      "inputs": [],
      "name": "BONDING_VESTING_PERCENT",
      "outputs": [
        {
          "internalType": "uint256",
          "name": "",
          "type": "uint256"
        }
      ],
      "stateMutability": "view",
      "type": "function"
    },
    {
      "inputs": [],
      "name": "BONDING_VESTING_TIMES",
      "outputs": [
        {
          "internalType": "uint256",
          "name": "",
          "type": "uint256"
        }
      ],
      "stateMutability": "view",
      "type": "function"
    },
    {
      "inputs": [],
      "name": "CLIFF_PERIOD",
      "outputs": [
        {
          "internalType": "uint256",
          "name": "",
          "type": "uint256"
        }
      ],
      "stateMutability": "view",
      "type": "function"
    },
    {
      "inputs": [],
      "name": "CREATOR_PERCENT",
      "outputs": [
        {
          "internalType": "uint256",
          "name": "",
          "type": "uint256"
        }
      ],
      "stateMutability": "view",
      "type": "function"
    },
    {
      "inputs": [],
      "name": "CREATOR_UNLOCK_PERCENT",
      "outputs": [
        {
          "internalType": "uint256",
          "name": "",
          "type": "uint256"
        }
      ],
      "stateMutability": "view",
      "type": "function"
    },
    {
      "inputs": [],
      "name": "CREATOR_VESTING_PERCENT",
      "outputs": [
        {
          "internalType": "uint256",
          "name": "",
          "type": "uint256"
        }
      ],
      "stateMutability": "view",
      "type": "function"
    },
    {
      "inputs": [],
      "name": "CREATOR_VESTING_TIMES",
      "outputs": [
        {
          "internalType": "uint256",
          "name": "",
          "type": "uint256"
        }
      ],
      "stateMutability": "view",
      "type": "function"
    },
    {
      "inputs": [],
      "name": "FEE_DENOMINATOR",
      "outputs": [
        {
          "internalType": "uint256",
          "name": "",
          "type": "uint256"
        }
      ],
      "stateMutability": "view",
      "type": "function"
    },
    {
      "inputs": [],
      "name": "LIQUIDITY_PERCENT",
      "outputs": [
        {
          "internalType": "uint256",
          "name": "",
          "type": "uint256"
        }
      ],
      "stateMutability": "view",
      "type": "function"
    },
    {
      "inputs": [],
      "name": "MIN_FEE",
      "outputs": [
        {
          "internalType": "uint256",
          "name": "",
          "type": "uint256"
        }
      ],
      "stateMutability": "view",
      "type": "function"
    },
    {
      "inputs": [],
      "name": "STAKING_REWARD_PERCENT",
      "outputs": [
        {
          "internalType": "uint256",
          "name": "",
          "type": "uint256"
        }
      ],
      "stateMutability": "view",
      "type": "function"
    },
    {
      "inputs": [
        {
          "internalType": "address",
          "name": "from",
          "type": "address"
        },
        {
          "internalType": "address",
          "name": "to",
          "type": "address"
        }
      ],
      "name": "allowance",
      "outputs": [
        {
          "internalType": "uint256",
          "name": "",
          "type": "uint256"
        }
      ],
      "stateMutability": "view",
      "type": "function"
    },
    {
      "inputs": [
        {
          "internalType": "address",
          "name": "spender",
          "type": "address"
        },
        {
          "internalType": "uint256",
          "name": "amount",
          "type": "uint256"
        }
      ],
      "name": "approve",
      "outputs": [
        {
          "internalType": "bool",
          "name": "",
          "type": "bool"
        }
      ],
      "stateMutability": "nonpayable",
      "type": "function"
    },
    {
      "inputs": [
        {
          "internalType": "address",
          "name": "account",
          "type": "address"
        }
      ],
      "name": "balanceOf",
      "outputs": [
        {
          "internalType": "uint256",
          "name": "",
          "type": "uint256"
        }
      ],
      "stateMutability": "view",
      "type": "function"
    },
    {
      "inputs": [],
      "name": "bondingWallet",
      "outputs": [
        {
          "internalType": "address",
          "name": "",
          "type": "address"
        }
      ],
      "stateMutability": "view",
      "type": "function"
    },
    {
      "inputs": [
        {
          "internalType": "address",
          "name": "account",
          "type": "address"
        },
        {
          "internalType": "uint256",
          "name": "amount",
          "type": "uint256"
        }
      ],
      "name": "burn",
      "outputs": [],
      "stateMutability": "nonpayable",
      "type": "function"
    },
    {
      "inputs": [
        {
          "internalType": "address",
          "name": "account",
          "type": "address"
        },
        {
          "internalType": "uint256",
          "name": "amount",
          "type": "uint256"
        }
      ],
      "name": "createVestingScheduleForBuyer",
      "outputs": [],
      "stateMutability": "nonpayable",
      "type": "function"
    },
    {
      "inputs": [
        {
          "internalType": "address",
          "name": "account",
          "type": "address"
        },
        {
          "internalType": "uint256",
          "name": "amount",
          "type": "uint256"
        }
      ],
      "name": "createVestingScheduleForCreator",
      "outputs": [],
      "stateMutability": "nonpayable",
      "type": "function"
    },
    {
      "inputs": [],
      "name": "creatorWallet",
      "outputs": [
        {
          "internalType": "address",
          "name": "",
          "type": "address"
        }
      ],
      "stateMutability": "view",
      "type": "function"
    },
    {
      "inputs": [
        {
          "internalType": "address",
          "name": "",
          "type": "address"
        }
      ],
      "name": "dailySellAmount",
      "outputs": [
        {
          "internalType": "uint256",
          "name": "",
          "type": "uint256"
        }
      ],
      "stateMutability": "view",
      "type": "function"
    },
    {
      "inputs": [],
      "name": "decimals",
      "outputs": [
        {
          "internalType": "uint8",
          "name": "",
          "type": "uint8"
        }
      ],
      "stateMutability": "view",
      "type": "function"
    },
    {
      "inputs": [
        {
          "internalType": "address",
          "name": "account",
          "type": "address"
        }
      ],
      "name": "getDetailsAccount",
      "outputs": [
        {
          "internalType": "uint256",
          "name": "actualBalance",
          "type": "uint256"
        },
        {
          "internalType": "uint256",
          "name": "vestedBalance",
          "type": "uint256"
        },
        {
          "internalType": "uint256",
          "name": "claimableAmount",
          "type": "uint256"
        },
        {
          "internalType": "uint256",
          "name": "totalBalance",
          "type": "uint256"
        },
        {
          "internalType": "uint256",
          "name": "vestingEndTime",
          "type": "uint256"
        },
        {
          "internalType": "uint256",
          "name": "releasedAmount",
          "type": "uint256"
        }
      ],
      "stateMutability": "view",
      "type": "function"
    },
    {
      "inputs": [],
      "name": "getHolderCount",
      "outputs": [
        {
          "internalType": "uint256",
          "name": "",
          "type": "uint256"
        }
      ],
      "stateMutability": "view",
      "type": "function"
    },
    {
      "inputs": [
        {
          "internalType": "address",
          "name": "account",
          "type": "address"
        }
      ],
      "name": "isAdmin",
      "outputs": [
        {
          "internalType": "bool",
          "name": "",
          "type": "bool"
        }
      ],
      "stateMutability": "view",
      "type": "function"
    },
    {
      "inputs": [
        {
          "internalType": "address",
          "name": "",
          "type": "address"
        }
      ],
      "name": "lastSellTime",
      "outputs": [
        {
          "internalType": "uint256",
          "name": "",
          "type": "uint256"
        }
      ],
      "stateMutability": "view",
      "type": "function"
    },
    {
      "inputs": [],
      "name": "liquidityWallet",
      "outputs": [
        {
          "internalType": "address",
          "name": "",
          "type": "address"
        }
      ],
      "stateMutability": "view",
      "type": "function"
    },
    {
      "inputs": [
        {
          "internalType": "address",
          "name": "to",
          "type": "address"
        },
        {
          "internalType": "uint256",
          "name": "amount",
          "type": "uint256"
        }
      ],
      "name": "mint",
      "outputs": [],
      "stateMutability": "nonpayable",
      "type": "function"
    },
    {
      "inputs": [],
      "name": "name",
      "outputs": [
        {
          "internalType": "string",
          "name": "",
          "type": "string"
        }
      ],
      "stateMutability": "view",
      "type": "function"
    },
    {
      "inputs": [],
      "name": "owner",
      "outputs": [
        {
          "internalType": "address",
          "name": "",
          "type": "address"
        }
      ],
      "stateMutability": "view",
      "type": "function"
    },
    {
      "inputs": [],
      "name": "renounceOwnership",
      "outputs": [],
      "stateMutability": "nonpayable",
      "type": "function"
    },
    {
      "inputs": [
        {
          "internalType": "address",
          "name": "account",
          "type": "address"
        },
        {
          "internalType": "bool",
          "name": "_isAdmin",
          "type": "bool"
        }
      ],
      "name": "setAdmin",
      "outputs": [],
      "stateMutability": "nonpayable",
      "type": "function"
    },
    {
      "inputs": [],
      "name": "stakingWallet",
      "outputs": [
        {
          "internalType": "address",
          "name": "",
          "type": "address"
        }
      ],
      "stateMutability": "view",
      "type": "function"
    },
    {
      "inputs": [],
      "name": "symbol",
      "outputs": [
        {
          "internalType": "string",
          "name": "",
          "type": "string"
        }
      ],
      "stateMutability": "view",
      "type": "function"
    },
    {
      "inputs": [],
      "name": "totalSupply",
      "outputs": [
        {
          "internalType": "uint256",
          "name": "",
          "type": "uint256"
        }
      ],
      "stateMutability": "view",
      "type": "function"
    },
    {
      "inputs": [
        {
          "internalType": "address",
          "name": "to",
          "type": "address"
        },
        {
          "internalType": "uint256",
          "name": "amount",
          "type": "uint256"
        }
      ],
      "name": "transfer",
      "outputs": [
        {
          "internalType": "bool",
          "name": "",
          "type": "bool"
        }
      ],
      "stateMutability": "nonpayable",
      "type": "function"
    },
    {
      "inputs": [
        {
          "internalType": "address",
          "name": "from",
          "type": "address"
        },
        {
          "internalType": "address",
          "name": "to",
          "type": "address"
        },
        {
          "internalType": "uint256",
          "name": "amount",
          "type": "uint256"
        }
      ],
      "name": "transferFrom",
      "outputs": [
        {
          "internalType": "bool",
          "name": "",
          "type": "bool"
        }
      ],
      "stateMutability": "nonpayable",
      "type": "function"
    },
    {
      "inputs": [
        {
          "internalType": "address",
          "name": "newOwner",
          "type": "address"
        }
      ],
      "name": "transferOwnership",
      "outputs": [],
      "stateMutability": "nonpayable",
      "type": "function"
    },
    {
      "inputs": [
        {
          "internalType": "address",
          "name": "account",
          "type": "address"
        }
      ],
      "name": "vestingDetails",
      "outputs": [
        {
          "components": [
            {
              "internalType": "uint256",
              "name": "totalAmount",
              "type": "uint256"
            },
            {
              "internalType": "uint256",
              "name": "startTime",
              "type": "uint256"
            },
            {
              "internalType": "uint256",
              "name": "cliffEnd",
              "type": "uint256"
            },
            {
              "internalType": "uint256",
              "name": "endTime",
              "type": "uint256"
            },
            {
              "internalType": "uint256",
              "name": "lastClaimTime",
              "type": "uint256"
            },
            {
              "internalType": "uint256",
              "name": "releasedAmount",
              "type": "uint256"
            },
            {
              "internalType": "bool",
              "name": "revoked",
              "type": "bool"
            }
          ],
          "internalType": "struct AiAgentToken.VestingSchedule",
          "name": "schedule",
          "type": "tuple"
        }
      ],
      "stateMutability": "view",
      "type": "function"
    },
    {
      "inputs": [
        {
          "internalType": "address",
          "name": "",
          "type": "address"
        }
      ],
      "name": "vestingSchedules",
      "outputs": [
        {
          "internalType": "uint256",
          "name": "totalAmount",
          "type": "uint256"
        },
        {
          "internalType": "uint256",
          "name": "startTime",
          "type": "uint256"
        },
        {
          "internalType": "uint256",
          "name": "cliffEnd",
          "type": "uint256"
        },
        {
          "internalType": "uint256",
          "name": "endTime",
          "type": "uint256"
        },
        {
          "internalType": "uint256",
          "name": "lastClaimTime",
          "type": "uint256"
        },
        {
          "internalType": "uint256",
          "name": "releasedAmount",
          "type": "uint256"
        },
        {
          "internalType": "bool",
          "name": "revoked",
          "type": "bool"
        }
      ],
      "stateMutability": "view",
      "type": "function"
    }
  ],
  "bytecode": "0x608060405234620005c557620021eb803803806200001d81620005ca565b92833981019060c081830312620005c55780516001600160401b038111620005c557826200004d918301620005f0565b602082015190926001600160401b038211620005c55762000070918301620005f0565b916200007f6040830162000662565b926200008e6060840162000662565b9260a06200009f6080830162000662565b9101516001600160a01b039590939086168015620005ac57600080546001600160a01b03198116831782556040519183918a16907f8be0079c531659141344cd1fd0a4f28419497f9722a3daafe3b4186f6b6457e09080a3878716156200056a57508683161562000525576000908152600560205260409020805460ff191660011790558051906001600160401b038211620004165760015490600182811c921680156200051a575b6020831014620003f55781601f849311620004b6575b50602090601f831160011462000438576000926200042c575b50508160011b916000199060031b1c1916176001555b81516001600160401b038111620004165760025492600184811c941680156200040b575b6020851014620003f55783601f8895116200038d575b50602090601f83116001146200030d57600091908362000301575b50508160011b916000199060031b1c1916176002555b601260ff19600354161760035581841660018060a01b0319600e541617600e551660018060a01b0319600f541617600f5580600455600581029080820460051490151715620002e0576064900491808216600052600760205260406000208054848101809255159081620002f6575b50620002ae575b60207fddf252ad1be2c89b69c2b068fc378daa952ba7f163c4a11628f55a4df523b3ef916000936040519586521693a3604051611b339081620006788239f35b6006549163ffffffff9182841691838314620002e05763ffffffff19909416600192909201909216176006556200026e565b634e487b7160e01b600052601160045260246000fd5b905015153862000267565b015190503880620001e2565b600260009081529094939291600080516020620021ab83398151915291601f198416905b818110620003715750958360019596971062000357575b505050811b01600255620001f8565b015160001960f88460031b161c1916905538808062000348565b8783015184558a96506001909301926020928301920162000331565b60026000529293509091600080516020620021ab833981519152601f840160051c81019160208510620003ea575b90601f8996959493920160051c01905b818110620003da5750620001c7565b60008155889550600101620003cb565b9091508190620003bb565b634e487b7160e01b600052602260045260246000fd5b93607f1693620001b1565b634e487b7160e01b600052604160045260246000fd5b01519050388062000177565b600160009081529350600080516020620021cb83398151915291905b601f19841685106200049a576001945083601f1981161062000480575b505050811b016001556200018d565b015160001960f88460031b161c1916905538808062000471565b8181015183556020948501946001909301929091019062000454565b6001600052909150600080516020620021cb833981519152601f840160051c810191602085106200050f575b90601f859493920160051c01905b818110620004ff57506200015e565b60008155849350600101620004f0565b9091508190620004e2565b91607f169162000148565b60405162461bcd60e51b815260206004820152601c60248201527f496e76616c69642063726561746f7257616c6c65742077616c6c6574000000006044820152606490fd5b62461bcd60e51b815260206004820152601660248201527f496e76616c6964207374616b696e672077616c6c6574000000000000000000006044820152606490fd5b604051631e4fbdf760e01b815260006004820152602490fd5b600080fd5b6040519190601f01601f191682016001600160401b038111838210176200041657604052565b919080601f84011215620005c55782516001600160401b038111620004165760209062000626601f8201601f19168301620005ca565b92818452828287010111620005c55760005b8181106200064e57508260009394955001015290565b858101830151848201840152820162000638565b51906001600160a01b0382168203620005c55756fe608060408181526004908136101561001657600080fd5b600091823560e01c93846306ee6ad8146111b55750836306fdde03146110fb5783630808976d14610fed578363095ea7b314610fc457836318160ddd14610fa857836323b872dd14610edd57836324d7806c14610ea05783632f05edba14610e85578363313ce56714610e645783633a8d009714610da65783633ccfbabf146101f55783633fd358531461041857836340c10f1914610d695783634b0bddd214610d0d5783634c420c3b146109f55783634e11b01f146109da5783636f293d59146109bf57836370a08231146109935783637136982b1461096f578363715018a61461091557836376c7a3c714610910578363771a4bfd146109105783637a9e361c146108f55783637cdc65f2146108cd57836383042cd2146108af5783638b927075146108875783638cad856f1461086d5783638da5cb5b1461084657836395d89b4114610745578363996b27591461069c5783639dc29fac146104ed578363a9059cbb1461041d578363b046818514610418578363b44b4b80146103e1578363d4698016146103b9578363d73792a91461039d578363dd62ed3e14610355578363dfa728b31461031e578363f2fde38b14610299578363fdb20ccb1461021b57508263fe0af304146101fa57505063ff458f77146101f557600080fd5b611254565b3461021757816003193601126102175760209051630163f5008152f35b5080fd5b346102955760203660031901126102955760e09282906001600160a01b03610241611223565b16815260096020522080549260018201549260028301546003840154918401549260ff600660058701549601541695815197885260208801528601526060850152608084015260a0830152151560c0820152f35b8280fd5b34610295576020366003190112610295576102b2611223565b906102bb6112a8565b6001600160a01b0391821692831561030857505082546001600160a01b0319811683178455167f8be0079c531659141344cd1fd0a4f28419497f9722a3daafe3b4186f6b6457e08380a380f35b51631e4fbdf760e01b8152908101849052602490fd5b50346102175760203660031901126102175760209181906001600160a01b03610345611223565b168152600b845220549051908152f35b503461021757806003193601126102175780602092610372611223565b61037a61123e565b6001600160a01b0391821683526008865283832091168252845220549051908152f35b5034610217578160031936011261021757602090516127108152f35b5034610217578160031936011261021757600d5490516001600160a01b039091168152602090f35b50346102175760203660031901126102175760209181906001600160a01b03610408611223565b168152600a845220549051908152f35b611270565b82346104ea57826003193601126104ea5750610437611223565b60243591336001600160a01b038316146104a75782610455336113f2565b1061046f5760208461046885853361189e565b5160018152f35b606490602085519162461bcd60e51b835282015260126024820152714e6f7420656e6f75676820616d6f756e742160701b6044820152fd5b606490602085519162461bcd60e51b8352820152601860248201527f4e6f7420616c6c6f772073656c66207472616e736665722100000000000000006044820152fd5b80fd5b829034610217578260031936011261021757610507611223565b906024353384526020916005835261052460ff87872054166112d4565b6001600160a01b03841693841561064f578486526007845286862054918361054b836113f2565b1061060157509582828798827fddf252ad1be2c89b69c2b068fc378daa952ba7f163c4a11628f55a4df523b3ef979695106105da575b50868852600785528181038389205514806105c5575b6105a4575b51908152a380f35b60065463ffffffff60001981831601169063ffffffff19161760065561059c565b50600983528086206005810154905414610597565b906105e8906105ee93611390565b906116db565b5084865260078352818187205489610581565b875162461bcd60e51b8152908101859052602260248201527f45524332303a206275726e20616d6f756e7420657863656564732062616c616e604482015261636560f01b6064820152608490fd5b865162461bcd60e51b8152808301859052602160248201527f45524332303a206275726e2066726f6d20746865207a65726f206164647265736044820152607360f81b6064820152608490fd5b50346102175760203660031901126102175760c06107038260e0946106bf611223565b818584516106cc8161133c565b82815282602082015282868201528260608201528260808201528260a0820152015260018060a01b0316815260096020522061139d565b82519281518452602082015160208501528082015190840152606081015160608401526080810151608084015260a081015160a08401520151151560c0820152f35b9034610295578260031936011261029557805191836002549060019082821c92828116801561083c575b6020958686108214610829575084885290811561080757506001146107ae575b6107aa86866107a0828b038361136e565b51918291826111da565b0390f35b929550600283527f405787fa12a823e0f2b7631cc41b3ba8828b3321ca811111fa75cd3aa3bb5ace5b8284106107f457505050826107aa946107a092820101948661078f565b80548685018801529286019281016107d7565b60ff191687860152505050151560051b83010192506107a0826107aa8661078f565b634e487b7160e01b845260229052602483fd5b93607f169361076f565b5034610217578160031936011261021757905490516001600160a01b039091168152602090f35b503461021757816003193601126102175751908152602090f35b5034610217578160031936011261021757600c5490516001600160a01b039091168152602090f35b5034610217578160031936011261021757602090516303b538008152f35b5034610217578160031936011261021757600f5490516001600160a01b039091168152602090f35b503461021757816003193601126102175760209051604b8152f35b61128c565b82346104ea57806003193601126104ea5761092e6112a8565b80546001600160a01b03198116825581906001600160a01b03167f8be0079c531659141344cd1fd0a4f28419497f9722a3daafe3b4186f6b6457e08280a380f35b503461021757816003193601126102175760209063ffffffff600654169051908152f35b5034610217576020366003190112610217576020906109b86109b3611223565b6113f2565b9051908152f35b50346102175781600319360112610217576020905160468152f35b50346102175781600319360112610217576020905160198152f35b829034610217578260031936011261021757610a0f611223565b9060249384359033855260209260058452610a2f60ff83882054166112d4565b6001600160a01b038516948515610ccc578315610c8b57600a840293808504600a03610c7957605a8102908104605a03610c795790606480610a7493049504906115f9565b84865260098452818620805490979015610b9f5760ff600689015416610b5f5750610af160068689610b57948a600080516020611ade8339815191529a9b9c54928a610ace8b610ac960058501548098611390565b611319565b928a60018401549160096002860154948860038801549701549784519d8e61133c565b8d52808d01948552838d0195865260608d0196875260808d0197885260a08d01998a5260c08d019a838c528352522098518955516001890155516002880155516003870155519085015551600584015551151591019060ff801983541691151516179055565b51908152a280f35b601c9085606494519362461bcd60e51b85528401528201527f4578697374696e67207363686564756c65206973207265766f6b6564000000006044820152fd5b90965085610c6857630163f500420190814211610c5557508495966006600080516020611ade83398151915296610c5093855193610bdc8561133c565b878552888501914283528786019042825260608701908152608087019142835260a08801946000865260c08901966000885260005260098d528a60002098518955516001890155516002880155516003870155519085015551600584015551151591019060ff801983541691151516179055565b610b57565b634e487b7160e01b600090815260118952fd5b634e487b7160e01b86526011875285fd5b634e487b7160e01b8852601183528888fd5b50601d8785606494519362461bcd60e51b85528401528201527f416d6f756e74206d7573742062652067726561746572207468616e20300000006044820152fd5b5060178785606494519362461bcd60e51b85528401528201527f496e76616c6964206163636f756e7420616464726573730000000000000000006044820152fd5b5034610217578060031936011261021757610d26611223565b90602435908115158203610d6557610d6292610d406112a8565b60018060a01b03168452600560205283209060ff801983541691151516179055565b80f35b8380fd5b5034610217578060031936011261021757610d6290610d9d60ff610d8b611223565b923386526005602052852054166112d4565b602435906115f9565b5034610217576020366003190112610217579060c091610dc4611223565b60018060a01b0316825260076020528082205491809181610deb828460096020522061139d565b91825180151580610e59575b80610e4c575b610e31575b5060a0610e0f8388611319565b93015194815196875260208701528501526060840152608083015260a0820152f35b94509250610e40905081611462565b60608201519287610e02565b5081840151421015610dfd565b508784015115610df7565b503461021757816003193601126102175760209060ff600354169051908152f35b503461021757816003193601126102175760209051605a8152f35b50346102175760203660031901126102175760209160ff9082906001600160a01b03610eca611223565b1681526005855220541690519015158152f35b82903461021757606036600319011261021757610ef8611223565b610f0061123e565b6001600160a01b03821684526008602090815285852033865290529284902054604435939260018201610f3c575b60208661046887878761189e565b848210610f655750918391610f5a602096956104689503338361150f565b919394819350610f2e565b606490602087519162461bcd60e51b8352820152601d60248201527f45524332303a20696e73756666696369656e7420616c6c6f77616e63650000006044820152fd5b3461029557826003193601126102955760209250549051908152f35b5034610217578060031936011261021757602090610468610fe3611223565b602435903361150f565b829034610217578260031936011261021757611007611223565b906024938435903385526020926005845261102760ff83882054166112d4565b6001600160a01b038516948515610ccc578315610c8b576019840293808504601903610c7957604b8102908104604b03610c79579060648061106c93049504906115f9565b848652600984528186208054909790156110c15760ff600689015416610b5f5750610af160068689610b57948a600080516020611ade8339815191529a9b9c54928a610ace8b610ac960058501548098611390565b95909650946303b53800420190814211610c5557508495966006600080516020611ade83398151915296610c5093855193610bdc8561133c565b903461029557826003193601126102955780519183600180549182821c9282811680156111ab575b602095868610821461082957508488529081156108075750600114611153576107aa86866107a0828b038361136e565b9295508083527fb10e2d527612073b26eecdfd717e6a320cf44b4afac2b0732d9fcbe2b7fa0cf65b82841061119857505050826107aa946107a092820101948661078f565b805486850188015292860192810161117b565b93607f1693611123565b839034610217578160031936011261021757600e546001600160a01b03168152602090f35b6020808252825181830181905290939260005b82811061120f57505060409293506000838284010152601f8019910116010190565b8181018601518482016040015285016111ed565b600435906001600160a01b038216820361123957565b600080fd5b602435906001600160a01b038216820361123957565b3461123957600036600319011261123957602060405160148152f35b3461123957600036600319011261123957602060405160058152f35b34611239576000366003190112611239576020604051600a8152f35b6000546001600160a01b031633036112bc57565b60405163118cdaa760e01b8152336004820152602490fd5b156112db57565b60405162461bcd60e51b815260206004820152601660248201527531b0b63632b91034b9903737ba1030b71030b236b4b760511b6044820152606490fd5b9190820180921161132657565b634e487b7160e01b600052601160045260246000fd5b60e0810190811067ffffffffffffffff82111761135857604052565b634e487b7160e01b600052604160045260246000fd5b90601f8019910116810190811067ffffffffffffffff82111761135857604052565b9190820391821161132657565b906040516113aa8161133c565b60c060ff600683958054855260018101546020860152600281015460408601526003810154606086015260048101546080860152600581015460a08601520154161515910152565b60018060a01b03166000526007602052604060002054600960205261141a604060002061139d565b8051151580611456575b80611448575b611432575090565b9061143f61144592611462565b90611319565b90565b50604081015142101561142a565b5060c081015115611424565b60408101514210611509576060810180514210156114f7576114966020830161148c815142611390565b9251905190611390565b9082518181029181830414901517156113265781156114e1570481518082116114d9575b5060a06000920151908181116114cf57505090565b6114459250611390565b9050386114ba565b634e487b7160e01b600052601260045260246000fd5b508060a0611445925191015190611390565b50600090565b6001600160a01b039081169182156115b557169182156115705760207f8c5be1e5ebec7d5bd14f71427d1e84f3dd0314c0f7b2291e5b200ac8c7c3b925918360005260088252604060002085600052825280604060002055604051908152a3565b60405162461bcd60e51b815260206004820152601e60248201527f45524332303a20617070726f766520746f207a65726f206164647265737300006044820152606490fd5b606460405162461bcd60e51b815260206004820152602060248201527f45524332303a20617070726f76652066726f6d207a65726f20616464726573736044820152fd5b6001600160a01b0316908115611696578160005260076020526040600020805482810180925515908161168c575b5061165c575b7fddf252ad1be2c89b69c2b068fc378daa952ba7f163c4a11628f55a4df523b3ef6020600092604051908152a3565b6006549063ffffffff90818316908282146113265763ffffffff199093166001919091019091161760065561162d565b9050151538611627565b60405162461bcd60e51b815260206004820152601f60248201527f45524332303a206d696e7420746f20746865207a65726f2061646472657373006044820152606490fd5b60018060a01b03811690600090828252602091600983526040918282209060ff600683015416611868576002820154421061182b578661172261171d8461139d565b611462565b106117e7579184827f5952e800de5564aff4cc315e219327cf6d706cbba481d1613c32f4b1aa17dcdd96959461176a8a60058b970192611763828554611319565b84556115f9565b4260048301555481541115611786575b5050505051848152a290565b82847fc6cfdb244e262cc2d7da34a1f8d576a0b4bceb631ac57ea5858a7bed7255279f94526009835260068682208281558260018201558260028201558260038201558260048201558260058201550155548451908152a28338838161177a565b835162461bcd60e51b815260048101869052601a60248201527f496e73756666696369656e742076657374656420746f6b656e730000000000006044820152606490fd5b835162461bcd60e51b815260048101869052601660248201527510db1a5999881c195c9a5bd9081b9bdd08195b99195960521b6044820152606490fd5b835162461bcd60e51b815260048101869052600f60248201526e15995cdd1a5b99c81c995d9bdad959608a1b6044820152606490fd5b9291906001600160a01b03808516918215611a8a5716918215611a3957600090828252602091600783526040908181205497836118da826113f2565b106119e657888391857fddf252ad1be2c89b69c2b068fc378daa952ba7f163c4a11628f55a4df523b3ef98999a9b106119c3575b508883526007865284828420549189855203828420558883528183208581540190558783528183205415806119ae575b61198d575b159182611979575b5050611959575b51908152a3565b60065463ffffffff600181831601169063ffffffff191617600655611952565b88815260078652205415159050813861194b565b60065463ffffffff60001981831601169063ffffffff191617600655611943565b5060098652818320600581015490541461193e565b906119d392506105e89086611390565b508581526007845281808220543861190e565b825162461bcd60e51b815260048101869052602660248201527f45524332303a207472616e7366657220616d6f756e7420657863656564732062604482015265616c616e636560d01b6064820152608490fd5b60405162461bcd60e51b815260206004820152602360248201527f45524332303a207472616e7366657220746f20746865207a65726f206164647260448201526265737360e81b6064820152608490fd5b60405162461bcd60e51b815260206004820152602560248201527f45524332303a207472616e736665722066726f6d20746865207a65726f206164604482015264647265737360d81b6064820152608490fdfed4691cc79b8fc72aac1e8c0d15a2ca06d71a386c983f815266f0fce713dc5ea7a2646970667358221220b339772a7d8653623b5585bf3c650ce2e254b008bf0f9a5fdc301242f54634ba64736f6c63430008140033405787fa12a823e0f2b7631cc41b3ba8828b3321ca811111fa75cd3aa3bb5aceb10e2d527612073b26eecdfd717e6a320cf44b4afac2b0732d9fcbe2b7fa0cf6",
  "linkReferences": {},
  "deployedLinkReferences": {}
}