{
  "_format": "hh-sol-artifact-1",
  "contractName": "AiAgentToken",
  "sourceName": "contracts/AiAgentToken.sol",
  "abi": [
    {
      "inputs": [
        {
          "internalType": "string",
          "name": "name_",
          "type": "string"
        },
        {
          "internalType": "string",
          "name": "symbol_",
          "type": "string"
        },
        {
          "internalType": "address",
          "name": "_adminWallet",
          "type": "address"
        },
        {
          "internalType": "address",
          "name": "_stakingWallet",
          "type": "address"
        },
        {
          "internalType": "address",
          "name": "_creatorWallet",
          "type": "address"
        },
        {
          "internalType": "uint256",
          "name": "_totalSupply",
          "type": "uint256"
        }
      ],
      "stateMutability": "nonpayable",
      "type": "constructor"
    },
    {
      "inputs": [
        {
          "internalType": "address",
          "name": "owner",
          "type": "address"
        }
      ],
      "name": "OwnableInvalidOwner",
      "type": "error"
    },
    {
      "inputs": [
        {
          "internalType": "address",
          "name": "account",
          "type": "address"
        }
      ],
      "name": "OwnableUnauthorizedAccount",
      "type": "error"
    },
    {
      "anonymous": false,
      "inputs": [
        {
          "indexed": true,
          "internalType": "address",
          "name": "owner",
          "type": "address"
        },
        {
          "indexed": true,
          "internalType": "address",
          "name": "spender",
          "type": "address"
        },
        {
          "indexed": false,
          "internalType": "uint256",
          "name": "value",
          "type": "uint256"
        }
      ],
      "name": "Approval",
      "type": "event"
    },
    {
      "anonymous": false,
      "inputs": [
        {
          "indexed": true,
          "internalType": "address",
          "name": "previousOwner",
          "type": "address"
        },
        {
          "indexed": true,
          "internalType": "address",
          "name": "newOwner",
          "type": "address"
        }
      ],
      "name": "OwnershipTransferred",
      "type": "event"
    },
    {
      "anonymous": false,
      "inputs": [
        {
          "indexed": true,
          "internalType": "address",
          "name": "account",
          "type": "address"
        },
        {
          "indexed": false,
          "internalType": "uint256",
          "name": "amount",
          "type": "uint256"
        }
      ],
      "name": "TokensVested",
      "type": "event"
    },
    {
      "anonymous": false,
      "inputs": [
        {
          "indexed": true,
          "internalType": "address",
          "name": "from",
          "type": "address"
        },
        {
          "indexed": true,
          "internalType": "address",
          "name": "to",
          "type": "address"
        },
        {
          "indexed": false,
          "internalType": "uint256",
          "name": "value",
          "type": "uint256"
        }
      ],
      "name": "Transfer",
      "type": "event"
    },
    {
      "anonymous": false,
      "inputs": [
        {
          "indexed": true,
          "internalType": "address",
          "name": "account",
          "type": "address"
        },
        {
          "indexed": false,
          "internalType": "uint256",
          "name": "totalAmount",
          "type": "uint256"
        }
      ],
      "name": "VestingCompleted",
      "type": "event"
    },
    {
      "anonymous": false,
      "inputs": [
        {
          "indexed": true,
          "internalType": "address",
          "name": "account",
          "type": "address"
        },
        {
          "indexed": false,
          "internalType": "uint256",
          "name": "amount",
          "type": "uint256"
        }
      ],
      "name": "VestingTokensClaimed",
      "type": "event"
    },
    {
      "inputs": [],
      "name": "BASE_BURN_RATE",
      "outputs": [
        {
          "internalType": "uint256",
          "name": "",
          "type": "uint256"
        }
      ],
      "stateMutability": "view",
      "type": "function"
    },
    {
      "inputs": [],
      "name": "BONDING_CURVE_PERCENT",
      "outputs": [
        {
          "internalType": "uint256",
          "name": "",
          "type": "uint256"
        }
      ],
      "stateMutability": "view",
      "type": "function"
    },
    {
      "inputs": [],
      "name": "BONDING_UNLOCK_PERCENT",
      "outputs": [
        {
          "internalType": "uint256",
          "name": "",
          "type": "uint256"
        }
      ],
      "stateMutability": "view",
      "type": "function"
    },
    {
      "inputs": [],
      "name": "BONDING_VESTING_PERCENT",
      "outputs": [
        {
          "internalType": "uint256",
          "name": "",
          "type": "uint256"
        }
      ],
      "stateMutability": "view",
      "type": "function"
    },
    {
      "inputs": [],
      "name": "BONDING_VESTING_TIMES",
      "outputs": [
        {
          "internalType": "uint256",
          "name": "",
          "type": "uint256"
        }
      ],
      "stateMutability": "view",
      "type": "function"
    },
    {
      "inputs": [],
      "name": "CLIFF_PERIOD",
      "outputs": [
        {
          "internalType": "uint256",
          "name": "",
          "type": "uint256"
        }
      ],
      "stateMutability": "view",
      "type": "function"
    },
    {
      "inputs": [],
      "name": "CREATOR_PERCENT",
      "outputs": [
        {
          "internalType": "uint256",
          "name": "",
          "type": "uint256"
        }
      ],
      "stateMutability": "view",
      "type": "function"
    },
    {
      "inputs": [],
      "name": "CREATOR_UNLOCK_PERCENT",
      "outputs": [
        {
          "internalType": "uint256",
          "name": "",
          "type": "uint256"
        }
      ],
      "stateMutability": "view",
      "type": "function"
    },
    {
      "inputs": [],
      "name": "CREATOR_VESTING_PERCENT",
      "outputs": [
        {
          "internalType": "uint256",
          "name": "",
          "type": "uint256"
        }
      ],
      "stateMutability": "view",
      "type": "function"
    },
    {
      "inputs": [],
      "name": "CREATOR_VESTING_TIMES",
      "outputs": [
        {
          "internalType": "uint256",
          "name": "",
          "type": "uint256"
        }
      ],
      "stateMutability": "view",
      "type": "function"
    },
    {
      "inputs": [],
      "name": "FEE_DENOMINATOR",
      "outputs": [
        {
          "internalType": "uint256",
          "name": "",
          "type": "uint256"
        }
      ],
      "stateMutability": "view",
      "type": "function"
    },
    {
      "inputs": [],
      "name": "LIQUIDITY_PERCENT",
      "outputs": [
        {
          "internalType": "uint256",
          "name": "",
          "type": "uint256"
        }
      ],
      "stateMutability": "view",
      "type": "function"
    },
    {
      "inputs": [],
      "name": "MIN_FEE",
      "outputs": [
        {
          "internalType": "uint256",
          "name": "",
          "type": "uint256"
        }
      ],
      "stateMutability": "view",
      "type": "function"
    },
    {
      "inputs": [],
      "name": "STAKING_REWARD_PERCENT",
      "outputs": [
        {
          "internalType": "uint256",
          "name": "",
          "type": "uint256"
        }
      ],
      "stateMutability": "view",
      "type": "function"
    },
    {
      "inputs": [
        {
          "internalType": "address",
          "name": "spender",
          "type": "address"
        },
        {
          "internalType": "uint256",
          "name": "amount",
          "type": "uint256"
        }
      ],
      "name": "approve",
      "outputs": [
        {
          "internalType": "bool",
          "name": "",
          "type": "bool"
        }
      ],
      "stateMutability": "nonpayable",
      "type": "function"
    },
    {
      "inputs": [
        {
          "internalType": "address",
          "name": "account",
          "type": "address"
        }
      ],
      "name": "balanceOf",
      "outputs": [
        {
          "internalType": "uint256",
          "name": "",
          "type": "uint256"
        }
      ],
      "stateMutability": "view",
      "type": "function"
    },
    {
      "inputs": [],
      "name": "bondingWallet",
      "outputs": [
        {
          "internalType": "address",
          "name": "",
          "type": "address"
        }
      ],
      "stateMutability": "view",
      "type": "function"
    },
    {
      "inputs": [
        {
          "internalType": "address",
          "name": "account",
          "type": "address"
        },
        {
          "internalType": "uint256",
          "name": "amount",
          "type": "uint256"
        }
      ],
      "name": "burn",
      "outputs": [],
      "stateMutability": "nonpayable",
      "type": "function"
    },
    {
      "inputs": [
        {
          "internalType": "address",
          "name": "account",
          "type": "address"
        },
        {
          "internalType": "uint256",
          "name": "amount",
          "type": "uint256"
        }
      ],
      "name": "createVestingScheduleForBuyer",
      "outputs": [],
      "stateMutability": "nonpayable",
      "type": "function"
    },
    {
      "inputs": [
        {
          "internalType": "address",
          "name": "account",
          "type": "address"
        },
        {
          "internalType": "uint256",
          "name": "amount",
          "type": "uint256"
        }
      ],
      "name": "createVestingScheduleForCreator",
      "outputs": [],
      "stateMutability": "nonpayable",
      "type": "function"
    },
    {
      "inputs": [],
      "name": "creatorWallet",
      "outputs": [
        {
          "internalType": "address",
          "name": "",
          "type": "address"
        }
      ],
      "stateMutability": "view",
      "type": "function"
    },
    {
      "inputs": [
        {
          "internalType": "address",
          "name": "",
          "type": "address"
        }
      ],
      "name": "dailySellAmount",
      "outputs": [
        {
          "internalType": "uint256",
          "name": "",
          "type": "uint256"
        }
      ],
      "stateMutability": "view",
      "type": "function"
    },
    {
      "inputs": [],
      "name": "decimals",
      "outputs": [
        {
          "internalType": "uint8",
          "name": "",
          "type": "uint8"
        }
      ],
      "stateMutability": "view",
      "type": "function"
    },
    {
      "inputs": [
        {
          "internalType": "address",
          "name": "account",
          "type": "address"
        }
      ],
      "name": "getDetailsAccount",
      "outputs": [
        {
          "internalType": "uint256",
          "name": "actualBalance",
          "type": "uint256"
        },
        {
          "internalType": "uint256",
          "name": "vestedBalance",
          "type": "uint256"
        },
        {
          "internalType": "uint256",
          "name": "claimableAmount",
          "type": "uint256"
        },
        {
          "internalType": "uint256",
          "name": "totalBalance",
          "type": "uint256"
        },
        {
          "internalType": "uint256",
          "name": "vestingEndTime",
          "type": "uint256"
        },
        {
          "internalType": "uint256",
          "name": "releasedAmount",
          "type": "uint256"
        }
      ],
      "stateMutability": "view",
      "type": "function"
    },
    {
      "inputs": [],
      "name": "getHolderCount",
      "outputs": [
        {
          "internalType": "uint256",
          "name": "",
          "type": "uint256"
        }
      ],
      "stateMutability": "view",
      "type": "function"
    },
    {
      "inputs": [
        {
          "internalType": "address",
          "name": "account",
          "type": "address"
        }
      ],
      "name": "isAdmin",
      "outputs": [
        {
          "internalType": "bool",
          "name": "",
          "type": "bool"
        }
      ],
      "stateMutability": "view",
      "type": "function"
    },
    {
      "inputs": [
        {
          "internalType": "address",
          "name": "",
          "type": "address"
        }
      ],
      "name": "lastSellTime",
      "outputs": [
        {
          "internalType": "uint256",
          "name": "",
          "type": "uint256"
        }
      ],
      "stateMutability": "view",
      "type": "function"
    },
    {
      "inputs": [],
      "name": "liquidityWallet",
      "outputs": [
        {
          "internalType": "address",
          "name": "",
          "type": "address"
        }
      ],
      "stateMutability": "view",
      "type": "function"
    },
    {
      "inputs": [
        {
          "internalType": "address",
          "name": "to",
          "type": "address"
        },
        {
          "internalType": "uint256",
          "name": "amount",
          "type": "uint256"
        }
      ],
      "name": "mint",
      "outputs": [],
      "stateMutability": "nonpayable",
      "type": "function"
    },
    {
      "inputs": [],
      "name": "name",
      "outputs": [
        {
          "internalType": "string",
          "name": "",
          "type": "string"
        }
      ],
      "stateMutability": "view",
      "type": "function"
    },
    {
      "inputs": [],
      "name": "owner",
      "outputs": [
        {
          "internalType": "address",
          "name": "",
          "type": "address"
        }
      ],
      "stateMutability": "view",
      "type": "function"
    },
    {
      "inputs": [],
      "name": "renounceOwnership",
      "outputs": [],
      "stateMutability": "nonpayable",
      "type": "function"
    },
    {
      "inputs": [
        {
          "internalType": "address",
          "name": "account",
          "type": "address"
        },
        {
          "internalType": "bool",
          "name": "_isAdmin",
          "type": "bool"
        }
      ],
      "name": "setAdmin",
      "outputs": [],
      "stateMutability": "nonpayable",
      "type": "function"
    },
    {
      "inputs": [],
      "name": "stakingWallet",
      "outputs": [
        {
          "internalType": "address",
          "name": "",
          "type": "address"
        }
      ],
      "stateMutability": "view",
      "type": "function"
    },
    {
      "inputs": [],
      "name": "symbol",
      "outputs": [
        {
          "internalType": "string",
          "name": "",
          "type": "string"
        }
      ],
      "stateMutability": "view",
      "type": "function"
    },
    {
      "inputs": [],
      "name": "totalSupply",
      "outputs": [
        {
          "internalType": "uint256",
          "name": "",
          "type": "uint256"
        }
      ],
      "stateMutability": "view",
      "type": "function"
    },
    {
      "inputs": [
        {
          "internalType": "address",
          "name": "to",
          "type": "address"
        },
        {
          "internalType": "uint256",
          "name": "amount",
          "type": "uint256"
        }
      ],
      "name": "transfer",
      "outputs": [
        {
          "internalType": "bool",
          "name": "",
          "type": "bool"
        }
      ],
      "stateMutability": "nonpayable",
      "type": "function"
    },
    {
      "inputs": [
        {
          "internalType": "address",
          "name": "from",
          "type": "address"
        },
        {
          "internalType": "address",
          "name": "to",
          "type": "address"
        },
        {
          "internalType": "uint256",
          "name": "amount",
          "type": "uint256"
        }
      ],
      "name": "transferFrom",
      "outputs": [
        {
          "internalType": "bool",
          "name": "",
          "type": "bool"
        }
      ],
      "stateMutability": "nonpayable",
      "type": "function"
    },
    {
      "inputs": [
        {
          "internalType": "address",
          "name": "newOwner",
          "type": "address"
        }
      ],
      "name": "transferOwnership",
      "outputs": [],
      "stateMutability": "nonpayable",
      "type": "function"
    },
    {
      "inputs": [
        {
          "internalType": "address",
          "name": "account",
          "type": "address"
        }
      ],
      "name": "vestingDetails",
      "outputs": [
        {
          "components": [
            {
              "internalType": "uint256",
              "name": "totalAmount",
              "type": "uint256"
            },
            {
              "internalType": "uint256",
              "name": "startTime",
              "type": "uint256"
            },
            {
              "internalType": "uint256",
              "name": "cliffEnd",
              "type": "uint256"
            },
            {
              "internalType": "uint256",
              "name": "endTime",
              "type": "uint256"
            },
            {
              "internalType": "uint256",
              "name": "lastClaimTime",
              "type": "uint256"
            },
            {
              "internalType": "uint256",
              "name": "releasedAmount",
              "type": "uint256"
            },
            {
              "internalType": "bool",
              "name": "revoked",
              "type": "bool"
            }
          ],
          "internalType": "struct AiAgentToken.VestingSchedule",
          "name": "schedule",
          "type": "tuple"
        }
      ],
      "stateMutability": "view",
      "type": "function"
    },
    {
      "inputs": [
        {
          "internalType": "address",
          "name": "",
          "type": "address"
        }
      ],
      "name": "vestingSchedules",
      "outputs": [
        {
          "internalType": "uint256",
          "name": "totalAmount",
          "type": "uint256"
        },
        {
          "internalType": "uint256",
          "name": "startTime",
          "type": "uint256"
        },
        {
          "internalType": "uint256",
          "name": "cliffEnd",
          "type": "uint256"
        },
        {
          "internalType": "uint256",
          "name": "endTime",
          "type": "uint256"
        },
        {
          "internalType": "uint256",
          "name": "lastClaimTime",
          "type": "uint256"
        },
        {
          "internalType": "uint256",
          "name": "releasedAmount",
          "type": "uint256"
        },
        {
          "internalType": "bool",
          "name": "revoked",
          "type": "bool"
        }
      ],
      "stateMutability": "view",
      "type": "function"
    }
  ],
  "bytecode": "0x608060405234620005c557620021d6803803806200001d81620005ca565b92833981019060c081830312620005c55780516001600160401b038111620005c557826200004d918301620005f0565b602082015190926001600160401b038211620005c55762000070918301620005f0565b916200007f6040830162000662565b926200008e6060840162000662565b9260a06200009f6080830162000662565b9101516001600160a01b039590939086168015620005ac57600080546001600160a01b03198116831782556040519183918a16907f8be0079c531659141344cd1fd0a4f28419497f9722a3daafe3b4186f6b6457e09080a3878716156200056a57508683161562000525576000908152600560205260409020805460ff191660011790558051906001600160401b038211620004165760015490600182811c921680156200051a575b6020831014620003f55781601f849311620004b6575b50602090601f831160011462000438576000926200042c575b50508160011b916000199060031b1c1916176001555b81516001600160401b038111620004165760025492600184811c941680156200040b575b6020851014620003f55783601f8895116200038d575b50602090601f83116001146200030d57600091908362000301575b50508160011b916000199060031b1c1916176002555b601260ff19600354161760035581841660018060a01b0319600e541617600e551660018060a01b0319600f541617600f5580600455600581029080820460051490151715620002e0576064900491808216600052600760205260406000208054848101809255159081620002f6575b50620002ae575b60207fddf252ad1be2c89b69c2b068fc378daa952ba7f163c4a11628f55a4df523b3ef916000936040519586521693a3604051611b1e9081620006788239f35b6006549163ffffffff9182841691838314620002e05763ffffffff19909416600192909201909216176006556200026e565b634e487b7160e01b600052601160045260246000fd5b905015153862000267565b015190503880620001e2565b6002600090815290949392916000805160206200219683398151915291601f198416905b818110620003715750958360019596971062000357575b505050811b01600255620001f8565b015160001960f88460031b161c1916905538808062000348565b8783015184558a96506001909301926020928301920162000331565b6002600052929350909160008051602062002196833981519152601f840160051c81019160208510620003ea575b90601f8996959493920160051c01905b818110620003da5750620001c7565b60008155889550600101620003cb565b9091508190620003bb565b634e487b7160e01b600052602260045260246000fd5b93607f1693620001b1565b634e487b7160e01b600052604160045260246000fd5b01519050388062000177565b600160009081529350600080516020620021b683398151915291905b601f19841685106200049a576001945083601f1981161062000480575b505050811b016001556200018d565b015160001960f88460031b161c1916905538808062000471565b8181015183556020948501946001909301929091019062000454565b6001600052909150600080516020620021b6833981519152601f840160051c810191602085106200050f575b90601f859493920160051c01905b818110620004ff57506200015e565b60008155849350600101620004f0565b9091508190620004e2565b91607f169162000148565b60405162461bcd60e51b815260206004820152601c60248201527f496e76616c69642063726561746f7257616c6c65742077616c6c6574000000006044820152606490fd5b62461bcd60e51b815260206004820152601660248201527f496e76616c6964207374616b696e672077616c6c6574000000000000000000006044820152606490fd5b604051631e4fbdf760e01b815260006004820152602490fd5b600080fd5b6040519190601f01601f191682016001600160401b038111838210176200041657604052565b919080601f84011215620005c55782516001600160401b038111620004165760209062000626601f8201601f19168301620005ca565b92818452828287010111620005c55760005b8181106200064e57508260009394955001015290565b858101830151848201840152820162000638565b51906001600160a01b0382168203620005c55756fe608060408181526004908136101561001657600080fd5b600091823560e01c93846306ee6ad8146111b85750836306fdde03146110fe5783630808976d14610fcc578363095ea7b314610fa357836318160ddd14610f8757836323b872dd14610eb757836324d7806c14610e7c5783632f05edba14610e61578363313ce56714610e405783633a8d009714610d815783633ccfbabf146101ea5783633fd35853146103ce57836340c10f1914610d445783634b0bddd214610ce75783634c420c3b146109ab5783634e11b01f146109905783636f293d591461097557836370a08231146109495783637136982b14610925578363715018a6146108d357836376c7a3c7146108ce578363771a4bfd146108ce5783637a9e361c146108b35783637cdc65f21461088c57836383042cd21461086e5783638b927075146108475783638cad856f1461082d5783638da5cb5b1461080857836395d89b4114610707578363996b27591461065d5783639dc29fac146104ae578363a9059cbb146103d3578363b0468185146103ce578363b44b4b8014610398578363d469801614610371578363d73792a914610355578363dfa728b31461031f578363f2fde38b1461028d578363fdb20ccb1461021057508263fe0af304146101ef57505063ff458f77146101ea57600080fd5b611241565b3461020c578160031936011261020c5760209051630163f5008152f35b5080fd5b34610289576020366003190112610289578160e0936001600160a01b03610235611226565b16815260096020522080549260018201549260028301546003840154918401549260ff600660058701549601541695815197885260208801528601526060850152608084015260a0830152151560c0820152f35b8280fd5b34610289576020366003190112610289576102a6611226565b906102af611295565b6001600160a01b03809216928315610309575050825473ffffffffffffffffffffffffffffffffffffffff19811683178455167f8be0079c531659141344cd1fd0a4f28419497f9722a3daafe3b4186f6b6457e08380a380f35b51631e4fbdf760e01b8152908101849052602490fd5b503461020c57602036600319011261020c57806020926001600160a01b03610345611226565b168152600b845220549051908152f35b503461020c578160031936011261020c57602090516127108152f35b503461020c578160031936011261020c576020906001600160a01b03600d54169051908152f35b503461020c57602036600319011261020c57806020926001600160a01b036103be611226565b168152600a845220549051908152f35b61125d565b82346104ab57826003193601126104ab57506103ed611226565b602435916001600160a01b0382163314610468578261040b336113e6565b106104255760208461041e8585336118a9565b5160018152f35b606490602085519162461bcd60e51b8352820152601260248201527f4e6f7420656e6f75676820616d6f756e742100000000000000000000000000006044820152fd5b606490602085519162461bcd60e51b8352820152601860248201527f4e6f7420616c6c6f772073656c66207472616e736665722100000000000000006044820152fd5b80fd5b82903461020c578260031936011261020c576104c8611226565b90602435338452602091600583526104e560ff87872054166112c1565b6001600160a01b038416938415610610578486526007845286862054918361050c836113e6565b106105c257509582828798827fddf252ad1be2c89b69c2b068fc378daa952ba7f163c4a11628f55a4df523b3ef9796951061059b575b5086885260078552818103838920551480610586575b610565575b51908152a380f35b60065463ffffffff60001981831601169063ffffffff19161760065561055d565b50600983528086206005810154905414610558565b906105a9906105af93611384565b906116d0565b5084865260078352818187205489610542565b875162461bcd60e51b8152908101859052602260248201527f45524332303a206275726e20616d6f756e7420657863656564732062616c616e604482015261636560f01b6064820152608490fd5b865162461bcd60e51b8152808301859052602160248201527f45524332303a206275726e2066726f6d20746865207a65726f206164647265736044820152607360f81b6064820152608490fd5b503461020c57602036600319011261020c5760c06106c58260e0946001600160a01b03610688611226565b8286855161069581611330565b82815282602082015282878201528260608201528260808201528260a08201520152168152600960205220611391565b82519281518452602082015160208501528082015190840152606081015160608401526080810151608084015260a081015160a08401520151151560c0820152f35b9034610289578260031936011261028957805191836002549060019082821c9282811680156107fe575b60209586861082146107eb57508488529081156107c95750600114610770575b61076c8686610762828b0383611362565b51918291826111dd565b0390f35b929550600283527f405787fa12a823e0f2b7631cc41b3ba8828b3321ca811111fa75cd3aa3bb5ace5b8284106107b6575050508261076c94610762928201019486610751565b8054868501880152928601928101610799565b60ff191687860152505050151560051b83010192506107628261076c86610751565b634e487b7160e01b845260229052602483fd5b93607f1693610731565b503461020c578160031936011261020c576001600160a01b0360209254169051908152f35b503461020c578160031936011261020c5751908152602090f35b503461020c578160031936011261020c576020906001600160a01b03600c54169051908152f35b503461020c578160031936011261020c57602090516303b538008152f35b503461020c578160031936011261020c576020906001600160a01b03600f54169051908152f35b503461020c578160031936011261020c5760209051604b8152f35b611279565b82346104ab57806003193601126104ab576108ec611295565b806001600160a01b038154811981168355167f8be0079c531659141344cd1fd0a4f28419497f9722a3daafe3b4186f6b6457e08280a380f35b503461020c578160031936011261020c5760209063ffffffff600654169051908152f35b503461020c57602036600319011261020c5760209061096e610969611226565b6113e6565b9051908152f35b503461020c578160031936011261020c576020905160468152f35b503461020c578160031936011261020c576020905160198152f35b82903461020c578260031936011261020c576109c5611226565b90602493843590338552602092600584526109e560ff83882054166112c1565b6001600160a01b038516948515610ca6578315610c6557600a840293808504600a03610c5357605a8102908104605a03610c535790606480610a2a93049504906115ee565b84865260098452818620805490979015610b675760ff600689015416610b275750610ab960068689610b1f948a7fd4691cc79b8fc72aac1e8c0d15a2ca06d71a386c983f815266f0fce713dc5ea79a9b9c54928a610a968b610a9160058501548098611384565b61130d565b928a60018401549160096002860154948860038801549701549784519d8e611330565b8d52808d01948552838d0195865260608d0196875260808d0197885260a08d01998a5260c08d019a838c528352522098518955516001890155516002880155516003870155519085015551600584015551151591019060ff801983541691151516179055565b51908152a280f35b601c9085606494519362461bcd60e51b85528401528201527f4578697374696e67207363686564756c65206973207265766f6b6564000000006044820152fd5b90965085610c4257630163f500420190814211610c2f575084959660067fd4691cc79b8fc72aac1e8c0d15a2ca06d71a386c983f815266f0fce713dc5ea796610c2a93855193610bb685611330565b878552888501914283528786019042825260608701908152608087019142835260a08801946000865260c08901966000885260005260098d528a60002098518955516001890155516002880155516003870155519085015551600584015551151591019060ff801983541691151516179055565b610b1f565b634e487b7160e01b600090815260118952fd5b634e487b7160e01b86526011875285fd5b634e487b7160e01b8852601183528888fd5b50601d8785606494519362461bcd60e51b85528401528201527f416d6f756e74206d7573742062652067726561746572207468616e20300000006044820152fd5b5060178785606494519362461bcd60e51b85528401528201527f496e76616c6964206163636f756e7420616464726573730000000000000000006044820152fd5b503461020c578060031936011261020c57610d00611226565b90602435908115158203610d40576001600160a01b03610d3d93610d22611295565b168452600560205283209060ff801983541691151516179055565b80f35b8380fd5b503461020c578060031936011261020c57610d3d90610d7860ff610d66611226565b923386526005602052852054166112c1565b602435906115ee565b503461020c57602036600319011261020c579060c0916001600160a01b03610da7611226565b16825260076020528082205491809181610dc78284600960205220611391565b91825180151580610e35575b80610e28575b610e0d575b5060a0610deb838861130d565b93015194815196875260208701528501526060840152608083015260a0820152f35b94509250610e1c905081611457565b60608201519287610dde565b5081840151421015610dd9565b508784015115610dd3565b503461020c578160031936011261020c5760209060ff600354169051908152f35b503461020c578160031936011261020c5760209051605a8152f35b503461020c57602036600319011261020c5760ff816020936001600160a01b03610ea4611226565b1681526005855220541690519015158152f35b82903461020c57606036600319011261020c57610ed2611226565b602435916001600160a01b039384841684036104ab578590604435958416815260086020528181203382526020522054906000198203610f1b575b60208661041e8787876118a9565b848210610f445750918391610f396020969561041e95033383611504565b919394819350610f0d565b606490602087519162461bcd60e51b8352820152601d60248201527f45524332303a20696e73756666696369656e7420616c6c6f77616e63650000006044820152fd5b3461028957826003193601126102895760209250549051908152f35b503461020c578060031936011261020c5760209061041e610fc2611226565b6024359033611504565b82903461020c578260031936011261020c57610fe6611226565b906024938435903385526020926005845261100660ff83882054166112c1565b6001600160a01b038516948515610ca6578315610c65576019840293808504601903610c5357604b8102908104604b03610c53579060648061104b93049504906115ee565b848652600984528186208054909790156110b25760ff600689015416610b275750610ab960068689610b1f948a7fd4691cc79b8fc72aac1e8c0d15a2ca06d71a386c983f815266f0fce713dc5ea79a9b9c54928a610a968b610a9160058501548098611384565b95909650946303b53800420190814211610c2f575084959660067fd4691cc79b8fc72aac1e8c0d15a2ca06d71a386c983f815266f0fce713dc5ea796610c2a93855193610bb685611330565b903461028957826003193601126102895780519183600180549182821c9282811680156111ae575b60209586861082146107eb57508488529081156107c957506001146111565761076c8686610762828b0383611362565b9295508083527fb10e2d527612073b26eecdfd717e6a320cf44b4afac2b0732d9fcbe2b7fa0cf65b82841061119b575050508261076c94610762928201019486610751565b805486850188015292860192810161117e565b93607f1693611126565b83903461020c578160031936011261020c576020906001600160a01b03600e54168152f35b6020808252825181830181905290939260005b82811061121257505060409293506000838284010152601f8019910116010190565b8181018601518482016040015285016111f0565b600435906001600160a01b038216820361123c57565b600080fd5b3461123c57600036600319011261123c57602060405160148152f35b3461123c57600036600319011261123c57602060405160058152f35b3461123c57600036600319011261123c576020604051600a8152f35b6001600160a01b036000541633036112a957565b60405163118cdaa760e01b8152336004820152602490fd5b156112c857565b60405162461bcd60e51b815260206004820152601660248201527f63616c6c6572206973206e6f7420616e2061646d696e000000000000000000006044820152606490fd5b9190820180921161131a57565b634e487b7160e01b600052601160045260246000fd5b60e0810190811067ffffffffffffffff82111761134c57604052565b634e487b7160e01b600052604160045260246000fd5b90601f8019910116810190811067ffffffffffffffff82111761134c57604052565b9190820391821161131a57565b9060405161139e81611330565b60c060ff600683958054855260018101546020860152600281015460408601526003810154606086015260048101546080860152600581015460a08601520154161515910152565b6001600160a01b03166000526007602052604060002054600960205261140f6040600020611391565b805115158061144b575b8061143d575b611427575090565b9061143461143a92611457565b9061130d565b90565b50604081015142101561141f565b5060c081015115611419565b604081015142106114fe576060810180514210156114ec5761148b60208301611481815142611384565b9251905190611384565b90825181810291818304149015171561131a5781156114d6570481518082116114ce575b5060a06000920151908181116114c457505090565b61143a9250611384565b9050386114af565b634e487b7160e01b600052601260045260246000fd5b508060a061143a925191015190611384565b50600090565b6001600160a01b038091169182156115aa57169182156115655760207f8c5be1e5ebec7d5bd14f71427d1e84f3dd0314c0f7b2291e5b200ac8c7c3b925918360005260088252604060002085600052825280604060002055604051908152a3565b60405162461bcd60e51b815260206004820152601e60248201527f45524332303a20617070726f766520746f207a65726f206164647265737300006044820152606490fd5b606460405162461bcd60e51b815260206004820152602060248201527f45524332303a20617070726f76652066726f6d207a65726f20616464726573736044820152fd5b6001600160a01b031690811561168b5781600052600760205260406000208054828101809255159081611681575b50611651575b7fddf252ad1be2c89b69c2b068fc378daa952ba7f163c4a11628f55a4df523b3ef6020600092604051908152a3565b6006549063ffffffff908183169082821461131a5763ffffffff1990931660019190910190911617600655611622565b905015153861161c565b60405162461bcd60e51b815260206004820152601f60248201527f45524332303a206d696e7420746f20746865207a65726f2061646472657373006044820152606490fd5b6001600160a01b03811690600090828252602091600983526040918282209060ff6006830154166118655760028201544210611821578661171861171384611391565b611457565b106117dd579184827f5952e800de5564aff4cc315e219327cf6d706cbba481d1613c32f4b1aa17dcdd9695946117608a60058b97019261175982855461130d565b84556115ee565b426004830155548154111561177c575b5050505051848152a290565b82847fc6cfdb244e262cc2d7da34a1f8d576a0b4bceb631ac57ea5858a7bed7255279f94526009835260068682208281558260018201558260028201558260038201558260048201558260058201550155548451908152a283388381611770565b835162461bcd60e51b815260048101869052601a60248201527f496e73756666696369656e742076657374656420746f6b656e730000000000006044820152606490fd5b835162461bcd60e51b815260048101869052601660248201527f436c69666620706572696f64206e6f7420656e646564000000000000000000006044820152606490fd5b835162461bcd60e51b815260048101869052600f60248201527f56657374696e67207265766f6b656400000000000000000000000000000000006044820152606490fd5b9291906001600160a01b03808516918215611a955716918215611a4457600090828252602091600783526040908181205497836118e5826113e6565b106119f157888391857fddf252ad1be2c89b69c2b068fc378daa952ba7f163c4a11628f55a4df523b3ef98999a9b106119ce575b508883526007865284828420549189855203828420558883528183208581540190558783528183205415806119b9575b611998575b159182611984575b5050611964575b51908152a3565b60065463ffffffff600181831601169063ffffffff19161760065561195d565b888152600786522054151590508138611956565b60065463ffffffff60001981831601169063ffffffff19161760065561194e565b50600986528183206005810154905414611949565b906119de92506105a99086611384565b5085815260078452818082205438611919565b825162461bcd60e51b815260048101869052602660248201527f45524332303a207472616e7366657220616d6f756e7420657863656564732062604482015265616c616e636560d01b6064820152608490fd5b60405162461bcd60e51b815260206004820152602360248201527f45524332303a207472616e7366657220746f20746865207a65726f206164647260448201526265737360e81b6064820152608490fd5b60405162461bcd60e51b815260206004820152602560248201527f45524332303a207472616e736665722066726f6d20746865207a65726f206164604482015264647265737360d81b6064820152608490fdfea2646970667358221220e312fda06cc59ab5499f8026eb9cfd49ca8cb43e679d484da3f0e28a5b30433f64736f6c63430008140033405787fa12a823e0f2b7631cc41b3ba8828b3321ca811111fa75cd3aa3bb5aceb10e2d527612073b26eecdfd717e6a320cf44b4afac2b0732d9fcbe2b7fa0cf6",
  "linkReferences": {},
  "deployedLinkReferences": {}
}