{
  "_format": "hh-sol-artifact-1",
  "contractName": "AiAgentToken",
  "sourceName": "contracts/AiAgentToken.sol",
  "abi": [
    {
      "inputs": [
        {
          "internalType": "string",
          "name": "name_",
          "type": "string"
        },
        {
          "internalType": "string",
          "name": "symbol_",
          "type": "string"
        },
        {
          "internalType": "address",
          "name": "_adminWallet",
          "type": "address"
        },
        {
          "internalType": "address",
          "name": "_stakingWallet",
          "type": "address"
        },
        {
          "internalType": "address",
          "name": "_creatorWallet",
          "type": "address"
        },
        {
          "internalType": "uint256",
          "name": "_totalSupply",
          "type": "uint256"
        }
      ],
      "stateMutability": "nonpayable",
      "type": "constructor"
    },
    {
      "inputs": [
        {
          "internalType": "address",
          "name": "owner",
          "type": "address"
        }
      ],
      "name": "OwnableInvalidOwner",
      "type": "error"
    },
    {
      "inputs": [
        {
          "internalType": "address",
          "name": "account",
          "type": "address"
        }
      ],
      "name": "OwnableUnauthorizedAccount",
      "type": "error"
    },
    {
      "anonymous": false,
      "inputs": [
        {
          "indexed": true,
          "internalType": "address",
          "name": "owner",
          "type": "address"
        },
        {
          "indexed": true,
          "internalType": "address",
          "name": "spender",
          "type": "address"
        },
        {
          "indexed": false,
          "internalType": "uint256",
          "name": "value",
          "type": "uint256"
        }
      ],
      "name": "Approval",
      "type": "event"
    },
    {
      "anonymous": false,
      "inputs": [
        {
          "indexed": true,
          "internalType": "address",
          "name": "previousOwner",
          "type": "address"
        },
        {
          "indexed": true,
          "internalType": "address",
          "name": "newOwner",
          "type": "address"
        }
      ],
      "name": "OwnershipTransferred",
      "type": "event"
    },
    {
      "anonymous": false,
      "inputs": [
        {
          "indexed": true,
          "internalType": "address",
          "name": "account",
          "type": "address"
        },
        {
          "indexed": false,
          "internalType": "uint256",
          "name": "amount",
          "type": "uint256"
        }
      ],
      "name": "TokensVested",
      "type": "event"
    },
    {
      "anonymous": false,
      "inputs": [
        {
          "indexed": true,
          "internalType": "address",
          "name": "from",
          "type": "address"
        },
        {
          "indexed": true,
          "internalType": "address",
          "name": "to",
          "type": "address"
        },
        {
          "indexed": false,
          "internalType": "uint256",
          "name": "value",
          "type": "uint256"
        }
      ],
      "name": "Transfer",
      "type": "event"
    },
    {
      "anonymous": false,
      "inputs": [
        {
          "indexed": true,
          "internalType": "address",
          "name": "account",
          "type": "address"
        },
        {
          "indexed": false,
          "internalType": "uint256",
          "name": "totalAmount",
          "type": "uint256"
        }
      ],
      "name": "VestingCompleted",
      "type": "event"
    },
    {
      "anonymous": false,
      "inputs": [
        {
          "indexed": true,
          "internalType": "address",
          "name": "account",
          "type": "address"
        },
        {
          "indexed": false,
          "internalType": "uint256",
          "name": "amount",
          "type": "uint256"
        }
      ],
      "name": "VestingTokensClaimed",
      "type": "event"
    },
    {
      "inputs": [],
      "name": "BASE_BURN_RATE",
      "outputs": [
        {
          "internalType": "uint256",
          "name": "",
          "type": "uint256"
        }
      ],
      "stateMutability": "view",
      "type": "function"
    },
    {
      "inputs": [],
      "name": "BONDING_CURVE_PERCENT",
      "outputs": [
        {
          "internalType": "uint256",
          "name": "",
          "type": "uint256"
        }
      ],
      "stateMutability": "view",
      "type": "function"
    },
    {
      "inputs": [],
      "name": "BONDING_UNLOCK_PERCENT",
      "outputs": [
        {
          "internalType": "uint256",
          "name": "",
          "type": "uint256"
        }
      ],
      "stateMutability": "view",
      "type": "function"
    },
    {
      "inputs": [],
      "name": "BONDING_VESTING_PERCENT",
      "outputs": [
        {
          "internalType": "uint256",
          "name": "",
          "type": "uint256"
        }
      ],
      "stateMutability": "view",
      "type": "function"
    },
    {
      "inputs": [],
      "name": "BONDING_VESTING_TIMES",
      "outputs": [
        {
          "internalType": "uint256",
          "name": "",
          "type": "uint256"
        }
      ],
      "stateMutability": "view",
      "type": "function"
    },
    {
      "inputs": [],
      "name": "CLIFF_PERIOD",
      "outputs": [
        {
          "internalType": "uint256",
          "name": "",
          "type": "uint256"
        }
      ],
      "stateMutability": "view",
      "type": "function"
    },
    {
      "inputs": [],
      "name": "CREATOR_PERCENT",
      "outputs": [
        {
          "internalType": "uint256",
          "name": "",
          "type": "uint256"
        }
      ],
      "stateMutability": "view",
      "type": "function"
    },
    {
      "inputs": [],
      "name": "CREATOR_UNLOCK_PERCENT",
      "outputs": [
        {
          "internalType": "uint256",
          "name": "",
          "type": "uint256"
        }
      ],
      "stateMutability": "view",
      "type": "function"
    },
    {
      "inputs": [],
      "name": "CREATOR_VESTING_PERCENT",
      "outputs": [
        {
          "internalType": "uint256",
          "name": "",
          "type": "uint256"
        }
      ],
      "stateMutability": "view",
      "type": "function"
    },
    {
      "inputs": [],
      "name": "CREATOR_VESTING_TIMES",
      "outputs": [
        {
          "internalType": "uint256",
          "name": "",
          "type": "uint256"
        }
      ],
      "stateMutability": "view",
      "type": "function"
    },
    {
      "inputs": [],
      "name": "FEE_DENOMINATOR",
      "outputs": [
        {
          "internalType": "uint256",
          "name": "",
          "type": "uint256"
        }
      ],
      "stateMutability": "view",
      "type": "function"
    },
    {
      "inputs": [],
      "name": "LIQUIDITY_PERCENT",
      "outputs": [
        {
          "internalType": "uint256",
          "name": "",
          "type": "uint256"
        }
      ],
      "stateMutability": "view",
      "type": "function"
    },
    {
      "inputs": [],
      "name": "MIN_FEE",
      "outputs": [
        {
          "internalType": "uint256",
          "name": "",
          "type": "uint256"
        }
      ],
      "stateMutability": "view",
      "type": "function"
    },
    {
      "inputs": [],
      "name": "STAKING_REWARD_PERCENT",
      "outputs": [
        {
          "internalType": "uint256",
          "name": "",
          "type": "uint256"
        }
      ],
      "stateMutability": "view",
      "type": "function"
    },
    {
      "inputs": [
        {
          "internalType": "address",
          "name": "spender",
          "type": "address"
        },
        {
          "internalType": "uint256",
          "name": "amount",
          "type": "uint256"
        }
      ],
      "name": "approve",
      "outputs": [
        {
          "internalType": "bool",
          "name": "",
          "type": "bool"
        }
      ],
      "stateMutability": "nonpayable",
      "type": "function"
    },
    {
      "inputs": [
        {
          "internalType": "address",
          "name": "account",
          "type": "address"
        }
      ],
      "name": "balanceOf",
      "outputs": [
        {
          "internalType": "uint256",
          "name": "",
          "type": "uint256"
        }
      ],
      "stateMutability": "view",
      "type": "function"
    },
    {
      "inputs": [],
      "name": "bondingWallet",
      "outputs": [
        {
          "internalType": "address",
          "name": "",
          "type": "address"
        }
      ],
      "stateMutability": "view",
      "type": "function"
    },
    {
      "inputs": [
        {
          "internalType": "address",
          "name": "account",
          "type": "address"
        },
        {
          "internalType": "uint256",
          "name": "amount",
          "type": "uint256"
        }
      ],
      "name": "burn",
      "outputs": [],
      "stateMutability": "nonpayable",
      "type": "function"
    },
    {
      "inputs": [
        {
          "internalType": "address",
          "name": "account",
          "type": "address"
        },
        {
          "internalType": "uint256",
          "name": "amount",
          "type": "uint256"
        }
      ],
      "name": "createVestingScheduleForBuyer",
      "outputs": [],
      "stateMutability": "nonpayable",
      "type": "function"
    },
    {
      "inputs": [
        {
          "internalType": "address",
          "name": "account",
          "type": "address"
        },
        {
          "internalType": "uint256",
          "name": "amount",
          "type": "uint256"
        }
      ],
      "name": "createVestingScheduleForCreator",
      "outputs": [],
      "stateMutability": "nonpayable",
      "type": "function"
    },
    {
      "inputs": [],
      "name": "creatorWallet",
      "outputs": [
        {
          "internalType": "address",
          "name": "",
          "type": "address"
        }
      ],
      "stateMutability": "view",
      "type": "function"
    },
    {
      "inputs": [
        {
          "internalType": "address",
          "name": "",
          "type": "address"
        }
      ],
      "name": "dailySellAmount",
      "outputs": [
        {
          "internalType": "uint256",
          "name": "",
          "type": "uint256"
        }
      ],
      "stateMutability": "view",
      "type": "function"
    },
    {
      "inputs": [],
      "name": "decimals",
      "outputs": [
        {
          "internalType": "uint8",
          "name": "",
          "type": "uint8"
        }
      ],
      "stateMutability": "view",
      "type": "function"
    },
    {
      "inputs": [
        {
          "internalType": "address",
          "name": "account",
          "type": "address"
        }
      ],
      "name": "getDetailsAccount",
      "outputs": [
        {
          "internalType": "uint256",
          "name": "actualBalance",
          "type": "uint256"
        },
        {
          "internalType": "uint256",
          "name": "vestedBalance",
          "type": "uint256"
        },
        {
          "internalType": "uint256",
          "name": "claimableAmount",
          "type": "uint256"
        },
        {
          "internalType": "uint256",
          "name": "totalBalance",
          "type": "uint256"
        },
        {
          "internalType": "uint256",
          "name": "vestingEndTime",
          "type": "uint256"
        },
        {
          "internalType": "uint256",
          "name": "releasedAmount",
          "type": "uint256"
        }
      ],
      "stateMutability": "view",
      "type": "function"
    },
    {
      "inputs": [
        {
          "internalType": "address",
          "name": "account",
          "type": "address"
        }
      ],
      "name": "isAdmin",
      "outputs": [
        {
          "internalType": "bool",
          "name": "",
          "type": "bool"
        }
      ],
      "stateMutability": "view",
      "type": "function"
    },
    {
      "inputs": [
        {
          "internalType": "address",
          "name": "",
          "type": "address"
        }
      ],
      "name": "lastSellTime",
      "outputs": [
        {
          "internalType": "uint256",
          "name": "",
          "type": "uint256"
        }
      ],
      "stateMutability": "view",
      "type": "function"
    },
    {
      "inputs": [],
      "name": "liquidityWallet",
      "outputs": [
        {
          "internalType": "address",
          "name": "",
          "type": "address"
        }
      ],
      "stateMutability": "view",
      "type": "function"
    },
    {
      "inputs": [
        {
          "internalType": "address",
          "name": "to",
          "type": "address"
        },
        {
          "internalType": "uint256",
          "name": "amount",
          "type": "uint256"
        }
      ],
      "name": "mint",
      "outputs": [],
      "stateMutability": "nonpayable",
      "type": "function"
    },
    {
      "inputs": [],
      "name": "name",
      "outputs": [
        {
          "internalType": "string",
          "name": "",
          "type": "string"
        }
      ],
      "stateMutability": "view",
      "type": "function"
    },
    {
      "inputs": [],
      "name": "owner",
      "outputs": [
        {
          "internalType": "address",
          "name": "",
          "type": "address"
        }
      ],
      "stateMutability": "view",
      "type": "function"
    },
    {
      "inputs": [],
      "name": "renounceOwnership",
      "outputs": [],
      "stateMutability": "nonpayable",
      "type": "function"
    },
    {
      "inputs": [
        {
          "internalType": "address",
          "name": "account",
          "type": "address"
        },
        {
          "internalType": "bool",
          "name": "_isAdmin",
          "type": "bool"
        }
      ],
      "name": "setAdmin",
      "outputs": [],
      "stateMutability": "nonpayable",
      "type": "function"
    },
    {
      "inputs": [],
      "name": "stakingWallet",
      "outputs": [
        {
          "internalType": "address",
          "name": "",
          "type": "address"
        }
      ],
      "stateMutability": "view",
      "type": "function"
    },
    {
      "inputs": [],
      "name": "symbol",
      "outputs": [
        {
          "internalType": "string",
          "name": "",
          "type": "string"
        }
      ],
      "stateMutability": "view",
      "type": "function"
    },
    {
      "inputs": [],
      "name": "totalSupply",
      "outputs": [
        {
          "internalType": "uint256",
          "name": "",
          "type": "uint256"
        }
      ],
      "stateMutability": "view",
      "type": "function"
    },
    {
      "inputs": [
        {
          "internalType": "address",
          "name": "to",
          "type": "address"
        },
        {
          "internalType": "uint256",
          "name": "amount",
          "type": "uint256"
        }
      ],
      "name": "transfer",
      "outputs": [
        {
          "internalType": "bool",
          "name": "",
          "type": "bool"
        }
      ],
      "stateMutability": "nonpayable",
      "type": "function"
    },
    {
      "inputs": [
        {
          "internalType": "address",
          "name": "from",
          "type": "address"
        },
        {
          "internalType": "address",
          "name": "to",
          "type": "address"
        },
        {
          "internalType": "uint256",
          "name": "amount",
          "type": "uint256"
        }
      ],
      "name": "transferFrom",
      "outputs": [
        {
          "internalType": "bool",
          "name": "",
          "type": "bool"
        }
      ],
      "stateMutability": "nonpayable",
      "type": "function"
    },
    {
      "inputs": [
        {
          "internalType": "address",
          "name": "newOwner",
          "type": "address"
        }
      ],
      "name": "transferOwnership",
      "outputs": [],
      "stateMutability": "nonpayable",
      "type": "function"
    },
    {
      "inputs": [
        {
          "internalType": "address",
          "name": "account",
          "type": "address"
        }
      ],
      "name": "vestingDetails",
      "outputs": [
        {
          "components": [
            {
              "internalType": "uint256",
              "name": "totalAmount",
              "type": "uint256"
            },
            {
              "internalType": "uint256",
              "name": "startTime",
              "type": "uint256"
            },
            {
              "internalType": "uint256",
              "name": "cliffEnd",
              "type": "uint256"
            },
            {
              "internalType": "uint256",
              "name": "endTime",
              "type": "uint256"
            },
            {
              "internalType": "uint256",
              "name": "lastClaimTime",
              "type": "uint256"
            },
            {
              "internalType": "uint256",
              "name": "releasedAmount",
              "type": "uint256"
            },
            {
              "internalType": "bool",
              "name": "revoked",
              "type": "bool"
            }
          ],
          "internalType": "struct AiAgentToken.VestingSchedule",
          "name": "schedule",
          "type": "tuple"
        }
      ],
      "stateMutability": "view",
      "type": "function"
    },
    {
      "inputs": [
        {
          "internalType": "address",
          "name": "",
          "type": "address"
        }
      ],
      "name": "vestingSchedules",
      "outputs": [
        {
          "internalType": "uint256",
          "name": "totalAmount",
          "type": "uint256"
        },
        {
          "internalType": "uint256",
          "name": "startTime",
          "type": "uint256"
        },
        {
          "internalType": "uint256",
          "name": "cliffEnd",
          "type": "uint256"
        },
        {
          "internalType": "uint256",
          "name": "endTime",
          "type": "uint256"
        },
        {
          "internalType": "uint256",
          "name": "lastClaimTime",
          "type": "uint256"
        },
        {
          "internalType": "uint256",
          "name": "releasedAmount",
          "type": "uint256"
        },
        {
          "internalType": "bool",
          "name": "revoked",
          "type": "bool"
        }
      ],
      "stateMutability": "view",
      "type": "function"
    }
  ],
  "bytecode": "0x60806040523480156200001157600080fd5b506040516200210c3803806200210c8339810160408190526200003491620003c8565b836001600160a01b0381166200006557604051631e4fbdf760e01b8152600060048201526024015b60405180910390fd5b6200007081620001ea565b506001600160a01b038316620000c95760405162461bcd60e51b815260206004820152601660248201527f496e76616c6964207374616b696e672077616c6c65740000000000000000000060448201526064016200005c565b6001600160a01b038216620001215760405162461bcd60e51b815260206004820152601c60248201527f496e76616c69642063726561746f7257616c6c65742077616c6c65740000000060448201526064016200005c565b6001600160a01b0384166000908152600560205260409020805460ff1916600190811790915562000153878262000501565b50600262000162868262000501565b506003805460ff19166012179055600d80546001600160a01b038086166001600160a01b031992831617909255600e805492851692909116919091179055600481905560006064620001b6600584620005cd565b620001c29190620005f9565b600d54909150620001dd906001600160a01b0316826200023a565b505050505050506200061c565b600080546001600160a01b038381166001600160a01b0319831681178455604051919092169283917f8be0079c531659141344cd1fd0a4f28419497f9722a3daafe3b4186f6b6457e09190a35050565b6001600160a01b038216620002925760405162461bcd60e51b815260206004820152601f60248201527f45524332303a206d696e7420746f20746865207a65726f20616464726573730060448201526064016200005c565b6001600160a01b0382166000818152600660209081526040808320805486019055518481527fddf252ad1be2c89b69c2b068fc378daa952ba7f163c4a11628f55a4df523b3ef910160405180910390a35050565b634e487b7160e01b600052604160045260246000fd5b600082601f8301126200030e57600080fd5b81516001600160401b03808211156200032b576200032b620002e6565b604051601f8301601f19908116603f01168101908282118183101715620003565762000356620002e6565b816040528381526020925086838588010111156200037357600080fd5b600091505b8382101562000397578582018301518183018401529082019062000378565b600093810190920192909252949350505050565b80516001600160a01b0381168114620003c357600080fd5b919050565b60008060008060008060c08789031215620003e257600080fd5b86516001600160401b0380821115620003fa57600080fd5b620004088a838b01620002fc565b975060208901519150808211156200041f57600080fd5b506200042e89828a01620002fc565b9550506200043f60408801620003ab565b93506200044f60608801620003ab565b92506200045f60808801620003ab565b915060a087015190509295509295509295565b600181811c908216806200048757607f821691505b602082108103620004a857634e487b7160e01b600052602260045260246000fd5b50919050565b601f821115620004fc57600081815260208120601f850160051c81016020861015620004d75750805b601f850160051c820191505b81811015620004f857828155600101620004e3565b5050505b505050565b81516001600160401b038111156200051d576200051d620002e6565b62000535816200052e845462000472565b84620004ae565b602080601f8311600181146200056d5760008415620005545750858301515b600019600386901b1c1916600185901b178555620004f8565b600085815260208120601f198616915b828110156200059e578886015182559484019460019091019084016200057d565b5085821015620005bd5787850151600019600388901b60f8161c191681555b5050505050600190811b01905550565b8082028115828204841417620005f357634e487b7160e01b600052601160045260246000fd5b92915050565b6000826200061757634e487b7160e01b600052601260045260246000fd5b500490565b611ae0806200062c6000396000f3fe608060405234801561001057600080fd5b50600436106102485760003560e01c8063771a4bfd1161013b578063a9059cbb116100b8578063dfa728b31161007c578063dfa728b314610520578063f2fde38b14610540578063fdb20ccb14610553578063fe0af304146105d8578063ff458f771461037d57600080fd5b8063a9059cbb146104d1578063b046818514610385578063b44b4b80146104e4578063d469801614610504578063d73792a91461051757600080fd5b80638cad856f116100ff5780638cad856f146104325780638da5cb5b1461043a57806395d89b411461044b578063996b2759146104535780639dc29fac146104be57600080fd5b8063771a4bfd146103f15780637a9e361c146103f95780637cdc65f21461040157806383042cd2146104145780638b9270751461041f57600080fd5b80633ccfbabf116101c95780634e11b01f1161018d5780634e11b01f146103c65780636f293d59146103ce57806370a08231146103d6578063715018a6146103e957806376c7a3c7146103f157600080fd5b80633ccfbabf1461037d5780633fd358531461038557806340c10f191461038d5780634b0bddd2146103a05780634c420c3b146103b357600080fd5b806323b872dd1161021057806323b872dd146102e157806324d7806c146102f45780632f05edba14610320578063313ce567146103285780633a8d00971461033d57600080fd5b806306ee6ad81461024d57806306fdde031461027d5780630808976d14610292578063095ea7b3146102a757806318160ddd146102ca575b600080fd5b600d54610260906001600160a01b031681565b6040516001600160a01b0390911681526020015b60405180910390f35b6102856105e3565b604051610274919061187d565b6102a56102a03660046118e7565b610675565b005b6102ba6102b53660046118e7565b6106c6565b6040519015158152602001610274565b6102d360045481565b604051908152602001610274565b6102ba6102ef366004611911565b6106dd565b6102ba61030236600461194d565b6001600160a01b031660009081526005602052604090205460ff1690565b6102d3605a81565b60035460405160ff9091168152602001610274565b61035061034b36600461194d565b610701565b604080519687526020870195909552938501929092526060840152608083015260a082015260c001610274565b6102d3601481565b6102d3600581565b6102a561039b3660046118e7565b6107da565b6102a56103ae36600461196f565b610813565b6102a56103c13660046118e7565b610846565b6102d3601981565b6102d3604681565b6102d36103e436600461194d565b61088a565b6102a561094b565b6102d3600a81565b6102d3604b81565b600e54610260906001600160a01b031681565b6102d36303b5380081565b600b54610260906001600160a01b031681565b6102d3600081565b6000546001600160a01b0316610260565b61028561095f565b61046661046136600461194d565b61096e565b6040516102749190600060e082019050825182526020830151602083015260408301516040830152606083015160608301526080830151608083015260a083015160a083015260c0830151151560c083015292915050565b6102a56104cc3660046118e7565b610a21565b6102ba6104df3660046118e7565b610a5a565b6102d36104f236600461194d565b60096020526000908152604090205481565b600c54610260906001600160a01b031681565b6102d361271081565b6102d361052e36600461194d565b600a6020526000908152604090205481565b6102a561054e36600461194d565b610b17565b6105a161056136600461194d565b6008602052600090815260409020805460018201546002830154600384015460048501546005860154600690960154949593949293919290919060ff1687565b604080519788526020880196909652948601939093526060850191909152608084015260a0830152151560c082015260e001610274565b6102d3630163f50081565b6060600180546105f2906119ab565b80601f016020809104026020016040519081016040528092919081815260200182805461061e906119ab565b801561066b5780601f106106405761010080835404028352916020019161066b565b820191906000526020600020905b81548152906001019060200180831161064e57829003601f168201915b5050505050905090565b3360009081526005602052604090205460ff166106ad5760405162461bcd60e51b81526004016106a4906119e5565b60405180910390fd5b6106c2828260006303b538006019604b610b55565b5050565b60006106d3338484610f6f565b5060015b92915050565b6000336106eb85828561107c565b6106f685858561110e565b506001949350505050565b6001600160a01b03811660009081526006602081815260408084205460088352818520825160e08101845281548082526001830154958201959095526002820154938101939093526003810154606084015260048101546080840152600581015460a08401529093015460ff16151560c08201529192918291829182918291901580159061079157508060c00151155b80156107a1575080604001514210155b156107bd57805195506107b3816112f3565b9450806060015192505b6107c78588611a2b565b93508060a0015191505091939550919395565b3360009081526005602052604090205460ff166108095760405162461bcd60e51b81526004016106a4906119e5565b6106c282826113a5565b61081b61143d565b6001600160a01b03919091166000908152600560205260409020805460ff1916911515919091179055565b3360009081526005602052604090205460ff166108755760405162461bcd60e51b81526004016106a4906119e5565b6106c282826000630163f500600a605a610b55565b6001600160a01b03811660009081526006602081815260408084205460088352818520825160e08101845281548082526001830154958201959095526002820154938101939093526003810154606084015260048101546080840152600581015460a08401529093015460ff16151560c0820152901580159061090f57508060c00151155b801561091f575080604001514210155b1561094457600061092f826112f3565b905061093b8184611a2b565b95945050505050565b5092915050565b61095361143d565b61095d600061146a565b565b6060600280546105f2906119ab565b6109b06040518060e001604052806000815260200160008152602001600081526020016000815260200160008152602001600081526020016000151581525090565b506001600160a01b0316600090815260086020908152604091829020825160e081018452815481526001820154928101929092526002810154928201929092526003820154606082015260048201546080820152600582015460a082015260069091015460ff16151560c082015290565b3360009081526005602052604090205460ff16610a505760405162461bcd60e51b81526004016106a4906119e5565b6106c282826114ba565b6000336001600160a01b0384168103610ab55760405162461bcd60e51b815260206004820152601860248201527f4e6f7420616c6c6f772073656c66207472616e7366657221000000000000000060448201526064016106a4565b82610abf8261088a565b1015610b025760405162461bcd60e51b81526020600482015260126024820152714e6f7420656e6f75676820616d6f756e742160701b60448201526064016106a4565b610b0d81858561110e565b5060019392505050565b610b1f61143d565b6001600160a01b038116610b4957604051631e4fbdf760e01b8152600060048201526024016106a4565b610b528161146a565b50565b6001600160a01b038616610bab5760405162461bcd60e51b815260206004820152601760248201527f496e76616c6964206163636f756e74206164647265737300000000000000000060448201526064016106a4565b60008511610bfb5760405162461bcd60e51b815260206004820152601d60248201527f416d6f756e74206d7573742062652067726561746572207468616e203000000060448201526064016106a4565b6064610c078284611a2b565b1115610c4b5760405162461bcd60e51b8152602060048201526013602482015272496e76616c69642070657263656e746167657360681b60448201526064016106a4565b60006064610c598488611a3e565b610c639190611a55565b905060006064610c738489611a3e565b610c7d9190611a55565b6001600160a01b038916600090815260066020526040812080549293508492909190610caa908490611a2b565b90915550506040518281526001600160a01b038916903090600080516020611a8b8339815191529060200160405180910390a36001600160a01b0388166000908152600860205260409020805415610e4557600681015460ff1615610d515760405162461bcd60e51b815260206004820152601c60248201527f4578697374696e67207363686564756c65206973207265766f6b65640000000060448201526064016106a4565b60058101548154600091610d6491611a77565b90506040518060e001604052808483610d7d9190611a2b565b8152602001836001015481526020018360020154815260200183600301548152602001836004015481526020018360050154815260200160001515815250600860008c6001600160a01b03166001600160a01b03168152602001908152602001600020600082015181600001556020820151816001015560408201518160020155606082015181600301556080820151816004015560a0820151816005015560c08201518160060160006101000a81548160ff02191690831515021790555090505050610f21565b426000610e528983611a2b565b90506000610e608984611a2b565b90506040518060e001604052808681526020018481526020018381526020018281526020018481526020016000815260200160001515815250600860008e6001600160a01b03166001600160a01b03168152602001908152602001600020600082015181600001556020820151816001015560408201518160020155606082015181600301556080820151816004015560a0820151816005015560c08201518160060160006101000a81548160ff0219169083151502179055509050505050505b886001600160a01b03167fd4691cc79b8fc72aac1e8c0d15a2ca06d71a386c983f815266f0fce713dc5ea783604051610f5c91815260200190565b60405180910390a2505050505050505050565b6001600160a01b038316610fc55760405162461bcd60e51b815260206004820181905260248201527f45524332303a20617070726f76652066726f6d207a65726f206164647265737360448201526064016106a4565b6001600160a01b03821661101b5760405162461bcd60e51b815260206004820152601e60248201527f45524332303a20617070726f766520746f207a65726f2061646472657373000060448201526064016106a4565b6001600160a01b0383811660008181526007602090815260408083209487168084529482529182902085905590518481527f8c5be1e5ebec7d5bd14f71427d1e84f3dd0314c0f7b2291e5b200ac8c7c3b925910160405180910390a3505050565b6001600160a01b03808416600090815260076020908152604080832093861683529290522054600019811461110857818110156110fb5760405162461bcd60e51b815260206004820152601d60248201527f45524332303a20696e73756666696369656e7420616c6c6f77616e636500000060448201526064016106a4565b6111088484848403610f6f565b50505050565b6001600160a01b0383166111725760405162461bcd60e51b815260206004820152602560248201527f45524332303a207472616e736665722066726f6d20746865207a65726f206164604482015264647265737360d81b60648201526084016106a4565b6001600160a01b0382166111d45760405162461bcd60e51b815260206004820152602360248201527f45524332303a207472616e7366657220746f20746865207a65726f206164647260448201526265737360e81b60648201526084016106a4565b6001600160a01b038316600090815260066020526040812054906111f78561088a565b9050828110156112585760405162461bcd60e51b815260206004820152602660248201527f45524332303a207472616e7366657220616d6f756e7420657863656564732062604482015265616c616e636560d01b60648201526084016106a4565b8282101561129657600061126c8385611a77565b9050611278868261161e565b50506001600160a01b03851660009081526006602052604090205491505b6001600160a01b038086166000818152600660205260408082208787039055928716808252908390208054870190559151600080516020611a8b833981519152906112e49087815260200190565b60405180910390a35050505050565b6000816040015142101561130957506000919050565b816060015142106113255760a082015182516106d79190611a77565b60008260200151426113379190611a77565b905060008360200151846060015161134f9190611a77565b90506000818386600001516113649190611a3e565b61136e9190611a55565b855190915081111561137e575083515b60008560a0015182111561093b5760a086015161139b9083611a77565b9695505050505050565b6001600160a01b0382166113fb5760405162461bcd60e51b815260206004820152601f60248201527f45524332303a206d696e7420746f20746865207a65726f20616464726573730060448201526064016106a4565b6001600160a01b038216600081815260066020908152604080832080548601905551848152600080516020611a8b833981519152910160405180910390a35050565b6000546001600160a01b0316331461095d5760405163118cdaa760e01b81523360048201526024016106a4565b600080546001600160a01b038381166001600160a01b0319831681178455604051919092169283917f8be0079c531659141344cd1fd0a4f28419497f9722a3daafe3b4186f6b6457e09190a35050565b6001600160a01b03821661151a5760405162461bcd60e51b815260206004820152602160248201527f45524332303a206275726e2066726f6d20746865207a65726f206164647265736044820152607360f81b60648201526084016106a4565b6001600160a01b0382166000908152600660205260408120549061153d8461088a565b90508281101561159a5760405162461bcd60e51b815260206004820152602260248201527f45524332303a206275726e20616d6f756e7420657863656564732062616c616e604482015261636560f01b60648201526084016106a4565b828210156115d85760006115ae8385611a77565b90506115ba858261161e565b50506001600160a01b03841660009081526006602052604090205491505b6001600160a01b0384166000818152600660209081526040808320878703905551868152919291600080516020611a8b833981519152910160405180910390a350505050565b6001600160a01b0382166000908152600860205260408120600681015460ff161561167d5760405162461bcd60e51b815260206004820152600f60248201526e15995cdd1a5b99c81c995d9bdad959608a1b60448201526064016106a4565b80600201544210156116ca5760405162461bcd60e51b815260206004820152601660248201527510db1a5999881c195c9a5bd9081b9bdd08195b99195960521b60448201526064016106a4565b6040805160e08101825282548152600183015460208201526002830154918101919091526003820154606082015260048201546080820152600582015460a0820152600682015460ff16151560c0820152600090611727906112f3565b9050838110156117795760405162461bcd60e51b815260206004820152601a60248201527f496e73756666696369656e742076657374656420746f6b656e7300000000000060448201526064016106a4565b8382600501600082825461178d9190611a2b565b9091555061179d905085856113a5565b4260048301558154600583015410611831576001600160a01b03851660008181526008602090815260408083208381556001810184905560028101849055600381018490556004810184905560058101939093556006909201805460ff19169055845491519182527fc6cfdb244e262cc2d7da34a1f8d576a0b4bceb631ac57ea5858a7bed7255279f910160405180910390a25b846001600160a01b03167f5952e800de5564aff4cc315e219327cf6d706cbba481d1613c32f4b1aa17dcdd8560405161186c91815260200190565b60405180910390a250919392505050565b600060208083528351808285015260005b818110156118aa5785810183015185820160400152820161188e565b506000604082860101526040601f19601f8301168501019250505092915050565b80356001600160a01b03811681146118e257600080fd5b919050565b600080604083850312156118fa57600080fd5b611903836118cb565b946020939093013593505050565b60008060006060848603121561192657600080fd5b61192f846118cb565b925061193d602085016118cb565b9150604084013590509250925092565b60006020828403121561195f57600080fd5b611968826118cb565b9392505050565b6000806040838503121561198257600080fd5b61198b836118cb565b9150602083013580151581146119a057600080fd5b809150509250929050565b600181811c908216806119bf57607f821691505b6020821081036119df57634e487b7160e01b600052602260045260246000fd5b50919050565b60208082526016908201527531b0b63632b91034b9903737ba1030b71030b236b4b760511b604082015260600190565b634e487b7160e01b600052601160045260246000fd5b808201808211156106d7576106d7611a15565b80820281158282048414176106d7576106d7611a15565b600082611a7257634e487b7160e01b600052601260045260246000fd5b500490565b818103818111156106d7576106d7611a1556feddf252ad1be2c89b69c2b068fc378daa952ba7f163c4a11628f55a4df523b3efa2646970667358221220ed9d3c4124a75565e50cd358003f060509d0636ef7c485bb4e0d81aa4f2cc9c164736f6c63430008140033",
  "linkReferences": {},
  "deployedLinkReferences": {}
}