{
  "_format": "hh-sol-artifact-1",
  "contractName": "Controller",
  "sourceName": "contracts/Controller.sol",
  "abi": [
    {
      "inputs": [
        {
          "internalType": "address",
          "name": "receiver",
          "type": "address"
        }
      ],
      "stateMutability": "nonpayable",
      "type": "constructor"
    },
    {
      "inputs": [
        {
          "internalType": "address",
          "name": "owner",
          "type": "address"
        }
      ],
      "name": "OwnableInvalidOwner",
      "type": "error"
    },
    {
      "inputs": [
        {
          "internalType": "address",
          "name": "account",
          "type": "address"
        }
      ],
      "name": "OwnableUnauthorizedAccount",
      "type": "error"
    },
    {
      "anonymous": false,
      "inputs": [
        {
          "indexed": true,
          "internalType": "address",
          "name": "bondingAddress",
          "type": "address"
        },
        {
          "indexed": true,
          "internalType": "address",
          "name": "tokenAddress",
          "type": "address"
        }
      ],
      "name": "BondingCurveCreated",
      "type": "event"
    },
    {
      "anonymous": false,
      "inputs": [
        {
          "indexed": true,
          "internalType": "address",
          "name": "previousOwner",
          "type": "address"
        },
        {
          "indexed": true,
          "internalType": "address",
          "name": "newOwner",
          "type": "address"
        }
      ],
      "name": "OwnershipTransferred",
      "type": "event"
    },
    {
      "anonymous": false,
      "inputs": [
        {
          "indexed": true,
          "internalType": "address",
          "name": "tokenAddress",
          "type": "address"
        },
        {
          "indexed": false,
          "internalType": "string",
          "name": "name",
          "type": "string"
        },
        {
          "indexed": false,
          "internalType": "string",
          "name": "symbol",
          "type": "string"
        },
        {
          "indexed": false,
          "internalType": "address",
          "name": "owner",
          "type": "address"
        },
        {
          "indexed": false,
          "internalType": "uint256",
          "name": "totalSupply",
          "type": "uint256"
        }
      ],
      "name": "TokenCreated",
      "type": "event"
    },
    {
      "inputs": [],
      "name": "BONDING_PERCENT",
      "outputs": [
        {
          "internalType": "uint256",
          "name": "",
          "type": "uint256"
        }
      ],
      "stateMutability": "view",
      "type": "function"
    },
    {
      "inputs": [],
      "name": "DENOMINATOR",
      "outputs": [
        {
          "internalType": "uint256",
          "name": "",
          "type": "uint256"
        }
      ],
      "stateMutability": "view",
      "type": "function"
    },
    {
      "inputs": [],
      "name": "FEE",
      "outputs": [
        {
          "internalType": "uint256",
          "name": "",
          "type": "uint256"
        }
      ],
      "stateMutability": "view",
      "type": "function"
    },
    {
      "inputs": [],
      "name": "FEE_RECEIVER",
      "outputs": [
        {
          "internalType": "address",
          "name": "",
          "type": "address"
        }
      ],
      "stateMutability": "view",
      "type": "function"
    },
    {
      "inputs": [],
      "name": "FEE_TOKEN_ADDRESS",
      "outputs": [
        {
          "internalType": "address",
          "name": "",
          "type": "address"
        }
      ],
      "stateMutability": "view",
      "type": "function"
    },
    {
      "inputs": [],
      "name": "TOKEN_FEE",
      "outputs": [
        {
          "internalType": "uint256",
          "name": "",
          "type": "uint256"
        }
      ],
      "stateMutability": "view",
      "type": "function"
    },
    {
      "inputs": [
        {
          "internalType": "string",
          "name": "name",
          "type": "string"
        },
        {
          "internalType": "string",
          "name": "symbol",
          "type": "string"
        },
        {
          "internalType": "address",
          "name": "stakingWallet",
          "type": "address"
        },
        {
          "internalType": "uint256",
          "name": "totalSupply",
          "type": "uint256"
        }
      ],
      "name": "createToken",
      "outputs": [
        {
          "internalType": "address",
          "name": "",
          "type": "address"
        }
      ],
      "stateMutability": "payable",
      "type": "function"
    },
    {
      "inputs": [
        {
          "internalType": "address",
          "name": "token",
          "type": "address"
        }
      ],
      "name": "getBondingByToken",
      "outputs": [
        {
          "internalType": "address",
          "name": "",
          "type": "address"
        }
      ],
      "stateMutability": "view",
      "type": "function"
    },
    {
      "inputs": [],
      "name": "getBondingList",
      "outputs": [
        {
          "components": [
            {
              "internalType": "address",
              "name": "bondingAddr",
              "type": "address"
            },
            {
              "internalType": "address",
              "name": "tokenAdddr",
              "type": "address"
            }
          ],
          "internalType": "struct Controller.BondingData[]",
          "name": "",
          "type": "tuple[]"
        }
      ],
      "stateMutability": "view",
      "type": "function"
    },
    {
      "inputs": [
        {
          "internalType": "address",
          "name": "owner",
          "type": "address"
        }
      ],
      "name": "getTokenByOwner",
      "outputs": [
        {
          "internalType": "address",
          "name": "",
          "type": "address"
        }
      ],
      "stateMutability": "view",
      "type": "function"
    },
    {
      "inputs": [],
      "name": "owner",
      "outputs": [
        {
          "internalType": "address",
          "name": "",
          "type": "address"
        }
      ],
      "stateMutability": "view",
      "type": "function"
    },
    {
      "inputs": [],
      "name": "renounceOwnership",
      "outputs": [],
      "stateMutability": "nonpayable",
      "type": "function"
    },
    {
      "inputs": [
        {
          "internalType": "uint256",
          "name": "newFee",
          "type": "uint256"
        }
      ],
      "name": "setFee",
      "outputs": [],
      "stateMutability": "nonpayable",
      "type": "function"
    },
    {
      "inputs": [
        {
          "internalType": "address",
          "name": "_address",
          "type": "address"
        }
      ],
      "name": "setFeeReceiver",
      "outputs": [],
      "stateMutability": "nonpayable",
      "type": "function"
    },
    {
      "inputs": [
        {
          "internalType": "uint256",
          "name": "newFee",
          "type": "uint256"
        }
      ],
      "name": "setTokenFee",
      "outputs": [],
      "stateMutability": "nonpayable",
      "type": "function"
    },
    {
      "inputs": [
        {
          "internalType": "address",
          "name": "_address",
          "type": "address"
        }
      ],
      "name": "setTokenFeeAddress",
      "outputs": [],
      "stateMutability": "nonpayable",
      "type": "function"
    },
    {
      "inputs": [
        {
          "internalType": "address",
          "name": "newAdmin",
          "type": "address"
        }
      ],
      "name": "transferAdmin",
      "outputs": [],
      "stateMutability": "nonpayable",
      "type": "function"
    },
    {
      "inputs": [
        {
          "internalType": "address",
          "name": "newOwner",
          "type": "address"
        }
      ],
      "name": "transferOwnership",
      "outputs": [],
      "stateMutability": "nonpayable",
      "type": "function"
    }
  ],
  "bytecode": "0x60803461010257601f614bed38819003918201601f19168301916001600160401b038311848410176101075780849260209460405283398101031261010257516001600160a01b0390818116908190036101025733156100e95760005460018060a01b0319903382821617600055604051933391167f8be0079c531659141344cd1fd0a4f28419497f9722a3daafe3b4186f6b6457e0600080a366038d7ea4c680006003556101f460055573b45d900cc0f65a42f16d4c756319dcac9e71a0cc8160075416176007556802b5e3af16b18800006008556004541617600455614acf908161011e8239f35b604051631e4fbdf760e01b815260006004820152602490fd5b600080fd5b634e487b7160e01b600052604160045260246000fdfe608060405260043610156200001357600080fd5b6000803560e01c806321c1633414620005725780632bf79c94146200053257806331b31b88146200050b578063331ab6f214620004e057806369fe0e2d14620004b9578063715018a6146200045b57806375829def14620004335780638270ebc114620004145780638da5cb5b14620003eb578063918f867414620003cc5780639ee4c74314620002aa578063a462be351462000256578063a879280f1462000216578063c56f1b5a14620001f6578063c57981b514620001d6578063d3e78e4d14620001ab578063efdcd97414620001575763f2fde38b14620000f657600080fd5b346200015457602036600319011262000154576200011362000f20565b6200011d62000f37565b6001600160a01b038116156200013b57620001389062000f64565b80f35b604051631e4fbdf760e01b815260048101839052602490fd5b80fd5b50346200015457602036600319011262000154576200017562000f20565b6200017f62000f37565b6001600160a01b03166200019581151562001017565b6001600160601b0360a01b600454161760045580f35b503462000154578060031936011262000154576004546040516001600160a01b039091168152602090f35b503462000154578060031936011262000154576020600354604051908152f35b503462000154578060031936011262000154576020600854604051908152f35b50346200015457602036600319011262000154576020906001600160a01b0390604090826200024462000f20565b16815260028452205416604051908152f35b50346200015457602036600319011262000154576200027462000f20565b6200027e62000f37565b6001600160a01b03166200029481151562001017565b6001600160601b0360a01b600754161760075580f35b503462000154578060031936011262000154576006549067ffffffffffffffff8211620003b8579060405190602091620002ea838360051b018262000ea1565b8181526006845282810191847ff652222313e28459528d920b65115c16c04f3efc82aaedc97be59f3f377c0d3f845b8383106200037657505050506040519280840191818552518092526040840192945b828110620003495784840385f35b855180516001600160a01b039081168652908301511684830152948101946040909301926001016200033b565b60028760019260409a9997989a516200038f8162000e84565b848060a01b03808754168252858701541683820152815201920192019190969493959662000319565b634e487b7160e01b81526041600452602490fd5b5034620001545780600319360112620001545760206040516127108152f35b50346200015457806003193601126200015457546040516001600160a01b039091168152602090f35b503462000154578060031936011262000154576020604051611d4c8152f35b50346200015457602036600319011262000154576200045162000f20565b6200011362000f37565b503462000154578060031936011262000154576200047862000f37565b600080546001600160a01b0319811682556001600160a01b03167f8be0079c531659141344cd1fd0a4f28419497f9722a3daafe3b4186f6b6457e08280a380f35b5034620001545760203660031901126200015457620004d762000f37565b60043560035580f35b503462000154578060031936011262000154576007546040516001600160a01b039091168152602090f35b50346200015457602036600319011262000154576200052962000f37565b60043560085580f35b50346200015457602036600319011262000154576020906001600160a01b0390604090826200056062000f20565b16815260018452205416604051908152f35b506080366003190112620001545767ffffffffffffffff60043581811162000b4557620005a490369060040162000ec4565b9060243581811162000e5557620005c090369060040162000ec4565b6044356001600160a01b03811690819003620009a057341562000c435760035480341062000c065760045486918291829182916001600160a01b031682821562000bfc575bf11562000b0c575b60405190612188808301908382108683111762000bd4579083929162001058843960c08152620006546200064560c083018962000fab565b82810360208401528662000fab565b91306040830152606082015233608082015260a0606435910152039085f0801562000b0c576001600160a01b031692611d4c6064358181029491818604149015171562000be857604051906118ba8083019182118383101762000bd4578291620006e091620031e084396001600160a01b03881681523060208201526127108704604082015260600190565b039086f0801562000bc95760018060a01b031692338652600160205260408620856001600160601b0360a01b825416179055848652600260205260408620846001600160601b0360a01b82541617905560035490348234031162000bb55781340362000a1b575b5050604051633ccfbabf60e01b81528590602081600481895afa908115620009c9578291620009d8575b5062000781606491823562000fed565b04853b15620009d4576040516340c10f1960e01b81526001600160a01b038616600482015260248101919091528181604481838a5af18015620009c957620009b1575b5050833b15620009a057604051632585eee960e11b8152600481018490526001602482015291858084604481838a5af1938415620009a457869462000983575b50507fcd67a7c35df376bb0365a3982c67488f0ab148116a9514897f52c7c82507c0319162000855620008469260405193849360808552608085019062000fab565b90838203602085015262000fab565b33604083015260643560608301520390a26040519082817ffa4d7b58727864cff0d7a789eedb2e3408b0b82f6de8d2e738dc42cde8c7c95a8680a36200089b8262000e84565b81526020810190828252600654680100000000000000008110156200096f5760018101806006558110156200095b57907ff652222313e28459528d920b65115c16c04f3efc82aaedc97be59f3f377c0d409160066020965260011b90817ff652222313e28459528d920b65115c16c04f3efc82aaedc97be59f3f377c0d3f019060018060a01b039051166001600160601b0360a01b825416179055019060018060a01b039051166001600160601b0360a01b825416179055604051908152f35b634e487b7160e01b85526032600452602485fd5b634e487b7160e01b85526041600452602485fd5b620009919192945062000e59565b620009a0578391853862000804565b8480fd5b50604051903d90823e3d90fd5b620009bc9062000e59565b620009a0578438620007c4565b6040513d84823e3d90fd5b5080fd5b9150506020813d60201162000a12575b81620009f76020938362000ea1565b8101031262000a0d575185906200078162000771565b600080fd5b3d9150620009e8565b60405163b5e19d2360e01b8152348390036004820152602081602481895afa90811562000b6157889162000b79575b5061271062000a60829382600554910462000fed565b0480911162000b70575b50843b1562000b6c57604051638e78a1f760e01b815233600482015282340360248201528160448201528781606481838a5af1801562000b615762000b49575b50908691863b1562000b4557604051630808976d60e01b815233600482015260248101919091528281604481838b5af190811562000b3a57839162000b22575b5080809287829180341462000b17575b340391f11562000b0c57388062000747565b6040513d86823e3d90fd5b6108fc925062000afa565b62000b2d9062000e59565b620009d457813862000aea565b6040513d85823e3d90fd5b8280fd5b62000b58909791929762000e59565b95903862000aaa565b6040513d8a823e3d90fd5b8680fd5b90503862000a6a565b90506020813d60201162000bac575b8162000b976020938362000ea1565b8101031262000ba857513862000a4a565b8780fd5b3d915062000b88565b634e487b7160e01b87526011600452602487fd5b6040513d87823e3d90fd5b634e487b7160e01b88526041600452602488fd5b634e487b7160e01b86526011600452602486fd5b506108fc62000605565b60405162461bcd60e51b8152602060048201526015602482015274496e73756666696369656e742062616c616e63652160581b6044820152606490fd5b6007546040516370a0823160e01b81523360048201526020916001600160a01b03168282602481845afa91821562000b6157889262000e20575b5060085480921062000ddb57604051636eb1769f60e11b81523360048201523060248201528381604481855afa801562000dd05783918a9162000d95575b501062000d5f57600480546040516323b872dd60e01b815233928101929092526001600160a01b0316602482015260448101929092529091908190839060649082908b905af1801562000d545762000d16575b50506200060d565b81813d831162000d4c575b62000d2d818362000ea1565b8101031262000d48575180151503620009a057388062000d0e565b8580fd5b503d62000d21565b6040513d89823e3d90fd5b60405162461bcd60e51b815260048101849052600e60248201526d4e6f7420616c6c6f77616e63652160901b6044820152606490fd5b809250858092503d831162000dc8575b62000db1818362000ea1565b8101031262000dc4578290513862000cbb565b8880fd5b503d62000da5565b6040513d8b823e3d90fd5b60405162461bcd60e51b815260048101849052601b60248201527f496e73756666696369656e7420746f6b656e2062616c616e63652100000000006044820152606490fd5b9091508281813d831162000e4d575b62000e3b818362000ea1565b8101031262000ba85751903862000c7d565b503d62000e2f565b8380fd5b67ffffffffffffffff811162000e6e57604052565b634e487b7160e01b600052604160045260246000fd5b6040810190811067ffffffffffffffff82111762000e6e57604052565b90601f8019910116810190811067ffffffffffffffff82111762000e6e57604052565b81601f8201121562000a0d5780359067ffffffffffffffff821162000e6e576040519262000efd601f8401601f19166020018562000ea1565b8284526020838301011162000a0d57816000926020809301838601378301015290565b600435906001600160a01b038216820362000a0d57565b6000546001600160a01b0316330362000f4c57565b60405163118cdaa760e01b8152336004820152602490fd5b600080546001600160a01b039283166001600160a01b03198216811783559216907f8be0079c531659141344cd1fd0a4f28419497f9722a3daafe3b4186f6b6457e09080a3565b919082519283825260005b84811062000fd8575050826000602080949584010152601f8019910116010190565b60208183018101518483018201520162000fb6565b818102929181159184041417156200100157565b634e487b7160e01b600052601160045260246000fd5b156200101f57565b60405162461bcd60e51b815260206004820152601060248201526f496e76616c696420616464726573732160801b6044820152606490fdfe608060405234620005c55762002188803803806200001d81620005ca565b92833981019060c081830312620005c55780516001600160401b038111620005c557826200004d918301620005f0565b602082015190926001600160401b038211620005c55762000070918301620005f0565b916200007f6040830162000662565b926200008e6060840162000662565b9260a06200009f6080830162000662565b9101516001600160a01b039590939086168015620005ac57600080546001600160a01b03198116831782556040519183918a16907f8be0079c531659141344cd1fd0a4f28419497f9722a3daafe3b4186f6b6457e09080a3878716156200056a57508683161562000525576000908152600560205260409020805460ff191660011790558051906001600160401b038211620004165760015490600182811c921680156200051a575b6020831014620003f55781601f849311620004b6575b50602090601f831160011462000438576000926200042c575b50508160011b916000199060031b1c1916176001555b81516001600160401b038111620004165760025492600184811c941680156200040b575b6020851014620003f55783601f8895116200038d575b50602090601f83116001146200030d57600091908362000301575b50508160011b916000199060031b1c1916176002555b601260ff19600354161760035581841660018060a01b0319600e541617600e551660018060a01b0319600f541617600f5580600455600581029080820460051490151715620002e0576064900491808216600052600760205260406000208054848101809255159081620002f6575b50620002ae575b60207fddf252ad1be2c89b69c2b068fc378daa952ba7f163c4a11628f55a4df523b3ef916000936040519586521693a3604051611ad09081620006788239f35b6006549163ffffffff9182841691838314620002e05763ffffffff19909416600192909201909216176006556200026e565b634e487b7160e01b600052601160045260246000fd5b905015153862000267565b015190503880620001e2565b6002600090815290949392916000805160206200214883398151915291601f198416905b818110620003715750958360019596971062000357575b505050811b01600255620001f8565b015160001960f88460031b161c1916905538808062000348565b8783015184558a96506001909301926020928301920162000331565b6002600052929350909160008051602062002148833981519152601f840160051c81019160208510620003ea575b90601f8996959493920160051c01905b818110620003da5750620001c7565b60008155889550600101620003cb565b9091508190620003bb565b634e487b7160e01b600052602260045260246000fd5b93607f1693620001b1565b634e487b7160e01b600052604160045260246000fd5b01519050388062000177565b6001600090815293506000805160206200216883398151915291905b601f19841685106200049a576001945083601f1981161062000480575b505050811b016001556200018d565b015160001960f88460031b161c1916905538808062000471565b8181015183556020948501946001909301929091019062000454565b600160005290915060008051602062002168833981519152601f840160051c810191602085106200050f575b90601f859493920160051c01905b818110620004ff57506200015e565b60008155849350600101620004f0565b9091508190620004e2565b91607f169162000148565b60405162461bcd60e51b815260206004820152601c60248201527f496e76616c69642063726561746f7257616c6c65742077616c6c6574000000006044820152606490fd5b62461bcd60e51b815260206004820152601660248201527f496e76616c6964207374616b696e672077616c6c6574000000000000000000006044820152606490fd5b604051631e4fbdf760e01b815260006004820152602490fd5b600080fd5b6040519190601f01601f191682016001600160401b038111838210176200041657604052565b919080601f84011215620005c55782516001600160401b038111620004165760209062000626601f8201601f19168301620005ca565b92818452828287010111620005c55760005b8181106200064e57508260009394955001015290565b858101830151848201840152820162000638565b51906001600160a01b0382168203620005c55756fe608060408181526004908136101561001657600080fd5b600091823560e01c93846306ee6ad8146111685750836306fdde03146110ae5783630808976d14610fa0578363095ea7b314610f7757836318160ddd14610f5b57836323b872dd14610e8a57836324d7806c14610e4d5783632f05edba14610e32578363313ce56714610e115783633a8d009714610d535783633ccfbabf146101ea5783633fd35853146103c557836340c10f1914610d165783634b0bddd214610cba5783634c420c3b146109a25783634e11b01f146109875783636f293d591461096c57836370a08231146109405783637136982b1461091c578363715018a6146108c257836376c7a3c7146108bd578363771a4bfd146108bd5783637a9e361c146108a25783637cdc65f21461087a57836383042cd21461085c5783638b927075146108345783638cad856f1461081a5783638da5cb5b146107f357836395d89b41146106f2578363996b2759146106495783639dc29fac1461049a578363a9059cbb146103ca578363b0468185146103c5578363b44b4b801461038e578363d469801614610366578363d73792a91461034a578363dfa728b314610313578363f2fde38b1461028e578363fdb20ccb1461021057508263fe0af304146101ef57505063ff458f77146101ea57600080fd5b6111f1565b3461020c578160031936011261020c5760209051630163f5008152f35b5080fd5b3461028a57602036600319011261028a5760e09282906001600160a01b036102366111d6565b16815260096020522080549260018201549260028301546003840154918401549260ff600660058701549601541695815197885260208801528601526060850152608084015260a0830152151560c0820152f35b8280fd5b3461028a57602036600319011261028a576102a76111d6565b906102b0611245565b6001600160a01b039182169283156102fd57505082546001600160a01b0319811683178455167f8be0079c531659141344cd1fd0a4f28419497f9722a3daafe3b4186f6b6457e08380a380f35b51631e4fbdf760e01b8152908101849052602490fd5b503461020c57602036600319011261020c5760209181906001600160a01b0361033a6111d6565b168152600b845220549051908152f35b503461020c578160031936011261020c57602090516127108152f35b503461020c578160031936011261020c57600d5490516001600160a01b039091168152602090f35b503461020c57602036600319011261020c5760209181906001600160a01b036103b56111d6565b168152600a845220549051908152f35b61120d565b8234610497578260031936011261049757506103e46111d6565b60243591336001600160a01b0383161461045457826104023361138f565b1061041c5760208461041585853361183b565b5160018152f35b606490602085519162461bcd60e51b835282015260126024820152714e6f7420656e6f75676820616d6f756e742160701b6044820152fd5b606490602085519162461bcd60e51b8352820152601860248201527f4e6f7420616c6c6f772073656c66207472616e736665722100000000000000006044820152fd5b80fd5b82903461020c578260031936011261020c576104b46111d6565b90602435338452602091600583526104d160ff8787205416611271565b6001600160a01b0384169384156105fc57848652600784528686205491836104f88361138f565b106105ae57509582828798827fddf252ad1be2c89b69c2b068fc378daa952ba7f163c4a11628f55a4df523b3ef97969510610587575b5086885260078552818103838920551480610572575b610551575b51908152a380f35b60065463ffffffff60001981831601169063ffffffff191617600655610549565b50600983528086206005810154905414610544565b906105959061059b9361132d565b90611678565b508486526007835281818720548961052e565b875162461bcd60e51b8152908101859052602260248201527f45524332303a206275726e20616d6f756e7420657863656564732062616c616e604482015261636560f01b6064820152608490fd5b865162461bcd60e51b8152808301859052602160248201527f45524332303a206275726e2066726f6d20746865207a65726f206164647265736044820152607360f81b6064820152608490fd5b503461020c57602036600319011261020c5760c06106b08260e09461066c6111d6565b81858451610679816112d9565b82815282602082015282868201528260608201528260808201528260a0820152015260018060a01b0316815260096020522061133a565b82519281518452602082015160208501528082015190840152606081015160608401526080810151608084015260a081015160a08401520151151560c0820152f35b903461028a578260031936011261028a57805191836002549060019082821c9282811680156107e9575b60209586861082146107d657508488529081156107b4575060011461075b575b610757868661074d828b038361130b565b519182918261118d565b0390f35b929550600283527f405787fa12a823e0f2b7631cc41b3ba8828b3321ca811111fa75cd3aa3bb5ace5b8284106107a157505050826107579461074d92820101948661073c565b8054868501880152928601928101610784565b60ff191687860152505050151560051b830101925061074d826107578661073c565b634e487b7160e01b845260229052602483fd5b93607f169361071c565b503461020c578160031936011261020c57905490516001600160a01b039091168152602090f35b503461020c578160031936011261020c5751908152602090f35b503461020c578160031936011261020c57600c5490516001600160a01b039091168152602090f35b503461020c578160031936011261020c57602090516303b538008152f35b503461020c578160031936011261020c57600f5490516001600160a01b039091168152602090f35b503461020c578160031936011261020c5760209051604b8152f35b611229565b82346104975780600319360112610497576108db611245565b80546001600160a01b03198116825581906001600160a01b03167f8be0079c531659141344cd1fd0a4f28419497f9722a3daafe3b4186f6b6457e08280a380f35b503461020c578160031936011261020c5760209063ffffffff600654169051908152f35b503461020c57602036600319011261020c576020906109656109606111d6565b61138f565b9051908152f35b503461020c578160031936011261020c576020905160468152f35b503461020c578160031936011261020c576020905160198152f35b82903461020c578260031936011261020c576109bc6111d6565b90602493843590338552602092600584526109dc60ff8388205416611271565b6001600160a01b038516948515610c79578315610c3857600a840293808504600a03610c2657605a8102908104605a03610c265790606480610a219304950490611596565b84865260098452818620805490979015610b4c5760ff600689015416610b0c5750610a9e60068689610b04948a600080516020611a7b8339815191529a9b9c54928a610a7b8b610a766005850154809861132d565b6112b6565b928a60018401549160096002860154948860038801549701549784519d8e6112d9565b8d52808d01948552838d0195865260608d0196875260808d0197885260a08d01998a5260c08d019a838c528352522098518955516001890155516002880155516003870155519085015551600584015551151591019060ff801983541691151516179055565b51908152a280f35b601c9085606494519362461bcd60e51b85528401528201527f4578697374696e67207363686564756c65206973207265766f6b6564000000006044820152fd5b90965085610c1557630163f500420190814211610c0257508495966006600080516020611a7b83398151915296610bfd93855193610b89856112d9565b878552888501914283528786019042825260608701908152608087019142835260a08801946000865260c08901966000885260005260098d528a60002098518955516001890155516002880155516003870155519085015551600584015551151591019060ff801983541691151516179055565b610b04565b634e487b7160e01b600090815260118952fd5b634e487b7160e01b86526011875285fd5b634e487b7160e01b8852601183528888fd5b50601d8785606494519362461bcd60e51b85528401528201527f416d6f756e74206d7573742062652067726561746572207468616e20300000006044820152fd5b5060178785606494519362461bcd60e51b85528401528201527f496e76616c6964206163636f756e7420616464726573730000000000000000006044820152fd5b503461020c578060031936011261020c57610cd36111d6565b90602435908115158203610d1257610d0f92610ced611245565b60018060a01b03168452600560205283209060ff801983541691151516179055565b80f35b8380fd5b503461020c578060031936011261020c57610d0f90610d4a60ff610d386111d6565b92338652600560205285205416611271565b60243590611596565b503461020c57602036600319011261020c579060c091610d716111d6565b60018060a01b0316825260076020528082205491809181610d98828460096020522061133a565b91825180151580610e06575b80610df9575b610dde575b5060a0610dbc83886112b6565b93015194815196875260208701528501526060840152608083015260a0820152f35b94509250610ded9050816113ff565b60608201519287610daf565b5081840151421015610daa565b508784015115610da4565b503461020c578160031936011261020c5760209060ff600354169051908152f35b503461020c578160031936011261020c5760209051605a8152f35b503461020c57602036600319011261020c5760209160ff9082906001600160a01b03610e776111d6565b1681526005855220541690519015158152f35b82903461020c57606036600319011261020c57610ea56111d6565b6001600160a01b039260243592908484168403610497578590604435958416815260086020528181203382526020522054906000198203610eef575b60208661041587878761183b565b848210610f185750918391610f0d60209695610415950333836114ac565b919394819350610ee1565b606490602087519162461bcd60e51b8352820152601d60248201527f45524332303a20696e73756666696369656e7420616c6c6f77616e63650000006044820152fd5b3461028a578260031936011261028a5760209250549051908152f35b503461020c578060031936011261020c57602090610415610f966111d6565b60243590336114ac565b82903461020c578260031936011261020c57610fba6111d6565b9060249384359033855260209260058452610fda60ff8388205416611271565b6001600160a01b038516948515610c79578315610c38576019840293808504601903610c2657604b8102908104604b03610c26579060648061101f9304950490611596565b848652600984528186208054909790156110745760ff600689015416610b0c5750610a9e60068689610b04948a600080516020611a7b8339815191529a9b9c54928a610a7b8b610a766005850154809861132d565b95909650946303b53800420190814211610c0257508495966006600080516020611a7b83398151915296610bfd93855193610b89856112d9565b903461028a578260031936011261028a5780519183600180549182821c92828116801561115e575b60209586861082146107d657508488529081156107b4575060011461110657610757868661074d828b038361130b565b9295508083527fb10e2d527612073b26eecdfd717e6a320cf44b4afac2b0732d9fcbe2b7fa0cf65b82841061114b57505050826107579461074d92820101948661073c565b805486850188015292860192810161112e565b93607f16936110d6565b83903461020c578160031936011261020c57600e546001600160a01b03168152602090f35b6020808252825181830181905290939260005b8281106111c257505060409293506000838284010152601f8019910116010190565b8181018601518482016040015285016111a0565b600435906001600160a01b03821682036111ec57565b600080fd5b346111ec5760003660031901126111ec57602060405160148152f35b346111ec5760003660031901126111ec57602060405160058152f35b346111ec5760003660031901126111ec576020604051600a8152f35b6000546001600160a01b0316330361125957565b60405163118cdaa760e01b8152336004820152602490fd5b1561127857565b60405162461bcd60e51b815260206004820152601660248201527531b0b63632b91034b9903737ba1030b71030b236b4b760511b6044820152606490fd5b919082018092116112c357565b634e487b7160e01b600052601160045260246000fd5b60e0810190811067ffffffffffffffff8211176112f557604052565b634e487b7160e01b600052604160045260246000fd5b90601f8019910116810190811067ffffffffffffffff8211176112f557604052565b919082039182116112c357565b90604051611347816112d9565b60c060ff600683958054855260018101546020860152600281015460408601526003810154606086015260048101546080860152600581015460a08601520154161515910152565b60018060a01b0316600052600760205260406000205460096020526113b7604060002061133a565b80511515806113f3575b806113e5575b6113cf575090565b906113dc6113e2926113ff565b906112b6565b90565b5060408101514210156113c7565b5060c0810151156113c1565b604081015142106114a657606081018051421015611494576114336020830161142981514261132d565b925190519061132d565b9082518181029181830414901517156112c357811561147e57048151808211611476575b5060a060009201519081811161146c57505090565b6113e2925061132d565b905038611457565b634e487b7160e01b600052601260045260246000fd5b508060a06113e292519101519061132d565b50600090565b6001600160a01b03908116918215611552571691821561150d5760207f8c5be1e5ebec7d5bd14f71427d1e84f3dd0314c0f7b2291e5b200ac8c7c3b925918360005260088252604060002085600052825280604060002055604051908152a3565b60405162461bcd60e51b815260206004820152601e60248201527f45524332303a20617070726f766520746f207a65726f206164647265737300006044820152606490fd5b606460405162461bcd60e51b815260206004820152602060248201527f45524332303a20617070726f76652066726f6d207a65726f20616464726573736044820152fd5b6001600160a01b03169081156116335781600052600760205260406000208054828101809255159081611629575b506115f9575b7fddf252ad1be2c89b69c2b068fc378daa952ba7f163c4a11628f55a4df523b3ef6020600092604051908152a3565b6006549063ffffffff90818316908282146112c35763ffffffff19909316600191909101909116176006556115ca565b90501515386115c4565b60405162461bcd60e51b815260206004820152601f60248201527f45524332303a206d696e7420746f20746865207a65726f2061646472657373006044820152606490fd5b60018060a01b03811690600090828252602091600983526040918282209060ff60068301541661180557600282015442106117c857866116bf6116ba8461133a565b6113ff565b10611784579184827f5952e800de5564aff4cc315e219327cf6d706cbba481d1613c32f4b1aa17dcdd9695946117078a60058b9701926117008285546112b6565b8455611596565b4260048301555481541115611723575b5050505051848152a290565b82847fc6cfdb244e262cc2d7da34a1f8d576a0b4bceb631ac57ea5858a7bed7255279f94526009835260068682208281558260018201558260028201558260038201558260048201558260058201550155548451908152a283388381611717565b835162461bcd60e51b815260048101869052601a60248201527f496e73756666696369656e742076657374656420746f6b656e730000000000006044820152606490fd5b835162461bcd60e51b815260048101869052601660248201527510db1a5999881c195c9a5bd9081b9bdd08195b99195960521b6044820152606490fd5b835162461bcd60e51b815260048101869052600f60248201526e15995cdd1a5b99c81c995d9bdad959608a1b6044820152606490fd5b9291906001600160a01b03808516918215611a2757169182156119d657600090828252602091600783526040908181205497836118778261138f565b1061198357888391857fddf252ad1be2c89b69c2b068fc378daa952ba7f163c4a11628f55a4df523b3ef98999a9b10611960575b5088835260078652848284205491898552038284205588835281832085815401905587835281832054158061194b575b61192a575b159182611916575b50506118f6575b51908152a3565b60065463ffffffff600181831601169063ffffffff1916176006556118ef565b8881526007865220541515905081386118e8565b60065463ffffffff60001981831601169063ffffffff1916176006556118e0565b506009865281832060058101549054146118db565b906119709250610595908661132d565b50858152600784528180822054386118ab565b825162461bcd60e51b815260048101869052602660248201527f45524332303a207472616e7366657220616d6f756e7420657863656564732062604482015265616c616e636560d01b6064820152608490fd5b60405162461bcd60e51b815260206004820152602360248201527f45524332303a207472616e7366657220746f20746865207a65726f206164647260448201526265737360e81b6064820152608490fd5b60405162461bcd60e51b815260206004820152602560248201527f45524332303a207472616e736665722066726f6d20746865207a65726f206164604482015264647265737360d81b6064820152608490fdfed4691cc79b8fc72aac1e8c0d15a2ca06d71a386c983f815266f0fce713dc5ea7a2646970667358221220d68b9790b407bd936f30118555012efd6cd062cfbf3e49f31e46ce21d90a2e7264736f6c63430008140033405787fa12a823e0f2b7631cc41b3ba8828b3321ca811111fa75cd3aa3bb5aceb10e2d527612073b26eecdfd717e6a320cf44b4afac2b0732d9fcbe2b7fa0cf660a034620001eb57601f620018ba38819003918201601f191683019291906001600160401b03841183851017620001f0578160609284926040968752833981010312620001eb57620000518162000206565b9082620000616020830162000206565b910151916001600160a01b039182168015620001d357600080546001600160a01b0319808216841783558751929592949093909183167f8be0079c531659141344cd1fd0a4f28419497f9722a3daafe3b4186f6b6457e08780a36001805584600855846009551691821562000191575083156200015c5760025416176002558160045560328202908282046032036200014857506103e8900460065573d99d1c33f9fc3444f8101754abc46c52416550d16080526f120e3b5b985fdefbb61c8765e3000000046005555161169e90816200021c82396080518181816102b50152610edd0152f35b634e487b7160e01b81526011600452602490fd5b845162461bcd60e51b815260206004820152600e60248201526d496e76616c696420737570706c7960901b6044820152606490fd5b62461bcd60e51b815260206004820152601560248201527f496e76616c696420746f6b656e206164647265737300000000000000000000006044820152606490fd5b8451631e4fbdf760e01b815260006004820152602490fd5b600080fd5b634e487b7160e01b600052604160045260246000fd5b51906001600160a01b0382168203620001eb5756fe6080604081815260048036101561001e575b505050361561001c57005b005b600092833560e01c90816303186eef14610f3057508063031c439d14610f0c5780632455899514610ec8578063322d210014610ea857806332cb6b0c14610e8b57806354d0a68514610476578063617d7940146107f357806362064ca014610e6457806366cb3a4214610e4457806369fcd4ac14610e085780636c11bcd314610a3b5780636c1516e114610a185780636dbaadfe146109e9578063715018a61461098f5780637bfe170d146109745780637c5e2795146109555780638b7cc629146109365780638da5cb5b1461090e5780638e75e482146107ab5780638e78a1f71461082f578063918f867414610812578063933bdb90146107f35780639c98676414610258578063a8aa1b31146107ca578063ac369bb5146107ab578063adace2921461078f578063b05707e914610766578063b5e19d2314610743578063d0febe4c1461047b578063d9d8b48f14610476578063e8078d941461025d578063eaf98d2314610258578063eb91d37e146102305763f2fde38b03610011573461022c57602036600319011261022c576101b6610f64565b906101bf610fbd565b6001600160a01b03918216928315610216575050600054826bffffffffffffffffffffffff60a01b821617600055167f8be0079c531659141344cd1fd0a4f28419497f9722a3daafe3b4186f6b6457e0600080a380f35b51631e4fbdf760e01b8152908101849052602490fd5b8280fd5b50503461025457816003193601126102545760209061024d610fe9565b9051908152f35b5080fd5b610fa1565b508260031936011261022c5760025482516370a0823160e01b815230838201529260209290916001600160a01b0391908216908486602481855afa95861561046c578796610438575b50835163095ea7b360e01b81527f000000000000000000000000000000000000000000000000000000000000000084166001600160a01b0381168383019081526020810189905247959194919291889183919082908d90829060400103925af1801561042e576103ef575b509060609360c49260025416938651988995869463f305d71960e01b865285015260248401528960448401528160648401523360848401524260a48401525af19283156103e557849285946103a5575b505051908152602081019190915242604082015233907f64b83944e79c3ce8d4c297411de637c3e102d064677aac0c163976ebdcd6f50e9080606081015b0390a280f35b91935091506060823d82116103dd575b816103c26060938361130f565b810103126103d9578151910151918161039f610361565b8380fd5b3d91506103b5565b81513d86823e3d90fd5b8681819493943d8311610427575b610407818361130f565b8101031261042357518015150361041f579038610311565b8780fd5b8880fd5b503d6103fd565b86513d8b823e3d90fd5b9095508481813d8311610465575b610450818361130f565b81010312610460575194386102a6565b600080fd5b503d610446565b84513d89823e3d90fd5b610f7a565b508260031936011261022c5761048f611515565b34156107115733835260076020526104ac828420544210156114de565b6104b53461147c565b906b033b2e3c9fd0803ce800000082116106dc576104d582600854611538565b8154106106995783906103e86104ea846115ea565b04906104f68285611591565b6002546001600160a01b0391908216803b15610695578751634c420c3b60e01b8152338582019081526020810193909352918691839182908490829060400103925af190811561068b578591610677575b505061055585600854611538565b60085561056434600954611538565b6009556002541691823b156103d9578551632770a7eb60e21b815233928101928352602083019190915291839183919082908490829060400103925af1801561066d57610659575b505061064f7f150edd20b748bc680273d4bc59d5659c3229edf2f102c013595b9b3238e15886913385526007602052428486205583517f0d1a0d5e3d583a0e92588799dd06e50fd78c07daf05f0cc06d7b848b1ca445f1339180610623428634846040919493926060820195825260208201520152565b0390a261063081346110f4565b9351908152602081019390935242604084015233929081906060820190565b0390a26001805580f35b610662906112e5565b61022c5782386105ac565b84513d84823e3d90fd5b610680906112e5565b6103d9578338610547565b87513d87823e3d90fd5b8580fd5b606490602084519162461bcd60e51b8352820152601860248201527f4578636565647320617661696c61626c6520737570706c7900000000000000006044820152fd5b606490602084519162461bcd60e51b8352820152600f60248201526e45786365656473206d61782062757960881b6044820152fd5b6020606492519162461bcd60e51b8352820152600d60248201526c09aeae6e840e6cadcc8408aa89609b1b6044820152fd5b509134610763576020366003190112610763575061024d6020923561147c565b80fd5b50503461025457816003193601126102545760025490516001600160a01b039091168152602090f35b5050346102545781600319360112610254576020905160328152f35b5050346102545781600319360112610254576020906009549051908152f35b50503461025457816003193601126102545760035490516001600160a01b039091168152602090f35b5050346102545781600319360112610254576020906008549051908152f35b505034610254578160031936011261025457602090516103e88152f35b505034610254576060366003190112610254577f150edd20b748bc680273d4bc59d5659c3229edf2f102c013595b9b3238e1588661086b610f64565b6024359261039f6108f26044358094610882610fbd565b61088e82600854611538565b60085561089d88600954611538565b6009558451888152602081018390524260408201526001600160a01b0391909116979088907f0d1a0d5e3d583a0e92588799dd06e50fd78c07daf05f0cc06d7b848b1ca445f19080606081015b0390a26110f4565b9151928352602083019190915242604083015281906060820190565b505034610254578160031936011261025457905490516001600160a01b039091168152602090f35b5050346102545781600319360112610254576020906005549051908152f35b50503461025457816003193601126102545760209051632d98f9408152f35b50503461025457816003193601126102545751908152602090f35b83346107635780600319360112610763576109a8610fbd565b600080546001600160a01b0319811682556001600160a01b03167f8be0079c531659141344cd1fd0a4f28419497f9722a3daafe3b4186f6b6457e08280a380f35b5050346102545781600319360112610254576020905173d99d1c33f9fc3444f8101754abc46c52416550d18152f35b50503461025457816003193601126102545760209051670de0b6b3a76400008152f35b503461022c57602090816003193601126103d957803591610a5a611515565b8215610dd15760025484516370a0823160e01b815233818501526001600160a01b03918216939160249184818481895afa8015610dc75787918a91610d96575b5010610d5e576b033b2e3c9fd0803ce80000008611610d2a5733885260078452610ac9878920544210156114de565b610ad2866114ab565b94854710610ce8576103e8610ae6886115ea565b0491610af28389611591565b91803b15610ce4578951632770a7eb60e21b8082523388830190815260208101959095529390918c9183919082908490829060400103925af18015610cda57610cc3575b50908992916002541691823b156103d95789519182523386830190815260208101919091529091839183919082908490829060400103925af18015610cb957610ca1575b5080808087335af13d15610c9c573d67ffffffffffffffff8111610c8857875190610bae601f8201601f191687018361130f565b815288853d92013e5b15610c52575050916106308161064f9360077f150edd20b748bc680273d4bc59d5659c3229edf2f102c013595b9b3238e1588696338a52524287892055610c0082600854611591565b600855610c0f81600954611591565b60095586518281526020810182905242604082015233907f6db63bebf1e6540277744df32846ebdb98385b1a73f2d5de49b28348add63f509080606081016108ea565b60139060649387519362461bcd60e51b855284015282015272115512081d1c985b9cd9995c8819985a5b1959606a1b6044820152fd5b82604185634e487b7160e01b600052526000fd5b610bb7565b610caa906112e5565b610cb5578638610b7a565b8680fd5b88513d84823e3d90fd5b610cd1909a9193929a6112e5565b98909138610b36565b8a513d8d823e3d90fd5b8a80fd5b875162461bcd60e51b8152808501869052601d818501527f496e73756666696369656e7420636f6e74726163742062616c616e63650000006044820152606490fd5b5060109060649387519362461bcd60e51b85528401528201526f115e18d959591cc81b585e081cd95b1b60821b6044820152fd5b5060149060649387519362461bcd60e51b855284015282015273496e73756666696369656e742062616c616e636560601b6044820152fd5b809250868092503d8311610dc0575b610daf818361130f565b810103126104235786905138610a9a565b503d610da5565b88513d8b823e3d90fd5b835162461bcd60e51b81529182015260126024820152710416d6f756e74206d757374206265203e20360741b604482015260649150fd5b509134610763576020366003190112610763575061024d610e3f602093610e2d610fe9565b90610e39821515611331565b3561124f565b611061565b509134610763576020366003190112610763575061024d602092356114ab565b505034610254578160031936011261025457602090516b0120af69b323b22e9e6000008152f35b503461022c578260031936011261022c5760209250549051908152f35b509134610763576020366003190112610763575061024d6020923561136d565b505034610254578160031936011261025457517f00000000000000000000000000000000000000000000000000000000000000006001600160a01b03168152602090f35b5050346102545781600319360112610254576020905168014d1120d7b16000008152f35b8490843461022c57602036600319011261022c576020926001600160a01b03610f57610f64565b1681526007845220548152f35b600435906001600160a01b038216820361046057565b346104605760003660031901126104605760206040516b033b2e3c9fd0803ce80000008152f35b34610460576000366003190112610460576020604051600a8152f35b6000546001600160a01b03163303610fd157565b60405163118cdaa760e01b8152336004820152602490fd5b6008548015611038576110089061100260055491611061565b9061124f565b632d98f94081018091116110225761101f906111a4565b90565b634e487b7160e01b600052601160045260246000fd5b50632d98f94090565b811561104b570490565b634e487b7160e01b600052601260045260246000fd5b670de0b6b3a76400009190600019838209838202918280831092039180830392146110eb57848210156110c75793807faccb18165bd6fe31ae1cf318dc5b51eee0e1ba569b88cd74c1773b91fac1066994950990828211900360ee1b910360121c170290565b6064908560405191630c740aef60e31b835260048301528060248301526044820152fd5b50509190910490565b670de0b6b3a7640000916000198383099280830292838086109503948086039514611197578285101561117457908291096001821901821680920460028082600302188083028203028083028203028083028203028083028203028083028203028092029003029360018380600003040190848311900302920304170290565b8260649260405192630c740aef60e31b8452600484015260248301526044820152fd5b50509061101f9250611041565b670de0b6b3a764000091906000198382098382029182808310920391808303921461123a576b0120af69b323b22e9e600000908183101561121757947f25691423eb91bd5293d50df7c0e400313fc7c4de4eb66d2ce39b39122250c43b94950990828211900360eb1b910360151c170290565b6064918660405192630c740aef60e31b8452600484015260248301526044820152fd5b50506b0120af69b323b22e9e60000090049150565b909190600019838209838202918280831092039180830392146112d457670de0b6b3a764000090818310156112b657947faccb18165bd6fe31ae1cf318dc5b51eee0e1ba569b88cd74c1773b91fac1066994950990828211900360ee1b910360121c170290565b6044908660405191635173648d60e01b835260048301526024820152fd5b5050670de0b6b3a764000090049150565b67ffffffffffffffff81116112f957604052565b634e487b7160e01b600052604160045260246000fd5b90601f8019910116810190811067ffffffffffffffff8211176112f957604052565b1561133857565b60405162461bcd60e51b815260206004820152600d60248201526c496e76616c696420707269636560981b6044820152606490fd5b90611376610fe9565b604051926040840184811067ffffffffffffffff8211176112f957604052601d84526020937f63616c63756c617465507572636861736552657475726e205052494345000000858201526040519085820195632d839cb360e21b87526040602484015281519182606485015260005b83811061146857505050611445949582611424608482856000838199988299010152896044830152601f8019910116810103606481018452018261130f565b51906a636f6e736f6c652e6c6f675afa50611440821515611331565b6110f4565b600854158061145d575b6114565790565b5060065490565b50600654811161144f565b8181018301518582016084015282016113e5565b6114859061136d565b6008546114928282611538565b6004548091116114a157505090565b61101f9250611591565b610e3f6114cb916114ba610fe9565b906114c6821515611331565b61124f565b6009548181106114d9575090565b905090565b156114e557565b60405162461bcd60e51b81526020600482015260086024820152672a37b79039b7b7b760c11b6044820152606490fd5b600260015414611526576002600155565b604051633ee5aeb560e01b8152600490fd5b9081019081811161102257811061154c5790565b60405162461bcd60e51b815260206004820152601b60248201527f536166654d6174683a206164646974696f6e206f766572666c6f7700000000006044820152606490fd5b908181116115a55781039081116110225790565b60405162461bcd60e51b815260206004820152601e60248201527f536166654d6174683a207375627472616374696f6e206f766572666c6f7700006044820152606490fd5b801561166257600a810290808204600a036110225761160b600a9183611041565b036116135790565b60405162461bcd60e51b815260206004820152602160248201527f536166654d6174683a206d756c7469706c69636174696f6e206f766572666c6f6044820152607760f81b6064820152608490fd5b5060009056fea2646970667358221220ac7c4dad60988c693091bc511eb8c3712895aa4b74e3ef3870dc79f3d983e54d64736f6c63430008140033a26469706673582212202c90fb7766d69867600aab181d73f36f4ec8a27a755f1516e90cce3ae6c29c9164736f6c63430008140033",
  "linkReferences": {},
  "deployedLinkReferences": {}
}