{
  "_format": "hh-sol-artifact-1",
  "contractName": "Controller",
  "sourceName": "contracts/Controller.sol",
  "abi": [
    {
      "inputs": [
        {
          "internalType": "address",
          "name": "receiver",
          "type": "address"
        }
      ],
      "stateMutability": "nonpayable",
      "type": "constructor"
    },
    {
      "inputs": [
        {
          "internalType": "address",
          "name": "owner",
          "type": "address"
        }
      ],
      "name": "OwnableInvalidOwner",
      "type": "error"
    },
    {
      "inputs": [
        {
          "internalType": "address",
          "name": "account",
          "type": "address"
        }
      ],
      "name": "OwnableUnauthorizedAccount",
      "type": "error"
    },
    {
      "anonymous": false,
      "inputs": [
        {
          "indexed": true,
          "internalType": "address",
          "name": "bondingAddress",
          "type": "address"
        },
        {
          "indexed": true,
          "internalType": "address",
          "name": "tokenAddress",
          "type": "address"
        }
      ],
      "name": "BondingCurveCreated",
      "type": "event"
    },
    {
      "anonymous": false,
      "inputs": [
        {
          "indexed": true,
          "internalType": "address",
          "name": "previousOwner",
          "type": "address"
        },
        {
          "indexed": true,
          "internalType": "address",
          "name": "newOwner",
          "type": "address"
        }
      ],
      "name": "OwnershipTransferred",
      "type": "event"
    },
    {
      "anonymous": false,
      "inputs": [
        {
          "indexed": true,
          "internalType": "address",
          "name": "tokenAddress",
          "type": "address"
        },
        {
          "indexed": false,
          "internalType": "string",
          "name": "name",
          "type": "string"
        },
        {
          "indexed": false,
          "internalType": "string",
          "name": "symbol",
          "type": "string"
        },
        {
          "indexed": false,
          "internalType": "address",
          "name": "owner",
          "type": "address"
        },
        {
          "indexed": false,
          "internalType": "uint256",
          "name": "totalSupply",
          "type": "uint256"
        }
      ],
      "name": "TokenCreated",
      "type": "event"
    },
    {
      "inputs": [],
      "name": "BONDING_PERCENT",
      "outputs": [
        {
          "internalType": "uint256",
          "name": "",
          "type": "uint256"
        }
      ],
      "stateMutability": "view",
      "type": "function"
    },
    {
      "inputs": [],
      "name": "DENOMINATOR",
      "outputs": [
        {
          "internalType": "uint256",
          "name": "",
          "type": "uint256"
        }
      ],
      "stateMutability": "view",
      "type": "function"
    },
    {
      "inputs": [],
      "name": "FEE",
      "outputs": [
        {
          "internalType": "uint256",
          "name": "",
          "type": "uint256"
        }
      ],
      "stateMutability": "view",
      "type": "function"
    },
    {
      "inputs": [],
      "name": "FEE_RECEIVER",
      "outputs": [
        {
          "internalType": "address",
          "name": "",
          "type": "address"
        }
      ],
      "stateMutability": "view",
      "type": "function"
    },
    {
      "inputs": [],
      "name": "FEE_TOKEN_ADDRESS",
      "outputs": [
        {
          "internalType": "address",
          "name": "",
          "type": "address"
        }
      ],
      "stateMutability": "view",
      "type": "function"
    },
    {
      "inputs": [],
      "name": "TOKEN_FEE",
      "outputs": [
        {
          "internalType": "uint256",
          "name": "",
          "type": "uint256"
        }
      ],
      "stateMutability": "view",
      "type": "function"
    },
    {
      "inputs": [
        {
          "internalType": "string",
          "name": "name",
          "type": "string"
        },
        {
          "internalType": "string",
          "name": "symbol",
          "type": "string"
        },
        {
          "internalType": "address",
          "name": "stakingWallet",
          "type": "address"
        },
        {
          "internalType": "uint256",
          "name": "totalSupply",
          "type": "uint256"
        }
      ],
      "name": "createToken",
      "outputs": [
        {
          "internalType": "address",
          "name": "",
          "type": "address"
        }
      ],
      "stateMutability": "payable",
      "type": "function"
    },
    {
      "inputs": [
        {
          "internalType": "address",
          "name": "token",
          "type": "address"
        }
      ],
      "name": "getBondingByToken",
      "outputs": [
        {
          "internalType": "address",
          "name": "",
          "type": "address"
        }
      ],
      "stateMutability": "view",
      "type": "function"
    },
    {
      "inputs": [],
      "name": "getBondingList",
      "outputs": [
        {
          "components": [
            {
              "internalType": "address",
              "name": "bondingAddr",
              "type": "address"
            },
            {
              "internalType": "address",
              "name": "tokenAdddr",
              "type": "address"
            }
          ],
          "internalType": "struct Controller.BondingData[]",
          "name": "",
          "type": "tuple[]"
        }
      ],
      "stateMutability": "view",
      "type": "function"
    },
    {
      "inputs": [
        {
          "internalType": "address",
          "name": "owner",
          "type": "address"
        }
      ],
      "name": "getTokenByOwner",
      "outputs": [
        {
          "internalType": "address",
          "name": "",
          "type": "address"
        }
      ],
      "stateMutability": "view",
      "type": "function"
    },
    {
      "inputs": [],
      "name": "owner",
      "outputs": [
        {
          "internalType": "address",
          "name": "",
          "type": "address"
        }
      ],
      "stateMutability": "view",
      "type": "function"
    },
    {
      "inputs": [],
      "name": "renounceOwnership",
      "outputs": [],
      "stateMutability": "nonpayable",
      "type": "function"
    },
    {
      "inputs": [
        {
          "internalType": "uint256",
          "name": "newFee",
          "type": "uint256"
        }
      ],
      "name": "setFee",
      "outputs": [],
      "stateMutability": "nonpayable",
      "type": "function"
    },
    {
      "inputs": [
        {
          "internalType": "address",
          "name": "_address",
          "type": "address"
        }
      ],
      "name": "setFeeReceiver",
      "outputs": [],
      "stateMutability": "nonpayable",
      "type": "function"
    },
    {
      "inputs": [
        {
          "internalType": "uint256",
          "name": "newFee",
          "type": "uint256"
        }
      ],
      "name": "setTokenFee",
      "outputs": [],
      "stateMutability": "nonpayable",
      "type": "function"
    },
    {
      "inputs": [
        {
          "internalType": "address",
          "name": "_address",
          "type": "address"
        }
      ],
      "name": "setTokenFeeAddress",
      "outputs": [],
      "stateMutability": "nonpayable",
      "type": "function"
    },
    {
      "inputs": [
        {
          "internalType": "address",
          "name": "newAdmin",
          "type": "address"
        }
      ],
      "name": "transferAdmin",
      "outputs": [],
      "stateMutability": "nonpayable",
      "type": "function"
    },
    {
      "inputs": [
        {
          "internalType": "address",
          "name": "newOwner",
          "type": "address"
        }
      ],
      "name": "transferOwnership",
      "outputs": [],
      "stateMutability": "nonpayable",
      "type": "function"
    }
  ],
  "bytecode": "0x60803461010257601f614c0838819003918201601f19168301916001600160401b038311848410176101075780849260209460405283398101031261010257516001600160a01b0390818116908190036101025733156100e95760005460018060a01b0319903382821617600055604051933391167f8be0079c531659141344cd1fd0a4f28419497f9722a3daafe3b4186f6b6457e0600080a366038d7ea4c680006003556101f460055573b45d900cc0f65a42f16d4c756319dcac9e71a0cc8160075416176007556802b5e3af16b18800006008556004541617600455614aea908161011e8239f35b604051631e4fbdf760e01b815260006004820152602490fd5b600080fd5b634e487b7160e01b600052604160045260246000fdfe608060405260043610156200001357600080fd5b6000803560e01c806321c1633414620005725780632bf79c94146200053257806331b31b88146200050b578063331ab6f214620004e057806369fe0e2d14620004b9578063715018a6146200045b57806375829def14620004335780638270ebc114620004145780638da5cb5b14620003eb578063918f867414620003cc5780639ee4c74314620002aa578063a462be351462000256578063a879280f1462000216578063c56f1b5a14620001f6578063c57981b514620001d6578063d3e78e4d14620001ab578063efdcd97414620001575763f2fde38b14620000f657600080fd5b346200015457602036600319011262000154576200011362000dbc565b6200011d62000dd3565b6001600160a01b038116156200013b57620001389062000e00565b80f35b604051631e4fbdf760e01b815260048101839052602490fd5b80fd5b50346200015457602036600319011262000154576200017562000dbc565b6200017f62000dd3565b6001600160a01b03166200019581151562000eb3565b6001600160601b0360a01b600454161760045580f35b503462000154578060031936011262000154576004546040516001600160a01b039091168152602090f35b503462000154578060031936011262000154576020600354604051908152f35b503462000154578060031936011262000154576020600854604051908152f35b50346200015457602036600319011262000154576020906001600160a01b0390604090826200024462000dbc565b16815260028452205416604051908152f35b50346200015457602036600319011262000154576200027462000dbc565b6200027e62000dd3565b6001600160a01b03166200029481151562000eb3565b6001600160601b0360a01b600754161760075580f35b503462000154578060031936011262000154576006549067ffffffffffffffff8211620003b8579060405190602091620002ea838360051b018262000d3d565b8181526006845282810191847ff652222313e28459528d920b65115c16c04f3efc82aaedc97be59f3f377c0d3f845b8383106200037657505050506040519280840191818552518092526040840192945b828110620003495784840385f35b855180516001600160a01b039081168652908301511684830152948101946040909301926001016200033b565b60028760019260409a9997989a516200038f8162000d20565b848060a01b03808754168252858701541683820152815201920192019190969493959662000319565b634e487b7160e01b81526041600452602490fd5b5034620001545780600319360112620001545760206040516127108152f35b50346200015457806003193601126200015457546040516001600160a01b039091168152602090f35b503462000154578060031936011262000154576020604051611d4c8152f35b50346200015457602036600319011262000154576200045162000dbc565b6200011362000dd3565b503462000154578060031936011262000154576200047862000dd3565b600080546001600160a01b0319811682556001600160a01b03167f8be0079c531659141344cd1fd0a4f28419497f9722a3daafe3b4186f6b6457e08280a380f35b5034620001545760203660031901126200015457620004d762000dd3565b60043560035580f35b503462000154578060031936011262000154576007546040516001600160a01b039091168152602090f35b50346200015457602036600319011262000154576200052962000dd3565b60043560085580f35b50346200015457602036600319011262000154576020906001600160a01b0390604090826200056062000dbc565b16815260018452205416604051908152f35b506080366003190112620001545767ffffffffffffffff60043581811162000b4d57620005a490369060040162000d60565b9060243581811162000cf157620005c090369060040162000d60565b6044356001600160a01b038116908190036200099657341562000c4b5760035480341062000c0e5760045486918291829182916001600160a01b031682821562000c04575bf11562000b14575b604051906121eb808301908382108683111762000bdc579083929162000ef4843960c08152620006546200064560c083018962000e47565b82810360208401528662000e47565b91306040830152606082015233608082015260a0606435910152039085f0801562000b14576001600160a01b031692611d4c6064358181029491818604149015171562000bf057604051906119d68083019182118383101762000bdc578291620006e091620030df84396001600160a01b03881681523060208201526127108704604082015260600190565b039086f0801562000bd15760018060a01b031692338652600160205260408620856001600160601b0360a01b825416179055848652600260205260408620846001600160601b0360a01b8254161790556003549081341162000a11575b5050604051633ccfbabf60e01b81528590602081600481895afa908115620009bf578291620009ce575b5062000777606491823562000e89565b04853b15620009ca576040516340c10f1960e01b81526001600160a01b038616600482015260248101919091528181604481838a5af18015620009bf57620009a7575b5050833b156200099657604051632585eee960e11b8152600481018490526001602482015291858084604481838a5af19384156200099a57869462000979575b50507fcd67a7c35df376bb0365a3982c67488f0ab148116a9514897f52c7c82507c031916200084b6200083c9260405193849360808552608085019062000e47565b90838203602085015262000e47565b33604083015260643560608301520390a26040519082817ffa4d7b58727864cff0d7a789eedb2e3408b0b82f6de8d2e738dc42cde8c7c95a8680a3620008918262000d20565b8152602081019082825260065468010000000000000000811015620009655760018101806006558110156200095157907ff652222313e28459528d920b65115c16c04f3efc82aaedc97be59f3f377c0d409160066020965260011b90817ff652222313e28459528d920b65115c16c04f3efc82aaedc97be59f3f377c0d3f019060018060a01b039051166001600160601b0360a01b825416179055019060018060a01b039051166001600160601b0360a01b825416179055604051908152f35b634e487b7160e01b85526032600452602485fd5b634e487b7160e01b85526041600452602485fd5b620009879192945062000cf5565b620009965783918538620007fa565b8480fd5b50604051903d90823e3d90fd5b620009b29062000cf5565b62000996578438620007ba565b6040513d84823e3d90fd5b5080fd5b9150506020813d60201162000a08575b81620009ed6020938362000d3d565b8101031262000a03575185906200077762000767565b600080fd5b3d9150620009de565b348234031162000bbd573482146200073d5760405163b5e19d2360e01b8152348390036004820152602081602481895afa90811562000b6957889162000b81575b5061271062000a68829382600554910462000e89565b0480911162000b78575b50843b1562000b7457604051638e78a1f760e01b815233600482015282340360248201528160448201528781606481838a5af1801562000b695762000b51575b50908691863b1562000b4d57604051630808976d60e01b815233600482015260248101919091528281604481838b5af190811562000b4257839162000b2a575b5080809287829180341462000b1f575b340391f11562000b145738806200073d565b6040513d86823e3d90fd5b6108fc925062000b02565b62000b359062000cf5565b620009ca57813862000af2565b6040513d85823e3d90fd5b8280fd5b62000b60909791929762000cf5565b95903862000ab2565b6040513d8a823e3d90fd5b8680fd5b90503862000a72565b90506020813d60201162000bb4575b8162000b9f6020938362000d3d565b8101031262000bb057513862000a52565b8780fd5b3d915062000b90565b634e487b7160e01b87526011600452602487fd5b6040513d87823e3d90fd5b634e487b7160e01b88526041600452602488fd5b634e487b7160e01b86526011600452602486fd5b506108fc62000605565b60405162461bcd60e51b8152602060048201526015602482015274496e73756666696369656e742062616c616e63652160581b6044820152606490fd5b600754600480546008546040516323b872dd60e01b815233938101939093526001600160a01b03918216602484015260448301529091602091839160649183918b91165af1801562000ce65762000ca4575b506200060d565b6020813d821162000cdd575b8162000cbf6020938362000d3d565b8101031262000cd957518015150362000996573862000c9d565b8580fd5b3d915062000cb0565b6040513d88823e3d90fd5b8380fd5b67ffffffffffffffff811162000d0a57604052565b634e487b7160e01b600052604160045260246000fd5b6040810190811067ffffffffffffffff82111762000d0a57604052565b90601f8019910116810190811067ffffffffffffffff82111762000d0a57604052565b81601f8201121562000a035780359067ffffffffffffffff821162000d0a576040519262000d99601f8401601f19166020018562000d3d565b8284526020838301011162000a0357816000926020809301838601378301015290565b600435906001600160a01b038216820362000a0357565b6000546001600160a01b0316330362000de857565b60405163118cdaa760e01b8152336004820152602490fd5b600080546001600160a01b039283166001600160a01b03198216811783559216907f8be0079c531659141344cd1fd0a4f28419497f9722a3daafe3b4186f6b6457e09080a3565b919082519283825260005b84811062000e74575050826000602080949584010152601f8019910116010190565b60208183018101518483018201520162000e52565b8181029291811591840414171562000e9d57565b634e487b7160e01b600052601160045260246000fd5b1562000ebb57565b60405162461bcd60e51b815260206004820152601060248201526f496e76616c696420616464726573732160801b6044820152606490fdfe608060405234620005c557620021eb803803806200001d81620005ca565b92833981019060c081830312620005c55780516001600160401b038111620005c557826200004d918301620005f0565b602082015190926001600160401b038211620005c55762000070918301620005f0565b916200007f6040830162000662565b926200008e6060840162000662565b9260a06200009f6080830162000662565b9101516001600160a01b039590939086168015620005ac57600080546001600160a01b03198116831782556040519183918a16907f8be0079c531659141344cd1fd0a4f28419497f9722a3daafe3b4186f6b6457e09080a3878716156200056a57508683161562000525576000908152600560205260409020805460ff191660011790558051906001600160401b038211620004165760015490600182811c921680156200051a575b6020831014620003f55781601f849311620004b6575b50602090601f831160011462000438576000926200042c575b50508160011b916000199060031b1c1916176001555b81516001600160401b038111620004165760025492600184811c941680156200040b575b6020851014620003f55783601f8895116200038d575b50602090601f83116001146200030d57600091908362000301575b50508160011b916000199060031b1c1916176002555b601260ff19600354161760035581841660018060a01b0319600e541617600e551660018060a01b0319600f541617600f5580600455600581029080820460051490151715620002e0576064900491808216600052600760205260406000208054848101809255159081620002f6575b50620002ae575b60207fddf252ad1be2c89b69c2b068fc378daa952ba7f163c4a11628f55a4df523b3ef916000936040519586521693a3604051611b339081620006788239f35b6006549163ffffffff9182841691838314620002e05763ffffffff19909416600192909201909216176006556200026e565b634e487b7160e01b600052601160045260246000fd5b905015153862000267565b015190503880620001e2565b600260009081529094939291600080516020620021ab83398151915291601f198416905b818110620003715750958360019596971062000357575b505050811b01600255620001f8565b015160001960f88460031b161c1916905538808062000348565b8783015184558a96506001909301926020928301920162000331565b60026000529293509091600080516020620021ab833981519152601f840160051c81019160208510620003ea575b90601f8996959493920160051c01905b818110620003da5750620001c7565b60008155889550600101620003cb565b9091508190620003bb565b634e487b7160e01b600052602260045260246000fd5b93607f1693620001b1565b634e487b7160e01b600052604160045260246000fd5b01519050388062000177565b600160009081529350600080516020620021cb83398151915291905b601f19841685106200049a576001945083601f1981161062000480575b505050811b016001556200018d565b015160001960f88460031b161c1916905538808062000471565b8181015183556020948501946001909301929091019062000454565b6001600052909150600080516020620021cb833981519152601f840160051c810191602085106200050f575b90601f859493920160051c01905b818110620004ff57506200015e565b60008155849350600101620004f0565b9091508190620004e2565b91607f169162000148565b60405162461bcd60e51b815260206004820152601c60248201527f496e76616c69642063726561746f7257616c6c65742077616c6c6574000000006044820152606490fd5b62461bcd60e51b815260206004820152601660248201527f496e76616c6964207374616b696e672077616c6c6574000000000000000000006044820152606490fd5b604051631e4fbdf760e01b815260006004820152602490fd5b600080fd5b6040519190601f01601f191682016001600160401b038111838210176200041657604052565b919080601f84011215620005c55782516001600160401b038111620004165760209062000626601f8201601f19168301620005ca565b92818452828287010111620005c55760005b8181106200064e57508260009394955001015290565b858101830151848201840152820162000638565b51906001600160a01b0382168203620005c55756fe608060408181526004908136101561001657600080fd5b600091823560e01c93846306ee6ad8146111b55750836306fdde03146110fb5783630808976d14610fed578363095ea7b314610fc457836318160ddd14610fa857836323b872dd14610edd57836324d7806c14610ea05783632f05edba14610e85578363313ce56714610e645783633a8d009714610da65783633ccfbabf146101f55783633fd358531461041857836340c10f1914610d695783634b0bddd214610d0d5783634c420c3b146109f55783634e11b01f146109da5783636f293d59146109bf57836370a08231146109935783637136982b1461096f578363715018a61461091557836376c7a3c714610910578363771a4bfd146109105783637a9e361c146108f55783637cdc65f2146108cd57836383042cd2146108af5783638b927075146108875783638cad856f1461086d5783638da5cb5b1461084657836395d89b4114610745578363996b27591461069c5783639dc29fac146104ed578363a9059cbb1461041d578363b046818514610418578363b44b4b80146103e1578363d4698016146103b9578363d73792a91461039d578363dd62ed3e14610355578363dfa728b31461031e578363f2fde38b14610299578363fdb20ccb1461021b57508263fe0af304146101fa57505063ff458f77146101f557600080fd5b611254565b3461021757816003193601126102175760209051630163f5008152f35b5080fd5b346102955760203660031901126102955760e09282906001600160a01b03610241611223565b16815260096020522080549260018201549260028301546003840154918401549260ff600660058701549601541695815197885260208801528601526060850152608084015260a0830152151560c0820152f35b8280fd5b34610295576020366003190112610295576102b2611223565b906102bb6112a8565b6001600160a01b0391821692831561030857505082546001600160a01b0319811683178455167f8be0079c531659141344cd1fd0a4f28419497f9722a3daafe3b4186f6b6457e08380a380f35b51631e4fbdf760e01b8152908101849052602490fd5b50346102175760203660031901126102175760209181906001600160a01b03610345611223565b168152600b845220549051908152f35b503461021757806003193601126102175780602092610372611223565b61037a61123e565b6001600160a01b0391821683526008865283832091168252845220549051908152f35b5034610217578160031936011261021757602090516127108152f35b5034610217578160031936011261021757600d5490516001600160a01b039091168152602090f35b50346102175760203660031901126102175760209181906001600160a01b03610408611223565b168152600a845220549051908152f35b611270565b82346104ea57826003193601126104ea5750610437611223565b60243591336001600160a01b038316146104a75782610455336113f2565b1061046f5760208461046885853361189e565b5160018152f35b606490602085519162461bcd60e51b835282015260126024820152714e6f7420656e6f75676820616d6f756e742160701b6044820152fd5b606490602085519162461bcd60e51b8352820152601860248201527f4e6f7420616c6c6f772073656c66207472616e736665722100000000000000006044820152fd5b80fd5b829034610217578260031936011261021757610507611223565b906024353384526020916005835261052460ff87872054166112d4565b6001600160a01b03841693841561064f578486526007845286862054918361054b836113f2565b1061060157509582828798827fddf252ad1be2c89b69c2b068fc378daa952ba7f163c4a11628f55a4df523b3ef979695106105da575b50868852600785528181038389205514806105c5575b6105a4575b51908152a380f35b60065463ffffffff60001981831601169063ffffffff19161760065561059c565b50600983528086206005810154905414610597565b906105e8906105ee93611390565b906116db565b5084865260078352818187205489610581565b875162461bcd60e51b8152908101859052602260248201527f45524332303a206275726e20616d6f756e7420657863656564732062616c616e604482015261636560f01b6064820152608490fd5b865162461bcd60e51b8152808301859052602160248201527f45524332303a206275726e2066726f6d20746865207a65726f206164647265736044820152607360f81b6064820152608490fd5b50346102175760203660031901126102175760c06107038260e0946106bf611223565b818584516106cc8161133c565b82815282602082015282868201528260608201528260808201528260a0820152015260018060a01b0316815260096020522061139d565b82519281518452602082015160208501528082015190840152606081015160608401526080810151608084015260a081015160a08401520151151560c0820152f35b9034610295578260031936011261029557805191836002549060019082821c92828116801561083c575b6020958686108214610829575084885290811561080757506001146107ae575b6107aa86866107a0828b038361136e565b51918291826111da565b0390f35b929550600283527f405787fa12a823e0f2b7631cc41b3ba8828b3321ca811111fa75cd3aa3bb5ace5b8284106107f457505050826107aa946107a092820101948661078f565b80548685018801529286019281016107d7565b60ff191687860152505050151560051b83010192506107a0826107aa8661078f565b634e487b7160e01b845260229052602483fd5b93607f169361076f565b5034610217578160031936011261021757905490516001600160a01b039091168152602090f35b503461021757816003193601126102175751908152602090f35b5034610217578160031936011261021757600c5490516001600160a01b039091168152602090f35b5034610217578160031936011261021757602090516303b538008152f35b5034610217578160031936011261021757600f5490516001600160a01b039091168152602090f35b503461021757816003193601126102175760209051604b8152f35b61128c565b82346104ea57806003193601126104ea5761092e6112a8565b80546001600160a01b03198116825581906001600160a01b03167f8be0079c531659141344cd1fd0a4f28419497f9722a3daafe3b4186f6b6457e08280a380f35b503461021757816003193601126102175760209063ffffffff600654169051908152f35b5034610217576020366003190112610217576020906109b86109b3611223565b6113f2565b9051908152f35b50346102175781600319360112610217576020905160468152f35b50346102175781600319360112610217576020905160198152f35b829034610217578260031936011261021757610a0f611223565b9060249384359033855260209260058452610a2f60ff83882054166112d4565b6001600160a01b038516948515610ccc578315610c8b57600a840293808504600a03610c7957605a8102908104605a03610c795790606480610a7493049504906115f9565b84865260098452818620805490979015610b9f5760ff600689015416610b5f5750610af160068689610b57948a600080516020611ade8339815191529a9b9c54928a610ace8b610ac960058501548098611390565b611319565b928a60018401549160096002860154948860038801549701549784519d8e61133c565b8d52808d01948552838d0195865260608d0196875260808d0197885260a08d01998a5260c08d019a838c528352522098518955516001890155516002880155516003870155519085015551600584015551151591019060ff801983541691151516179055565b51908152a280f35b601c9085606494519362461bcd60e51b85528401528201527f4578697374696e67207363686564756c65206973207265766f6b6564000000006044820152fd5b90965085610c6857630163f500420190814211610c5557508495966006600080516020611ade83398151915296610c5093855193610bdc8561133c565b878552888501914283528786019042825260608701908152608087019142835260a08801946000865260c08901966000885260005260098d528a60002098518955516001890155516002880155516003870155519085015551600584015551151591019060ff801983541691151516179055565b610b57565b634e487b7160e01b600090815260118952fd5b634e487b7160e01b86526011875285fd5b634e487b7160e01b8852601183528888fd5b50601d8785606494519362461bcd60e51b85528401528201527f416d6f756e74206d7573742062652067726561746572207468616e20300000006044820152fd5b5060178785606494519362461bcd60e51b85528401528201527f496e76616c6964206163636f756e7420616464726573730000000000000000006044820152fd5b5034610217578060031936011261021757610d26611223565b90602435908115158203610d6557610d6292610d406112a8565b60018060a01b03168452600560205283209060ff801983541691151516179055565b80f35b8380fd5b5034610217578060031936011261021757610d6290610d9d60ff610d8b611223565b923386526005602052852054166112d4565b602435906115f9565b5034610217576020366003190112610217579060c091610dc4611223565b60018060a01b0316825260076020528082205491809181610deb828460096020522061139d565b91825180151580610e59575b80610e4c575b610e31575b5060a0610e0f8388611319565b93015194815196875260208701528501526060840152608083015260a0820152f35b94509250610e40905081611462565b60608201519287610e02565b5081840151421015610dfd565b508784015115610df7565b503461021757816003193601126102175760209060ff600354169051908152f35b503461021757816003193601126102175760209051605a8152f35b50346102175760203660031901126102175760209160ff9082906001600160a01b03610eca611223565b1681526005855220541690519015158152f35b82903461021757606036600319011261021757610ef8611223565b610f0061123e565b6001600160a01b03821684526008602090815285852033865290529284902054604435939260018201610f3c575b60208661046887878761189e565b848210610f655750918391610f5a602096956104689503338361150f565b919394819350610f2e565b606490602087519162461bcd60e51b8352820152601d60248201527f45524332303a20696e73756666696369656e7420616c6c6f77616e63650000006044820152fd5b3461029557826003193601126102955760209250549051908152f35b5034610217578060031936011261021757602090610468610fe3611223565b602435903361150f565b829034610217578260031936011261021757611007611223565b906024938435903385526020926005845261102760ff83882054166112d4565b6001600160a01b038516948515610ccc578315610c8b576019840293808504601903610c7957604b8102908104604b03610c79579060648061106c93049504906115f9565b848652600984528186208054909790156110c15760ff600689015416610b5f5750610af160068689610b57948a600080516020611ade8339815191529a9b9c54928a610ace8b610ac960058501548098611390565b95909650946303b53800420190814211610c5557508495966006600080516020611ade83398151915296610c5093855193610bdc8561133c565b903461029557826003193601126102955780519183600180549182821c9282811680156111ab575b602095868610821461082957508488529081156108075750600114611153576107aa86866107a0828b038361136e565b9295508083527fb10e2d527612073b26eecdfd717e6a320cf44b4afac2b0732d9fcbe2b7fa0cf65b82841061119857505050826107aa946107a092820101948661078f565b805486850188015292860192810161117b565b93607f1693611123565b839034610217578160031936011261021757600e546001600160a01b03168152602090f35b6020808252825181830181905290939260005b82811061120f57505060409293506000838284010152601f8019910116010190565b8181018601518482016040015285016111ed565b600435906001600160a01b038216820361123957565b600080fd5b602435906001600160a01b038216820361123957565b3461123957600036600319011261123957602060405160148152f35b3461123957600036600319011261123957602060405160058152f35b34611239576000366003190112611239576020604051600a8152f35b6000546001600160a01b031633036112bc57565b60405163118cdaa760e01b8152336004820152602490fd5b156112db57565b60405162461bcd60e51b815260206004820152601660248201527531b0b63632b91034b9903737ba1030b71030b236b4b760511b6044820152606490fd5b9190820180921161132657565b634e487b7160e01b600052601160045260246000fd5b60e0810190811067ffffffffffffffff82111761135857604052565b634e487b7160e01b600052604160045260246000fd5b90601f8019910116810190811067ffffffffffffffff82111761135857604052565b9190820391821161132657565b906040516113aa8161133c565b60c060ff600683958054855260018101546020860152600281015460408601526003810154606086015260048101546080860152600581015460a08601520154161515910152565b60018060a01b03166000526007602052604060002054600960205261141a604060002061139d565b8051151580611456575b80611448575b611432575090565b9061143f61144592611462565b90611319565b90565b50604081015142101561142a565b5060c081015115611424565b60408101514210611509576060810180514210156114f7576114966020830161148c815142611390565b9251905190611390565b9082518181029181830414901517156113265781156114e1570481518082116114d9575b5060a06000920151908181116114cf57505090565b6114459250611390565b9050386114ba565b634e487b7160e01b600052601260045260246000fd5b508060a0611445925191015190611390565b50600090565b6001600160a01b039081169182156115b557169182156115705760207f8c5be1e5ebec7d5bd14f71427d1e84f3dd0314c0f7b2291e5b200ac8c7c3b925918360005260088252604060002085600052825280604060002055604051908152a3565b60405162461bcd60e51b815260206004820152601e60248201527f45524332303a20617070726f766520746f207a65726f206164647265737300006044820152606490fd5b606460405162461bcd60e51b815260206004820152602060248201527f45524332303a20617070726f76652066726f6d207a65726f20616464726573736044820152fd5b6001600160a01b0316908115611696578160005260076020526040600020805482810180925515908161168c575b5061165c575b7fddf252ad1be2c89b69c2b068fc378daa952ba7f163c4a11628f55a4df523b3ef6020600092604051908152a3565b6006549063ffffffff90818316908282146113265763ffffffff199093166001919091019091161760065561162d565b9050151538611627565b60405162461bcd60e51b815260206004820152601f60248201527f45524332303a206d696e7420746f20746865207a65726f2061646472657373006044820152606490fd5b60018060a01b03811690600090828252602091600983526040918282209060ff600683015416611868576002820154421061182b578661172261171d8461139d565b611462565b106117e7579184827f5952e800de5564aff4cc315e219327cf6d706cbba481d1613c32f4b1aa17dcdd96959461176a8a60058b970192611763828554611319565b84556115f9565b4260048301555481541115611786575b5050505051848152a290565b82847fc6cfdb244e262cc2d7da34a1f8d576a0b4bceb631ac57ea5858a7bed7255279f94526009835260068682208281558260018201558260028201558260038201558260048201558260058201550155548451908152a28338838161177a565b835162461bcd60e51b815260048101869052601a60248201527f496e73756666696369656e742076657374656420746f6b656e730000000000006044820152606490fd5b835162461bcd60e51b815260048101869052601660248201527510db1a5999881c195c9a5bd9081b9bdd08195b99195960521b6044820152606490fd5b835162461bcd60e51b815260048101869052600f60248201526e15995cdd1a5b99c81c995d9bdad959608a1b6044820152606490fd5b9291906001600160a01b03808516918215611a8a5716918215611a3957600090828252602091600783526040908181205497836118da826113f2565b106119e657888391857fddf252ad1be2c89b69c2b068fc378daa952ba7f163c4a11628f55a4df523b3ef98999a9b106119c3575b508883526007865284828420549189855203828420558883528183208581540190558783528183205415806119ae575b61198d575b159182611979575b5050611959575b51908152a3565b60065463ffffffff600181831601169063ffffffff191617600655611952565b88815260078652205415159050813861194b565b60065463ffffffff60001981831601169063ffffffff191617600655611943565b5060098652818320600581015490541461193e565b906119d392506105e89086611390565b508581526007845281808220543861190e565b825162461bcd60e51b815260048101869052602660248201527f45524332303a207472616e7366657220616d6f756e7420657863656564732062604482015265616c616e636560d01b6064820152608490fd5b60405162461bcd60e51b815260206004820152602360248201527f45524332303a207472616e7366657220746f20746865207a65726f206164647260448201526265737360e81b6064820152608490fd5b60405162461bcd60e51b815260206004820152602560248201527f45524332303a207472616e736665722066726f6d20746865207a65726f206164604482015264647265737360d81b6064820152608490fdfed4691cc79b8fc72aac1e8c0d15a2ca06d71a386c983f815266f0fce713dc5ea7a2646970667358221220b339772a7d8653623b5585bf3c650ce2e254b008bf0f9a5fdc301242f54634ba64736f6c63430008140033405787fa12a823e0f2b7631cc41b3ba8828b3321ca811111fa75cd3aa3bb5aceb10e2d527612073b26eecdfd717e6a320cf44b4afac2b0732d9fcbe2b7fa0cf660a034620001eb57601f620019d638819003918201601f191683019291906001600160401b03841183851017620001f0578160609284926040968752833981010312620001eb57620000518162000206565b9082620000616020830162000206565b910151916001600160a01b039182168015620001d357600080546001600160a01b0319808216841783558751929592949093909183167f8be0079c531659141344cd1fd0a4f28419497f9722a3daafe3b4186f6b6457e08780a36001805584600855846009551691821562000191575083156200015c5760025416176002558160045560328202908282046032036200014857506103e8900460065573d99d1c33f9fc3444f8101754abc46c52416550d16080526f120e3b5b985fdefbb61c8765e300000004600555516117ba90816200021c82396080518181816102c00152610ee80152f35b634e487b7160e01b81526011600452602490fd5b845162461bcd60e51b815260206004820152600e60248201526d496e76616c696420737570706c7960901b6044820152606490fd5b62461bcd60e51b815260206004820152601560248201527f496e76616c696420746f6b656e206164647265737300000000000000000000006044820152606490fd5b8451631e4fbdf760e01b815260006004820152602490fd5b600080fd5b634e487b7160e01b600052604160045260246000fd5b51906001600160a01b0382168203620001eb5756fe6080604081815260048036101561001e575b505050361561001c57005b005b600092833560e01c90816303186eef14610f3b57508063031c439d14610f175780632455899514610ed3578063322d210014610eb357806332cb6b0c14610e9657806354d0a68514610481578063617d7940146107fe57806362064ca014610e6f57806366cb3a4214610e4f57806369fcd4ac14610e135780636c11bcd314610a465780636c1516e114610a235780636dbaadfe146109f4578063715018a61461099a5780637634f759146102635780637bfe170d1461097f5780637c5e2795146109605780638b7cc629146109415780638da5cb5b146109195780638e75e482146107b65780638e78a1f71461083a578063918f86741461081d578063933bdb90146107fe5780639c98676414610263578063a8aa1b31146107d5578063ac369bb5146107b6578063adace2921461079a578063b05707e914610771578063b5e19d231461074e578063d0febe4c14610486578063d9d8b48f14610481578063e8078d9414610268578063eaf98d2314610263578063eb91d37e1461023b5763f2fde38b036100115734610237576020366003190112610237576101c1610f6f565b906101ca610fc8565b6001600160a01b03918216928315610221575050600054826bffffffffffffffffffffffff60a01b821617600055167f8be0079c531659141344cd1fd0a4f28419497f9722a3daafe3b4186f6b6457e0600080a380f35b51631e4fbdf760e01b8152908101849052602490fd5b8280fd5b50503461025f578160031936011261025f57602090610258610ff4565b9051908152f35b5080fd5b610fac565b50826003193601126102375760025482516370a0823160e01b815230838201529260209290916001600160a01b0391908216908486602481855afa958615610477578796610443575b50835163095ea7b360e01b81527f000000000000000000000000000000000000000000000000000000000000000084166001600160a01b0381168383019081526020810189905247959194919291889183919082908d90829060400103925af18015610439576103fa575b509060609360c49260025416938651988995869463f305d71960e01b865285015260248401528960448401528160648401523360848401524260a48401525af19283156103f057849285946103b0575b505051908152602081019190915242604082015233907f64b83944e79c3ce8d4c297411de637c3e102d064677aac0c163976ebdcd6f50e9080606081015b0390a280f35b91935091506060823d82116103e8575b816103cd60609383611327565b810103126103e457815191015191816103aa61036c565b8380fd5b3d91506103c0565b81513d86823e3d90fd5b8681819493943d8311610432575b6104128183611327565b8101031261042e57518015150361042a57903861031c565b8780fd5b8880fd5b503d610408565b86513d8b823e3d90fd5b9095508481813d8311610470575b61045b8183611327565b8101031261046b575194386102b1565b600080fd5b503d610451565b84513d89823e3d90fd5b610f85565b50826003193601126102375761049a61162a565b341561071c5733835260076020526104b7828420544210156115f3565b6104c034611494565b906b033b2e3c9fd0803ce800000082116106e7576104e08260085461164d565b8154106106a45783906103e86104f5846116bb565b04906105018285611662565b6002546001600160a01b0391908216803b156106a0578751634c420c3b60e01b8152338582019081526020810193909352918691839182908490829060400103925af1908115610696578591610682575b50506105608560085461164d565b60085561056f3460095461164d565b6009556002541691823b156103e4578551632770a7eb60e21b815233928101928352602083019190915291839183919082908490829060400103925af1801561067857610664575b505061065a7f150edd20b748bc680273d4bc59d5659c3229edf2f102c013595b9b3238e15886913385526007602052428486205583517f0d1a0d5e3d583a0e92588799dd06e50fd78c07daf05f0cc06d7b848b1ca445f133918061062e428634846040919493926060820195825260208201520152565b0390a261063b813461110c565b9351908152602081019390935242604084015233929081906060820190565b0390a26001805580f35b61066d906112fd565b6102375782386105b7565b84513d84823e3d90fd5b61068b906112fd565b6103e4578338610552565b87513d87823e3d90fd5b8580fd5b606490602084519162461bcd60e51b8352820152601860248201527f4578636565647320617661696c61626c6520737570706c7900000000000000006044820152fd5b606490602084519162461bcd60e51b8352820152600f60248201526e45786365656473206d61782062757960881b6044820152fd5b6020606492519162461bcd60e51b8352820152600d60248201526c09aeae6e840e6cadcc8408aa89609b1b6044820152fd5b50913461076e57602036600319011261076e575061025860209235611494565b80fd5b50503461025f578160031936011261025f5760025490516001600160a01b039091168152602090f35b50503461025f578160031936011261025f576020905160328152f35b50503461025f578160031936011261025f576020906009549051908152f35b50503461025f578160031936011261025f5760035490516001600160a01b039091168152602090f35b50503461025f578160031936011261025f576020906008549051908152f35b50503461025f578160031936011261025f57602090516103e88152f35b50503461025f57606036600319011261025f577f150edd20b748bc680273d4bc59d5659c3229edf2f102c013595b9b3238e15886610876610f6f565b602435926103aa6108fd604435809461088d610fc8565b6108998260085461164d565b6008556108a88860095461164d565b6009558451888152602081018390524260408201526001600160a01b0391909116979088907f0d1a0d5e3d583a0e92588799dd06e50fd78c07daf05f0cc06d7b848b1ca445f19080606081015b0390a261110c565b9151928352602083019190915242604083015281906060820190565b50503461025f578160031936011261025f57905490516001600160a01b039091168152602090f35b50503461025f578160031936011261025f576020906005549051908152f35b50503461025f578160031936011261025f5760209051632d98f9408152f35b50503461025f578160031936011261025f5751908152602090f35b833461076e578060031936011261076e576109b3610fc8565b600080546001600160a01b0319811682556001600160a01b03167f8be0079c531659141344cd1fd0a4f28419497f9722a3daafe3b4186f6b6457e08280a380f35b50503461025f578160031936011261025f576020905173d99d1c33f9fc3444f8101754abc46c52416550d18152f35b50503461025f578160031936011261025f5760209051670de0b6b3a76400008152f35b503461023757602090816003193601126103e457803591610a6561162a565b8215610ddc5760025484516370a0823160e01b815233818501526001600160a01b03918216939160249184818481895afa8015610dd25787918a91610da1575b5010610d69576b033b2e3c9fd0803ce80000008611610d355733885260078452610ad4878920544210156115f3565b610add866115c0565b94854710610cf3576103e8610af1886116bb565b0491610afd8389611662565b91803b15610cef578951632770a7eb60e21b8082523388830190815260208101959095529390918c9183919082908490829060400103925af18015610ce557610cce575b50908992916002541691823b156103e45789519182523386830190815260208101919091529091839183919082908490829060400103925af18015610cc457610cac575b5080808087335af13d15610ca7573d67ffffffffffffffff8111610c9357875190610bb9601f8201601f1916870183611327565b815288853d92013e5b15610c5d5750509161063b8161065a9360077f150edd20b748bc680273d4bc59d5659c3229edf2f102c013595b9b3238e1588696338a52524287892055610c0b82600854611662565b600855610c1a81600954611662565b60095586518281526020810182905242604082015233907f6db63bebf1e6540277744df32846ebdb98385b1a73f2d5de49b28348add63f509080606081016108f5565b60139060649387519362461bcd60e51b855284015282015272115512081d1c985b9cd9995c8819985a5b1959606a1b6044820152fd5b82604185634e487b7160e01b600052526000fd5b610bc2565b610cb5906112fd565b610cc0578638610b85565b8680fd5b88513d84823e3d90fd5b610cdc909a9193929a6112fd565b98909138610b41565b8a513d8d823e3d90fd5b8a80fd5b875162461bcd60e51b8152808501869052601d818501527f496e73756666696369656e7420636f6e74726163742062616c616e63650000006044820152606490fd5b5060109060649387519362461bcd60e51b85528401528201526f115e18d959591cc81b585e081cd95b1b60821b6044820152fd5b5060149060649387519362461bcd60e51b855284015282015273496e73756666696369656e742062616c616e636560601b6044820152fd5b809250868092503d8311610dcb575b610dba8183611327565b8101031261042e5786905138610aa5565b503d610db0565b88513d8b823e3d90fd5b835162461bcd60e51b81529182015260126024820152710416d6f756e74206d757374206265203e20360741b604482015260649150fd5b50913461076e57602036600319011261076e5750610258610e4a602093610e38610ff4565b90610e44821515611349565b35611267565b611079565b50913461076e57602036600319011261076e5750610258602092356115c0565b50503461025f578160031936011261025f57602090516b0128f4fec937b376e86000008152f35b503461023757826003193601126102375760209250549051908152f35b50913461076e57602036600319011261076e575061025860209235611385565b50503461025f578160031936011261025f57517f00000000000000000000000000000000000000000000000000000000000000006001600160a01b03168152602090f35b50503461025f578160031936011261025f576020905168014d1120d7b16000008152f35b84908434610237576020366003190112610237576020926001600160a01b03610f62610f6f565b1681526007845220548152f35b600435906001600160a01b038216820361046b57565b3461046b57600036600319011261046b5760206040516b033b2e3c9fd0803ce80000008152f35b3461046b57600036600319011261046b576020604051600a8152f35b6000546001600160a01b03163303610fdc57565b60405163118cdaa760e01b8152336004820152602490fd5b6008548015611043576110139061100d60055491611079565b90611267565b632d98f940810180911161102d5761102a906111bc565b90565b634e487b7160e01b600052601160045260246000fd5b50632d98f94090565b9190820180921161102d57565b8115611063570490565b634e487b7160e01b600052601260045260246000fd5b670de0b6b3a764000091906000198382098382029182808310920391808303921461110357848210156110df5793807faccb18165bd6fe31ae1cf318dc5b51eee0e1ba569b88cd74c1773b91fac1066994950990828211900360ee1b910360121c170290565b6064908560405191630c740aef60e31b835260048301528060248301526044820152fd5b50509190910490565b670de0b6b3a76400009160001983830992808302928380861095039480860395146111af578285101561118c57908291096001821901821680920460028082600302188083028203028083028203028083028203028083028203028083028203028092029003029360018380600003040190848311900302920304170290565b8260649260405192630c740aef60e31b8452600484015260248301526044820152fd5b50509061102a9250611059565b670de0b6b3a7640000919060001983820983820291828083109203918083039214611252576b0128f4fec937b376e8600000908183101561122f57947ff3aa2f6403528fc4b6708afe7d7bc2806544d178e22c99254acab5810a340d6b94950990828211900360eb1b910360151c170290565b6064918660405192630c740aef60e31b8452600484015260248301526044820152fd5b50506b0128f4fec937b376e860000090049150565b909190600019838209838202918280831092039180830392146112ec57670de0b6b3a764000090818310156112ce57947faccb18165bd6fe31ae1cf318dc5b51eee0e1ba569b88cd74c1773b91fac1066994950990828211900360ee1b910360121c170290565b6044908660405191635173648d60e01b835260048301526024820152fd5b5050670de0b6b3a764000090049150565b67ffffffffffffffff811161131157604052565b634e487b7160e01b600052604160045260246000fd5b90601f8019910116810190811067ffffffffffffffff82111761131157604052565b1561135057565b60405162461bcd60e51b815260206004820152600d60248201526c496e76616c696420707269636560981b6044820152606490fd5b9061138e610ff4565b604051926040840184811067ffffffffffffffff82111761131157604052601d84526020937f63616c63756c617465507572636861736552657475726e205052494345000000858201526040519085820195632d839cb360e21b87526040602484015281519182606485015260005b8381106114805750505061145d94958261143c608482856000838199988299010152896044830152601f80199101168101036064810184520182611327565b51906a636f6e736f6c652e6c6f675afa50611458821515611349565b61110c565b6008541580611475575b61146e5790565b5060065490565b506006548111611467565b8181018301518582016084015282016113fd565b61149d81611385565b906009546114ab828261164d565b9161271083019283811161102d57831061157b57600854926114cd858561164d565b93600454809510801590611568575b6114e9575b505050505090565b8495506114ff611505916103e893949596611662565b956116bb565b0484109081611554575b5061154f579168014d1120d7b160000061153d61154493611538670de0b6b3a764000096611739565b61104c565b049061175f565b0438808080806114e1565b505090565b68014d1120d7b1600000915010153861150f565b5068014d1120d7b16000008210156114dc565b60405162461bcd60e51b815260206004820152601b60248201527f536166654d6174683a206164646974696f6e206f766572666c6f7700000000006044820152606490fd5b610e4a6115e0916115cf610ff4565b906115db821515611349565b611267565b6009548181106115ee575090565b905090565b156115fa57565b60405162461bcd60e51b81526020600482015260086024820152672a37b79039b7b7b760c11b6044820152606490fd5b60026001541461163b576002600155565b604051633ee5aeb560e01b8152600490fd5b90611658908261104c565b90811061157b5790565b9081811161167657810390811161102d5790565b60405162461bcd60e51b815260206004820152601e60248201527f536166654d6174683a207375627472616374696f6e206f766572666c6f7700006044820152606490fd5b801561173357600a810290808204600a0361102d576116dc600a9183611059565b036116e45790565b60405162461bcd60e51b815260206004820152602160248201527f536166654d6174683a206d756c7469706c69636174696f6e206f766572666c6f6044820152607760f81b6064820152608490fd5b50600090565b801561173357670de0b6b3a764000080820291808304820361102d576116dc9083611059565b90811561177d5780820291808304820361102d576116dc9083611059565b505060009056fea2646970667358221220a92c450f3839e33eba7b371a0916c7a4f111f51a4050d63c60f000c6399d788064736f6c63430008140033a26469706673582212207b504d31ad20c9ec4779b5e973b6d41dfe4f3f8f914fec3ca756fbe39c227d8a64736f6c63430008140033",
  "linkReferences": {},
  "deployedLinkReferences": {}
}