{
  "_format": "hh-sol-artifact-1",
  "contractName": "Controller",
  "sourceName": "contracts/Controller.sol",
  "abi": [
    {
      "inputs": [
        {
          "internalType": "address",
          "name": "receiver",
          "type": "address"
        }
      ],
      "stateMutability": "nonpayable",
      "type": "constructor"
    },
    {
      "inputs": [
        {
          "internalType": "address",
          "name": "owner",
          "type": "address"
        }
      ],
      "name": "OwnableInvalidOwner",
      "type": "error"
    },
    {
      "inputs": [
        {
          "internalType": "address",
          "name": "account",
          "type": "address"
        }
      ],
      "name": "OwnableUnauthorizedAccount",
      "type": "error"
    },
    {
      "anonymous": false,
      "inputs": [
        {
          "indexed": true,
          "internalType": "address",
          "name": "bondingAddress",
          "type": "address"
        },
        {
          "indexed": true,
          "internalType": "address",
          "name": "tokenAddress",
          "type": "address"
        }
      ],
      "name": "BondingCurveCreated",
      "type": "event"
    },
    {
      "anonymous": false,
      "inputs": [
        {
          "indexed": true,
          "internalType": "address",
          "name": "previousOwner",
          "type": "address"
        },
        {
          "indexed": true,
          "internalType": "address",
          "name": "newOwner",
          "type": "address"
        }
      ],
      "name": "OwnershipTransferred",
      "type": "event"
    },
    {
      "anonymous": false,
      "inputs": [
        {
          "indexed": true,
          "internalType": "address",
          "name": "tokenAddress",
          "type": "address"
        },
        {
          "indexed": false,
          "internalType": "string",
          "name": "name",
          "type": "string"
        },
        {
          "indexed": false,
          "internalType": "string",
          "name": "symbol",
          "type": "string"
        },
        {
          "indexed": false,
          "internalType": "address",
          "name": "owner",
          "type": "address"
        },
        {
          "indexed": false,
          "internalType": "uint256",
          "name": "totalSupply",
          "type": "uint256"
        }
      ],
      "name": "TokenCreated",
      "type": "event"
    },
    {
      "inputs": [],
      "name": "BONDING_PERCENT",
      "outputs": [
        {
          "internalType": "uint256",
          "name": "",
          "type": "uint256"
        }
      ],
      "stateMutability": "view",
      "type": "function"
    },
    {
      "inputs": [],
      "name": "DENOMINATOR",
      "outputs": [
        {
          "internalType": "uint256",
          "name": "",
          "type": "uint256"
        }
      ],
      "stateMutability": "view",
      "type": "function"
    },
    {
      "inputs": [],
      "name": "FEE",
      "outputs": [
        {
          "internalType": "uint256",
          "name": "",
          "type": "uint256"
        }
      ],
      "stateMutability": "view",
      "type": "function"
    },
    {
      "inputs": [],
      "name": "FEE_RECEIVER",
      "outputs": [
        {
          "internalType": "address",
          "name": "",
          "type": "address"
        }
      ],
      "stateMutability": "view",
      "type": "function"
    },
    {
      "inputs": [
        {
          "internalType": "string",
          "name": "name",
          "type": "string"
        },
        {
          "internalType": "string",
          "name": "symbol",
          "type": "string"
        },
        {
          "internalType": "address",
          "name": "stakingWallet",
          "type": "address"
        },
        {
          "internalType": "uint256",
          "name": "totalSupply",
          "type": "uint256"
        }
      ],
      "name": "createToken",
      "outputs": [
        {
          "internalType": "address",
          "name": "",
          "type": "address"
        }
      ],
      "stateMutability": "payable",
      "type": "function"
    },
    {
      "inputs": [
        {
          "internalType": "address",
          "name": "token",
          "type": "address"
        }
      ],
      "name": "getBondingByToken",
      "outputs": [
        {
          "internalType": "address",
          "name": "",
          "type": "address"
        }
      ],
      "stateMutability": "view",
      "type": "function"
    },
    {
      "inputs": [
        {
          "internalType": "address",
          "name": "owner",
          "type": "address"
        }
      ],
      "name": "getTokenByOwner",
      "outputs": [
        {
          "internalType": "address",
          "name": "",
          "type": "address"
        }
      ],
      "stateMutability": "view",
      "type": "function"
    },
    {
      "inputs": [],
      "name": "owner",
      "outputs": [
        {
          "internalType": "address",
          "name": "",
          "type": "address"
        }
      ],
      "stateMutability": "view",
      "type": "function"
    },
    {
      "inputs": [],
      "name": "renounceOwnership",
      "outputs": [],
      "stateMutability": "nonpayable",
      "type": "function"
    },
    {
      "inputs": [
        {
          "internalType": "uint256",
          "name": "newFee",
          "type": "uint256"
        }
      ],
      "name": "setFee",
      "outputs": [],
      "stateMutability": "nonpayable",
      "type": "function"
    },
    {
      "inputs": [
        {
          "internalType": "address",
          "name": "newAdmin",
          "type": "address"
        }
      ],
      "name": "transferAdmin",
      "outputs": [],
      "stateMutability": "nonpayable",
      "type": "function"
    },
    {
      "inputs": [
        {
          "internalType": "address",
          "name": "newOwner",
          "type": "address"
        }
      ],
      "name": "transferOwnership",
      "outputs": [],
      "stateMutability": "nonpayable",
      "type": "function"
    }
  ],
  "bytecode": "0x6080346100d857601f613d1738819003918201601f19168301916001600160401b038311848410176100dd578084926020946040528339810103126100d857516001600160a01b0390818116908190036100d85733156100bf5760005460018060a01b0319903382821617600055604051933391167f8be0079c531659141344cd1fd0a4f28419497f9722a3daafe3b4186f6b6457e0600080a367016345785d8a00006003556101f46005556004541617600455613c2390816100f48239f35b604051631e4fbdf760e01b815260006004820152602490fd5b600080fd5b634e487b7160e01b600052604160045260246000fdfe604060808152600490813610156200001657600080fd5b600091823560e01c806321c1633414620003015780632bf79c9414620002c257806369fe0e2d146200029c578063715018a6146200023b57806375829def14620002085780638270ebc114620001e95780638da5cb5b14620001bf578063918f867414620001a0578063a879280f1462000161578063c57981b5146200013c578063d3e78e4d14620001135763f2fde38b14620000b257600080fd5b346200010f5760203660031901126200010f57620000cf620009fc565b91620000da62000a13565b6001600160a01b03831615620000f95783620000f68462000a40565b80f35b51631e4fbdf760e01b8152908101839052602490fd5b8280fd5b50346200010f57826003193601126200010f575490516001600160a01b03909116815260209150f35b5050346200015d57816003193601126200015d576020906003549051908152f35b5080fd5b5050346200015d5760203660031901126200015d576020916001600160a01b03908290826200018f620009fc565b168152600285522054169051908152f35b5050346200015d57816003193601126200015d57602090516127108152f35b5050346200015d57816003193601126200015d57905490516001600160a01b039091168152602090f35b5050346200015d57816003193601126200015d5760209051611b588152f35b50346200010f5760203660031901126200010f5762000226620009fc565b916200023162000a13565b620000da62000a13565b833462000299578060031936011262000299576200025862000a13565b600080546001600160a01b0319811682556001600160a01b03167f8be0079c531659141344cd1fd0a4f28419497f9722a3daafe3b4186f6b6457e08280a380f35b80fd5b8382346200015d5760203660031901126200015d57620002bb62000a13565b3560035580f35b5050346200015d5760203660031901126200015d576020916001600160a01b0390829082620002f0620009fc565b168152600185522054169051908152f35b50916080366003190112620002995767ffffffffffffffff83358181116200010f57620003329036908601620009a0565b60249384358381116200094e576200034e9036908801620009a0565b6001600160a01b0360443581811697919492908890036200062757606435916003548034106200091b5788808080938a8f541682821562000911575bf1156200062b578451611f77998a82019a828c108a8d1117620008ff5790829162000af4833960c08c528560c08d01620003c5908962000a87565b9c60209d8e82820390830152620003dd908862000a87565b92308b830152606082015233608082015260a00152039089f08015620008f557611b5890818502918583041485151715620008e35787169786516111838082019082821084831117620008d1576060918e849262002a6b84398d825230908201526127108096048b8201520301908bf0978815620008c757338b5260018c52878b20986bffffffffffffffffffffffff60a01b998b8b8254161790551697898b5260028c5288888c20918254161790556003549182340392348411620008b4573414919089908d8f8786156200069a575b50505050505050508451633ccfbabf60e01b815289818c818b5afa908115620006515789916200065f575b50620004e86064918562000ac9565b04873b156200065b5785516340c10f1960e01b81526001600160a01b038816818d019081526020810192909252908990829081906040010381838c5af18015620006515790899162000639575b5050863b1562000635578451632585eee960e11b8152998a018690526001908a01528689604481838a5af180156200062b579087899a88999a93620005ff575b505084938793620005e97fcd67a7c35df376bb0365a3982c67488f0ab148116a9514897f52c7c82507c03194620005db947ffa4d7b58727864cff0d7a789eedb2e3408b0b82f6de8d2e738dc42cde8c7c95a995195869560808752608087019062000a87565b918583039086015262000a87565b90338784015260608301520390a2519480a38152f35b909250620006139193949596975062000952565b620006275790878695949392883862000575565b8680fd5b84513d89823e3d90fd5b8780fd5b620006449062000952565b6200063557873862000535565b86513d8b823e3d90fd5b8880fd5b90508981813d831162000692575b6200067981836200097d565b810103126200068d5751620004e8620004d9565b600080fd5b503d6200066d565b87918d51958693849263b5e19d2360e01b84528301525afa918215620008aa578d9262000871575b5081928a51908b820190828210908211176200085d578f8f92620007388a928f92620007239087968552600b81526a1d1bdad95b905b5bdd5b9d60aa1b838201528451948593840196632d839cb360e21b8852840152606483019062000a87565b88604483015203601f1981018352826200097d565b51906a636f6e736f6c652e6c6f675afa50620007576005548962000ac9565b0480911162000854575b50883b1562000830578751633f8a32a960e01b8152808e018290528b818681838e5af180156200084a5762000834575b50893b1562000830578751630808976d60e01b8152338e82019081526020810192909252908b90829081900360400181838e5af1801562000826579189918c9362000805575b508293839283928390620007fb575bf1156200062b5738808088818d8f87620004ae565b506108fc620007e6565b620008139193925062000952565b6200082257878a9138620007d7565b8980fd5b88513d8d823e3d90fd5b8a80fd5b62000842909b919b62000952565b993862000791565b89513d8e823e3d90fd5b90503862000761565b508f8e60418992634e487b7160e01b835252fd5b9091508d81813d8311620008a2575b6200088c81836200097d565b810103126200089e57519038620006c2565b8c80fd5b503d62000880565b8a513d8f823e3d90fd5b50634e487b7160e01b8b5260118d52838bfd5b87513d8c823e3d90fd5b634e487b7160e01b8d5260418f52858dfd5b634e487b7160e01b8a5260118c52828afd5b85513d8a823e3d90fd5b634e487b7160e01b8b5260418d52838bfd5b506108fc6200038a565b855162461bcd60e51b81526020818d0152600e818401526d696e76616c69642076616c75652160901b6044820152606490fd5b8480fd5b67ffffffffffffffff81116200096757604052565b634e487b7160e01b600052604160045260246000fd5b90601f8019910116810190811067ffffffffffffffff8211176200096757604052565b81601f820112156200068d5780359067ffffffffffffffff8211620009675760405192620009d9601f8401601f1916602001856200097d565b828452602083830101116200068d57816000926020809301838601378301015290565b600435906001600160a01b03821682036200068d57565b6000546001600160a01b0316330362000a2857565b60405163118cdaa760e01b8152336004820152602490fd5b600080546001600160a01b039283166001600160a01b03198216811783559216907f8be0079c531659141344cd1fd0a4f28419497f9722a3daafe3b4186f6b6457e09080a3565b919082519283825260005b84811062000ab4575050826000602080949584010152601f8019910116010190565b60208183018101518483018201520162000a92565b8181029291811591840414171562000add57565b634e487b7160e01b600052601160045260246000fdfe60406080815234620005055762001f77803803806200001e816200050a565b928339810160c082820312620005055781516001600160401b0391908281116200050557816200005091850162000546565b91602091828501519082821162000505576200006e91860162000546565b906200007c868601620005b8565b946200008b60608201620005b8565b9460a06200009c60808401620005b8565b9201516001600160a01b03979093908816928315620004ed57600080546001600160a01b0319808216871783558c519b929a9095949391839190889083167f8be0079c531659141344cd1fd0a4f28419497f9722a3daafe3b4186f6b6457e08e80a3169a8b15620004ab575016938415620004675788526005958688528a8920926001938460ff19825416179055805190838211620004535784548581811c9116801562000448575b8b82101462000434579180918b8d9594601f8097818311620003db575b92505050508b908d86841160011462000375579262000369575b5050600019600383901b1c191690851b1784555b805192831162000355576002548481811c911680156200034a575b8a8210146200033657828111620002ef575b508891831160011462000289579282939183928b946200027d575b50501b916000199060031b1c1916176002555b601260ff1960035416176003558681600d541617600d55600e541617600e558060045581810291818304149015171562000269579060647fddf252ad1be2c89b69c2b068fc378daa952ba7f163c4a11628f55a4df523b3ef9204848452600682528584208181540190558551908152a3516119a99081620005ce8239f35b634e487b7160e01b83526011600452602483fd5b015192503880620001d8565b60028a52888a20919083601f1981168c5b8c88838310620002d75750505010620002bd575b505050811b01600255620001eb565b015160001960f88460031b161c19169055388080620002ae565b8686015188559096019594850194879350016200029a565b60028b52898b20838086018b1c8201928c87106200032c575b018a1c019085905b82811062000320575050620001bd565b8c815501859062000310565b9250819262000308565b634e487b7160e01b8b52602260045260248bfd5b90607f1690620001ab565b634e487b7160e01b8a52604160045260248afd5b0151905038806200017c565b8881528d8120899550929190601f198516908f5b828210620003c35750508411620003a9575b505050811b01845562000190565b015160001960f88460031b161c191690553880806200039b565b8385015186558b979095019493840193018f62000389565b8a81528390209394508581018e1c8401939290919086106200042a575b85949391018d1c9091019088908f5b8382106200041b578f935088915062000162565b81558594508991018f62000407565b92508192620003f8565b634e487b7160e01b8c52602260045260248cfd5b90607f169062000145565b634e487b7160e01b8b52604160045260248bfd5b8a5162461bcd60e51b815260048101899052601c60248201527f496e76616c69642063726561746f7257616c6c65742077616c6c6574000000006044820152606490fd5b62461bcd60e51b8152600481018a9052601660248201527f496e76616c6964207374616b696e672077616c6c6574000000000000000000006044820152606490fd5b8951631e4fbdf760e01b815260006004820152602490fd5b600080fd5b6040519190601f01601f191682016001600160401b038111838210176200053057604052565b634e487b7160e01b600052604160045260246000fd5b919080601f84011215620005055782516001600160401b03811162000530576020906200057c601f8201601f191683016200050a565b92818452828287010111620005055760005b818110620005a457508260009394955001015290565b85810183015184820184015282016200058e565b51906001600160a01b0382168203620005055756fe608060408181526004908136101561001657600080fd5b600091823560e01c93846306ee6ad81461112d5750836306fdde03146110735783630808976d14610f3f578363095ea7b314610f1657836318160ddd14610efa57836323b872dd14610e2957836324d7806c14610dec5783632f05edba14610dd1578363313ce56714610db05783633a8d009714610cf25783633ccfbabf146101df5783633fd35853146103ba57836340c10f1914610cb55783634b0bddd214610c595783634c420c3b1461091d5783634e11b01f146109025783636f293d59146108e757836370a08231146108bb578363715018a61461086157836376c7a3c71461085c578363771a4bfd1461085c5783637a9e361c146108415783637cdc65f21461081957836383042cd2146107fb5783638b927075146107d35783638cad856f146107b95783638da5cb5b1461079257836395d89b4114610691578363996b2759146105e85783639dc29fac1461048f578363a9059cbb146103bf578363b0468185146103ba578363b44b4b8014610383578363d46980161461035b578363d73792a91461033f578363dfa728b314610308578363f2fde38b14610283578363fdb20ccb1461020557508263fe0af304146101e457505063ff458f77146101df57600080fd5b6111b6565b3461020157816003193601126102015760209051630163f5008152f35b5080fd5b3461027f57602036600319011261027f5760e09282906001600160a01b0361022b61119b565b16815260086020522080549260018201549260028301546003840154918401549260ff600660058701549601541695815197885260208801528601526060850152608084015260a0830152151560c0820152f35b8280fd5b3461027f57602036600319011261027f5761029c61119b565b906102a561120a565b6001600160a01b039182169283156102f257505082546001600160a01b0319811683178455167f8be0079c531659141344cd1fd0a4f28419497f9722a3daafe3b4186f6b6457e08380a380f35b51631e4fbdf760e01b8152908101849052602490fd5b50346102015760203660031901126102015760209181906001600160a01b0361032f61119b565b168152600a845220549051908152f35b5034610201578160031936011261020157602090516127108152f35b5034610201578160031936011261020157600c5490516001600160a01b039091168152602090f35b50346102015760203660031901126102015760209181906001600160a01b036103aa61119b565b1681526009845220549051908152f35b6111d2565b823461048c578260031936011261048c57506103d961119b565b60243591336001600160a01b0383161461044957826103f733611354565b106104115760208461040a8585336117a1565b5160018152f35b606490602085519162461bcd60e51b835282015260126024820152714e6f7420656e6f75676820616d6f756e742160701b6044820152fd5b606490602085519162461bcd60e51b8352820152601860248201527f4e6f7420616c6c6f772073656c66207472616e736665722100000000000000006044820152fd5b80fd5b8290346102015782600319360112610201576104a961119b565b90602435338452602091600583526104c660ff8787205416611236565b6001600160a01b03841693841561059b57848652600684528686205491836104ed83611354565b1061054d575095828287988260008051602061193483398151915297969510610526575b5086885260068552038187205551908152a380f35b906105349061053a936112f2565b906115de565b5084865260068352818187205489610511565b875162461bcd60e51b8152908101859052602260248201527f45524332303a206275726e20616d6f756e7420657863656564732062616c616e604482015261636560f01b6064820152608490fd5b865162461bcd60e51b8152808301859052602160248201527f45524332303a206275726e2066726f6d20746865207a65726f206164647265736044820152607360f81b6064820152608490fd5b50346102015760203660031901126102015760c061064f8260e09461060b61119b565b818584516106188161129e565b82815282602082015282868201528260608201528260808201528260a0820152015260018060a01b031681526008602052206112ff565b82519281518452602082015160208501528082015190840152606081015160608401526080810151608084015260a081015160a08401520151151560c0820152f35b903461027f578260031936011261027f57805191836002549060019082821c928281168015610788575b6020958686108214610775575084885290811561075357506001146106fa575b6106f686866106ec828b03836112d0565b5191829182611152565b0390f35b929550600283527f405787fa12a823e0f2b7631cc41b3ba8828b3321ca811111fa75cd3aa3bb5ace5b82841061074057505050826106f6946106ec9282010194866106db565b8054868501880152928601928101610723565b60ff191687860152505050151560051b83010192506106ec826106f6866106db565b634e487b7160e01b845260229052602483fd5b93607f16936106bb565b5034610201578160031936011261020157905490516001600160a01b039091168152602090f35b503461020157816003193601126102015751908152602090f35b5034610201578160031936011261020157600b5490516001600160a01b039091168152602090f35b5034610201578160031936011261020157602090516303b538008152f35b5034610201578160031936011261020157600e5490516001600160a01b039091168152602090f35b503461020157816003193601126102015760209051604b8152f35b6111ee565b823461048c578060031936011261048c5761087a61120a565b80546001600160a01b03198116825581906001600160a01b03167f8be0079c531659141344cd1fd0a4f28419497f9722a3daafe3b4186f6b6457e08280a380f35b5034610201576020366003190112610201576020906108e06108db61119b565b611354565b9051908152f35b50346102015781600319360112610201576020905160468152f35b50346102015781600319360112610201576020905160198152f35b82903461020157826003193601126102015761093761119b565b6024938435903385526020926005845261095660ff8388205416611236565b6001600160a01b0316938415610c19578215610bd957600a8302838104600a03610bc7576064900492605a8102908104605a03610bc757606486910493818852600686528388206109a882825461127b565b90558351908152600080516020611934833981519152863092a384865260088452818620805490979015610aed5760ff600689015416610aad5750610a3f60068689610aa5948a6000805160206119548339815191529a9b9c54928a610a1c8b610a17600585015480986112f2565b61127b565b928a60018401549160086002860154948860038801549701549784519d8e61129e565b8d52808d01948552838d0195865260608d0196875260808d0197885260a08d01998a5260c08d019a838c528352522098518955516001890155516002880155516003870155519085015551600584015551151591019060ff801983541691151516179055565b51908152a280f35b601c9085606494519362461bcd60e51b85528401528201527f4578697374696e67207363686564756c65206973207265766f6b6564000000006044820152fd5b90965085610bb657630163f500420190814211610ba35750849596600660008051602061195483398151915296610b9e93855193610b2a8561129e565b878552888501914283528786019042825260608701908152608087019142835260a08801946000865260c08901966000885260005260088d528a60002098518955516001890155516002880155516003870155519085015551600584015551151591019060ff801983541691151516179055565b610aa5565b634e487b7160e01b600090815260118952fd5b634e487b7160e01b86526011875285fd5b634e487b7160e01b8752601182528787fd5b601d8785606494519362461bcd60e51b85528401528201527f416d6f756e74206d7573742062652067726561746572207468616e20300000006044820152fd5b60178785606494519362461bcd60e51b85528401528201527f496e76616c6964206163636f756e7420616464726573730000000000000000006044820152fd5b5034610201578060031936011261020157610c7261119b565b90602435908115158203610cb157610cae92610c8c61120a565b60018060a01b03168452600560205283209060ff801983541691151516179055565b80f35b8380fd5b5034610201578060031936011261020157610cae90610ce960ff610cd761119b565b92338652600560205285205416611236565b6024359061155b565b5034610201576020366003190112610201579060c091610d1061119b565b60018060a01b0316825260066020528082205491809181610d3782846008602052206112ff565b91825180151580610da5575b80610d98575b610d7d575b5060a0610d5b838861127b565b93015194815196875260208701528501526060840152608083015260a0820152f35b94509250610d8c9050816113c4565b60608201519287610d4e565b5081840151421015610d49565b508784015115610d43565b503461020157816003193601126102015760209060ff600354169051908152f35b503461020157816003193601126102015760209051605a8152f35b50346102015760203660031901126102015760209160ff9082906001600160a01b03610e1661119b565b1681526005855220541690519015158152f35b82903461020157606036600319011261020157610e4461119b565b6001600160a01b03926024359290848416840361048c578590604435958416815260076020528181203382526020522054906000198203610e8e575b60208661040a8787876117a1565b848210610eb75750918391610eac6020969561040a95033383611471565b919394819350610e80565b606490602087519162461bcd60e51b8352820152601d60248201527f45524332303a20696e73756666696369656e7420616c6c6f77616e63650000006044820152fd5b3461027f578260031936011261027f5760209250549051908152f35b503461020157806003193601126102015760209061040a610f3561119b565b6024359033611471565b829034610201578260031936011261020157610f5961119b565b60249384359033855260209260058452610f7860ff8388205416611236565b6001600160a01b0316938415610c19578215610bd95760198302838104601903610bc7576064900492604b8102908104604b03610bc75760648691049381885260068652838820610fca82825461127b565b90558351908152600080516020611934833981519152863092a3848652600884528186208054909790156110395760ff600689015416610aad5750610a3f60068689610aa5948a6000805160206119548339815191529a9b9c54928a610a1c8b610a17600585015480986112f2565b95909650946303b53800420190814211610ba35750849596600660008051602061195483398151915296610b9e93855193610b2a8561129e565b903461027f578260031936011261027f5780519183600180549182821c928281168015611123575b6020958686108214610775575084885290811561075357506001146110cb576106f686866106ec828b03836112d0565b9295508083527fb10e2d527612073b26eecdfd717e6a320cf44b4afac2b0732d9fcbe2b7fa0cf65b82841061111057505050826106f6946106ec9282010194866106db565b80548685018801529286019281016110f3565b93607f169361109b565b839034610201578160031936011261020157600d546001600160a01b03168152602090f35b6020808252825181830181905290939260005b82811061118757505060409293506000838284010152601f8019910116010190565b818101860151848201604001528501611165565b600435906001600160a01b03821682036111b157565b600080fd5b346111b15760003660031901126111b157602060405160148152f35b346111b15760003660031901126111b157602060405160058152f35b346111b15760003660031901126111b1576020604051600a8152f35b6000546001600160a01b0316330361121e57565b60405163118cdaa760e01b8152336004820152602490fd5b1561123d57565b60405162461bcd60e51b815260206004820152601660248201527531b0b63632b91034b9903737ba1030b71030b236b4b760511b6044820152606490fd5b9190820180921161128857565b634e487b7160e01b600052601160045260246000fd5b60e0810190811067ffffffffffffffff8211176112ba57604052565b634e487b7160e01b600052604160045260246000fd5b90601f8019910116810190811067ffffffffffffffff8211176112ba57604052565b9190820391821161128857565b9060405161130c8161129e565b60c060ff600683958054855260018101546020860152600281015460408601526003810154606086015260048101546080860152600581015460a08601520154161515910152565b60018060a01b03166000526006602052604060002054600860205261137c60406000206112ff565b80511515806113b8575b806113aa575b611394575090565b906113a16113a7926113c4565b9061127b565b90565b50604081015142101561138c565b5060c081015115611386565b6040810151421061146b57606081018051421015611459576113f8602083016113ee8151426112f2565b92519051906112f2565b9082518181029181830414901517156112885781156114435704815180821161143b575b5060a060009201519081811161143157505090565b6113a792506112f2565b90503861141c565b634e487b7160e01b600052601260045260246000fd5b508060a06113a79251910151906112f2565b50600090565b6001600160a01b0390811691821561151757169182156114d25760207f8c5be1e5ebec7d5bd14f71427d1e84f3dd0314c0f7b2291e5b200ac8c7c3b925918360005260078252604060002085600052825280604060002055604051908152a3565b60405162461bcd60e51b815260206004820152601e60248201527f45524332303a20617070726f766520746f207a65726f206164647265737300006044820152606490fd5b606460405162461bcd60e51b815260206004820152602060248201527f45524332303a20617070726f76652066726f6d207a65726f20616464726573736044820152fd5b6001600160a01b03169081156115995760008051602061193483398151915260206000928484526006825260408420818154019055604051908152a3565b60405162461bcd60e51b815260206004820152601f60248201527f45524332303a206d696e7420746f20746865207a65726f2061646472657373006044820152606490fd5b60018060a01b03811690600090828252602091600883526040918282209060ff60068301541661176b576002820154421061172e5786611625611620846112ff565b6113c4565b106116ea579184827f5952e800de5564aff4cc315e219327cf6d706cbba481d1613c32f4b1aa17dcdd96959461166d8a60058b97019261166682855461127b565b845561155b565b4260048301555481541115611689575b5050505051848152a290565b82847fc6cfdb244e262cc2d7da34a1f8d576a0b4bceb631ac57ea5858a7bed7255279f94526008835260068682208281558260018201558260028201558260038201558260048201558260058201550155548451908152a28338838161167d565b835162461bcd60e51b815260048101869052601a60248201527f496e73756666696369656e742076657374656420746f6b656e730000000000006044820152606490fd5b835162461bcd60e51b815260048101869052601660248201527510db1a5999881c195c9a5bd9081b9bdd08195b99195960521b6044820152606490fd5b835162461bcd60e51b815260048101869052600f60248201526e15995cdd1a5b99c81c995d9bdad959608a1b6044820152606490fd5b916001600160a01b038084169283156118e0571692831561188f57600083815260066020526040918282205490846117d882611354565b1061183c5792849283836020966000805160206119348339815191529885961061181b575b508883526006875203828220558781522082815401905551908152a3565b9061053490611829936112f2565b50868152600685528382822054386117fd565b835162461bcd60e51b815260206004820152602660248201527f45524332303a207472616e7366657220616d6f756e7420657863656564732062604482015265616c616e636560d01b6064820152608490fd5b60405162461bcd60e51b815260206004820152602360248201527f45524332303a207472616e7366657220746f20746865207a65726f206164647260448201526265737360e81b6064820152608490fd5b60405162461bcd60e51b815260206004820152602560248201527f45524332303a207472616e736665722066726f6d20746865207a65726f206164604482015264647265737360d81b6064820152608490fdfeddf252ad1be2c89b69c2b068fc378daa952ba7f163c4a11628f55a4df523b3efd4691cc79b8fc72aac1e8c0d15a2ca06d71a386c983f815266f0fce713dc5ea7a264697066735822122069ac83c00edd3871532ca4b188b0c70e18baf512de22addaf3d253572bc0f3e564736f6c6343000814003360806040818152346200027a57606082620011838038038091620000248285620002b1565b8339810103126200027a576200003a82620002d5565b916020826200004b828401620002d5565b920151936001600160a01b0392831680156200026257600080546001600160a01b0319808216841783558751929692949093909183167f8be0079c531659141344cd1fd0a4f28419497f9722a3daafe3b4186f6b6457e08880a3600180556001600755169182156200022057506002541617600255629896809384600455600355825193620000da856200027f565b600d85526c494e495449414c5f505249434560981b828601528351918083019284632d839cb360e21b9384865287602484015288519889606485015284835b8b8110620002075750505082620001578392601f9560849c8d92868483850101526044830152871997889101168101036064810184520182620002b1565b516a636f6e736f6c652e6c6f6796875afa50618205806005558651906200017e826200027f565b6005825264534c4f504560d81b84830152875193808501958652886024860152825192836064870152885b848110620001f357505050620001e092601f8386938a8d819d9e9787010152604485015201168101036064810184520182620002b1565b51915afa5051610e989081620002eb8239f35b8181018301518782018d01528201620001a9565b8281018201518682016084015289945086910162000119565b62461bcd60e51b815260048101849052601560248201527f496e76616c696420746f6b656e206164647265737300000000000000000000006044820152606490fd5b8451631e4fbdf760e01b815260006004820152602490fd5b600080fd5b604081019081106001600160401b038211176200029b57604052565b634e487b7160e01b600052604160045260246000fd5b601f909101601f19168101906001600160401b038211908210176200029b57604052565b51906001600160a01b03821682036200027a5756fe60406080815260048036101561001c575b5050361561001a57005b005b600091823560e01c8063018a25e814610bd357806303186eef14610b99578063031c439d14610b75578063322d21001461051a57806332cb6b0c14610b565780633f8a32a914610b2857806343d32e9c14610b0b578063617d79401461056657806366cb3a4214610ac657806369fcd4ac14610ac65780636c11bcd3146106ba5780636c1516e114610697578063715018a61461063d5780637bfe170d146106225780637c5e27951461060457806388d9f5ea1461022f5780638b7cc629146105e55780638da5cb5b146105bd5780638e75e482146105a2578063918f867414610585578063933bdb90146105665780639c9867641461022a578063b05707e91461053d578063b5e19d231461051a578063d0febe4c14610234578063db0e1bdf1461022f578063eaf98d231461022a578063eb91d37e146102025763f2fde38b146101685750610010565b346101fe5760203660031901126101fe576001600160a01b038235818116939192908490036101fa57610199610c33565b83156101e4575050600054826bffffffffffffffffffffffff60a01b821617600055167f8be0079c531659141344cd1fd0a4f28419497f9722a3daafe3b4186f6b6457e0600080a380f35b51631e4fbdf760e01b8152908101849052602490fd5b8480fd5b8280fd5b83823461022657816003193601126102265760209061021f610c95565b9051908152f35b5080fd5b610c17565b610bf0565b50826003193601126101fe57610248610e3f565b34156104e757338352600660205280832054836104d45761026b90421015610dbc565b61027434610d6f565b916b033b2e3c9fd0803ce800000083116104a05761029483600754610c88565b6003541061045e57600a8302838104600a1484151715610449576103e89004906102be8285610ce6565b6002546001600160a01b0391908216803b15610444578551634c420c3b60e01b815233858201908152602081019390935291600091839182908490829060400103925af1801561043957610421575b509085929161031e86600754610c88565b6007556002541691823b1561041d578451632770a7eb60e21b815233928101928352602083019190915291839183919082908490829060400103925af18015610413576103ff575b50507f150edd20b748bc680273d4bc59d5659c3229edf2f102c013595b9b3238e15886903384526006602052428185205580517f0d1a0d5e3d583a0e92588799dd06e50fd78c07daf05f0cc06d7b848b1ca445f13391806103da428834846040919493926060820195825260208201520152565b0390a251918252346020830152426040830152339180606081015b0390a26001805580f35b61040890610df3565b6101fe578238610366565b83513d84823e3d90fd5b8380fd5b61042e9193929650610df3565b60009490913861030d565b85513d6000823e3d90fd5b600080fd5b601182634e487b7160e01b6000525260246000fd5b6020606492519162461bcd60e51b8352820152601860248201527f4578636565647320617661696c61626c6520737570706c7900000000000000006044820152fd5b6020606492519162461bcd60e51b8352820152600f60248201526e45786365656473206d61782062757960881b6044820152fd5b634e487b7160e01b845260118352602484fd5b906020606492519162461bcd60e51b8352820152600d60248201526c09aeae6e840e6cadcc8408aa89609b1b6044820152fd5b50823461053a57602036600319011261053a575061021f60209235610d6f565b80fd5b83823461022657816003193601126102265760025490516001600160a01b039091168152602090f35b8382346102265781600319360112610226576020906007549051908152f35b838234610226578160031936011261022657602090516103e88152f35b83823461022657816003193601126102265751478152602090f35b838234610226578160031936011261022657905490516001600160a01b039091168152602090f35b8382346102265781600319360112610226576020906005549051908152f35b5090346101fe57826003193601126101fe5760209250549051908152f35b83823461022657816003193601126102265751908152602090f35b833461053a578060031936011261053a57610656610c33565b600080546001600160a01b0319811682556001600160a01b03167f8be0079c531659141344cd1fd0a4f28419497f9722a3daafe3b4186f6b6457e08280a380f35b83823461022657816003193601126102265760209051670de0b6b3a76400008152f35b50346101fe576020908160031936011261041d578235916106d9610e3f565b8215610a8f5760025482516370a0823160e01b815233818701526001600160a01b039182169591602491848184818b5afa908115610a85579087918a91610a50575b5010610a18576b033b2e3c9fd0803ce800000086116109e4573388526006845261074a85892054421015610dbc565b670de0b6b3a764000061076f61075e610cf3565b610769811515610d33565b88610c5f565b04968747106109a257600a8702878104600a0361098e576103e89004916107968389610ce6565b91803b15610444578751632770a7eb60e21b80825233888301908152602081019590955293909160009183919082908490829060400103925af180156109835761096b575b50908992916002541691823b1561041d5787519182523386830190815260208101919091529091839183919082908490829060400103925af1801561096157610949575b5080808089335af13d15610944573d67ffffffffffffffff811161093257855190610853601f8201601f1916870183610e1d565b815288853d92013e5b156108fc575050916103f59160067f150edd20b748bc680273d4bc59d5659c3229edf2f102c013595b9b3238e15886943388525242818720556108a182600754610ce6565b60075580518281526020810186905242604082015233907f6db63bebf1e6540277744df32846ebdb98385b1a73f2d5de49b28348add63f5090606090a251908152602081019390935242604084015233929081906060820190565b60139192606494519362461bcd60e51b855284015282015272115512081d1c985b9cd9995c8819985a5b1959606a1b6044820152fd5b634e487b7160e01b8952604184528289fd5b61085c565b61095290610df3565b61095d57863861081f565b8680fd5b86513d84823e3d90fd5b6109789193929a50610df3565b6000989091386107db565b88513d6000823e3d90fd5b83601186634e487b7160e01b600052526000fd5b855162461bcd60e51b8152808501869052601d818501527f496e73756666696369656e7420636f6e74726163742062616c616e63650000006044820152606490fd5b5060109192606494519362461bcd60e51b85528401528201526f115e18d959591cc81b585e081cd95b1b60821b6044820152fd5b5060149192606494519362461bcd60e51b855284015282015273496e73756666696369656e742062616c616e636560601b6044820152fd5b809250868092503d8311610a7e575b610a698183610e1d565b81010312610a7a578690513861071b565b8880fd5b503d610a5f565b86513d8b823e3d90fd5b8390606492519162461bcd60e51b835282015260126024820152710416d6f756e74206d757374206265203e20360741b6044820152fd5b50823461053a57602036600319011261053a5750670de0b6b3a7640000610b03602093610af1610cf3565b90610afd821515610d33565b35610c5f565b049051908152f35b83823461022657816003193601126102265760209061021f610cf3565b50503461022657602036600319011261022657610b5090610b47610c33565b35600754610c88565b60075580f35b8382346102265781600319360112610226576020906003549051908152f35b8382346102265781600319360112610226576020905168014d1120d7b16000008152f35b5090346101fe5760203660031901126101fe57356001600160a01b038116908190036101fe57828291602094526006845220549051908152f35b83823461022657816003193601126102265760209061021f610cbd565b346104445760003660031901126104445760206040516b033b2e3c9fd0803ce80000008152f35b34610444576000366003190112610444576020604051600a8152f35b6000546001600160a01b03163303610c4757565b60405163118cdaa760e01b8152336004820152602490fd5b81810292918115918404141715610c7257565b634e487b7160e01b600052601160045260246000fd5b91908201809211610c7257565b610cba670de0b6b3a7640000610cb060055460075490610c5f565b0460045490610c88565b90565b610cc5610c95565b600a810290808204600a1481151715610c72576103e8610cba920490610c88565b91908203918211610c7257565b670de0b6b3a76400006007541115610d2e57610d0d610c95565b600a810290808204600a1481151715610c72576103e8610cba920490610ce6565b600090565b15610d3a57565b60405162461bcd60e51b815260206004820152600d60248201526c496e76616c696420707269636560981b6044820152606490fd5b610d77610cbd565b908115610d848115610d33565b670de0b6b3a764000091828102928184041490151715610c7257610da6570490565b634e487b7160e01b600052601260045260246000fd5b15610dc357565b60405162461bcd60e51b81526020600482015260086024820152672a37b79039b7b7b760c11b6044820152606490fd5b67ffffffffffffffff8111610e0757604052565b634e487b7160e01b600052604160045260246000fd5b90601f8019910116810190811067ffffffffffffffff821117610e0757604052565b600260015414610e50576002600155565b604051633ee5aeb560e01b8152600490fdfea2646970667358221220d6021a44ca74f173a2536eb0d406b5564b95b054782352c45aeb1192c60b1e7364736f6c63430008140033a2646970667358221220e6124f81b89bc98a1b6eaea03745554b510017544810b01b20375efc99fb34df64736f6c63430008140033",
  "linkReferences": {},
  "deployedLinkReferences": {}
}