{
  "_format": "hh-sol-artifact-1",
  "contractName": "BondingCurve",
  "sourceName": "contracts/BondingCurve.sol",
  "abi": [
    {
      "inputs": [
        {
          "internalType": "address",
          "name": "_token",
          "type": "address"
        },
        {
          "internalType": "address",
          "name": "initialOwner",
          "type": "address"
        },
        {
          "internalType": "uint256",
          "name": "initSupply",
          "type": "uint256"
        }
      ],
      "stateMutability": "nonpayable",
      "type": "constructor"
    },
    {
      "inputs": [
        {
          "internalType": "address",
          "name": "owner",
          "type": "address"
        }
      ],
      "name": "OwnableInvalidOwner",
      "type": "error"
    },
    {
      "inputs": [
        {
          "internalType": "address",
          "name": "account",
          "type": "address"
        }
      ],
      "name": "OwnableUnauthorizedAccount",
      "type": "error"
    },
    {
      "inputs": [],
      "name": "ReentrancyGuardReentrantCall",
      "type": "error"
    },
    {
      "anonymous": false,
      "inputs": [
        {
          "indexed": true,
          "internalType": "address",
          "name": "provider",
          "type": "address"
        },
        {
          "indexed": false,
          "internalType": "uint256",
          "name": "tokenAmount",
          "type": "uint256"
        },
        {
          "indexed": false,
          "internalType": "uint256",
          "name": "ethAmount",
          "type": "uint256"
        },
        {
          "indexed": false,
          "internalType": "uint256",
          "name": "timestamp",
          "type": "uint256"
        }
      ],
      "name": "LiquidityAdded",
      "type": "event"
    },
    {
      "anonymous": false,
      "inputs": [
        {
          "indexed": true,
          "internalType": "address",
          "name": "previousOwner",
          "type": "address"
        },
        {
          "indexed": true,
          "internalType": "address",
          "name": "newOwner",
          "type": "address"
        }
      ],
      "name": "OwnershipTransferred",
      "type": "event"
    },
    {
      "anonymous": false,
      "inputs": [
        {
          "indexed": true,
          "internalType": "address",
          "name": "buyer",
          "type": "address"
        },
        {
          "indexed": false,
          "internalType": "uint256",
          "name": "ethAmount",
          "type": "uint256"
        },
        {
          "indexed": false,
          "internalType": "uint256",
          "name": "tokenAmount",
          "type": "uint256"
        },
        {
          "indexed": false,
          "internalType": "uint256",
          "name": "timestamp",
          "type": "uint256"
        }
      ],
      "name": "TokensPurchased",
      "type": "event"
    },
    {
      "anonymous": false,
      "inputs": [
        {
          "indexed": true,
          "internalType": "address",
          "name": "seller",
          "type": "address"
        },
        {
          "indexed": false,
          "internalType": "uint256",
          "name": "tokenAmount",
          "type": "uint256"
        },
        {
          "indexed": false,
          "internalType": "uint256",
          "name": "ethAmount",
          "type": "uint256"
        },
        {
          "indexed": false,
          "internalType": "uint256",
          "name": "timestamp",
          "type": "uint256"
        }
      ],
      "name": "TokensSold",
      "type": "event"
    },
    {
      "anonymous": false,
      "inputs": [
        {
          "indexed": true,
          "internalType": "address",
          "name": "trader",
          "type": "address"
        },
        {
          "indexed": false,
          "internalType": "uint256",
          "name": "amount",
          "type": "uint256"
        },
        {
          "indexed": false,
          "internalType": "uint256",
          "name": "price",
          "type": "uint256"
        },
        {
          "indexed": false,
          "internalType": "uint256",
          "name": "timestamp",
          "type": "uint256"
        }
      ],
      "name": "Trade",
      "type": "event"
    },
    {
      "stateMutability": "payable",
      "type": "fallback"
    },
    {
      "inputs": [],
      "name": "BONDING_TARGET",
      "outputs": [
        {
          "internalType": "uint256",
          "name": "",
          "type": "uint256"
        }
      ],
      "stateMutability": "view",
      "type": "function"
    },
    {
      "inputs": [],
      "name": "BURN_PERCENT",
      "outputs": [
        {
          "internalType": "uint256",
          "name": "",
          "type": "uint256"
        }
      ],
      "stateMutability": "view",
      "type": "function"
    },
    {
      "inputs": [],
      "name": "BUY_UNLOCK_PERCENT",
      "outputs": [
        {
          "internalType": "uint256",
          "name": "",
          "type": "uint256"
        }
      ],
      "stateMutability": "view",
      "type": "function"
    },
    {
      "inputs": [],
      "name": "DENOMINATOR",
      "outputs": [
        {
          "internalType": "uint256",
          "name": "",
          "type": "uint256"
        }
      ],
      "stateMutability": "view",
      "type": "function"
    },
    {
      "inputs": [],
      "name": "INITIAL_PRICE",
      "outputs": [
        {
          "internalType": "uint256",
          "name": "",
          "type": "uint256"
        }
      ],
      "stateMutability": "view",
      "type": "function"
    },
    {
      "inputs": [],
      "name": "MAX_BUY_PERCENT",
      "outputs": [
        {
          "internalType": "uint256",
          "name": "",
          "type": "uint256"
        }
      ],
      "stateMutability": "view",
      "type": "function"
    },
    {
      "inputs": [],
      "name": "MAX_SELL_AMOUNT",
      "outputs": [
        {
          "internalType": "uint256",
          "name": "",
          "type": "uint256"
        }
      ],
      "stateMutability": "view",
      "type": "function"
    },
    {
      "inputs": [],
      "name": "MAX_SUPPLY",
      "outputs": [
        {
          "internalType": "uint256",
          "name": "",
          "type": "uint256"
        }
      ],
      "stateMutability": "view",
      "type": "function"
    },
    {
      "inputs": [],
      "name": "PANCAKE_SWAP_ROUTER_V2",
      "outputs": [
        {
          "internalType": "address",
          "name": "",
          "type": "address"
        }
      ],
      "stateMutability": "view",
      "type": "function"
    },
    {
      "inputs": [],
      "name": "TRADE_COOLDOWN",
      "outputs": [
        {
          "internalType": "uint256",
          "name": "",
          "type": "uint256"
        }
      ],
      "stateMutability": "view",
      "type": "function"
    },
    {
      "inputs": [],
      "name": "VESTING_PERCENT",
      "outputs": [
        {
          "internalType": "uint256",
          "name": "",
          "type": "uint256"
        }
      ],
      "stateMutability": "view",
      "type": "function"
    },
    {
      "inputs": [],
      "name": "addLiquidity",
      "outputs": [],
      "stateMutability": "payable",
      "type": "function"
    },
    {
      "inputs": [],
      "name": "agentToken",
      "outputs": [
        {
          "internalType": "contract AiAgentToken",
          "name": "",
          "type": "address"
        }
      ],
      "stateMutability": "view",
      "type": "function"
    },
    {
      "inputs": [],
      "name": "buyTokens",
      "outputs": [],
      "stateMutability": "payable",
      "type": "function"
    },
    {
      "inputs": [
        {
          "internalType": "uint256",
          "name": "_supply",
          "type": "uint256"
        },
        {
          "internalType": "uint256",
          "name": "_reserveBalance",
          "type": "uint256"
        },
        {
          "internalType": "uint32",
          "name": "_reserveRatio",
          "type": "uint32"
        },
        {
          "internalType": "uint256",
          "name": "_depositAmount",
          "type": "uint256"
        }
      ],
      "name": "calculatePurchaseReturn",
      "outputs": [
        {
          "internalType": "uint256",
          "name": "",
          "type": "uint256"
        }
      ],
      "stateMutability": "view",
      "type": "function"
    },
    {
      "inputs": [
        {
          "internalType": "uint256",
          "name": "_supply",
          "type": "uint256"
        },
        {
          "internalType": "uint256",
          "name": "_reserveBalance",
          "type": "uint256"
        },
        {
          "internalType": "uint32",
          "name": "_reserveRatio",
          "type": "uint32"
        },
        {
          "internalType": "uint256",
          "name": "_sellAmount",
          "type": "uint256"
        }
      ],
      "name": "calculateSaleReturn",
      "outputs": [
        {
          "internalType": "uint256",
          "name": "",
          "type": "uint256"
        }
      ],
      "stateMutability": "view",
      "type": "function"
    },
    {
      "inputs": [
        {
          "internalType": "address",
          "name": "buyer",
          "type": "address"
        },
        {
          "internalType": "uint256",
          "name": "ethValue",
          "type": "uint256"
        },
        {
          "internalType": "uint256",
          "name": "tokenAmount",
          "type": "uint256"
        }
      ],
      "name": "creatorBuy",
      "outputs": [],
      "stateMutability": "nonpayable",
      "type": "function"
    },
    {
      "inputs": [],
      "name": "getCurrentPrice",
      "outputs": [
        {
          "internalType": "uint256",
          "name": "",
          "type": "uint256"
        }
      ],
      "stateMutability": "view",
      "type": "function"
    },
    {
      "inputs": [
        {
          "internalType": "uint256",
          "name": "tokenAmount",
          "type": "uint256"
        }
      ],
      "name": "getETHForTokens",
      "outputs": [
        {
          "internalType": "uint256",
          "name": "",
          "type": "uint256"
        }
      ],
      "stateMutability": "view",
      "type": "function"
    },
    {
      "inputs": [],
      "name": "getRaisedAmount",
      "outputs": [
        {
          "internalType": "uint256",
          "name": "",
          "type": "uint256"
        }
      ],
      "stateMutability": "view",
      "type": "function"
    },
    {
      "inputs": [
        {
          "internalType": "uint256",
          "name": "_ethAmount",
          "type": "uint256"
        }
      ],
      "name": "getTokensForETH",
      "outputs": [
        {
          "internalType": "uint256",
          "name": "",
          "type": "uint256"
        }
      ],
      "stateMutability": "view",
      "type": "function"
    },
    {
      "inputs": [],
      "name": "getTotalSoldAmount",
      "outputs": [
        {
          "internalType": "uint256",
          "name": "",
          "type": "uint256"
        }
      ],
      "stateMutability": "view",
      "type": "function"
    },
    {
      "inputs": [],
      "name": "isRunBonding",
      "outputs": [
        {
          "internalType": "bool",
          "name": "",
          "type": "bool"
        }
      ],
      "stateMutability": "view",
      "type": "function"
    },
    {
      "inputs": [
        {
          "internalType": "address",
          "name": "",
          "type": "address"
        }
      ],
      "name": "lastTradeTime",
      "outputs": [
        {
          "internalType": "uint256",
          "name": "",
          "type": "uint256"
        }
      ],
      "stateMutability": "view",
      "type": "function"
    },
    {
      "inputs": [],
      "name": "owner",
      "outputs": [
        {
          "internalType": "address",
          "name": "",
          "type": "address"
        }
      ],
      "stateMutability": "view",
      "type": "function"
    },
    {
      "inputs": [],
      "name": "pancakeSwapRouter",
      "outputs": [
        {
          "internalType": "contract IUniswapV2Router01",
          "name": "",
          "type": "address"
        }
      ],
      "stateMutability": "view",
      "type": "function"
    },
    {
      "inputs": [],
      "name": "renounceOwnership",
      "outputs": [],
      "stateMutability": "nonpayable",
      "type": "function"
    },
    {
      "inputs": [],
      "name": "reserveRatio",
      "outputs": [
        {
          "internalType": "uint32",
          "name": "",
          "type": "uint32"
        }
      ],
      "stateMutability": "view",
      "type": "function"
    },
    {
      "inputs": [
        {
          "internalType": "uint256",
          "name": "tokenAmount",
          "type": "uint256"
        }
      ],
      "name": "sellTokens",
      "outputs": [],
      "stateMutability": "nonpayable",
      "type": "function"
    },
    {
      "inputs": [],
      "name": "totalRaisedAmount",
      "outputs": [
        {
          "internalType": "uint256",
          "name": "",
          "type": "uint256"
        }
      ],
      "stateMutability": "view",
      "type": "function"
    },
    {
      "inputs": [],
      "name": "totalSoldAmount",
      "outputs": [
        {
          "internalType": "uint256",
          "name": "",
          "type": "uint256"
        }
      ],
      "stateMutability": "view",
      "type": "function"
    },
    {
      "inputs": [
        {
          "internalType": "address",
          "name": "newOwner",
          "type": "address"
        }
      ],
      "name": "transferOwnership",
      "outputs": [],
      "stateMutability": "nonpayable",
      "type": "function"
    },
    {
      "stateMutability": "payable",
      "type": "receive"
    }
  ],
  "bytecode": "0x60a034620008e457601f62003f8338819003918201601f191683019291906001600160401b03841183851017620008e9578160609284926040968752833981010312620008e4576200005181620008ff565b90826200006160208301620008ff565b9101516001641c35fedd1560601b036020556001646c3390ecc9605e1b036021556001640cf801476160611b0360225560016431bdb23e1d605f1b0360235560016502fb1d8fe083605b1b0360245560016505b771955b37605a1b036025556001650af67a93bb5160591b0360265560016515060c256cb360581b036027556001651428a2f98d7360581b036028556001654d515663970960561b03602955600165944620b0e70f60551b03602a55600166011c592761c66760541b03602b5560016602214d10d014eb60531b03602c55600166020ade36b7dbef60531b03602d5560016603eab73b3bbfe360521b03602e556001660782ee3593f6d760511b03602f556001661ccf4b44bb4821604f1b0360305560016606e7f88ad8a77760511b0360315560016669f3d1c921891d604d1b03603255600166cb2ff529eb71e5604c1b03603355600166c2d415c3db974b604c1b0360345560016702eb40f9f620fda7604a1b0360355560016705990681d961a1eb60491b03603655600167055e12902701414760491b0360375560016714962dee9dc9764160471b0360385560016704ef57b9b560fab560491b0360395560016712ed7b32a58f552b60471b03603a556001679131271922eaa60760441b03603b556001678b380f3558668c4760441b03603c556001680215f77c045fbe885760421b03603d556001600160831b03603e556001670f577eded5773a1160471b03603f556001680eb5ec597592befbf5603f1b0384556001681c35fedd14b861eb05603e1b036041556001683619c87664579bc94b603d1b0360425560016867c00a3b07ffc01fd7603c1b03604355600168c6f6c8f8739773a7a5603b1b03604455600168bec763f8209b7a72b1603b1b0360455560016902dbb8caad9b7097b91b60391b03604655600169057b3d49dda84556d6f760381b03604755600169054183095b2c8ececf3160381b036048556001690a14517cc6b9457111ef60371b0360495560016913545598e5c23276ccf160361b03604a556001692511882c39c3adea96ff60351b03604b55600169471649d87199aa99075760341b03604c557004429a21a029d4c1457cfbffffffffffff604d55700415bc6d6fb7dd71af2cb3ffffffffffff604e557003eab73b3bbfe282243ce1ffffffffffff604f557003c1771ac9fb6b4c18e229ffffffffffff605055700399e96897690418f785257fffffffffff605155700373fc456c53bb779bf0ea9fffffffffff60525570034f9e8e490c48e67e6ab8bfffffffffff60535570032cbfd4a7adc790560b3337ffffffffff60545570030b50570f6e5d2acca94613ffffffffff6055557002eb40f9f620fda6b56c2861ffffffffff6056557002cc8340ecb0d0f520a6af58ffffffffff6057557002af09481380a0a35cf1ba02ffffffffff605855700292c5bdd3b92ec810287b1b3fffffffff605955700277abdcdab07d5a77ac6d6b9fffffffff605a5570025daf6654b1eaa55fd64df5efffffffff605b55700244c49c648baa98192dce88b7ffffffff605c5570022ce03cd5619a311b2471268bffffffff605d55700215f77c045fbe885654a44a0fffffffff605e556001600160811b03605f557001eaefdbdaaee7421fc4d3ede5ffffffff6060557001d6bd8b2eb257df7e8ca57b09bfffffff6061557001c35fedd14b861eb0443f7f133fffffff6062557001b0ce43b322bcde4a56e8ada5afffffff60635570019f0028ec1fff007f5a195a39dfffffff60645570018ded91f0e72ee74f49b15ba527ffffff60655570017d8ec7f04136f4e5615fd41a63ffffff60665570016ddc6556cdb84bdc8d12d22e6fffffff60675570015ecf52776a1155b5bd8395814f7fffff60685570015060c256cb23b3b3cc3754cf40ffffff6069557001428a2f98d728ae223ddab715be3fffff606a5570013545598e5c23276ccf0ede68034fffff606b557001288c4161ce1d6f54b7f61081194fffff606c5570011c592761c666aa641d5a01a40f17ffff606d55700110a688680a7530515f3e6e6cfdcdffff606e557001056f1b5bedf75c6bcb2ce8aed428ffff606f556ffaadceceeff8a0890f3875f008277fff6070556ff05dc6b27edad306388a600f6ba0bfff6071556fe67a5a25da41063de1495d5b18cdbfff6072556fdcff115b14eedde6fc3aa5353f2e4fff6073556fd3e7a3924312399f9aae2e0f868f8fff6074556fcb2ff529eb71e41582cccd5a1ee26fff6075556fc2d415c3db974ab32a51840c0b67edff6076556fbad03e7d883f69ad5b0a186184e06bff6077556fb320d03b2c343d4829abd6075f0cc5ff6078556fabc25204e02828d73c6e80bcdb1a95bf6079556fa4b16f74ee4bb2040a1ec6c15fbbf2df607a556f9deaf736ac1f569deb1b5ae3f36c130f607b556f976bd9952c7aa957f5937d790ef65037607c556f9131271922eaa6064b73a22d0bd4f2bf607d556f8b380f3558668c46c91c49a2f8e967b9607e556f857ddf0117efa215952912839f6473e6607f556001600160a01b03918216908115620008cc57608080546001600160a01b03198082168517909255865160009490929186167f8be0079c531659141344cd1fd0a4f28419497f9722a3daafe3b4186f6b6457e08680a360016081556103e894856084556127109687608555856088558560895564010009fe9864ffffffffff19608a541617608a55169182156200088a57506082541617608255806083558281029281840414901517156200087657500460865573d99d1c33f9fc3444f8101754abc46c52416550d16080525161366e90816200091582396080518181816102b101526110340152f35b634e487b7160e01b81526011600452602490fd5b62461bcd60e51b815260206004820152601560248201527f496e76616c696420746f6b656e206164647265737300000000000000000000006044820152606490fd5b8451631e4fbdf760e01b815260006004820152602490fd5b600080fd5b634e487b7160e01b600052604160045260246000fd5b51906001600160a01b0382168203620008e45756fe6080604081815260048036101561001e575b505050361561001c57005b005b600092833560e01c90816303186eef146110a157508063031c439d1461107d5780630c7d5cd814611058578063245589951461101457806329a00e7c14610ff557806332cb6b0c14610fd657806349f9b0f714610fb7578063617d79401461092957806362d68dee14610f9a57806366cb3a4214610f7a5780636c11bcd314610b315780636dbaadfe14610b02578063715018a614610aad5780637bfe170d14610a925780637c5e279514610a725780638da5cb5b14610a4a5780638e75e482146108ee5780638e78a1f714610967578063918f867414610948578063933bdb90146109295780639c9867641461090d578063ac369bb5146108ee578063adace292146108cf578063b05707e9146108a7578063b5e19d2314610884578063d0febe4c146104bc578063d4bc2e3b1461049f578063db0e1bdf14610478578063e8078d9414610260578063eb91d37e1461023c578063f23711d1146102135763f2fde38b03610011573461020f57602036600319011261020f576101a06110d5565b906101a9611116565b6001600160a01b038092169283156101f9575050608054826001600160a01b0319821617608055167f8be0079c531659141344cd1fd0a4f28419497f9722a3daafe3b4186f6b6457e0600080a380f35b51631e4fbdf760e01b8152908101849052602490fd5b8280fd5b505034610238578160031936011261023857608a549051602091821c60ff1615158152f35b5080fd5b50503461023857816003193601126102385760209061025961134d565b9051908152f35b508260031936011261020f576001600160a01b03918260825416928151936370a0823160e01b855230848601526020938486602481855afa95861561046e57879661043a575b5047928786610304837f000000000000000000000000000000000000000000000000000000000000000016958a895194858094819363095ea7b360e01b83528b8b8401602090939291936001600160a01b0360408201951681520152565b03925af18015610430576103f1575b509060609360c49260825416938651988995869463f305d71960e01b865285015260248401528960448401528160648401523360848401524260a48401525af19283156103e757849285946103a7575b505051908152602081019190915242604082015233907f64b83944e79c3ce8d4c297411de637c3e102d064677aac0c163976ebdcd6f50e9080606081015b0390a280f35b91935091506060823d82116103df575b816103c4606093836111e2565b810103126103db57815191015191816103a1610363565b8380fd5b3d91506103b7565b81513d86823e3d90fd5b8681819493943d8311610429575b61040981836111e2565b81010312610425575180151503610421579038610313565b8780fd5b8880fd5b503d6103ff565b86513d8b823e3d90fd5b9095508481813d8311610467575b61045281836111e2565b81010312610462575194386102a6565b600080fd5b503d610448565b84513d89823e3d90fd5b505034610238578160031936011261023857602090516b033b2e3c9fd0803ce80000008152f35b505034610238578160031936011261023857602090516123288152f35b508260031936011261020f576104d0611244565b341561085257608a549060209060ff83831c16156108215733855260878252838520548561080e5761050490421015611165565b61050d346112ce565b9283156107c0576105408551610522816111c6565b600d81526c0c4eaf2a8ded6cadce640f0f0f609b1b858201526135a4565b60885461054d8582611142565b9060835480921161077d578561056291611142565b14801561075f575b61074e575b50606483028381046064036107395760855461058a91611217565b906105958285611237565b6001600160a01b03908160825416803b15610462578751634c420c3b60e01b815233858201908152602081019390935291600091839182908490829060400103925af1801561072e57610716575b50908692916105f486608854611142565b60885561060334608954611142565b6089556082541691823b156103db578651632770a7eb60e21b815233928101928352602083019190915291839183919082908490829060400103925af1801561070c576106f8575b50507f150edd20b748bc680273d4bc59d5659c3229edf2f102c013595b9b3238e158869160876106ed9233875252428486205583517f0d1a0d5e3d583a0e92588799dd06e50fd78c07daf05f0cc06d7b848b1ca445f13391806106c1428634846040919493926060820195825260208201520152565b0390a26106ce8134611217565b9351908152602081019390935242604084015233929081906060820190565b0390a2600160815580f35b6107019061119c565b6103db57833861064b565b85513d84823e3d90fd5b610723919392975061119c565b6000959091386105e3565b87513d6000823e3d90fd5b601182634e487b7160e01b6000525260246000fd5b64ff000000001916608a553861056f565b5068014d1120d7b160000061077634608954611142565b101561056a565b865162461bcd60e51b8152808501869052601860248201527f4578636565647320617661696c61626c6520737570706c7900000000000000006044820152606490fd5b5060849184519162461bcd60e51b83528201526024808201527f627579546f6b656e73204572723a20496e76616c696420746f6b656e20616d6f604482015263756e742160e01b6064820152fd5b634e487b7160e01b865260118252602486fd5b60649184519162461bcd60e51b8352820152600d60248201526c426f6e64696e672073746f702160981b6044820152fd5b6020606492519162461bcd60e51b8352820152600d60248201526c09aeae6e840e6cadcc8408aa89609b1b6044820152fd5b5091346108a45760203660031901126108a45750610259602092356112ce565b80fd5b5050346102385781600319360112610238576020906001600160a01b03608254169051908152f35b5050346102385781600319360112610238576020906084549051908152f35b5050346102385781600319360112610238576020906089549051908152f35b5050346102385781600319360112610238576020905160648152f35b5050346102385781600319360112610238576020906088549051908152f35b5050346102385781600319360112610238576020906085549051908152f35b505034610238576060366003190112610238577f150edd20b748bc680273d4bc59d5659c3229edf2f102c013595b9b3238e158866001600160a01b036109ab6110d5565b926103a1610a2e602435956044359485916109c4611116565b6109d083608854611142565b6088556109df89608954611142565b6089551696877f0d1a0d5e3d583a0e92588799dd06e50fd78c07daf05f0cc06d7b848b1ca445f1865180610a26428787846040919493926060820195825260208201520152565b0390a2611217565b9151928352602083019190915242604083015281906060820190565b5050346102385781600319360112610238576020906001600160a01b03608054169051908152f35b505034610238578160031936011261023857602090516401c7f9bc808152f35b50503461023857816003193601126102385751908152602090f35b83346108a457806003193601126108a457610ac6611116565b60006001600160a01b0360805481198116608055167f8be0079c531659141344cd1fd0a4f28419497f9722a3daafe3b4186f6b6457e08280a380f35b5050346102385781600319360112610238576020905173d99d1c33f9fc3444f8101754abc46c52416550d18152f35b50903461020f57602090816003193601126103db57823591610b51611244565b8215610f385760825482516370a0823160e01b815233818701526001600160a01b039182169591602491848184818b5afa908115610430579087918a91610f07575b5010610ec6576b033b2e3c9fd0803ce80000008611610e855733885260878452610bc285892054421015611165565b610bcb8661131a565b968760895410610e435760648702878104606403610e2f57608554610bef91611217565b91610bfa8389611237565b91803b1561046257600088518092818381610c3a632770a7eb60e21b998a83528d33908401602090939291936001600160a01b0360408201951681520152565b03925af18015610e2457610e0c575b50908992916082541691823b156103db57610c8a928492838a518096819582948352338c8401602090939291936001600160a01b0360408201951681520152565b03925af18015610e0257610dea575b5080808089335af13d15610de5573d67ffffffffffffffff8111610dd157855190610ccd601f8201601f19168701836111e2565b815288853d92013e5b15610d91575050916106ed9160877f150edd20b748bc680273d4bc59d5659c3229edf2f102c013595b9b3238e1588694338852524281872055610d1b82608854611237565b608855610d2a85608954611237565b608955610d378286611217565b815183815260208101969096524260408701529433907f6db63bebf1e6540277744df32846ebdb98385b1a73f2d5de49b28348add63f5090606090a251908152602081019390935242604084015233929081906060820190565b60139192606494519362461bcd60e51b85528401528201527f455448207472616e73666572206661696c6564000000000000000000000000006044820152fd5b82604185634e487b7160e01b600052526000fd5b610cd6565b610df39061119c565b610dfe578638610c99565b8680fd5b86513d84823e3d90fd5b610e199193929a5061119c565b600098909138610c49565b88513d6000823e3d90fd5b83601186634e487b7160e01b600052526000fd5b855162461bcd60e51b8152808501869052601d818501527f496e73756666696369656e7420636f6e74726163742062616c616e63650000006044820152606490fd5b5060109192606494519362461bcd60e51b85528401528201527f45786365656473206d61782073656c6c000000000000000000000000000000006044820152fd5b5060149192606494519362461bcd60e51b85528401528201527f496e73756666696369656e742062616c616e63650000000000000000000000006044820152fd5b809250868092503d8311610f31575b610f2081836111e2565b810103126104255786905138610b93565b503d610f16565b8390606492519162461bcd60e51b8352820152601260248201527f416d6f756e74206d757374206265203e203000000000000000000000000000006044820152fd5b5091346108a45760203660031901126108a457506102596020923561131a565b505034610238578160031936011261023857602090516103e88152f35b50503461023857602090610259610fcd366110eb565b929190916118f8565b5050346102385781600319360112610238576020906083549051908152f35b5050346102385760209061025961100b366110eb565b929190916116a6565b505034610238578160031936011261023857602090516001600160a01b037f0000000000000000000000000000000000000000000000000000000000000000168152f35b50503461023857816003193601126102385760209063ffffffff608a54169051908152f35b5050346102385781600319360112610238576020905168014d1120d7b16000008152f35b8490843461020f57602036600319011261020f576020926001600160a01b036110c86110d5565b1681526087845220548152f35b600435906001600160a01b038216820361046257565b608090600319011261046257600435906024359060443563ffffffff81168103610462579060643590565b6001600160a01b0360805416330361112a57565b60405163118cdaa760e01b8152336004820152602490fd5b9190820180921161114f57565b634e487b7160e01b600052601160045260246000fd5b1561116c57565b60405162461bcd60e51b81526020600482015260086024820152672a37b79039b7b7b760c11b6044820152606490fd5b67ffffffffffffffff81116111b057604052565b634e487b7160e01b600052604160045260246000fd5b6040810190811067ffffffffffffffff8211176111b057604052565b90601f8019910116810190811067ffffffffffffffff8211176111b057604052565b8181029291811591840414171561114f57565b8115611221570490565b634e487b7160e01b600052601260045260246000fd5b9190820391821161114f57565b600260815414611255576002608155565b604051633ee5aeb560e01b8152600490fd5b608854806112b257680425a698af85620000906086548083116112ac57505b6112908282611142565b60835480911161129f57505090565b6112a99250611237565b90565b91505090565b6112c860895463ffffffff608a541690836113f7565b90611286565b60885480611302576401c7f9bc809182810292818404149015171561114f576086548083116112ac57506112908282611142565b906112c89060895463ffffffff608a541690846116a6565b608854600081156112ac575061133d6089549263ffffffff608a541684846118f8565b809210611348575090565b905090565b611355611267565b801561136c576b204fce5e3e250261100000000490565b50600090565b6040519061137f826111c6565b60078252665f737570706c7960c81b6020830152565b604051906113a2826111c6565b600f82527f5f7265736572766542616c616e636500000000000000000000000000000000006020830152565b604051906113db826111c6565b600d82526c5f72657365727665526174696f60981b6020830152565b9092919260409384519061140a826111c6565b6017825261143e6020927f63616c63756c617465507572636861736552657475726e000000000000000000848201526135a4565b61144f8461144a611372565b6135f3565b61145b8361144a611395565b6114636113ce565b9261147563ffffffff831680956135f3565b865193611481856111c6565b600e85526d17d9195c1bdcda5d105b5bdd5b9d60921b84860152875190600080868401632d839cb360e21b81526114c36024998d8b8801526064870190613564565b946114e3816402540be4009788604483015203601f1981018352826111e2565b51906a636f6e736f6c652e6c6f675afa508615158061169d575b80611694575b80611687575b1561164f578219821161160c57620f4240146115f257818101908181116115dd57811061159a576115489260ff9261154092611b8b565b9290866134ed565b91161c918383106115605750506112a9929350611237565b90601560649287519262461bcd60e51b845260048401528201527443616c63756c6174696f6e20756e646572666c6f7760581b6044820152fd5b875162461bcd60e51b815260048101859052601b818701527f536166654d6174683a206164646974696f6e206f766572666c6f7700000000006044820152606490fd5b85634e487b7160e01b60005260116004526000fd5b50939150506112a99394506116079150613473565b61350f565b885162461bcd60e51b8152600481018690526018818801527f4465706f73697420616d6f756e7420746f6f206c6172676500000000000000006044820152606490fd5b885162461bcd60e51b81526004810186905260128188015271496e76616c696420706172616d657465727360701b6044820152606490fd5b50620f4240811115611509565b50801515611503565b508215156114fd565b91939290936040948551926116ba846111c6565b601784526116ee6020947f63616c63756c617465507572636861736552657475726e000000000000000000868201526135a4565b6116fa8561144a611372565b6117068261144a611395565b61170e6113ce565b61171f63ffffffff851680926135f3565b61174d82895161172e816111c6565b600e81526d17d9195c1bdcda5d105b5bdd5b9d60921b888201526135f3565b851515806118ef575b806118e6575b806118d9575b156118a0578115611894578219821161185057620f42401461183d576117888282611142565b9081106117f9576117a79260ff9261179f92611b8b565b9290856134ed565b91161c908282106117be57506112a9929350611237565b60649085519062461bcd60e51b82526004820152601560248201527443616c63756c6174696f6e20756e646572666c6f7760581b6044820152fd5b865162461bcd60e51b815260048101859052601b60248201527f536166654d6174683a206164646974696f6e206f766572666c6f7700000000006044820152606490fd5b9150926112a994955061160792506134ed565b875162461bcd60e51b815260048101869052601860248201527f4465706f73697420616d6f756e7420746f6f206c6172676500000000000000006044820152606490fd5b50600096505050505050565b875162461bcd60e51b8152600481018690526012602482015271496e76616c696420706172616d657465727360701b6044820152606490fd5b50620f4240811115611762565b5080151561175c565b50821515611756565b9192909260409283519261190b846111c6565b6013845261193f6020947f63616c63756c61746553616c6552657475726e00000000000000000000000000868201526135a4565b61194b8261144a611372565b6119578661144a611395565b61195f6113ce565b61197063ffffffff851680926135f3565b61199b82875161197f816111c6565b600b81526a17dcd95b1b105b5bdd5b9d60aa1b888201526135f3565b82151580611b5e575b80611b55575b80611b48575b80611b3e575b15610462576119dc86516119c9816111c6565b6002815261313160f01b878201526135a4565b8115611b3257611a0386516119f0816111c6565b6002815261189960f11b878201526135a4565b828214611b2957620f424090611a308751611a1d816111c6565b6002815261313360f01b888201526135a4565b14611b175790611a64611a6a9392611a5e8751611a4c816111c6565b60018152603160f81b888201526135a4565b82611237565b90612d83565b919093611a8d8451611a7b816111c6565b60018152601960f91b848201526135a4565b60ff611a9986836134ed565b93161b92611abd8151611aab816111c6565b60018152603360f81b848201526135a4565b828411611ad45750506112a9929161160791611237565b60649250519062461bcd60e51b82526004820152601e60248201527f536166654d6174683a207375627472616374696f6e206f766572666c6f7700006044820152fd5b9150925061160791506112a9936134ed565b50505050505090565b50505050505050600090565b50828211156119b6565b50620f42408111156119b0565b508015156119aa565b508615156119a4565b60ff6000199116019060ff821161114f57565b60ff16607f039060ff821161114f57565b909291600160811b9081831015612d3e57848310612cf9576000607f9584871b6001607f1b95808204871490151715612c985790611bc891611217565b9070015bf0a8b1457695355fb8ac404e7a79e3821015612b34575080916000916fd3094c70f034de4b96ff7d5b6f99fcd880821015612b10575b50506fa45af1e1f40c333b3de1db4dd55f29a780841015612ae5575b506f910b022db7ae67ce76b441c27035c6a180841015612aba575b506f88415abbe9a76bead8d00cf112e4d4a880841015612a8f575b506f84102b00893f64c705e841d5d4064bd380841015612a64575b506f8204055aaef1c8bd5c3259f4822735a280841015612a39575b506f810100ab00222d861931c15e39b44e9980841015612a0e575b506f808040155aabbbe9451521693554f733808410156129e3575b506f7fffffffffffffffffffffffffffffff19830183811161114f57611ce68180611204565b881c92600160801b90878683030191821161114f57611d168591611d0d611d1c9486611204565b60801c90611142565b92611204565b881c906faaaaaaaaaaaaaaaaaaaaaaaaaaaaaaaa90878683030191821161114f57611d168591611d4f611d589486611204565b60811c90611142565b881c906f9999999999999999999999999999999990878683030191821161114f57611d168591600360801b611d90611d979587611204565b0490611142565b881c906f9249249249249249249249249249249290878683030191821161114f57611d168591611dca611dd39486611204565b60821c90611142565b881c906f8e38e38e38e38e38e38e38e38e38e38e90878683030191821161114f57611d168591600560801b611d90611e0b9587611204565b881c906f8ba2e8ba2e8ba2e8ba2e8ba2e8ba2e8b90878683030191821161114f57611d168591600360811b611d90611e439587611204565b881c926f89d89d89d89d89d89d89d89d89d89d89878682030190811161114f57611e7f92600760801b611d90611e799388611204565b93611204565b871c856f888888888888888888888888888888889485030193841161114f57611ec1611eca93611eb8620f42409663ffffffff94611204565b60831c90611142565b915b1690611204565b0490600160831b82101561243a576000926f0fffffffffffffffffffffffffffffff8316611ef88180611204565b871c6710e1b3be415a0000908181029181830414811517156124125782611f1e91611204565b881c906705a0913f6b1e00009081830291838304148315171561242657611d16611f49928592611142565b881c90670168244fdac780009081830291838304148315171561242657611d16611f74928592611142565b881c90664807432bc180009081830291838304148315171561242657611d16611f9e928592611142565b881c90660c0135dca040009081830291838304148315171561242657611d16611fc8928592611142565b881c906601b707b1cdc0009081830291838304148315171561242657611d16611ff2928592611142565b881c906536e0f639b8009081830291838304148315171561242657611d1661201b928592611142565b881c90650618fee9f8009081830291838304148315171561242657611d16612044928592611142565b881c90649c197dcc009081830291838304148315171561242657611d1661206c928592611142565b881c90640e30dce4009081830291838304148315171561242657611d16612094928592611142565b881c9064012ebd13009081830291838304148315171561242657611d166120bc928592611142565b881c906317499f009081830291838304148315171561242657611d166120e3928592611142565b881c906301a9d4809081830291838304148315171561242657611d1661210a928592611142565b881c90621c63809081830291838304148315171561242657611d16612130928592611142565b881c906201c6389081830291838304148315171561242657611d16612156928592611142565b881c90611ab89081830291838304148315171561242657611d1661217b928592611142565b881c9061017c9081830291838304148315171561242657611d166121a0928592611142565b881c9060148202908282046014148315171561242657611d166121c4928592611142565b881c9081800460011482151715612412576121ec6121f293926721c3677c82b4000092611142565b04611142565b938185018095116123fe5750836001607c1b84166123bd575b506001607d1b831661237f575b6001607e1b8316612342575b8216612306575b600160801b82166122ca575b811661228f575b70040000000000000000000000000000000016612259579190565b6e2bf84208204f5977f9a8cf01fdc3079081810291818304149015171561114f576d03c6ab775dd0b95b4cbee7e65d1190049190565b906f0960aadc109e7a3bf4578099615711d79081810291818304149015171561114f576e2bf84208204f5977f9a8cf01fdce3d90049061223e565b916f454aaa8efe072e7f6ddbab84b40a55c59081810291818304149015171561114f576f0960aadc109e7a3bf4578099615711ea900491612237565b916fbc5ab1b16779be3575bd8f0520a9f21e9081810291818304149015171561114f576f454aaa8efe072e7f6ddbab84b40a55c990049161222b565b927001368b2fc6f9609fe7aceb46aa619baed59081810291818304149015171561114f576fbc5ab1b16779be3575bd8f0520a9f21f900492612224565b9270018ebef9eac820ae8682b9793ac6d1e7789081810291818304149015171561114f577001368b2fc6f9609fe7aceb46aa619baed4900492612218565b9093507001c3d6a24ed82218787d624d3e5eba95f99081810291818304149015171561114f5770018ebef9eac820ae8682b9793ac6d1e7769004923861220b565b634e487b7160e01b81526011600452602490fd5b634e487b7160e01b87526011600452602487fd5b634e487b7160e01b88526011600452602488fd5b5080935061244891506133a0565b9160ff61245484611b7a565b161c6124608180611204565b60ff841690811c6f03442c4e6074a82f1797f72ac00000009081810291818304148115171561114f578361249391611204565b821c906f0116b96f757c380fb287fd0e4000000080830290838204148315171561114f57611d1685916124c593611142565b821c906e45ae5bdd5f0e03eca1ff439000000080830290838204148315171561114f57611d1685916124f693611142565b821c906e0defabf91302cd95b9ffda5000000080830290838204148315171561114f57611d16859161252793611142565b821c906e02529ca9832b22439efff9b800000080830290838204148315171561114f57611d16859161255893611142565b821c906d54f1cf12bd04e516b6da8800000080830290838204148315171561114f57611d16859161258893611142565b821c906d0a9e39e257a09ca2d6db5100000080830290838204148315171561114f57611d1685916125b893611142565b821c906d012e066e7b839fa050c30900000080830290838204148315171561114f57611d1685916125e893611142565b821c906c1e33d7d926c329a1ad1a80000080830290838204148315171561114f57611d16859161261793611142565b821c906c02bee513bdb4a6b19b5f80000080830290838204148315171561114f57611d16859161264693611142565b821c906b3a9316fa79b88eccf2a0000080830290838204148315171561114f57611d16859161267493611142565b821c906b048177ebe1fa81237520000080830290838204148315171561114f57611d1685916126a293611142565b821c906a5263fe90242dcbacf0000080830290838204148315171561114f57611d1685916126cf93611142565b821c906a057e22099c030d9410000080830290838204148315171561114f57611d1685916126fc93611142565b821c906957e22099c030d941000080830290838204148315171561114f57611d16859161272893611142565b821c9069052b6b5456997631000080830290838204148315171561114f57611d16859161275493611142565b821c90684985f67696bf74800080830290838204148315171561114f57611d16859161277f93611142565b821c906803dea12ea99e49800080830290838204148315171561114f57611d1685916127aa93611142565b821c906731880f2214b6e00080830290838204148315171561114f57611d1685916127d493611142565b821c9067025bcff56eb3600080830290838204148315171561114f57611d1685916127fe93611142565b821c90661b722e10ab100080830290838204148315171561114f57611d16859161282793611142565b821c906601317c7007700080830290838204148315171561114f57611d16859161285093611142565b821c90650cba84aafa0080830290838204148315171561114f57611d16859161287893611142565b821c906482573a0a0080830290838204148315171561114f57611d16859161289f93611142565b821c906405035ad90080830290838204148315171561114f57611d1685916128c693611142565b821c90632f881b0080830290838204148315171561114f57611d1685916128ec93611142565b821c906301b2934080830290838204148315171561114f57611d16859161291293611142565b821c90620efc4080830290838204148315171561114f57611d16859161293793611142565b821c90617fe080830290838204148315171561114f57611d16859161295b93611142565b821c9061042080830290838204148315171561114f57611d16859161297f93611142565b821c90602182028281046021148315171561114f57611d1685916129a293611142565b821c908180046001148215171561114f576129df936f0688589cc0e9505e2f2fee55800000006121ec6001946129d794611142565b911b90611142565b9190565b909291600160771b810180911161114f579180881b9080820487149015171561114f57049138611cc0565b909291600160781b810180911161114f579180881b9080820487149015171561114f57049138611ca5565b909291600160791b810180911161114f579180881b9080820487149015171561114f57049138611c8a565b9092916001607a1b810180911161114f579180881b9080820487149015171561114f57049138611c6f565b9092916001607b1b810180911161114f579180881b9080820487149015171561114f57049138611c54565b9092916001607c1b810180911161114f579180881b9080820487149015171561114f57049138611c39565b9092916001607d1b810180911161114f579180881b9080820487149015171561114f57049138611c1e565b9193506001607e1b925080881b9080159082048714171561114f5704913880611c02565b809180600160801b9081811015612c2b575b50868211612b9a575b50506f03f80fe03f80fe03f80fe03f80fe03f8918281029281840414901517156123fe5750620f42409163ffffffff6f05b9de1d10bf4103d647b0955897ba80611eca930491611ec3565b9196909792939495835b60ff998a821615612c195780612bb991611204565b998a861c9a858c1015612bef575b505060ff168015612bdb5760001901612ba4565b634e487b7160e01b89526011600452602489fd5b612c11919b5096600160ff939860801c9c612c098a611b67565b161b90611142565b959038612bc7565b50509594939297509590503880612b4f565b988991989450809597939692501c9585976101008810600014612cac5797965b600180821115612c66571c96612c609061338e565b96612c4b565b5050939796929695909491955b60ff607f1b60ff831691821c928a1b1690808204881490151715612c98579238612b46565b634e487b7160e01b83526011600452602483fd5b8560809a95999798969a5b60ff81168015612ce7576001811b891015612cd9575b5060011c168a90612cb7565b978199981c97179738612ccd565b50505093909450959195949094612c73565b60405162461bcd60e51b815260206004820152601c60248201527f4261736573203c203120617265206e6f7420737570706f727465642e000000006044820152606490fd5b60405162461bcd60e51b815260206004820152601860248201527f626173654e2065786365656473206d61782076616c75652e00000000000000006044820152606490fd5b909291600160811b9081831015612d3e57848310612cf9576000607f9584871b6001607f1b95808204871490151715612c985790612dc091611217565b9070015bf0a8b1457695355fb8ac404e7a79e382101561320757506000816fd3094c70f034de4b96ff7d5b6f99fcd8808210156131e4575b50506fa45af1e1f40c333b3de1db4dd55f29a7808310156131bb575b506f910b022db7ae67ce76b441c27035c6a180831015613192575b506f88415abbe9a76bead8d00cf112e4d4a880831015613169575b506f84102b00893f64c705e841d5d4064bd380831015613140575b506f8204055aaef1c8bd5c3259f4822735a280831015613117575b506f810100ab00222d861931c15e39b44e99808310156130ee575b506f808040155aabbbe9451521693554f733808310156130c5575b506f7fffffffffffffffffffffffffffffff19820182811161114f57612edc8180611204565b881c91600160801b90878583030191821161114f57611d168491611d0d612f039486611204565b881c906faaaaaaaaaaaaaaaaaaaaaaaaaaaaaaaa90878583030191821161114f57611d168491611d4f612f369486611204565b881c906f9999999999999999999999999999999990878583030191821161114f57611d168491600360801b611d90612f6e9587611204565b881c906f9249249249249249249249249249249290878583030191821161114f57611d168491611dca612fa19486611204565b881c906f8e38e38e38e38e38e38e38e38e38e38e90878583030191821161114f57611d168491600560801b611d90612fd99587611204565b881c906f8ba2e8ba2e8ba2e8ba2e8ba2e8ba2e8b90878583030191821161114f57611d168491600360811b611d906130119587611204565b881c916f89d89d89d89d89d89d89d89d89d89d89878582030190811161114f5761304792600760801b611d90611d169387611204565b871c856f888888888888888888888888888888889384030192831161114f5761307392611eb891611204565b620f42409081810291818304149015171561114f5763ffffffff613098921690611217565b90600160831b82101561243a576000926f0fffffffffffffffffffffffffffffff8316611ef88180611204565b90600160771b810180911161114f579180881b9080820487149015171561114f57049038612eb6565b90600160781b810180911161114f579180881b9080820487149015171561114f57049038612e9b565b90600160791b810180911161114f579180881b9080820487149015171561114f57049038612e80565b906001607a1b810180911161114f579180881b9080820487149015171561114f57049038612e65565b906001607b1b810180911161114f579180881b9080820487149015171561114f57049038612e4a565b906001607c1b810180911161114f579180881b9080820487149015171561114f57049038612e2f565b906001607d1b810180911161114f579180881b9080820487149015171561114f57049038612e14565b6001607e1b9350915080881b9080159082048714171561114f5704903880612df8565b809180600160801b90818110156132d4575b5086821161325f575b50506f03f80fe03f80fe03f80fe03f80fe03f8918281029281840414901517156123fe57506f05b9de1d10bf4103d647b0955897ba809004613073565b9196909792939495835b60ff998a8216156132c2578061327e91611204565b998a861c9a858c10156132a0575b505060ff168015612bdb5760001901613269565b6132ba919b5096600160ff939860801c9c612c098a611b67565b95903861328c565b50509594939297509590503880613222565b988991989450809597939692501c95859761010088106000146133415797965b60018082111561330f571c966133099061338e565b966132f4565b5050939796929695909491955b60ff607f1b60ff831691821c928a1b1690808204881490151715612c98579238613219565b8560809a95999798969a5b60ff8116801561337c576001811b89101561336e575b5060011c168a9061334c565b978199981c97179738613362565b5050509390945095919594909461331c565b60ff60019116019060ff821161114f57565b906020607f9182915b6133b28161338e565b60ff809181861691829116101561341d57818316019081116134085760011c84169060808210156133f357815486116133eb57506133a9565b9250916133a9565b60246000634e487b7160e01b81526032600452fd5b60246000634e487b7160e01b81526011600452fd5b505092509290608081101561345d5781815410156112ac5750608082101561345d57815410156112a957634e487b7160e01b600052600160045260246000fd5b634e487b7160e01b600052603260045260246000fd5b801561136c576402540be40080820291808304820361114f576134969083611217565b0361349e5790565b60405162461bcd60e51b815260206004820152602160248201527f536166654d6174683a206d756c7469706c69636174696f6e206f766572666c6f6044820152607760f81b6064820152608490fd5b908115613508576134966135018284611204565b9283611217565b5050600090565b90801561351f576112a991611217565b60405162461bcd60e51b815260206004820152601a60248201527f536166654d6174683a206469766973696f6e206279207a65726f0000000000006044820152606490fd5b919082519283825260005b848110613590575050826000602080949584010152601f8019910116010190565b60208183018101518483018201520161356f565b600080916040516135e0816135d2602082019463104c13eb60e21b8652602060248401526044830190613564565b03601f1981018352826111e2565b51906a636f6e736f6c652e6c6f675afa50565b6000919082916135e060405180926136246020830195632d839cb360e21b8752604060248501526064840190613564565b90604483015203601f1981018352826111e256fea2646970667358221220caf2f950d250444a42b946955b250a3e30426f4e14a0af3df0fea84371e4ae2164736f6c63430008140033",
  "linkReferences": {},
  "deployedLinkReferences": {}
}