{
  "_format": "hh-sol-artifact-1",
  "contractName": "BondingCurve",
  "sourceName": "contracts/BondingCurve.sol",
  "abi": [
    {
      "inputs": [
        {
          "internalType": "address",
          "name": "_token",
          "type": "address"
        },
        {
          "internalType": "address",
          "name": "initialOwner",
          "type": "address"
        },
        {
          "internalType": "uint256",
          "name": "initSupply",
          "type": "uint256"
        }
      ],
      "stateMutability": "nonpayable",
      "type": "constructor"
    },
    {
      "inputs": [
        {
          "internalType": "address",
          "name": "owner",
          "type": "address"
        }
      ],
      "name": "OwnableInvalidOwner",
      "type": "error"
    },
    {
      "inputs": [
        {
          "internalType": "address",
          "name": "account",
          "type": "address"
        }
      ],
      "name": "OwnableUnauthorizedAccount",
      "type": "error"
    },
    {
      "inputs": [],
      "name": "ReentrancyGuardReentrantCall",
      "type": "error"
    },
    {
      "anonymous": false,
      "inputs": [
        {
          "indexed": true,
          "internalType": "address",
          "name": "previousOwner",
          "type": "address"
        },
        {
          "indexed": true,
          "internalType": "address",
          "name": "newOwner",
          "type": "address"
        }
      ],
      "name": "OwnershipTransferred",
      "type": "event"
    },
    {
      "anonymous": false,
      "inputs": [
        {
          "indexed": true,
          "internalType": "address",
          "name": "buyer",
          "type": "address"
        },
        {
          "indexed": false,
          "internalType": "uint256",
          "name": "ethAmount",
          "type": "uint256"
        },
        {
          "indexed": false,
          "internalType": "uint256",
          "name": "tokenAmount",
          "type": "uint256"
        },
        {
          "indexed": false,
          "internalType": "uint256",
          "name": "timestamp",
          "type": "uint256"
        }
      ],
      "name": "TokensPurchased",
      "type": "event"
    },
    {
      "anonymous": false,
      "inputs": [
        {
          "indexed": true,
          "internalType": "address",
          "name": "seller",
          "type": "address"
        },
        {
          "indexed": false,
          "internalType": "uint256",
          "name": "tokenAmount",
          "type": "uint256"
        },
        {
          "indexed": false,
          "internalType": "uint256",
          "name": "ethAmount",
          "type": "uint256"
        },
        {
          "indexed": false,
          "internalType": "uint256",
          "name": "timestamp",
          "type": "uint256"
        }
      ],
      "name": "TokensSold",
      "type": "event"
    },
    {
      "anonymous": false,
      "inputs": [
        {
          "indexed": true,
          "internalType": "address",
          "name": "trader",
          "type": "address"
        },
        {
          "indexed": false,
          "internalType": "uint256",
          "name": "amount",
          "type": "uint256"
        },
        {
          "indexed": false,
          "internalType": "uint256",
          "name": "price",
          "type": "uint256"
        },
        {
          "indexed": false,
          "internalType": "uint256",
          "name": "timestamp",
          "type": "uint256"
        }
      ],
      "name": "Trade",
      "type": "event"
    },
    {
      "stateMutability": "payable",
      "type": "fallback"
    },
    {
      "inputs": [],
      "name": "BONDING_TARGET",
      "outputs": [
        {
          "internalType": "uint256",
          "name": "",
          "type": "uint256"
        }
      ],
      "stateMutability": "view",
      "type": "function"
    },
    {
      "inputs": [],
      "name": "BURN_DENOMINATOR",
      "outputs": [
        {
          "internalType": "uint256",
          "name": "",
          "type": "uint256"
        }
      ],
      "stateMutability": "view",
      "type": "function"
    },
    {
      "inputs": [],
      "name": "BURN_PERCENT",
      "outputs": [
        {
          "internalType": "uint256",
          "name": "",
          "type": "uint256"
        }
      ],
      "stateMutability": "view",
      "type": "function"
    },
    {
      "inputs": [],
      "name": "BUY_UNLOCK_PERCENT",
      "outputs": [
        {
          "internalType": "uint256",
          "name": "",
          "type": "uint256"
        }
      ],
      "stateMutability": "view",
      "type": "function"
    },
    {
      "inputs": [],
      "name": "ENOMINATOR",
      "outputs": [
        {
          "internalType": "uint256",
          "name": "",
          "type": "uint256"
        }
      ],
      "stateMutability": "view",
      "type": "function"
    },
    {
      "inputs": [],
      "name": "GROWTH_RATE",
      "outputs": [
        {
          "internalType": "uint256",
          "name": "",
          "type": "uint256"
        }
      ],
      "stateMutability": "view",
      "type": "function"
    },
    {
      "inputs": [],
      "name": "INITIAL_PRICE",
      "outputs": [
        {
          "internalType": "uint256",
          "name": "",
          "type": "uint256"
        }
      ],
      "stateMutability": "view",
      "type": "function"
    },
    {
      "inputs": [],
      "name": "MAX_BUY_AMOUNT",
      "outputs": [
        {
          "internalType": "uint256",
          "name": "",
          "type": "uint256"
        }
      ],
      "stateMutability": "view",
      "type": "function"
    },
    {
      "inputs": [],
      "name": "MAX_BUY_PRICE_IMPACT",
      "outputs": [
        {
          "internalType": "uint256",
          "name": "",
          "type": "uint256"
        }
      ],
      "stateMutability": "view",
      "type": "function"
    },
    {
      "inputs": [],
      "name": "MAX_SELL_AMOUNT",
      "outputs": [
        {
          "internalType": "uint256",
          "name": "",
          "type": "uint256"
        }
      ],
      "stateMutability": "view",
      "type": "function"
    },
    {
      "inputs": [],
      "name": "MAX_SELL_PRICE_IMPACT",
      "outputs": [
        {
          "internalType": "uint256",
          "name": "",
          "type": "uint256"
        }
      ],
      "stateMutability": "view",
      "type": "function"
    },
    {
      "inputs": [],
      "name": "MAX_SUPPLY",
      "outputs": [
        {
          "internalType": "uint256",
          "name": "",
          "type": "uint256"
        }
      ],
      "stateMutability": "view",
      "type": "function"
    },
    {
      "inputs": [],
      "name": "PRICE_DENOMINATOR",
      "outputs": [
        {
          "internalType": "uint256",
          "name": "",
          "type": "uint256"
        }
      ],
      "stateMutability": "view",
      "type": "function"
    },
    {
      "inputs": [],
      "name": "TRADE_COOLDOWN",
      "outputs": [
        {
          "internalType": "uint256",
          "name": "",
          "type": "uint256"
        }
      ],
      "stateMutability": "view",
      "type": "function"
    },
    {
      "inputs": [],
      "name": "VESTING_PERCENT",
      "outputs": [
        {
          "internalType": "uint256",
          "name": "",
          "type": "uint256"
        }
      ],
      "stateMutability": "view",
      "type": "function"
    },
    {
      "inputs": [],
      "name": "agentToken",
      "outputs": [
        {
          "internalType": "contract AiAgentToken",
          "name": "",
          "type": "address"
        }
      ],
      "stateMutability": "view",
      "type": "function"
    },
    {
      "inputs": [],
      "name": "buyTokens",
      "outputs": [],
      "stateMutability": "payable",
      "type": "function"
    },
    {
      "inputs": [
        {
          "internalType": "uint256",
          "name": "_supply",
          "type": "uint256"
        },
        {
          "internalType": "uint256",
          "name": "_reserveBalance",
          "type": "uint256"
        },
        {
          "internalType": "uint32",
          "name": "_reserveRatio",
          "type": "uint32"
        },
        {
          "internalType": "uint256",
          "name": "_depositAmount",
          "type": "uint256"
        }
      ],
      "name": "calculatePurchaseReturn",
      "outputs": [
        {
          "internalType": "uint256",
          "name": "",
          "type": "uint256"
        }
      ],
      "stateMutability": "view",
      "type": "function"
    },
    {
      "inputs": [
        {
          "internalType": "uint256",
          "name": "_supply",
          "type": "uint256"
        },
        {
          "internalType": "uint256",
          "name": "_reserveBalance",
          "type": "uint256"
        },
        {
          "internalType": "uint32",
          "name": "_reserveRatio",
          "type": "uint32"
        },
        {
          "internalType": "uint256",
          "name": "_sellAmount",
          "type": "uint256"
        }
      ],
      "name": "calculateSaleReturn",
      "outputs": [
        {
          "internalType": "uint256",
          "name": "",
          "type": "uint256"
        }
      ],
      "stateMutability": "view",
      "type": "function"
    },
    {
      "inputs": [],
      "name": "getCurrentPrice",
      "outputs": [
        {
          "internalType": "uint256",
          "name": "",
          "type": "uint256"
        }
      ],
      "stateMutability": "view",
      "type": "function"
    },
    {
      "inputs": [
        {
          "internalType": "uint256",
          "name": "tokenAmount",
          "type": "uint256"
        }
      ],
      "name": "getETHForTokens",
      "outputs": [
        {
          "internalType": "uint256",
          "name": "",
          "type": "uint256"
        }
      ],
      "stateMutability": "view",
      "type": "function"
    },
    {
      "inputs": [],
      "name": "getRaisedAmount",
      "outputs": [
        {
          "internalType": "uint256",
          "name": "",
          "type": "uint256"
        }
      ],
      "stateMutability": "view",
      "type": "function"
    },
    {
      "inputs": [
        {
          "internalType": "uint256",
          "name": "_ethAmount",
          "type": "uint256"
        }
      ],
      "name": "getTokensForETH",
      "outputs": [
        {
          "internalType": "uint256",
          "name": "",
          "type": "uint256"
        }
      ],
      "stateMutability": "view",
      "type": "function"
    },
    {
      "inputs": [],
      "name": "getTotalSoldAmount",
      "outputs": [
        {
          "internalType": "uint256",
          "name": "",
          "type": "uint256"
        }
      ],
      "stateMutability": "view",
      "type": "function"
    },
    {
      "inputs": [
        {
          "internalType": "uint256",
          "name": "amout",
          "type": "uint256"
        }
      ],
      "name": "increaseTotalSold",
      "outputs": [],
      "stateMutability": "nonpayable",
      "type": "function"
    },
    {
      "inputs": [
        {
          "internalType": "address",
          "name": "",
          "type": "address"
        }
      ],
      "name": "lastTradeTime",
      "outputs": [
        {
          "internalType": "uint256",
          "name": "",
          "type": "uint256"
        }
      ],
      "stateMutability": "view",
      "type": "function"
    },
    {
      "inputs": [],
      "name": "owner",
      "outputs": [
        {
          "internalType": "address",
          "name": "",
          "type": "address"
        }
      ],
      "stateMutability": "view",
      "type": "function"
    },
    {
      "inputs": [],
      "name": "renounceOwnership",
      "outputs": [],
      "stateMutability": "nonpayable",
      "type": "function"
    },
    {
      "inputs": [],
      "name": "reserveRatio",
      "outputs": [
        {
          "internalType": "uint32",
          "name": "",
          "type": "uint32"
        }
      ],
      "stateMutability": "view",
      "type": "function"
    },
    {
      "inputs": [
        {
          "internalType": "uint256",
          "name": "tokenAmount",
          "type": "uint256"
        }
      ],
      "name": "sellTokens",
      "outputs": [],
      "stateMutability": "nonpayable",
      "type": "function"
    },
    {
      "inputs": [],
      "name": "totalSoldAmount",
      "outputs": [
        {
          "internalType": "uint256",
          "name": "",
          "type": "uint256"
        }
      ],
      "stateMutability": "view",
      "type": "function"
    },
    {
      "inputs": [
        {
          "internalType": "address",
          "name": "newOwner",
          "type": "address"
        }
      ],
      "name": "transferOwnership",
      "outputs": [],
      "stateMutability": "nonpayable",
      "type": "function"
    },
    {
      "stateMutability": "payable",
      "type": "receive"
    }
  ],
  "bytecode": "0x6080604052600060838190556086556087805463ffffffff19166203dc4a1790553480156200002d57600080fd5b50604051620028f3380380620028f3833981016040819052620000509162000994565b6001641c35fedd1560601b036020556001646c3390ecc9605e1b036021556001640cf801476160611b0360225560016431bdb23e1d605f1b0360235560016502fb1d8fe083605b1b0360245560016505b771955b37605a1b036025556001650af67a93bb5160591b0360265560016515060c256cb360581b036027556001651428a2f98d7360581b036028556001654d515663970960561b03602955600165944620b0e70f60551b03602a55600166011c592761c66760541b03602b5560016602214d10d014eb60531b03602c55600166020ade36b7dbef60531b03602d5560016603eab73b3bbfe360521b03602e556001660782ee3593f6d760511b03602f556001661ccf4b44bb4821604f1b0360305560016606e7f88ad8a77760511b0360315560016669f3d1c921891d604d1b03603255600166cb2ff529eb71e5604c1b03603355600166c2d415c3db974b604c1b0360345560016702eb40f9f620fda7604a1b0360355560016705990681d961a1eb60491b03603655600167055e12902701414760491b0360375560016714962dee9dc9764160471b0360385560016704ef57b9b560fab560491b0360395560016712ed7b32a58f552b60471b03603a556001679131271922eaa60760441b03603b556001678b380f3558668c4760441b03603c556001680215f77c045fbe885760421b03603d556001600160831b03603e556001670f577eded5773a1160471b03603f556001680eb5ec597592befbf5603f1b036040556001681c35fedd14b861eb05603e1b036041556001683619c87664579bc94b603d1b0360425560016867c00a3b07ffc01fd7603c1b03604355600168c6f6c8f8739773a7a5603b1b03604455600168bec763f8209b7a72b1603b1b0360455560016902dbb8caad9b7097b91b60391b03604655600169057b3d49dda84556d6f760381b03604755600169054183095b2c8ececf3160381b036048556001690a14517cc6b9457111ef60371b0360495560016913545598e5c23276ccf160361b03604a556001692511882c39c3adea96ff60351b03604b55600169471649d87199aa99075760341b03604c557004429a21a029d4c1457cfbffffffffffff604d55700415bc6d6fb7dd71af2cb3ffffffffffff604e557003eab73b3bbfe282243ce1ffffffffffff604f557003c1771ac9fb6b4c18e229ffffffffffff605055700399e96897690418f785257fffffffffff605155700373fc456c53bb779bf0ea9fffffffffff60525570034f9e8e490c48e67e6ab8bfffffffffff60535570032cbfd4a7adc790560b3337ffffffffff60545570030b50570f6e5d2acca94613ffffffffff6055557002eb40f9f620fda6b56c2861ffffffffff6056557002cc8340ecb0d0f520a6af58ffffffffff6057557002af09481380a0a35cf1ba02ffffffffff605855700292c5bdd3b92ec810287b1b3fffffffff605955700277abdcdab07d5a77ac6d6b9fffffffff605a5570025daf6654b1eaa55fd64df5efffffffff605b55700244c49c648baa98192dce88b7ffffffff605c5570022ce03cd5619a311b2471268bffffffff605d55700215f77c045fbe885654a44a0fffffffff605e556001600160811b03605f557001eaefdbdaaee7421fc4d3ede5ffffffff6060557001d6bd8b2eb257df7e8ca57b09bfffffff6061557001c35fedd14b861eb0443f7f133fffffff6062557001b0ce43b322bcde4a56e8ada5afffffff60635570019f0028ec1fff007f5a195a39dfffffff60645570018ded91f0e72ee74f49b15ba527ffffff60655570017d8ec7f04136f4e5615fd41a63ffffff60665570016ddc6556cdb84bdc8d12d22e6fffffff60675570015ecf52776a1155b5bd8395814f7fffff60685570015060c256cb23b3b3cc3754cf40ffffff6069557001428a2f98d728ae223ddab715be3fffff606a5570013545598e5c23276ccf0ede68034fffff606b557001288c4161ce1d6f54b7f61081194fffff606c5570011c592761c666aa641d5a01a40f17ffff606d55700110a688680a7530515f3e6e6cfdcdffff606e557001056f1b5bedf75c6bcb2ce8aed428ffff606f556ffaadceceeff8a0890f3875f008277fff6070556ff05dc6b27edad306388a600f6ba0bfff6071556fe67a5a25da41063de1495d5b18cdbfff6072556fdcff115b14eedde6fc3aa5353f2e4fff6073556fd3e7a3924312399f9aae2e0f868f8fff6074556fcb2ff529eb71e41582cccd5a1ee26fff6075556fc2d415c3db974ab32a51840c0b67edff6076556fbad03e7d883f69ad5b0a186184e06bff6077556fb320d03b2c343d4829abd6075f0cc5ff6078556fabc25204e02828d73c6e80bcdb1a95bf6079556fa4b16f74ee4bb2040a1ec6c15fbbf2df607a556f9deaf736ac1f569deb1b5ae3f36c130f607b556f976bd9952c7aa957f5937d790ef65037607c556f9131271922eaa6064b73a22d0bd4f2bf607d556f8b380f3558668c46c91c49a2f8e967b9607e556f857ddf0117efa215952912839f6473e6607f55816001600160a01b038116620007aa57604051631e4fbdf760e01b8152600060048201526024015b60405180910390fd5b620007b5816200089a565b5060016081556001600160a01b038316620008135760405162461bcd60e51b815260206004820152601560248201527f496e76616c696420746f6b656e206164647265737300000000000000000000006044820152606401620007a1565b608280546001600160a01b0319166001600160a01b03851617905560848190558062000851670de0b6b3a764000068014d1120d7b1600000620009d5565b6200085d919062000a01565b608381905560408051808201909152600d81526c494e495449414c5f505249434560981b60208201526200089191620008ec565b50505062000a7b565b608080546001600160a01b038381166001600160a01b0319831681179093556040519116919082907f8be0079c531659141344cd1fd0a4f28419497f9722a3daafe3b4186f6b6457e090600090a35050565b6200093982826040516024016200090592919062000a24565b60408051601f198184030181529190526020810180516001600160e01b03908116632d839cb360e21b179091526200093d16565b5050565b62000953816200095660201b620010301760201c565b50565b60006a636f6e736f6c652e6c6f679050600080835160208501845afa505050565b80516001600160a01b03811681146200098f57600080fd5b919050565b600080600060608486031215620009aa57600080fd5b620009b58462000977565b9250620009c56020850162000977565b9150604084015190509250925092565b8082028115828204841417620009fb57634e487b7160e01b600052601160045260246000fd5b92915050565b60008262000a1f57634e487b7160e01b600052601260045260246000fd5b500490565b604081526000835180604084015260005b8181101562000a54576020818701810151606086840101520162000a35565b506000606082850101526060601f19601f8301168401019150508260208301529392505050565b611e688062000a8b6000396000f3fe6080604052600436106101cf5760003560e01c806388d9f5ea116100f6578063b05707e91161008f578063db0e1bdf11610061578063db0e1bdf146103ba578063db954a901461037a578063eb91d37e146104d2578063f2fde38b146104e757005b8063b05707e914610474578063b5e19d2314610494578063d0febe4c146104b4578063d4bc2e3b146104bc57005b8063987ec458116100c8578063987ec458146102f35780639c986764146104345780639fb7e6ea14610449578063a7e475391461045e57005b806388d9f5ea146103ba5780638da5cb5b146103da5780638e75e4821461040c578063933bdb901461041f57005b806362d68dee11610168578063715018a61161013a578063715018a614610365578063786efa1a1461037a5780637bfe170d1461038f5780637c5e2795146103a457005b806362d68dee146102f357806366cb3a42146103095780636c11bcd3146103295780636c1516e11461034957005b806332cb6b0c116101a157806332cb6b0c146102875780633f8a32a91461029d57806349f9b0f7146102bd578063617d7940146102dd57005b806303186eef146101d8578063031c439d146102185780630c7d5cd81461023557806329a00e7c1461026757005b366101d657005b005b3480156101e457600080fd5b506102056101f3366004611c0a565b60856020526000908152604090205481565b6040519081526020015b60405180910390f35b34801561022457600080fd5b5061020568014d1120d7b160000081565b34801561024157600080fd5b506087546102529063ffffffff1681565b60405163ffffffff909116815260200161020f565b34801561027357600080fd5b50610205610282366004611c33565b610507565b34801561029357600080fd5b5061020560845481565b3480156102a957600080fd5b506101d66102b8366004611c7b565b6106bb565b3480156102c957600080fd5b506102056102d8366004611c33565b6106dd565b3480156102e957600080fd5b5061020560865481565b3480156102ff57600080fd5b506102056103e881565b34801561031557600080fd5b50610205610324366004611c7b565b6107bc565b34801561033557600080fd5b506101d6610344366004611c7b565b6107ed565b34801561035557600080fd5b50610205670de0b6b3a764000081565b34801561037157600080fd5b506101d6610c30565b34801561038657600080fd5b50610205606481565b34801561039b57600080fd5b50610205600081565b3480156103b057600080fd5b5061020560835481565b3480156103c657600080fd5b506102056b033b2e3c9fd0803ce800000081565b3480156103e657600080fd5b506080546001600160a01b03165b6040516001600160a01b03909116815260200161020f565b34801561041857600080fd5b5047610205565b34801561042b57600080fd5b50608654610205565b34801561044057600080fd5b50610205600a81565b34801561045557600080fd5b50610205600281565b34801561046a57600080fd5b5061020561271081565b34801561048057600080fd5b506082546103f4906001600160a01b031681565b3480156104a057600080fd5b506102056104af366004611c7b565b610c44565b6101d6610ca9565b3480156104c857600080fd5b5061020561232881565b3480156104de57600080fd5b50610205610f65565b3480156104f357600080fd5b506101d6610502366004611c0a565b610ff5565b600080851180156105185750600084115b801561052a575060008363ffffffff16115b801561053f5750620f424063ffffffff841611155b6105855760405162461bcd60e51b8152602060048201526012602482015271496e76616c696420706172616d657465727360701b60448201526064015b60405180910390fd5b81600003610595575060006106b3565b6105a184600019611caa565b8211156105f05760405162461bcd60e51b815260206004820152601860248201527f4465706f73697420616d6f756e7420746f6f206c617267650000000000000000604482015260640161057c565b620f423f1963ffffffff84160161061c576106158461060f8785611051565b906110d3565b90506106b3565b6000808061062a8588611130565b905061064181888863ffffffff16620f424061118f565b9093509150600060ff83166106568a86611051565b901c9050888110156106a25760405162461bcd60e51b815260206004820152601560248201527443616c63756c6174696f6e20756e646572666c6f7760581b604482015260640161057c565b6106ac8982611caa565b9450505050505b949350505050565b6106c36111f0565b80608660008282546106d59190611cbd565b909155505050565b600080851180156106ee5750600084115b8015610700575060008363ffffffff16115b80156107155750620f424063ffffffff841611155b80156107215750848211155b61072a57600080fd5b8160000361073a575060006106b3565b8482036107485750826106b3565b620f423f1963ffffffff841601610767576106158561060f8685611051565b600080806107758589611caa565b90506107868882620f42408961118f565b909350915060006107978885611051565b905060ff831688901b6107ae8561060f848461121d565b9a9950505050505050505050565b60845460875460009182916107da9190479063ffffffff16866106dd565b9050804710156107e75750475b92915050565b6107f561127b565b6000811161083a5760405162461bcd60e51b81526020600482015260126024820152710416d6f756e74206d757374206265203e20360741b604482015260640161057c565b6082546040516370a0823160e01b815233600482015282916001600160a01b0316906370a0823190602401602060405180830381865afa158015610882573d6000803e3d6000fd5b505050506040513d601f19601f820116820180604052508101906108a69190611cd0565b10156108eb5760405162461bcd60e51b8152602060048201526014602482015273496e73756666696369656e742062616c616e636560601b604482015260640161057c565b6b033b2e3c9fd0803ce800000081111561093a5760405162461bcd60e51b815260206004820152601060248201526f115e18d959591cc81b585e081cd95b1b60821b604482015260640161057c565b336000908152608560205260408120546109549190611cbd565b42101561098e5760405162461bcd60e51b81526020600482015260086024820152672a37b79039b7b7b760c11b604482015260640161057c565b6000610999826107bc565b9050804710156109eb5760405162461bcd60e51b815260206004820152601d60248201527f496e73756666696369656e7420636f6e74726163742062616c616e6365000000604482015260640161057c565b60006103e86109fb600a85611ce9565b610a059190611d16565b90506000610a138285611caa565b608254604051632770a7eb60e21b8152336004820152602481018390529192506001600160a01b031690639dc29fac90604401600060405180830381600087803b158015610a6057600080fd5b505af1158015610a74573d6000803e3d6000fd5b5050608254604051632770a7eb60e21b8152336004820152602481018690526001600160a01b039091169250639dc29fac9150604401600060405180830381600087803b158015610ac457600080fd5b505af1158015610ad8573d6000803e3d6000fd5b50506040516000925033915085908381818185875af1925050503d8060008114610b1e576040519150601f19603f3d011682016040523d82523d6000602084013e610b23565b606091505b5050905080610b6a5760405162461bcd60e51b8152602060048201526013602482015272115512081d1c985b9cd9995c8819985a5b1959606a1b604482015260640161057c565b33600090815260856020526040812042905560868054879290610b8e908490611caa565b909155505060408051868152602081018690524281830152905133917f6db63bebf1e6540277744df32846ebdb98385b1a73f2d5de49b28348add63f50919081900360600190a2337f150edd20b748bc680273d4bc59d5659c3229edf2f102c013595b9b3238e1588686610c00610f65565b604080519283526020830191909152429082015260600160405180910390a250505050610c2d6001608155565b50565b610c386111f0565b610c4260006112a5565b565b6000608654600003610c5e57816083546107e79190611ce9565b608454608754600091610c7991479063ffffffff1686610507565b905060845481608654610c8c9190611cbd565b11156107e757608654608454610ca29190611caa565b9392505050565b610cb161127b565b60003411610cf15760405162461bcd60e51b815260206004820152600d60248201526c09aeae6e840e6cadcc8408aa89609b1b604482015260640161057c565b33600090815260856020526040812054610d0b9190611cbd565b421015610d455760405162461bcd60e51b81526020600482015260086024820152672a37b79039b7b7b760c11b604482015260640161057c565b6000610d5034610c44565b905060845481608654610d639190611cbd565b1115610db15760405162461bcd60e51b815260206004820152601860248201527f4578636565647320617661696c61626c6520737570706c790000000000000000604482015260640161057c565b60006103e8610dc1600a84611ce9565b610dcb9190611d16565b90506000610dd98284611caa565b608254604051634c420c3b60e01b8152336004820152602481018390529192506001600160a01b031690634c420c3b90604401600060405180830381600087803b158015610e2657600080fd5b505af1158015610e3a573d6000803e3d6000fd5b505050508260866000828254610e509190611cbd565b9091555050608254604051632770a7eb60e21b8152336004820152602481018490526001600160a01b0390911690639dc29fac90604401600060405180830381600087803b158015610ea157600080fd5b505af1158015610eb5573d6000803e3d6000fd5b505033600081815260856020908152604091829020429081905582513481529182018990528183015290519193507f0d1a0d5e3d583a0e92588799dd06e50fd78c07daf05f0cc06d7b848b1ca445f1925081900360600190a2337f150edd20b748bc680273d4bc59d5659c3229edf2f102c013595b9b3238e1588684610f39610f65565b604080519283526020830191909152429082015260600160405180910390a2505050610c426001608155565b60006402540be40081610f7782610c44565b9050610fa460405180604001604052806009815260200168195d1a105b5bdd5b9d60ba1b815250836112f7565b610fd16040518060400160405280600b81526020016a1d1bdad95b905b5bdd5b9d60aa1b815250826112f7565b80610fe483670de0b6b3a7640000611ce9565b610fee9190611d16565b9250505090565b610ffd6111f0565b6001600160a01b03811661102757604051631e4fbdf760e01b81526000600482015260240161057c565b610c2d816112a5565b60006a636f6e736f6c652e6c6f679050600080835160208501845afa505050565b600082600003611063575060006107e7565b600061106f8385611ce9565b90508261107c8583611d16565b14610ca25760405162461bcd60e51b815260206004820152602160248201527f536166654d6174683a206d756c7469706c69636174696f6e206f766572666c6f6044820152607760f81b606482015260840161057c565b60008082116111245760405162461bcd60e51b815260206004820152601a60248201527f536166654d6174683a206469766973696f6e206279207a65726f000000000000604482015260640161057c565b60006106b38385611d16565b60008061113d8385611cbd565b905083811015610ca25760405162461bcd60e51b815260206004820152601b60248201527f536166654d6174683a206164646974696f6e206f766572666c6f770000000000604482015260640161057c565b60008060008363ffffffff16856111a68989611340565b6111b09190611ce9565b6111ba9190611d16565b905060006111c78261145e565b90506111e36111d782607f611d2a565b60ff1683901c82611523565b9890975095505050505050565b6080546001600160a01b03163314610c425760405163118cdaa760e01b815233600482015260240161057c565b60008282111561126f5760405162461bcd60e51b815260206004820152601e60248201527f536166654d6174683a207375627472616374696f6e206f766572666c6f770000604482015260640161057c565b60006106b38385611caa565b60026081540361129e57604051633ee5aeb560e01b815260040160405180910390fd5b6002608155565b608080546001600160a01b038381166001600160a01b0319831681179093556040519116919082907f8be0079c531659141344cd1fd0a4f28419497f9722a3daafe3b4186f6b6457e090600090a35050565b61133c828260405160240161130d929190611d43565b60408051601f198184030181529190526020810180516001600160e01b0316632d839cb360e21b179052611b8a565b5050565b60007001ffffffffffffffffffffffffffffffff83111561136357611363611d98565b600080836113756001607f1b87611ce9565b61137f9190611d16565b9050600160801b81106113c25760006113a461139f6001607f1b84611d16565b611b93565b60ff811692831c929091506113be906001607f1b90611ce9565b9250505b6001607f1b81111561143757607f5b60ff811615611435576001607f1b6113e98380611ce9565b6113f39190611d16565b9150600160801b821061142557600191821c916114109082611d2a565b60ff166001901b836114229190611cbd565b92505b61142e81611dae565b90506113d1565b505b607a6114536f02c5c85fdf473de6af278ece600fcbda84611ce9565b901c95945050505050565b60006020607f5b60ff8116611474836001611dcb565b60ff1610156114c7576000600261148b8385611dcb565b6114959190611de4565b90508460008260ff16608081106114ae576114ae611e06565b0154106114bd578092506114c1565b8091505b50611465565b8360008260ff16608081106114de576114de611e06565b0154106114ec579392505050565b8360008360ff166080811061150357611503611e06565b015410611511575092915050565b611519611d98565b5060009392505050565b6000828160ff84166115358380611ce9565b901c9150611553826f03442c4e6074a82f1797f72ac0000000611ce9565b61155d9082611cbd565b905060ff841661156d8684611ce9565b901c915061158b826f0116b96f757c380fb287fd0e40000000611ce9565b6115959082611cbd565b905060ff84166115a58684611ce9565b901c91506115c2826e45ae5bdd5f0e03eca1ff4390000000611ce9565b6115cc9082611cbd565b905060ff84166115dc8684611ce9565b901c91506115f9826e0defabf91302cd95b9ffda50000000611ce9565b6116039082611cbd565b905060ff84166116138684611ce9565b901c9150611630826e02529ca9832b22439efff9b8000000611ce9565b61163a9082611cbd565b905060ff841661164a8684611ce9565b901c9150611666826d54f1cf12bd04e516b6da88000000611ce9565b6116709082611cbd565b905060ff84166116808684611ce9565b901c915061169c826d0a9e39e257a09ca2d6db51000000611ce9565b6116a69082611cbd565b905060ff84166116b68684611ce9565b901c91506116d2826d012e066e7b839fa050c309000000611ce9565b6116dc9082611cbd565b905060ff84166116ec8684611ce9565b901c9150611707826c1e33d7d926c329a1ad1a800000611ce9565b6117119082611cbd565b905060ff84166117218684611ce9565b901c915061173c826c02bee513bdb4a6b19b5f800000611ce9565b6117469082611cbd565b905060ff84166117568684611ce9565b901c9150611770826b3a9316fa79b88eccf2a00000611ce9565b61177a9082611cbd565b905060ff841661178a8684611ce9565b901c91506117a4826b048177ebe1fa812375200000611ce9565b6117ae9082611cbd565b905060ff84166117be8684611ce9565b901c91506117d7826a5263fe90242dcbacf00000611ce9565b6117e19082611cbd565b905060ff84166117f18684611ce9565b901c915061180a826a057e22099c030d94100000611ce9565b6118149082611cbd565b905060ff84166118248684611ce9565b901c915061183c826957e22099c030d9410000611ce9565b6118469082611cbd565b905060ff84166118568684611ce9565b901c915061186e8269052b6b54569976310000611ce9565b6118789082611cbd565b905060ff84166118888684611ce9565b901c915061189f82684985f67696bf748000611ce9565b6118a99082611cbd565b905060ff84166118b98684611ce9565b901c91506118d0826803dea12ea99e498000611ce9565b6118da9082611cbd565b905060ff84166118ea8684611ce9565b901c9150611900826731880f2214b6e000611ce9565b61190a9082611cbd565b905060ff841661191a8684611ce9565b901c91506119308267025bcff56eb36000611ce9565b61193a9082611cbd565b905060ff841661194a8684611ce9565b901c915061195f82661b722e10ab1000611ce9565b6119699082611cbd565b905060ff84166119798684611ce9565b901c915061198e826601317c70077000611ce9565b6119989082611cbd565b905060ff84166119a88684611ce9565b901c91506119bc82650cba84aafa00611ce9565b6119c69082611cbd565b905060ff84166119d68684611ce9565b901c91506119e9826482573a0a00611ce9565b6119f39082611cbd565b905060ff8416611a038684611ce9565b901c9150611a16826405035ad900611ce9565b611a209082611cbd565b905060ff8416611a308684611ce9565b901c9150611a4282632f881b00611ce9565b611a4c9082611cbd565b905060ff8416611a5c8684611ce9565b901c9150611a6e826301b29340611ce9565b611a789082611cbd565b905060ff8416611a888684611ce9565b901c9150611a9982620efc40611ce9565b611aa39082611cbd565b905060ff8416611ab38684611ce9565b901c9150611ac382617fe0611ce9565b611acd9082611cbd565b905060ff8416611add8684611ce9565b901c9150611aed82610420611ce9565b611af79082611cbd565b905060ff8416611b078684611ce9565b901c9150611b16826021611ce9565b611b209082611cbd565b905060ff8416611b308684611ce9565b901c9150611b3f826001611ce9565b611b499082611cbd565b9050600160ff85161b85611b6d6f0688589cc0e9505e2f2fee558000000084611d16565b611b779190611cbd565b611b819190611cbd565b95945050505050565b610c2d81611030565b60008082610100811015611bc7575b6001811115611bc257600190811c90611bbb9083611dcb565b9150611ba2565b611bfb565b60805b60ff811615611bf957600160ff82161b8210611bee579182179160ff81169190911c905b60011c607f16611bca565b505b5092915050565b610c42611e1c565b600060208284031215611c1c57600080fd5b81356001600160a01b0381168114610ca257600080fd5b60008060008060808587031215611c4957600080fd5b8435935060208501359250604085013563ffffffff81168114611c6b57600080fd5b9396929550929360600135925050565b600060208284031215611c8d57600080fd5b5035919050565b634e487b7160e01b600052601160045260246000fd5b818103818111156107e7576107e7611c94565b808201808211156107e7576107e7611c94565b600060208284031215611ce257600080fd5b5051919050565b80820281158282048414176107e7576107e7611c94565b634e487b7160e01b600052601260045260246000fd5b600082611d2557611d25611d00565b500490565b60ff82811682821603908111156107e7576107e7611c94565b604081526000835180604084015260005b81811015611d715760208187018101516060868401015201611d54565b506000606082850101526060601f19601f8301168401019150508260208301529392505050565b634e487b7160e01b600052600160045260246000fd5b600060ff821680611dc157611dc1611c94565b6000190192915050565b60ff81811683821601908111156107e7576107e7611c94565b600060ff831680611df757611df7611d00565b8060ff84160491505092915050565b634e487b7160e01b600052603260045260246000fd5b634e487b7160e01b600052605160045260246000fdfea26469706673582212205ec462ce34ffddb4522006cd054058b98e5e5fee50810e2648bdd156d54b98a464736f6c63430008140033",
  "linkReferences": {},
  "deployedLinkReferences": {}
}