{
  "_format": "hh-sol-artifact-1",
  "contractName": "BondingCurve",
  "sourceName": "contracts/BondingCurve.sol",
  "abi": [
    {
      "inputs": [
        {
          "internalType": "address",
          "name": "_token",
          "type": "address"
        },
        {
          "internalType": "address",
          "name": "initialOwner",
          "type": "address"
        },
        {
          "internalType": "uint256",
          "name": "initSupply",
          "type": "uint256"
        }
      ],
      "stateMutability": "nonpayable",
      "type": "constructor"
    },
    {
      "inputs": [
        {
          "internalType": "address",
          "name": "owner",
          "type": "address"
        }
      ],
      "name": "OwnableInvalidOwner",
      "type": "error"
    },
    {
      "inputs": [
        {
          "internalType": "address",
          "name": "account",
          "type": "address"
        }
      ],
      "name": "OwnableUnauthorizedAccount",
      "type": "error"
    },
    {
      "inputs": [
        {
          "internalType": "uint256",
          "name": "x",
          "type": "uint256"
        },
        {
          "internalType": "uint256",
          "name": "y",
          "type": "uint256"
        }
      ],
      "name": "PRBMath_MulDiv18_Overflow",
      "type": "error"
    },
    {
      "inputs": [
        {
          "internalType": "uint256",
          "name": "x",
          "type": "uint256"
        },
        {
          "internalType": "uint256",
          "name": "y",
          "type": "uint256"
        },
        {
          "internalType": "uint256",
          "name": "denominator",
          "type": "uint256"
        }
      ],
      "name": "PRBMath_MulDiv_Overflow",
      "type": "error"
    },
    {
      "inputs": [],
      "name": "ReentrancyGuardReentrantCall",
      "type": "error"
    },
    {
      "anonymous": false,
      "inputs": [
        {
          "indexed": true,
          "internalType": "address",
          "name": "provider",
          "type": "address"
        },
        {
          "indexed": false,
          "internalType": "uint256",
          "name": "tokenAmount",
          "type": "uint256"
        },
        {
          "indexed": false,
          "internalType": "uint256",
          "name": "ethAmount",
          "type": "uint256"
        },
        {
          "indexed": false,
          "internalType": "uint256",
          "name": "timestamp",
          "type": "uint256"
        }
      ],
      "name": "LiquidityAdded",
      "type": "event"
    },
    {
      "anonymous": false,
      "inputs": [
        {
          "indexed": true,
          "internalType": "address",
          "name": "previousOwner",
          "type": "address"
        },
        {
          "indexed": true,
          "internalType": "address",
          "name": "newOwner",
          "type": "address"
        }
      ],
      "name": "OwnershipTransferred",
      "type": "event"
    },
    {
      "anonymous": false,
      "inputs": [
        {
          "indexed": true,
          "internalType": "address",
          "name": "buyer",
          "type": "address"
        },
        {
          "indexed": false,
          "internalType": "uint256",
          "name": "ethAmount",
          "type": "uint256"
        },
        {
          "indexed": false,
          "internalType": "uint256",
          "name": "tokenAmount",
          "type": "uint256"
        },
        {
          "indexed": false,
          "internalType": "uint256",
          "name": "timestamp",
          "type": "uint256"
        }
      ],
      "name": "TokensPurchased",
      "type": "event"
    },
    {
      "anonymous": false,
      "inputs": [
        {
          "indexed": true,
          "internalType": "address",
          "name": "seller",
          "type": "address"
        },
        {
          "indexed": false,
          "internalType": "uint256",
          "name": "tokenAmount",
          "type": "uint256"
        },
        {
          "indexed": false,
          "internalType": "uint256",
          "name": "ethAmount",
          "type": "uint256"
        },
        {
          "indexed": false,
          "internalType": "uint256",
          "name": "timestamp",
          "type": "uint256"
        }
      ],
      "name": "TokensSold",
      "type": "event"
    },
    {
      "anonymous": false,
      "inputs": [
        {
          "indexed": true,
          "internalType": "address",
          "name": "trader",
          "type": "address"
        },
        {
          "indexed": false,
          "internalType": "uint256",
          "name": "amount",
          "type": "uint256"
        },
        {
          "indexed": false,
          "internalType": "UD60x18",
          "name": "price",
          "type": "uint256"
        },
        {
          "indexed": false,
          "internalType": "uint256",
          "name": "timestamp",
          "type": "uint256"
        }
      ],
      "name": "Trade",
      "type": "event"
    },
    {
      "stateMutability": "payable",
      "type": "fallback"
    },
    {
      "inputs": [],
      "name": "BONDING_TARGET",
      "outputs": [
        {
          "internalType": "uint256",
          "name": "",
          "type": "uint256"
        }
      ],
      "stateMutability": "view",
      "type": "function"
    },
    {
      "inputs": [],
      "name": "BURN_PERCENT",
      "outputs": [
        {
          "internalType": "uint256",
          "name": "",
          "type": "uint256"
        }
      ],
      "stateMutability": "view",
      "type": "function"
    },
    {
      "inputs": [],
      "name": "DENOMINATOR",
      "outputs": [
        {
          "internalType": "uint256",
          "name": "",
          "type": "uint256"
        }
      ],
      "stateMutability": "view",
      "type": "function"
    },
    {
      "inputs": [],
      "name": "FEE_PERCENT",
      "outputs": [
        {
          "internalType": "uint256",
          "name": "",
          "type": "uint256"
        }
      ],
      "stateMutability": "view",
      "type": "function"
    },
    {
      "inputs": [],
      "name": "INITIAL_PRICE",
      "outputs": [
        {
          "internalType": "uint256",
          "name": "",
          "type": "uint256"
        }
      ],
      "stateMutability": "view",
      "type": "function"
    },
    {
      "inputs": [],
      "name": "MAX_BUY_AMOUNT_PER_TX",
      "outputs": [
        {
          "internalType": "uint256",
          "name": "",
          "type": "uint256"
        }
      ],
      "stateMutability": "view",
      "type": "function"
    },
    {
      "inputs": [],
      "name": "MAX_BUY_PERCENT",
      "outputs": [
        {
          "internalType": "uint256",
          "name": "",
          "type": "uint256"
        }
      ],
      "stateMutability": "view",
      "type": "function"
    },
    {
      "inputs": [],
      "name": "MAX_SELL_AMOUNT_PER_TX",
      "outputs": [
        {
          "internalType": "uint256",
          "name": "",
          "type": "uint256"
        }
      ],
      "stateMutability": "view",
      "type": "function"
    },
    {
      "inputs": [],
      "name": "MAX_SUPPLY",
      "outputs": [
        {
          "internalType": "uint256",
          "name": "",
          "type": "uint256"
        }
      ],
      "stateMutability": "view",
      "type": "function"
    },
    {
      "inputs": [],
      "name": "PANCAKE_SWAP_ROUTER_V2",
      "outputs": [
        {
          "internalType": "address",
          "name": "",
          "type": "address"
        }
      ],
      "stateMutability": "view",
      "type": "function"
    },
    {
      "inputs": [],
      "name": "PRICE_DENOMINATOR",
      "outputs": [
        {
          "internalType": "uint256",
          "name": "",
          "type": "uint256"
        }
      ],
      "stateMutability": "view",
      "type": "function"
    },
    {
      "inputs": [],
      "name": "PRICE_SCALING_FACTOR",
      "outputs": [
        {
          "internalType": "uint256",
          "name": "",
          "type": "uint256"
        }
      ],
      "stateMutability": "view",
      "type": "function"
    },
    {
      "inputs": [],
      "name": "ROUND_PERCENT",
      "outputs": [
        {
          "internalType": "uint256",
          "name": "",
          "type": "uint256"
        }
      ],
      "stateMutability": "view",
      "type": "function"
    },
    {
      "inputs": [],
      "name": "SLOPE",
      "outputs": [
        {
          "internalType": "UD60x18",
          "name": "",
          "type": "uint256"
        }
      ],
      "stateMutability": "view",
      "type": "function"
    },
    {
      "inputs": [],
      "name": "TRADE_COOLDOWN",
      "outputs": [
        {
          "internalType": "uint256",
          "name": "",
          "type": "uint256"
        }
      ],
      "stateMutability": "view",
      "type": "function"
    },
    {
      "inputs": [],
      "name": "addLiquidity",
      "outputs": [],
      "stateMutability": "payable",
      "type": "function"
    },
    {
      "inputs": [],
      "name": "agentToken",
      "outputs": [
        {
          "internalType": "contract AiAgentToken",
          "name": "",
          "type": "address"
        }
      ],
      "stateMutability": "view",
      "type": "function"
    },
    {
      "inputs": [],
      "name": "buyTokens",
      "outputs": [],
      "stateMutability": "payable",
      "type": "function"
    },
    {
      "inputs": [
        {
          "internalType": "uint256",
          "name": "_ethAmount",
          "type": "uint256"
        }
      ],
      "name": "calculatePurchaseReturn",
      "outputs": [
        {
          "internalType": "uint256",
          "name": "",
          "type": "uint256"
        }
      ],
      "stateMutability": "view",
      "type": "function"
    },
    {
      "inputs": [
        {
          "internalType": "uint256",
          "name": "tokenAmount",
          "type": "uint256"
        }
      ],
      "name": "calculateSaleReturn",
      "outputs": [
        {
          "internalType": "uint256",
          "name": "",
          "type": "uint256"
        }
      ],
      "stateMutability": "view",
      "type": "function"
    },
    {
      "inputs": [
        {
          "internalType": "address",
          "name": "buyer",
          "type": "address"
        },
        {
          "internalType": "uint256",
          "name": "ethValue",
          "type": "uint256"
        },
        {
          "internalType": "uint256",
          "name": "tokenAmount",
          "type": "uint256"
        }
      ],
      "name": "creatorBuy",
      "outputs": [],
      "stateMutability": "nonpayable",
      "type": "function"
    },
    {
      "inputs": [],
      "name": "getCurrentPrice",
      "outputs": [
        {
          "internalType": "uint256",
          "name": "",
          "type": "uint256"
        }
      ],
      "stateMutability": "view",
      "type": "function"
    },
    {
      "inputs": [
        {
          "internalType": "uint256",
          "name": "tokenAmount",
          "type": "uint256"
        }
      ],
      "name": "getETHForTokens",
      "outputs": [
        {
          "internalType": "uint256",
          "name": "",
          "type": "uint256"
        }
      ],
      "stateMutability": "view",
      "type": "function"
    },
    {
      "inputs": [],
      "name": "getRaisedAmount",
      "outputs": [
        {
          "internalType": "uint256",
          "name": "",
          "type": "uint256"
        }
      ],
      "stateMutability": "view",
      "type": "function"
    },
    {
      "inputs": [
        {
          "internalType": "uint256",
          "name": "_ethAmount",
          "type": "uint256"
        }
      ],
      "name": "getTokensForETH",
      "outputs": [
        {
          "internalType": "uint256",
          "name": "",
          "type": "uint256"
        }
      ],
      "stateMutability": "view",
      "type": "function"
    },
    {
      "inputs": [],
      "name": "getTotalSoldAmount",
      "outputs": [
        {
          "internalType": "uint256",
          "name": "",
          "type": "uint256"
        }
      ],
      "stateMutability": "view",
      "type": "function"
    },
    {
      "inputs": [
        {
          "internalType": "address",
          "name": "",
          "type": "address"
        }
      ],
      "name": "lastTradeTime",
      "outputs": [
        {
          "internalType": "uint256",
          "name": "",
          "type": "uint256"
        }
      ],
      "stateMutability": "view",
      "type": "function"
    },
    {
      "inputs": [],
      "name": "owner",
      "outputs": [
        {
          "internalType": "address",
          "name": "",
          "type": "address"
        }
      ],
      "stateMutability": "view",
      "type": "function"
    },
    {
      "inputs": [],
      "name": "pair",
      "outputs": [
        {
          "internalType": "address",
          "name": "",
          "type": "address"
        }
      ],
      "stateMutability": "view",
      "type": "function"
    },
    {
      "inputs": [],
      "name": "pancakeSwapRouter",
      "outputs": [
        {
          "internalType": "contract IUniswapV2Router01",
          "name": "",
          "type": "address"
        }
      ],
      "stateMutability": "view",
      "type": "function"
    },
    {
      "inputs": [],
      "name": "renounceOwnership",
      "outputs": [],
      "stateMutability": "nonpayable",
      "type": "function"
    },
    {
      "inputs": [
        {
          "internalType": "uint256",
          "name": "tokenAmount",
          "type": "uint256"
        }
      ],
      "name": "sellTokens",
      "outputs": [],
      "stateMutability": "nonpayable",
      "type": "function"
    },
    {
      "inputs": [],
      "name": "totalRaisedAmount",
      "outputs": [
        {
          "internalType": "uint256",
          "name": "",
          "type": "uint256"
        }
      ],
      "stateMutability": "view",
      "type": "function"
    },
    {
      "inputs": [],
      "name": "totalSoldAmount",
      "outputs": [
        {
          "internalType": "uint256",
          "name": "",
          "type": "uint256"
        }
      ],
      "stateMutability": "view",
      "type": "function"
    },
    {
      "inputs": [
        {
          "internalType": "address",
          "name": "newOwner",
          "type": "address"
        }
      ],
      "name": "transferOwnership",
      "outputs": [],
      "stateMutability": "nonpayable",
      "type": "function"
    },
    {
      "stateMutability": "payable",
      "type": "receive"
    }
  ],
  "bytecode": "0x60a034620001eb57601f620019d638819003918201601f191683019291906001600160401b03841183851017620001f0578160609284926040968752833981010312620001eb57620000518162000206565b9082620000616020830162000206565b910151916001600160a01b039182168015620001d357600080546001600160a01b0319808216841783558751929592949093909183167f8be0079c531659141344cd1fd0a4f28419497f9722a3daafe3b4186f6b6457e08780a36001805584600855846009551691821562000191575083156200015c5760025416176002558160045560328202908282046032036200014857506103e8900460065573d99d1c33f9fc3444f8101754abc46c52416550d16080526f120e3b5b985fdefbb61c8765e300000004600555516117ba90816200021c82396080518181816102c00152610ee80152f35b634e487b7160e01b81526011600452602490fd5b845162461bcd60e51b815260206004820152600e60248201526d496e76616c696420737570706c7960901b6044820152606490fd5b62461bcd60e51b815260206004820152601560248201527f496e76616c696420746f6b656e206164647265737300000000000000000000006044820152606490fd5b8451631e4fbdf760e01b815260006004820152602490fd5b600080fd5b634e487b7160e01b600052604160045260246000fd5b51906001600160a01b0382168203620001eb5756fe6080604081815260048036101561001e575b505050361561001c57005b005b600092833560e01c90816303186eef14610f3b57508063031c439d14610f175780632455899514610ed3578063322d210014610eb357806332cb6b0c14610e9657806354d0a68514610481578063617d7940146107fe57806362064ca014610e6f57806366cb3a4214610e4f57806369fcd4ac14610e135780636c11bcd314610a465780636c1516e114610a235780636dbaadfe146109f4578063715018a61461099a5780637634f759146102635780637bfe170d1461097f5780637c5e2795146109605780638b7cc629146109415780638da5cb5b146109195780638e75e482146107b65780638e78a1f71461083a578063918f86741461081d578063933bdb90146107fe5780639c98676414610263578063a8aa1b31146107d5578063ac369bb5146107b6578063adace2921461079a578063b05707e914610771578063b5e19d231461074e578063d0febe4c14610486578063d9d8b48f14610481578063e8078d9414610268578063eaf98d2314610263578063eb91d37e1461023b5763f2fde38b036100115734610237576020366003190112610237576101c1610f6f565b906101ca610fc8565b6001600160a01b03918216928315610221575050600054826bffffffffffffffffffffffff60a01b821617600055167f8be0079c531659141344cd1fd0a4f28419497f9722a3daafe3b4186f6b6457e0600080a380f35b51631e4fbdf760e01b8152908101849052602490fd5b8280fd5b50503461025f578160031936011261025f57602090610258610ff4565b9051908152f35b5080fd5b610fac565b50826003193601126102375760025482516370a0823160e01b815230838201529260209290916001600160a01b0391908216908486602481855afa958615610477578796610443575b50835163095ea7b360e01b81527f000000000000000000000000000000000000000000000000000000000000000084166001600160a01b0381168383019081526020810189905247959194919291889183919082908d90829060400103925af18015610439576103fa575b509060609360c49260025416938651988995869463f305d71960e01b865285015260248401528960448401528160648401523360848401524260a48401525af19283156103f057849285946103b0575b505051908152602081019190915242604082015233907f64b83944e79c3ce8d4c297411de637c3e102d064677aac0c163976ebdcd6f50e9080606081015b0390a280f35b91935091506060823d82116103e8575b816103cd60609383611327565b810103126103e457815191015191816103aa61036c565b8380fd5b3d91506103c0565b81513d86823e3d90fd5b8681819493943d8311610432575b6104128183611327565b8101031261042e57518015150361042a57903861031c565b8780fd5b8880fd5b503d610408565b86513d8b823e3d90fd5b9095508481813d8311610470575b61045b8183611327565b8101031261046b575194386102b1565b600080fd5b503d610451565b84513d89823e3d90fd5b610f85565b50826003193601126102375761049a61162a565b341561071c5733835260076020526104b7828420544210156115f3565b6104c034611494565b906b033b2e3c9fd0803ce800000082116106e7576104e08260085461164d565b8154106106a45783906103e86104f5846116bb565b04906105018285611662565b6002546001600160a01b0391908216803b156106a0578751634c420c3b60e01b8152338582019081526020810193909352918691839182908490829060400103925af1908115610696578591610682575b50506105608560085461164d565b60085561056f3460095461164d565b6009556002541691823b156103e4578551632770a7eb60e21b815233928101928352602083019190915291839183919082908490829060400103925af1801561067857610664575b505061065a7f150edd20b748bc680273d4bc59d5659c3229edf2f102c013595b9b3238e15886913385526007602052428486205583517f0d1a0d5e3d583a0e92588799dd06e50fd78c07daf05f0cc06d7b848b1ca445f133918061062e428634846040919493926060820195825260208201520152565b0390a261063b813461110c565b9351908152602081019390935242604084015233929081906060820190565b0390a26001805580f35b61066d906112fd565b6102375782386105b7565b84513d84823e3d90fd5b61068b906112fd565b6103e4578338610552565b87513d87823e3d90fd5b8580fd5b606490602084519162461bcd60e51b8352820152601860248201527f4578636565647320617661696c61626c6520737570706c7900000000000000006044820152fd5b606490602084519162461bcd60e51b8352820152600f60248201526e45786365656473206d61782062757960881b6044820152fd5b6020606492519162461bcd60e51b8352820152600d60248201526c09aeae6e840e6cadcc8408aa89609b1b6044820152fd5b50913461076e57602036600319011261076e575061025860209235611494565b80fd5b50503461025f578160031936011261025f5760025490516001600160a01b039091168152602090f35b50503461025f578160031936011261025f576020905160328152f35b50503461025f578160031936011261025f576020906009549051908152f35b50503461025f578160031936011261025f5760035490516001600160a01b039091168152602090f35b50503461025f578160031936011261025f576020906008549051908152f35b50503461025f578160031936011261025f57602090516103e88152f35b50503461025f57606036600319011261025f577f150edd20b748bc680273d4bc59d5659c3229edf2f102c013595b9b3238e15886610876610f6f565b602435926103aa6108fd604435809461088d610fc8565b6108998260085461164d565b6008556108a88860095461164d565b6009558451888152602081018390524260408201526001600160a01b0391909116979088907f0d1a0d5e3d583a0e92588799dd06e50fd78c07daf05f0cc06d7b848b1ca445f19080606081015b0390a261110c565b9151928352602083019190915242604083015281906060820190565b50503461025f578160031936011261025f57905490516001600160a01b039091168152602090f35b50503461025f578160031936011261025f576020906005549051908152f35b50503461025f578160031936011261025f5760209051632d98f9408152f35b50503461025f578160031936011261025f5751908152602090f35b833461076e578060031936011261076e576109b3610fc8565b600080546001600160a01b0319811682556001600160a01b03167f8be0079c531659141344cd1fd0a4f28419497f9722a3daafe3b4186f6b6457e08280a380f35b50503461025f578160031936011261025f576020905173d99d1c33f9fc3444f8101754abc46c52416550d18152f35b50503461025f578160031936011261025f5760209051670de0b6b3a76400008152f35b503461023757602090816003193601126103e457803591610a6561162a565b8215610ddc5760025484516370a0823160e01b815233818501526001600160a01b03918216939160249184818481895afa8015610dd25787918a91610da1575b5010610d69576b033b2e3c9fd0803ce80000008611610d355733885260078452610ad4878920544210156115f3565b610add866115c0565b94854710610cf3576103e8610af1886116bb565b0491610afd8389611662565b91803b15610cef578951632770a7eb60e21b8082523388830190815260208101959095529390918c9183919082908490829060400103925af18015610ce557610cce575b50908992916002541691823b156103e45789519182523386830190815260208101919091529091839183919082908490829060400103925af18015610cc457610cac575b5080808087335af13d15610ca7573d67ffffffffffffffff8111610c9357875190610bb9601f8201601f1916870183611327565b815288853d92013e5b15610c5d5750509161063b8161065a9360077f150edd20b748bc680273d4bc59d5659c3229edf2f102c013595b9b3238e1588696338a52524287892055610c0b82600854611662565b600855610c1a81600954611662565b60095586518281526020810182905242604082015233907f6db63bebf1e6540277744df32846ebdb98385b1a73f2d5de49b28348add63f509080606081016108f5565b60139060649387519362461bcd60e51b855284015282015272115512081d1c985b9cd9995c8819985a5b1959606a1b6044820152fd5b82604185634e487b7160e01b600052526000fd5b610bc2565b610cb5906112fd565b610cc0578638610b85565b8680fd5b88513d84823e3d90fd5b610cdc909a9193929a6112fd565b98909138610b41565b8a513d8d823e3d90fd5b8a80fd5b875162461bcd60e51b8152808501869052601d818501527f496e73756666696369656e7420636f6e74726163742062616c616e63650000006044820152606490fd5b5060109060649387519362461bcd60e51b85528401528201526f115e18d959591cc81b585e081cd95b1b60821b6044820152fd5b5060149060649387519362461bcd60e51b855284015282015273496e73756666696369656e742062616c616e636560601b6044820152fd5b809250868092503d8311610dcb575b610dba8183611327565b8101031261042e5786905138610aa5565b503d610db0565b88513d8b823e3d90fd5b835162461bcd60e51b81529182015260126024820152710416d6f756e74206d757374206265203e20360741b604482015260649150fd5b50913461076e57602036600319011261076e5750610258610e4a602093610e38610ff4565b90610e44821515611349565b35611267565b611079565b50913461076e57602036600319011261076e5750610258602092356115c0565b50503461025f578160031936011261025f57602090516b0128f4fec937b376e86000008152f35b503461023757826003193601126102375760209250549051908152f35b50913461076e57602036600319011261076e575061025860209235611385565b50503461025f578160031936011261025f57517f00000000000000000000000000000000000000000000000000000000000000006001600160a01b03168152602090f35b50503461025f578160031936011261025f576020905168014d1120d7b16000008152f35b84908434610237576020366003190112610237576020926001600160a01b03610f62610f6f565b1681526007845220548152f35b600435906001600160a01b038216820361046b57565b3461046b57600036600319011261046b5760206040516b033b2e3c9fd0803ce80000008152f35b3461046b57600036600319011261046b576020604051600a8152f35b6000546001600160a01b03163303610fdc57565b60405163118cdaa760e01b8152336004820152602490fd5b6008548015611043576110139061100d60055491611079565b90611267565b632d98f940810180911161102d5761102a906111bc565b90565b634e487b7160e01b600052601160045260246000fd5b50632d98f94090565b9190820180921161102d57565b8115611063570490565b634e487b7160e01b600052601260045260246000fd5b670de0b6b3a764000091906000198382098382029182808310920391808303921461110357848210156110df5793807faccb18165bd6fe31ae1cf318dc5b51eee0e1ba569b88cd74c1773b91fac1066994950990828211900360ee1b910360121c170290565b6064908560405191630c740aef60e31b835260048301528060248301526044820152fd5b50509190910490565b670de0b6b3a76400009160001983830992808302928380861095039480860395146111af578285101561118c57908291096001821901821680920460028082600302188083028203028083028203028083028203028083028203028083028203028092029003029360018380600003040190848311900302920304170290565b8260649260405192630c740aef60e31b8452600484015260248301526044820152fd5b50509061102a9250611059565b670de0b6b3a7640000919060001983820983820291828083109203918083039214611252576b0128f4fec937b376e8600000908183101561122f57947ff3aa2f6403528fc4b6708afe7d7bc2806544d178e22c99254acab5810a340d6b94950990828211900360eb1b910360151c170290565b6064918660405192630c740aef60e31b8452600484015260248301526044820152fd5b50506b0128f4fec937b376e860000090049150565b909190600019838209838202918280831092039180830392146112ec57670de0b6b3a764000090818310156112ce57947faccb18165bd6fe31ae1cf318dc5b51eee0e1ba569b88cd74c1773b91fac1066994950990828211900360ee1b910360121c170290565b6044908660405191635173648d60e01b835260048301526024820152fd5b5050670de0b6b3a764000090049150565b67ffffffffffffffff811161131157604052565b634e487b7160e01b600052604160045260246000fd5b90601f8019910116810190811067ffffffffffffffff82111761131157604052565b1561135057565b60405162461bcd60e51b815260206004820152600d60248201526c496e76616c696420707269636560981b6044820152606490fd5b9061138e610ff4565b604051926040840184811067ffffffffffffffff82111761131157604052601d84526020937f63616c63756c617465507572636861736552657475726e205052494345000000858201526040519085820195632d839cb360e21b87526040602484015281519182606485015260005b8381106114805750505061145d94958261143c608482856000838199988299010152896044830152601f80199101168101036064810184520182611327565b51906a636f6e736f6c652e6c6f675afa50611458821515611349565b61110c565b6008541580611475575b61146e5790565b5060065490565b506006548111611467565b8181018301518582016084015282016113fd565b61149d81611385565b906009546114ab828261164d565b9161271083019283811161102d57831061157b57600854926114cd858561164d565b93600454809510801590611568575b6114e9575b505050505090565b8495506114ff611505916103e893949596611662565b956116bb565b0484109081611554575b5061154f579168014d1120d7b160000061153d61154493611538670de0b6b3a764000096611739565b61104c565b049061175f565b0438808080806114e1565b505090565b68014d1120d7b1600000915010153861150f565b5068014d1120d7b16000008210156114dc565b60405162461bcd60e51b815260206004820152601b60248201527f536166654d6174683a206164646974696f6e206f766572666c6f7700000000006044820152606490fd5b610e4a6115e0916115cf610ff4565b906115db821515611349565b611267565b6009548181106115ee575090565b905090565b156115fa57565b60405162461bcd60e51b81526020600482015260086024820152672a37b79039b7b7b760c11b6044820152606490fd5b60026001541461163b576002600155565b604051633ee5aeb560e01b8152600490fd5b90611658908261104c565b90811061157b5790565b9081811161167657810390811161102d5790565b60405162461bcd60e51b815260206004820152601e60248201527f536166654d6174683a207375627472616374696f6e206f766572666c6f7700006044820152606490fd5b801561173357600a810290808204600a0361102d576116dc600a9183611059565b036116e45790565b60405162461bcd60e51b815260206004820152602160248201527f536166654d6174683a206d756c7469706c69636174696f6e206f766572666c6f6044820152607760f81b6064820152608490fd5b50600090565b801561173357670de0b6b3a764000080820291808304820361102d576116dc9083611059565b90811561177d5780820291808304820361102d576116dc9083611059565b505060009056fea2646970667358221220a92c450f3839e33eba7b371a0916c7a4f111f51a4050d63c60f000c6399d788064736f6c63430008140033",
  "linkReferences": {},
  "deployedLinkReferences": {}
}