{
  "_format": "hh-sol-artifact-1",
  "contractName": "BondingCurve",
  "sourceName": "contracts/BondingCurve.sol",
  "abi": [
    {
      "inputs": [
        {
          "internalType": "address",
          "name": "_token",
          "type": "address"
        },
        {
          "internalType": "address",
          "name": "initialOwner",
          "type": "address"
        },
        {
          "internalType": "uint256",
          "name": "initSupply",
          "type": "uint256"
        }
      ],
      "stateMutability": "nonpayable",
      "type": "constructor"
    },
    {
      "inputs": [
        {
          "internalType": "address",
          "name": "owner",
          "type": "address"
        }
      ],
      "name": "OwnableInvalidOwner",
      "type": "error"
    },
    {
      "inputs": [
        {
          "internalType": "address",
          "name": "account",
          "type": "address"
        }
      ],
      "name": "OwnableUnauthorizedAccount",
      "type": "error"
    },
    {
      "inputs": [
        {
          "internalType": "uint256",
          "name": "x",
          "type": "uint256"
        },
        {
          "internalType": "uint256",
          "name": "y",
          "type": "uint256"
        }
      ],
      "name": "PRBMath_MulDiv18_Overflow",
      "type": "error"
    },
    {
      "inputs": [
        {
          "internalType": "uint256",
          "name": "x",
          "type": "uint256"
        },
        {
          "internalType": "uint256",
          "name": "y",
          "type": "uint256"
        },
        {
          "internalType": "uint256",
          "name": "denominator",
          "type": "uint256"
        }
      ],
      "name": "PRBMath_MulDiv_Overflow",
      "type": "error"
    },
    {
      "inputs": [],
      "name": "ReentrancyGuardReentrantCall",
      "type": "error"
    },
    {
      "anonymous": false,
      "inputs": [
        {
          "indexed": true,
          "internalType": "address",
          "name": "provider",
          "type": "address"
        },
        {
          "indexed": false,
          "internalType": "uint256",
          "name": "tokenAmount",
          "type": "uint256"
        },
        {
          "indexed": false,
          "internalType": "uint256",
          "name": "ethAmount",
          "type": "uint256"
        },
        {
          "indexed": false,
          "internalType": "uint256",
          "name": "timestamp",
          "type": "uint256"
        }
      ],
      "name": "LiquidityAdded",
      "type": "event"
    },
    {
      "anonymous": false,
      "inputs": [
        {
          "indexed": true,
          "internalType": "address",
          "name": "previousOwner",
          "type": "address"
        },
        {
          "indexed": true,
          "internalType": "address",
          "name": "newOwner",
          "type": "address"
        }
      ],
      "name": "OwnershipTransferred",
      "type": "event"
    },
    {
      "anonymous": false,
      "inputs": [
        {
          "indexed": true,
          "internalType": "address",
          "name": "buyer",
          "type": "address"
        },
        {
          "indexed": false,
          "internalType": "uint256",
          "name": "ethAmount",
          "type": "uint256"
        },
        {
          "indexed": false,
          "internalType": "uint256",
          "name": "tokenAmount",
          "type": "uint256"
        },
        {
          "indexed": false,
          "internalType": "uint256",
          "name": "timestamp",
          "type": "uint256"
        }
      ],
      "name": "TokensPurchased",
      "type": "event"
    },
    {
      "anonymous": false,
      "inputs": [
        {
          "indexed": true,
          "internalType": "address",
          "name": "seller",
          "type": "address"
        },
        {
          "indexed": false,
          "internalType": "uint256",
          "name": "tokenAmount",
          "type": "uint256"
        },
        {
          "indexed": false,
          "internalType": "uint256",
          "name": "ethAmount",
          "type": "uint256"
        },
        {
          "indexed": false,
          "internalType": "uint256",
          "name": "timestamp",
          "type": "uint256"
        }
      ],
      "name": "TokensSold",
      "type": "event"
    },
    {
      "anonymous": false,
      "inputs": [
        {
          "indexed": true,
          "internalType": "address",
          "name": "trader",
          "type": "address"
        },
        {
          "indexed": false,
          "internalType": "uint256",
          "name": "amount",
          "type": "uint256"
        },
        {
          "indexed": false,
          "internalType": "UD60x18",
          "name": "price",
          "type": "uint256"
        },
        {
          "indexed": false,
          "internalType": "uint256",
          "name": "timestamp",
          "type": "uint256"
        }
      ],
      "name": "Trade",
      "type": "event"
    },
    {
      "stateMutability": "payable",
      "type": "fallback"
    },
    {
      "inputs": [],
      "name": "BONDING_TARGET",
      "outputs": [
        {
          "internalType": "uint256",
          "name": "",
          "type": "uint256"
        }
      ],
      "stateMutability": "view",
      "type": "function"
    },
    {
      "inputs": [],
      "name": "BURN_PERCENT",
      "outputs": [
        {
          "internalType": "uint256",
          "name": "",
          "type": "uint256"
        }
      ],
      "stateMutability": "view",
      "type": "function"
    },
    {
      "inputs": [],
      "name": "DENOMINATOR",
      "outputs": [
        {
          "internalType": "uint256",
          "name": "",
          "type": "uint256"
        }
      ],
      "stateMutability": "view",
      "type": "function"
    },
    {
      "inputs": [],
      "name": "FEE_PERCENT",
      "outputs": [
        {
          "internalType": "uint256",
          "name": "",
          "type": "uint256"
        }
      ],
      "stateMutability": "view",
      "type": "function"
    },
    {
      "inputs": [],
      "name": "INITIAL_PRICE",
      "outputs": [
        {
          "internalType": "uint256",
          "name": "",
          "type": "uint256"
        }
      ],
      "stateMutability": "view",
      "type": "function"
    },
    {
      "inputs": [],
      "name": "MAX_BUY_AMOUNT_PER_TX",
      "outputs": [
        {
          "internalType": "uint256",
          "name": "",
          "type": "uint256"
        }
      ],
      "stateMutability": "view",
      "type": "function"
    },
    {
      "inputs": [],
      "name": "MAX_BUY_PERCENT",
      "outputs": [
        {
          "internalType": "uint256",
          "name": "",
          "type": "uint256"
        }
      ],
      "stateMutability": "view",
      "type": "function"
    },
    {
      "inputs": [],
      "name": "MAX_SELL_AMOUNT_PER_TX",
      "outputs": [
        {
          "internalType": "uint256",
          "name": "",
          "type": "uint256"
        }
      ],
      "stateMutability": "view",
      "type": "function"
    },
    {
      "inputs": [],
      "name": "MAX_SUPPLY",
      "outputs": [
        {
          "internalType": "uint256",
          "name": "",
          "type": "uint256"
        }
      ],
      "stateMutability": "view",
      "type": "function"
    },
    {
      "inputs": [],
      "name": "PANCAKE_SWAP_ROUTER_V2",
      "outputs": [
        {
          "internalType": "address",
          "name": "",
          "type": "address"
        }
      ],
      "stateMutability": "view",
      "type": "function"
    },
    {
      "inputs": [],
      "name": "PRICE_DENOMINATOR",
      "outputs": [
        {
          "internalType": "uint256",
          "name": "",
          "type": "uint256"
        }
      ],
      "stateMutability": "view",
      "type": "function"
    },
    {
      "inputs": [],
      "name": "PRICE_SCALING_FACTOR",
      "outputs": [
        {
          "internalType": "uint256",
          "name": "",
          "type": "uint256"
        }
      ],
      "stateMutability": "view",
      "type": "function"
    },
    {
      "inputs": [],
      "name": "SLOPE",
      "outputs": [
        {
          "internalType": "UD60x18",
          "name": "",
          "type": "uint256"
        }
      ],
      "stateMutability": "view",
      "type": "function"
    },
    {
      "inputs": [],
      "name": "TRADE_COOLDOWN",
      "outputs": [
        {
          "internalType": "uint256",
          "name": "",
          "type": "uint256"
        }
      ],
      "stateMutability": "view",
      "type": "function"
    },
    {
      "inputs": [],
      "name": "addLiquidity",
      "outputs": [],
      "stateMutability": "payable",
      "type": "function"
    },
    {
      "inputs": [],
      "name": "agentToken",
      "outputs": [
        {
          "internalType": "contract AiAgentToken",
          "name": "",
          "type": "address"
        }
      ],
      "stateMutability": "view",
      "type": "function"
    },
    {
      "inputs": [],
      "name": "buyTokens",
      "outputs": [],
      "stateMutability": "payable",
      "type": "function"
    },
    {
      "inputs": [
        {
          "internalType": "uint256",
          "name": "_ethAmount",
          "type": "uint256"
        }
      ],
      "name": "calculatePurchaseReturn",
      "outputs": [
        {
          "internalType": "uint256",
          "name": "",
          "type": "uint256"
        }
      ],
      "stateMutability": "view",
      "type": "function"
    },
    {
      "inputs": [
        {
          "internalType": "uint256",
          "name": "tokenAmount",
          "type": "uint256"
        }
      ],
      "name": "calculateSaleReturn",
      "outputs": [
        {
          "internalType": "uint256",
          "name": "",
          "type": "uint256"
        }
      ],
      "stateMutability": "view",
      "type": "function"
    },
    {
      "inputs": [
        {
          "internalType": "address",
          "name": "buyer",
          "type": "address"
        },
        {
          "internalType": "uint256",
          "name": "ethValue",
          "type": "uint256"
        },
        {
          "internalType": "uint256",
          "name": "tokenAmount",
          "type": "uint256"
        }
      ],
      "name": "creatorBuy",
      "outputs": [],
      "stateMutability": "nonpayable",
      "type": "function"
    },
    {
      "inputs": [],
      "name": "getCurrentPrice",
      "outputs": [
        {
          "internalType": "uint256",
          "name": "",
          "type": "uint256"
        }
      ],
      "stateMutability": "view",
      "type": "function"
    },
    {
      "inputs": [
        {
          "internalType": "uint256",
          "name": "tokenAmount",
          "type": "uint256"
        }
      ],
      "name": "getETHForTokens",
      "outputs": [
        {
          "internalType": "uint256",
          "name": "",
          "type": "uint256"
        }
      ],
      "stateMutability": "view",
      "type": "function"
    },
    {
      "inputs": [],
      "name": "getRaisedAmount",
      "outputs": [
        {
          "internalType": "uint256",
          "name": "",
          "type": "uint256"
        }
      ],
      "stateMutability": "view",
      "type": "function"
    },
    {
      "inputs": [
        {
          "internalType": "uint256",
          "name": "_ethAmount",
          "type": "uint256"
        }
      ],
      "name": "getTokensForETH",
      "outputs": [
        {
          "internalType": "uint256",
          "name": "",
          "type": "uint256"
        }
      ],
      "stateMutability": "view",
      "type": "function"
    },
    {
      "inputs": [],
      "name": "getTotalSoldAmount",
      "outputs": [
        {
          "internalType": "uint256",
          "name": "",
          "type": "uint256"
        }
      ],
      "stateMutability": "view",
      "type": "function"
    },
    {
      "inputs": [
        {
          "internalType": "address",
          "name": "",
          "type": "address"
        }
      ],
      "name": "lastTradeTime",
      "outputs": [
        {
          "internalType": "uint256",
          "name": "",
          "type": "uint256"
        }
      ],
      "stateMutability": "view",
      "type": "function"
    },
    {
      "inputs": [],
      "name": "owner",
      "outputs": [
        {
          "internalType": "address",
          "name": "",
          "type": "address"
        }
      ],
      "stateMutability": "view",
      "type": "function"
    },
    {
      "inputs": [],
      "name": "pair",
      "outputs": [
        {
          "internalType": "address",
          "name": "",
          "type": "address"
        }
      ],
      "stateMutability": "view",
      "type": "function"
    },
    {
      "inputs": [],
      "name": "pancakeSwapRouter",
      "outputs": [
        {
          "internalType": "contract IUniswapV2Router01",
          "name": "",
          "type": "address"
        }
      ],
      "stateMutability": "view",
      "type": "function"
    },
    {
      "inputs": [],
      "name": "renounceOwnership",
      "outputs": [],
      "stateMutability": "nonpayable",
      "type": "function"
    },
    {
      "inputs": [
        {
          "internalType": "uint256",
          "name": "tokenAmount",
          "type": "uint256"
        }
      ],
      "name": "sellTokens",
      "outputs": [],
      "stateMutability": "nonpayable",
      "type": "function"
    },
    {
      "inputs": [],
      "name": "totalRaisedAmount",
      "outputs": [
        {
          "internalType": "uint256",
          "name": "",
          "type": "uint256"
        }
      ],
      "stateMutability": "view",
      "type": "function"
    },
    {
      "inputs": [],
      "name": "totalSoldAmount",
      "outputs": [
        {
          "internalType": "uint256",
          "name": "",
          "type": "uint256"
        }
      ],
      "stateMutability": "view",
      "type": "function"
    },
    {
      "inputs": [
        {
          "internalType": "address",
          "name": "newOwner",
          "type": "address"
        }
      ],
      "name": "transferOwnership",
      "outputs": [],
      "stateMutability": "nonpayable",
      "type": "function"
    },
    {
      "stateMutability": "payable",
      "type": "receive"
    }
  ],
  "bytecode": "0x60a034620001eb57601f620018ba38819003918201601f191683019291906001600160401b03841183851017620001f0578160609284926040968752833981010312620001eb57620000518162000206565b9082620000616020830162000206565b910151916001600160a01b039182168015620001d357600080546001600160a01b0319808216841783558751929592949093909183167f8be0079c531659141344cd1fd0a4f28419497f9722a3daafe3b4186f6b6457e08780a36001805584600855846009551691821562000191575083156200015c5760025416176002558160045560328202908282046032036200014857506103e8900460065573d99d1c33f9fc3444f8101754abc46c52416550d16080526f120e3b5b985fdefbb61c8765e3000000046005555161169e90816200021c82396080518181816102b50152610edd0152f35b634e487b7160e01b81526011600452602490fd5b845162461bcd60e51b815260206004820152600e60248201526d496e76616c696420737570706c7960901b6044820152606490fd5b62461bcd60e51b815260206004820152601560248201527f496e76616c696420746f6b656e206164647265737300000000000000000000006044820152606490fd5b8451631e4fbdf760e01b815260006004820152602490fd5b600080fd5b634e487b7160e01b600052604160045260246000fd5b51906001600160a01b0382168203620001eb5756fe6080604081815260048036101561001e575b505050361561001c57005b005b600092833560e01c90816303186eef14610f3057508063031c439d14610f0c5780632455899514610ec8578063322d210014610ea857806332cb6b0c14610e8b57806354d0a68514610476578063617d7940146107f357806362064ca014610e6457806366cb3a4214610e4457806369fcd4ac14610e085780636c11bcd314610a3b5780636c1516e114610a185780636dbaadfe146109e9578063715018a61461098f5780637bfe170d146109745780637c5e2795146109555780638b7cc629146109365780638da5cb5b1461090e5780638e75e482146107ab5780638e78a1f71461082f578063918f867414610812578063933bdb90146107f35780639c98676414610258578063a8aa1b31146107ca578063ac369bb5146107ab578063adace2921461078f578063b05707e914610766578063b5e19d2314610743578063d0febe4c1461047b578063d9d8b48f14610476578063e8078d941461025d578063eaf98d2314610258578063eb91d37e146102305763f2fde38b03610011573461022c57602036600319011261022c576101b6610f64565b906101bf610fbd565b6001600160a01b03918216928315610216575050600054826bffffffffffffffffffffffff60a01b821617600055167f8be0079c531659141344cd1fd0a4f28419497f9722a3daafe3b4186f6b6457e0600080a380f35b51631e4fbdf760e01b8152908101849052602490fd5b8280fd5b50503461025457816003193601126102545760209061024d610fe9565b9051908152f35b5080fd5b610fa1565b508260031936011261022c5760025482516370a0823160e01b815230838201529260209290916001600160a01b0391908216908486602481855afa95861561046c578796610438575b50835163095ea7b360e01b81527f000000000000000000000000000000000000000000000000000000000000000084166001600160a01b0381168383019081526020810189905247959194919291889183919082908d90829060400103925af1801561042e576103ef575b509060609360c49260025416938651988995869463f305d71960e01b865285015260248401528960448401528160648401523360848401524260a48401525af19283156103e557849285946103a5575b505051908152602081019190915242604082015233907f64b83944e79c3ce8d4c297411de637c3e102d064677aac0c163976ebdcd6f50e9080606081015b0390a280f35b91935091506060823d82116103dd575b816103c26060938361130f565b810103126103d9578151910151918161039f610361565b8380fd5b3d91506103b5565b81513d86823e3d90fd5b8681819493943d8311610427575b610407818361130f565b8101031261042357518015150361041f579038610311565b8780fd5b8880fd5b503d6103fd565b86513d8b823e3d90fd5b9095508481813d8311610465575b610450818361130f565b81010312610460575194386102a6565b600080fd5b503d610446565b84513d89823e3d90fd5b610f7a565b508260031936011261022c5761048f611515565b34156107115733835260076020526104ac828420544210156114de565b6104b53461147c565b906b033b2e3c9fd0803ce800000082116106dc576104d582600854611538565b8154106106995783906103e86104ea846115ea565b04906104f68285611591565b6002546001600160a01b0391908216803b15610695578751634c420c3b60e01b8152338582019081526020810193909352918691839182908490829060400103925af190811561068b578591610677575b505061055585600854611538565b60085561056434600954611538565b6009556002541691823b156103d9578551632770a7eb60e21b815233928101928352602083019190915291839183919082908490829060400103925af1801561066d57610659575b505061064f7f150edd20b748bc680273d4bc59d5659c3229edf2f102c013595b9b3238e15886913385526007602052428486205583517f0d1a0d5e3d583a0e92588799dd06e50fd78c07daf05f0cc06d7b848b1ca445f1339180610623428634846040919493926060820195825260208201520152565b0390a261063081346110f4565b9351908152602081019390935242604084015233929081906060820190565b0390a26001805580f35b610662906112e5565b61022c5782386105ac565b84513d84823e3d90fd5b610680906112e5565b6103d9578338610547565b87513d87823e3d90fd5b8580fd5b606490602084519162461bcd60e51b8352820152601860248201527f4578636565647320617661696c61626c6520737570706c7900000000000000006044820152fd5b606490602084519162461bcd60e51b8352820152600f60248201526e45786365656473206d61782062757960881b6044820152fd5b6020606492519162461bcd60e51b8352820152600d60248201526c09aeae6e840e6cadcc8408aa89609b1b6044820152fd5b509134610763576020366003190112610763575061024d6020923561147c565b80fd5b50503461025457816003193601126102545760025490516001600160a01b039091168152602090f35b5050346102545781600319360112610254576020905160328152f35b5050346102545781600319360112610254576020906009549051908152f35b50503461025457816003193601126102545760035490516001600160a01b039091168152602090f35b5050346102545781600319360112610254576020906008549051908152f35b505034610254578160031936011261025457602090516103e88152f35b505034610254576060366003190112610254577f150edd20b748bc680273d4bc59d5659c3229edf2f102c013595b9b3238e1588661086b610f64565b6024359261039f6108f26044358094610882610fbd565b61088e82600854611538565b60085561089d88600954611538565b6009558451888152602081018390524260408201526001600160a01b0391909116979088907f0d1a0d5e3d583a0e92588799dd06e50fd78c07daf05f0cc06d7b848b1ca445f19080606081015b0390a26110f4565b9151928352602083019190915242604083015281906060820190565b505034610254578160031936011261025457905490516001600160a01b039091168152602090f35b5050346102545781600319360112610254576020906005549051908152f35b50503461025457816003193601126102545760209051632d98f9408152f35b50503461025457816003193601126102545751908152602090f35b83346107635780600319360112610763576109a8610fbd565b600080546001600160a01b0319811682556001600160a01b03167f8be0079c531659141344cd1fd0a4f28419497f9722a3daafe3b4186f6b6457e08280a380f35b5050346102545781600319360112610254576020905173d99d1c33f9fc3444f8101754abc46c52416550d18152f35b50503461025457816003193601126102545760209051670de0b6b3a76400008152f35b503461022c57602090816003193601126103d957803591610a5a611515565b8215610dd15760025484516370a0823160e01b815233818501526001600160a01b03918216939160249184818481895afa8015610dc75787918a91610d96575b5010610d5e576b033b2e3c9fd0803ce80000008611610d2a5733885260078452610ac9878920544210156114de565b610ad2866114ab565b94854710610ce8576103e8610ae6886115ea565b0491610af28389611591565b91803b15610ce4578951632770a7eb60e21b8082523388830190815260208101959095529390918c9183919082908490829060400103925af18015610cda57610cc3575b50908992916002541691823b156103d95789519182523386830190815260208101919091529091839183919082908490829060400103925af18015610cb957610ca1575b5080808087335af13d15610c9c573d67ffffffffffffffff8111610c8857875190610bae601f8201601f191687018361130f565b815288853d92013e5b15610c52575050916106308161064f9360077f150edd20b748bc680273d4bc59d5659c3229edf2f102c013595b9b3238e1588696338a52524287892055610c0082600854611591565b600855610c0f81600954611591565b60095586518281526020810182905242604082015233907f6db63bebf1e6540277744df32846ebdb98385b1a73f2d5de49b28348add63f509080606081016108ea565b60139060649387519362461bcd60e51b855284015282015272115512081d1c985b9cd9995c8819985a5b1959606a1b6044820152fd5b82604185634e487b7160e01b600052526000fd5b610bb7565b610caa906112e5565b610cb5578638610b7a565b8680fd5b88513d84823e3d90fd5b610cd1909a9193929a6112e5565b98909138610b36565b8a513d8d823e3d90fd5b8a80fd5b875162461bcd60e51b8152808501869052601d818501527f496e73756666696369656e7420636f6e74726163742062616c616e63650000006044820152606490fd5b5060109060649387519362461bcd60e51b85528401528201526f115e18d959591cc81b585e081cd95b1b60821b6044820152fd5b5060149060649387519362461bcd60e51b855284015282015273496e73756666696369656e742062616c616e636560601b6044820152fd5b809250868092503d8311610dc0575b610daf818361130f565b810103126104235786905138610a9a565b503d610da5565b88513d8b823e3d90fd5b835162461bcd60e51b81529182015260126024820152710416d6f756e74206d757374206265203e20360741b604482015260649150fd5b509134610763576020366003190112610763575061024d610e3f602093610e2d610fe9565b90610e39821515611331565b3561124f565b611061565b509134610763576020366003190112610763575061024d602092356114ab565b505034610254578160031936011261025457602090516b0120af69b323b22e9e6000008152f35b503461022c578260031936011261022c5760209250549051908152f35b509134610763576020366003190112610763575061024d6020923561136d565b505034610254578160031936011261025457517f00000000000000000000000000000000000000000000000000000000000000006001600160a01b03168152602090f35b5050346102545781600319360112610254576020905168014d1120d7b16000008152f35b8490843461022c57602036600319011261022c576020926001600160a01b03610f57610f64565b1681526007845220548152f35b600435906001600160a01b038216820361046057565b346104605760003660031901126104605760206040516b033b2e3c9fd0803ce80000008152f35b34610460576000366003190112610460576020604051600a8152f35b6000546001600160a01b03163303610fd157565b60405163118cdaa760e01b8152336004820152602490fd5b6008548015611038576110089061100260055491611061565b9061124f565b632d98f94081018091116110225761101f906111a4565b90565b634e487b7160e01b600052601160045260246000fd5b50632d98f94090565b811561104b570490565b634e487b7160e01b600052601260045260246000fd5b670de0b6b3a76400009190600019838209838202918280831092039180830392146110eb57848210156110c75793807faccb18165bd6fe31ae1cf318dc5b51eee0e1ba569b88cd74c1773b91fac1066994950990828211900360ee1b910360121c170290565b6064908560405191630c740aef60e31b835260048301528060248301526044820152fd5b50509190910490565b670de0b6b3a7640000916000198383099280830292838086109503948086039514611197578285101561117457908291096001821901821680920460028082600302188083028203028083028203028083028203028083028203028083028203028092029003029360018380600003040190848311900302920304170290565b8260649260405192630c740aef60e31b8452600484015260248301526044820152fd5b50509061101f9250611041565b670de0b6b3a764000091906000198382098382029182808310920391808303921461123a576b0120af69b323b22e9e600000908183101561121757947f25691423eb91bd5293d50df7c0e400313fc7c4de4eb66d2ce39b39122250c43b94950990828211900360eb1b910360151c170290565b6064918660405192630c740aef60e31b8452600484015260248301526044820152fd5b50506b0120af69b323b22e9e60000090049150565b909190600019838209838202918280831092039180830392146112d457670de0b6b3a764000090818310156112b657947faccb18165bd6fe31ae1cf318dc5b51eee0e1ba569b88cd74c1773b91fac1066994950990828211900360ee1b910360121c170290565b6044908660405191635173648d60e01b835260048301526024820152fd5b5050670de0b6b3a764000090049150565b67ffffffffffffffff81116112f957604052565b634e487b7160e01b600052604160045260246000fd5b90601f8019910116810190811067ffffffffffffffff8211176112f957604052565b1561133857565b60405162461bcd60e51b815260206004820152600d60248201526c496e76616c696420707269636560981b6044820152606490fd5b90611376610fe9565b604051926040840184811067ffffffffffffffff8211176112f957604052601d84526020937f63616c63756c617465507572636861736552657475726e205052494345000000858201526040519085820195632d839cb360e21b87526040602484015281519182606485015260005b83811061146857505050611445949582611424608482856000838199988299010152896044830152601f8019910116810103606481018452018261130f565b51906a636f6e736f6c652e6c6f675afa50611440821515611331565b6110f4565b600854158061145d575b6114565790565b5060065490565b50600654811161144f565b8181018301518582016084015282016113e5565b6114859061136d565b6008546114928282611538565b6004548091116114a157505090565b61101f9250611591565b610e3f6114cb916114ba610fe9565b906114c6821515611331565b61124f565b6009548181106114d9575090565b905090565b156114e557565b60405162461bcd60e51b81526020600482015260086024820152672a37b79039b7b7b760c11b6044820152606490fd5b600260015414611526576002600155565b604051633ee5aeb560e01b8152600490fd5b9081019081811161102257811061154c5790565b60405162461bcd60e51b815260206004820152601b60248201527f536166654d6174683a206164646974696f6e206f766572666c6f7700000000006044820152606490fd5b908181116115a55781039081116110225790565b60405162461bcd60e51b815260206004820152601e60248201527f536166654d6174683a207375627472616374696f6e206f766572666c6f7700006044820152606490fd5b801561166257600a810290808204600a036110225761160b600a9183611041565b036116135790565b60405162461bcd60e51b815260206004820152602160248201527f536166654d6174683a206d756c7469706c69636174696f6e206f766572666c6f6044820152607760f81b6064820152608490fd5b5060009056fea2646970667358221220ac7c4dad60988c693091bc511eb8c3712895aa4b74e3ef3870dc79f3d983e54d64736f6c63430008140033",
  "linkReferences": {},
  "deployedLinkReferences": {}
}