{
  "_format": "hh-sol-artifact-1",
  "contractName": "BondingCurve",
  "sourceName": "contracts/BondingCurve.sol",
  "abi": [
    {
      "inputs": [
        {
          "internalType": "address",
          "name": "_token",
          "type": "address"
        },
        {
          "internalType": "address",
          "name": "initialOwner",
          "type": "address"
        },
        {
          "internalType": "uint256",
          "name": "initSupply",
          "type": "uint256"
        }
      ],
      "stateMutability": "nonpayable",
      "type": "constructor"
    },
    {
      "inputs": [
        {
          "internalType": "address",
          "name": "owner",
          "type": "address"
        }
      ],
      "name": "OwnableInvalidOwner",
      "type": "error"
    },
    {
      "inputs": [
        {
          "internalType": "address",
          "name": "account",
          "type": "address"
        }
      ],
      "name": "OwnableUnauthorizedAccount",
      "type": "error"
    },
    {
      "inputs": [],
      "name": "ReentrancyGuardReentrantCall",
      "type": "error"
    },
    {
      "anonymous": false,
      "inputs": [
        {
          "indexed": true,
          "internalType": "address",
          "name": "previousOwner",
          "type": "address"
        },
        {
          "indexed": true,
          "internalType": "address",
          "name": "newOwner",
          "type": "address"
        }
      ],
      "name": "OwnershipTransferred",
      "type": "event"
    },
    {
      "anonymous": false,
      "inputs": [
        {
          "indexed": true,
          "internalType": "address",
          "name": "buyer",
          "type": "address"
        },
        {
          "indexed": false,
          "internalType": "uint256",
          "name": "ethAmount",
          "type": "uint256"
        },
        {
          "indexed": false,
          "internalType": "uint256",
          "name": "tokenAmount",
          "type": "uint256"
        },
        {
          "indexed": false,
          "internalType": "uint256",
          "name": "timestamp",
          "type": "uint256"
        }
      ],
      "name": "TokensPurchased",
      "type": "event"
    },
    {
      "anonymous": false,
      "inputs": [
        {
          "indexed": true,
          "internalType": "address",
          "name": "seller",
          "type": "address"
        },
        {
          "indexed": false,
          "internalType": "uint256",
          "name": "tokenAmount",
          "type": "uint256"
        },
        {
          "indexed": false,
          "internalType": "uint256",
          "name": "ethAmount",
          "type": "uint256"
        },
        {
          "indexed": false,
          "internalType": "uint256",
          "name": "timestamp",
          "type": "uint256"
        }
      ],
      "name": "TokensSold",
      "type": "event"
    },
    {
      "anonymous": false,
      "inputs": [
        {
          "indexed": true,
          "internalType": "address",
          "name": "trader",
          "type": "address"
        },
        {
          "indexed": false,
          "internalType": "uint256",
          "name": "amount",
          "type": "uint256"
        },
        {
          "indexed": false,
          "internalType": "uint256",
          "name": "price",
          "type": "uint256"
        },
        {
          "indexed": false,
          "internalType": "uint256",
          "name": "timestamp",
          "type": "uint256"
        }
      ],
      "name": "Trade",
      "type": "event"
    },
    {
      "stateMutability": "payable",
      "type": "fallback"
    },
    {
      "inputs": [],
      "name": "BONDING_TARGET",
      "outputs": [
        {
          "internalType": "uint256",
          "name": "",
          "type": "uint256"
        }
      ],
      "stateMutability": "view",
      "type": "function"
    },
    {
      "inputs": [],
      "name": "BURN_PERCENT",
      "outputs": [
        {
          "internalType": "uint256",
          "name": "",
          "type": "uint256"
        }
      ],
      "stateMutability": "view",
      "type": "function"
    },
    {
      "inputs": [],
      "name": "DENOMINATOR",
      "outputs": [
        {
          "internalType": "uint256",
          "name": "",
          "type": "uint256"
        }
      ],
      "stateMutability": "view",
      "type": "function"
    },
    {
      "inputs": [],
      "name": "FEE_PERCENT",
      "outputs": [
        {
          "internalType": "uint256",
          "name": "",
          "type": "uint256"
        }
      ],
      "stateMutability": "view",
      "type": "function"
    },
    {
      "inputs": [],
      "name": "INITIAL_PRICE",
      "outputs": [
        {
          "internalType": "uint256",
          "name": "",
          "type": "uint256"
        }
      ],
      "stateMutability": "view",
      "type": "function"
    },
    {
      "inputs": [],
      "name": "MAX_BUY_AMOUNT",
      "outputs": [
        {
          "internalType": "uint256",
          "name": "",
          "type": "uint256"
        }
      ],
      "stateMutability": "view",
      "type": "function"
    },
    {
      "inputs": [],
      "name": "MAX_SELL_AMOUNT",
      "outputs": [
        {
          "internalType": "uint256",
          "name": "",
          "type": "uint256"
        }
      ],
      "stateMutability": "view",
      "type": "function"
    },
    {
      "inputs": [],
      "name": "MAX_SUPPLY",
      "outputs": [
        {
          "internalType": "uint256",
          "name": "",
          "type": "uint256"
        }
      ],
      "stateMutability": "view",
      "type": "function"
    },
    {
      "inputs": [],
      "name": "PRICE_DENOMINATOR",
      "outputs": [
        {
          "internalType": "uint256",
          "name": "",
          "type": "uint256"
        }
      ],
      "stateMutability": "view",
      "type": "function"
    },
    {
      "inputs": [],
      "name": "SLOPE",
      "outputs": [
        {
          "internalType": "uint256",
          "name": "",
          "type": "uint256"
        }
      ],
      "stateMutability": "view",
      "type": "function"
    },
    {
      "inputs": [],
      "name": "TRADE_COOLDOWN",
      "outputs": [
        {
          "internalType": "uint256",
          "name": "",
          "type": "uint256"
        }
      ],
      "stateMutability": "view",
      "type": "function"
    },
    {
      "inputs": [],
      "name": "agentToken",
      "outputs": [
        {
          "internalType": "contract AiAgentToken",
          "name": "",
          "type": "address"
        }
      ],
      "stateMutability": "view",
      "type": "function"
    },
    {
      "inputs": [],
      "name": "buyTokens",
      "outputs": [],
      "stateMutability": "payable",
      "type": "function"
    },
    {
      "inputs": [
        {
          "internalType": "uint256",
          "name": "_ethAmount",
          "type": "uint256"
        }
      ],
      "name": "calculatePurchaseReturn",
      "outputs": [
        {
          "internalType": "uint256",
          "name": "",
          "type": "uint256"
        }
      ],
      "stateMutability": "view",
      "type": "function"
    },
    {
      "inputs": [
        {
          "internalType": "uint256",
          "name": "tokenAmount",
          "type": "uint256"
        }
      ],
      "name": "calculateSaleReturn",
      "outputs": [
        {
          "internalType": "uint256",
          "name": "",
          "type": "uint256"
        }
      ],
      "stateMutability": "view",
      "type": "function"
    },
    {
      "inputs": [],
      "name": "getBuyPrice",
      "outputs": [
        {
          "internalType": "uint256",
          "name": "",
          "type": "uint256"
        }
      ],
      "stateMutability": "view",
      "type": "function"
    },
    {
      "inputs": [],
      "name": "getCurrentPrice",
      "outputs": [
        {
          "internalType": "uint256",
          "name": "",
          "type": "uint256"
        }
      ],
      "stateMutability": "view",
      "type": "function"
    },
    {
      "inputs": [
        {
          "internalType": "uint256",
          "name": "tokenAmount",
          "type": "uint256"
        }
      ],
      "name": "getETHForTokens",
      "outputs": [
        {
          "internalType": "uint256",
          "name": "",
          "type": "uint256"
        }
      ],
      "stateMutability": "view",
      "type": "function"
    },
    {
      "inputs": [],
      "name": "getRaisedAmount",
      "outputs": [
        {
          "internalType": "uint256",
          "name": "",
          "type": "uint256"
        }
      ],
      "stateMutability": "view",
      "type": "function"
    },
    {
      "inputs": [],
      "name": "getSellPrice",
      "outputs": [
        {
          "internalType": "uint256",
          "name": "",
          "type": "uint256"
        }
      ],
      "stateMutability": "view",
      "type": "function"
    },
    {
      "inputs": [
        {
          "internalType": "uint256",
          "name": "_ethAmount",
          "type": "uint256"
        }
      ],
      "name": "getTokensForETH",
      "outputs": [
        {
          "internalType": "uint256",
          "name": "",
          "type": "uint256"
        }
      ],
      "stateMutability": "view",
      "type": "function"
    },
    {
      "inputs": [],
      "name": "getTotalSoldAmount",
      "outputs": [
        {
          "internalType": "uint256",
          "name": "",
          "type": "uint256"
        }
      ],
      "stateMutability": "view",
      "type": "function"
    },
    {
      "inputs": [
        {
          "internalType": "uint256",
          "name": "amout",
          "type": "uint256"
        }
      ],
      "name": "increaseTotalSold",
      "outputs": [],
      "stateMutability": "nonpayable",
      "type": "function"
    },
    {
      "inputs": [
        {
          "internalType": "address",
          "name": "",
          "type": "address"
        }
      ],
      "name": "lastTradeTime",
      "outputs": [
        {
          "internalType": "uint256",
          "name": "",
          "type": "uint256"
        }
      ],
      "stateMutability": "view",
      "type": "function"
    },
    {
      "inputs": [],
      "name": "owner",
      "outputs": [
        {
          "internalType": "address",
          "name": "",
          "type": "address"
        }
      ],
      "stateMutability": "view",
      "type": "function"
    },
    {
      "inputs": [],
      "name": "renounceOwnership",
      "outputs": [],
      "stateMutability": "nonpayable",
      "type": "function"
    },
    {
      "inputs": [
        {
          "internalType": "uint256",
          "name": "tokenAmount",
          "type": "uint256"
        }
      ],
      "name": "sellTokens",
      "outputs": [],
      "stateMutability": "nonpayable",
      "type": "function"
    },
    {
      "inputs": [],
      "name": "totalSoldAmount",
      "outputs": [
        {
          "internalType": "uint256",
          "name": "",
          "type": "uint256"
        }
      ],
      "stateMutability": "view",
      "type": "function"
    },
    {
      "inputs": [
        {
          "internalType": "address",
          "name": "newOwner",
          "type": "address"
        }
      ],
      "name": "transferOwnership",
      "outputs": [],
      "stateMutability": "nonpayable",
      "type": "function"
    },
    {
      "stateMutability": "payable",
      "type": "receive"
    }
  ],
  "bytecode": "0x60806040818152346200027a57606082620011838038038091620000248285620002b1565b8339810103126200027a576200003a82620002d5565b916020826200004b828401620002d5565b920151936001600160a01b0392831680156200026257600080546001600160a01b0319808216841783558751929692949093909183167f8be0079c531659141344cd1fd0a4f28419497f9722a3daafe3b4186f6b6457e08880a3600180556001600755169182156200022057506002541617600255629896809384600455600355825193620000da856200027f565b600d85526c494e495449414c5f505249434560981b828601528351918083019284632d839cb360e21b9384865287602484015288519889606485015284835b8b8110620002075750505082620001578392601f9560849c8d92868483850101526044830152871997889101168101036064810184520182620002b1565b516a636f6e736f6c652e6c6f6796875afa50618205806005558651906200017e826200027f565b6005825264534c4f504560d81b84830152875193808501958652886024860152825192836064870152885b848110620001f357505050620001e092601f8386938a8d819d9e9787010152604485015201168101036064810184520182620002b1565b51915afa5051610e989081620002eb8239f35b8181018301518782018d01528201620001a9565b8281018201518682016084015289945086910162000119565b62461bcd60e51b815260048101849052601560248201527f496e76616c696420746f6b656e206164647265737300000000000000000000006044820152606490fd5b8451631e4fbdf760e01b815260006004820152602490fd5b600080fd5b604081019081106001600160401b038211176200029b57604052565b634e487b7160e01b600052604160045260246000fd5b601f909101601f19168101906001600160401b038211908210176200029b57604052565b51906001600160a01b03821682036200027a5756fe60406080815260048036101561001c575b5050361561001a57005b005b600091823560e01c8063018a25e814610bd357806303186eef14610b99578063031c439d14610b75578063322d21001461051a57806332cb6b0c14610b565780633f8a32a914610b2857806343d32e9c14610b0b578063617d79401461056657806366cb3a4214610ac657806369fcd4ac14610ac65780636c11bcd3146106ba5780636c1516e114610697578063715018a61461063d5780637bfe170d146106225780637c5e27951461060457806388d9f5ea1461022f5780638b7cc629146105e55780638da5cb5b146105bd5780638e75e482146105a2578063918f867414610585578063933bdb90146105665780639c9867641461022a578063b05707e91461053d578063b5e19d231461051a578063d0febe4c14610234578063db0e1bdf1461022f578063eaf98d231461022a578063eb91d37e146102025763f2fde38b146101685750610010565b346101fe5760203660031901126101fe576001600160a01b038235818116939192908490036101fa57610199610c33565b83156101e4575050600054826bffffffffffffffffffffffff60a01b821617600055167f8be0079c531659141344cd1fd0a4f28419497f9722a3daafe3b4186f6b6457e0600080a380f35b51631e4fbdf760e01b8152908101849052602490fd5b8480fd5b8280fd5b83823461022657816003193601126102265760209061021f610c95565b9051908152f35b5080fd5b610c17565b610bf0565b50826003193601126101fe57610248610e3f565b34156104e757338352600660205280832054836104d45761026b90421015610dbc565b61027434610d6f565b916b033b2e3c9fd0803ce800000083116104a05761029483600754610c88565b6003541061045e57600a8302838104600a1484151715610449576103e89004906102be8285610ce6565b6002546001600160a01b0391908216803b15610444578551634c420c3b60e01b815233858201908152602081019390935291600091839182908490829060400103925af1801561043957610421575b509085929161031e86600754610c88565b6007556002541691823b1561041d578451632770a7eb60e21b815233928101928352602083019190915291839183919082908490829060400103925af18015610413576103ff575b50507f150edd20b748bc680273d4bc59d5659c3229edf2f102c013595b9b3238e15886903384526006602052428185205580517f0d1a0d5e3d583a0e92588799dd06e50fd78c07daf05f0cc06d7b848b1ca445f13391806103da428834846040919493926060820195825260208201520152565b0390a251918252346020830152426040830152339180606081015b0390a26001805580f35b61040890610df3565b6101fe578238610366565b83513d84823e3d90fd5b8380fd5b61042e9193929650610df3565b60009490913861030d565b85513d6000823e3d90fd5b600080fd5b601182634e487b7160e01b6000525260246000fd5b6020606492519162461bcd60e51b8352820152601860248201527f4578636565647320617661696c61626c6520737570706c7900000000000000006044820152fd5b6020606492519162461bcd60e51b8352820152600f60248201526e45786365656473206d61782062757960881b6044820152fd5b634e487b7160e01b845260118352602484fd5b906020606492519162461bcd60e51b8352820152600d60248201526c09aeae6e840e6cadcc8408aa89609b1b6044820152fd5b50823461053a57602036600319011261053a575061021f60209235610d6f565b80fd5b83823461022657816003193601126102265760025490516001600160a01b039091168152602090f35b8382346102265781600319360112610226576020906007549051908152f35b838234610226578160031936011261022657602090516103e88152f35b83823461022657816003193601126102265751478152602090f35b838234610226578160031936011261022657905490516001600160a01b039091168152602090f35b8382346102265781600319360112610226576020906005549051908152f35b5090346101fe57826003193601126101fe5760209250549051908152f35b83823461022657816003193601126102265751908152602090f35b833461053a578060031936011261053a57610656610c33565b600080546001600160a01b0319811682556001600160a01b03167f8be0079c531659141344cd1fd0a4f28419497f9722a3daafe3b4186f6b6457e08280a380f35b83823461022657816003193601126102265760209051670de0b6b3a76400008152f35b50346101fe576020908160031936011261041d578235916106d9610e3f565b8215610a8f5760025482516370a0823160e01b815233818701526001600160a01b039182169591602491848184818b5afa908115610a85579087918a91610a50575b5010610a18576b033b2e3c9fd0803ce800000086116109e4573388526006845261074a85892054421015610dbc565b670de0b6b3a764000061076f61075e610cf3565b610769811515610d33565b88610c5f565b04968747106109a257600a8702878104600a0361098e576103e89004916107968389610ce6565b91803b15610444578751632770a7eb60e21b80825233888301908152602081019590955293909160009183919082908490829060400103925af180156109835761096b575b50908992916002541691823b1561041d5787519182523386830190815260208101919091529091839183919082908490829060400103925af1801561096157610949575b5080808089335af13d15610944573d67ffffffffffffffff811161093257855190610853601f8201601f1916870183610e1d565b815288853d92013e5b156108fc575050916103f59160067f150edd20b748bc680273d4bc59d5659c3229edf2f102c013595b9b3238e15886943388525242818720556108a182600754610ce6565b60075580518281526020810186905242604082015233907f6db63bebf1e6540277744df32846ebdb98385b1a73f2d5de49b28348add63f5090606090a251908152602081019390935242604084015233929081906060820190565b60139192606494519362461bcd60e51b855284015282015272115512081d1c985b9cd9995c8819985a5b1959606a1b6044820152fd5b634e487b7160e01b8952604184528289fd5b61085c565b61095290610df3565b61095d57863861081f565b8680fd5b86513d84823e3d90fd5b6109789193929a50610df3565b6000989091386107db565b88513d6000823e3d90fd5b83601186634e487b7160e01b600052526000fd5b855162461bcd60e51b8152808501869052601d818501527f496e73756666696369656e7420636f6e74726163742062616c616e63650000006044820152606490fd5b5060109192606494519362461bcd60e51b85528401528201526f115e18d959591cc81b585e081cd95b1b60821b6044820152fd5b5060149192606494519362461bcd60e51b855284015282015273496e73756666696369656e742062616c616e636560601b6044820152fd5b809250868092503d8311610a7e575b610a698183610e1d565b81010312610a7a578690513861071b565b8880fd5b503d610a5f565b86513d8b823e3d90fd5b8390606492519162461bcd60e51b835282015260126024820152710416d6f756e74206d757374206265203e20360741b6044820152fd5b50823461053a57602036600319011261053a5750670de0b6b3a7640000610b03602093610af1610cf3565b90610afd821515610d33565b35610c5f565b049051908152f35b83823461022657816003193601126102265760209061021f610cf3565b50503461022657602036600319011261022657610b5090610b47610c33565b35600754610c88565b60075580f35b8382346102265781600319360112610226576020906003549051908152f35b8382346102265781600319360112610226576020905168014d1120d7b16000008152f35b5090346101fe5760203660031901126101fe57356001600160a01b038116908190036101fe57828291602094526006845220549051908152f35b83823461022657816003193601126102265760209061021f610cbd565b346104445760003660031901126104445760206040516b033b2e3c9fd0803ce80000008152f35b34610444576000366003190112610444576020604051600a8152f35b6000546001600160a01b03163303610c4757565b60405163118cdaa760e01b8152336004820152602490fd5b81810292918115918404141715610c7257565b634e487b7160e01b600052601160045260246000fd5b91908201809211610c7257565b610cba670de0b6b3a7640000610cb060055460075490610c5f565b0460045490610c88565b90565b610cc5610c95565b600a810290808204600a1481151715610c72576103e8610cba920490610c88565b91908203918211610c7257565b670de0b6b3a76400006007541115610d2e57610d0d610c95565b600a810290808204600a1481151715610c72576103e8610cba920490610ce6565b600090565b15610d3a57565b60405162461bcd60e51b815260206004820152600d60248201526c496e76616c696420707269636560981b6044820152606490fd5b610d77610cbd565b908115610d848115610d33565b670de0b6b3a764000091828102928184041490151715610c7257610da6570490565b634e487b7160e01b600052601260045260246000fd5b15610dc357565b60405162461bcd60e51b81526020600482015260086024820152672a37b79039b7b7b760c11b6044820152606490fd5b67ffffffffffffffff8111610e0757604052565b634e487b7160e01b600052604160045260246000fd5b90601f8019910116810190811067ffffffffffffffff821117610e0757604052565b600260015414610e50576002600155565b604051633ee5aeb560e01b8152600490fdfea2646970667358221220d6021a44ca74f173a2536eb0d406b5564b95b054782352c45aeb1192c60b1e7364736f6c63430008140033",
  "linkReferences": {},
  "deployedLinkReferences": {}
}