{
  "_format": "hh-sol-artifact-1",
  "contractName": "BondingCurve",
  "sourceName": "contracts/BondingCurve.sol",
  "abi": [
    {
      "inputs": [
        {
          "internalType": "address",
          "name": "_token",
          "type": "address"
        },
        {
          "internalType": "address",
          "name": "initialOwner",
          "type": "address"
        },
        {
          "internalType": "uint256",
          "name": "initSupply",
          "type": "uint256"
        }
      ],
      "stateMutability": "nonpayable",
      "type": "constructor"
    },
    {
      "inputs": [
        {
          "internalType": "address",
          "name": "owner",
          "type": "address"
        }
      ],
      "name": "OwnableInvalidOwner",
      "type": "error"
    },
    {
      "inputs": [
        {
          "internalType": "address",
          "name": "account",
          "type": "address"
        }
      ],
      "name": "OwnableUnauthorizedAccount",
      "type": "error"
    },
    {
      "inputs": [
        {
          "internalType": "uint256",
          "name": "x",
          "type": "uint256"
        },
        {
          "internalType": "uint256",
          "name": "y",
          "type": "uint256"
        }
      ],
      "name": "PRBMath_MulDiv18_Overflow",
      "type": "error"
    },
    {
      "inputs": [
        {
          "internalType": "uint256",
          "name": "x",
          "type": "uint256"
        },
        {
          "internalType": "uint256",
          "name": "y",
          "type": "uint256"
        },
        {
          "internalType": "uint256",
          "name": "denominator",
          "type": "uint256"
        }
      ],
      "name": "PRBMath_MulDiv_Overflow",
      "type": "error"
    },
    {
      "inputs": [],
      "name": "ReentrancyGuardReentrantCall",
      "type": "error"
    },
    {
      "anonymous": false,
      "inputs": [
        {
          "indexed": true,
          "internalType": "address",
          "name": "provider",
          "type": "address"
        },
        {
          "indexed": false,
          "internalType": "uint256",
          "name": "tokenAmount",
          "type": "uint256"
        },
        {
          "indexed": false,
          "internalType": "uint256",
          "name": "ethAmount",
          "type": "uint256"
        },
        {
          "indexed": false,
          "internalType": "uint256",
          "name": "timestamp",
          "type": "uint256"
        }
      ],
      "name": "LiquidityAdded",
      "type": "event"
    },
    {
      "anonymous": false,
      "inputs": [
        {
          "indexed": true,
          "internalType": "address",
          "name": "previousOwner",
          "type": "address"
        },
        {
          "indexed": true,
          "internalType": "address",
          "name": "newOwner",
          "type": "address"
        }
      ],
      "name": "OwnershipTransferred",
      "type": "event"
    },
    {
      "anonymous": false,
      "inputs": [
        {
          "indexed": true,
          "internalType": "address",
          "name": "buyer",
          "type": "address"
        },
        {
          "indexed": false,
          "internalType": "uint256",
          "name": "ethAmount",
          "type": "uint256"
        },
        {
          "indexed": false,
          "internalType": "uint256",
          "name": "tokenAmount",
          "type": "uint256"
        },
        {
          "indexed": false,
          "internalType": "uint256",
          "name": "timestamp",
          "type": "uint256"
        }
      ],
      "name": "TokensPurchased",
      "type": "event"
    },
    {
      "anonymous": false,
      "inputs": [
        {
          "indexed": true,
          "internalType": "address",
          "name": "seller",
          "type": "address"
        },
        {
          "indexed": false,
          "internalType": "uint256",
          "name": "tokenAmount",
          "type": "uint256"
        },
        {
          "indexed": false,
          "internalType": "uint256",
          "name": "ethAmount",
          "type": "uint256"
        },
        {
          "indexed": false,
          "internalType": "uint256",
          "name": "timestamp",
          "type": "uint256"
        }
      ],
      "name": "TokensSold",
      "type": "event"
    },
    {
      "anonymous": false,
      "inputs": [
        {
          "indexed": true,
          "internalType": "address",
          "name": "trader",
          "type": "address"
        },
        {
          "indexed": false,
          "internalType": "uint256",
          "name": "amount",
          "type": "uint256"
        },
        {
          "indexed": false,
          "internalType": "uint256",
          "name": "price",
          "type": "uint256"
        },
        {
          "indexed": false,
          "internalType": "uint256",
          "name": "timestamp",
          "type": "uint256"
        }
      ],
      "name": "Trade",
      "type": "event"
    },
    {
      "stateMutability": "payable",
      "type": "fallback"
    },
    {
      "inputs": [],
      "name": "BONDING_TARGET",
      "outputs": [
        {
          "internalType": "uint256",
          "name": "",
          "type": "uint256"
        }
      ],
      "stateMutability": "view",
      "type": "function"
    },
    {
      "inputs": [],
      "name": "BURN_PERCENT",
      "outputs": [
        {
          "internalType": "uint256",
          "name": "",
          "type": "uint256"
        }
      ],
      "stateMutability": "view",
      "type": "function"
    },
    {
      "inputs": [],
      "name": "DENOMINATOR",
      "outputs": [
        {
          "internalType": "uint256",
          "name": "",
          "type": "uint256"
        }
      ],
      "stateMutability": "view",
      "type": "function"
    },
    {
      "inputs": [],
      "name": "FEE_PERCENT",
      "outputs": [
        {
          "internalType": "uint256",
          "name": "",
          "type": "uint256"
        }
      ],
      "stateMutability": "view",
      "type": "function"
    },
    {
      "inputs": [],
      "name": "INITIAL_PRICE",
      "outputs": [
        {
          "internalType": "uint256",
          "name": "",
          "type": "uint256"
        }
      ],
      "stateMutability": "view",
      "type": "function"
    },
    {
      "inputs": [],
      "name": "MAX_BUY_AMOUNT",
      "outputs": [
        {
          "internalType": "uint256",
          "name": "",
          "type": "uint256"
        }
      ],
      "stateMutability": "view",
      "type": "function"
    },
    {
      "inputs": [],
      "name": "MAX_SELL_AMOUNT",
      "outputs": [
        {
          "internalType": "uint256",
          "name": "",
          "type": "uint256"
        }
      ],
      "stateMutability": "view",
      "type": "function"
    },
    {
      "inputs": [],
      "name": "MAX_SUPPLY",
      "outputs": [
        {
          "internalType": "uint256",
          "name": "",
          "type": "uint256"
        }
      ],
      "stateMutability": "view",
      "type": "function"
    },
    {
      "inputs": [],
      "name": "PANCAKE_SWAP_ROUTER_V2",
      "outputs": [
        {
          "internalType": "address",
          "name": "",
          "type": "address"
        }
      ],
      "stateMutability": "view",
      "type": "function"
    },
    {
      "inputs": [],
      "name": "PRICE_DENOMINATOR",
      "outputs": [
        {
          "internalType": "uint256",
          "name": "",
          "type": "uint256"
        }
      ],
      "stateMutability": "view",
      "type": "function"
    },
    {
      "inputs": [],
      "name": "PRICE_SCALING_FACTOR",
      "outputs": [
        {
          "internalType": "uint256",
          "name": "",
          "type": "uint256"
        }
      ],
      "stateMutability": "view",
      "type": "function"
    },
    {
      "inputs": [],
      "name": "SLOPE",
      "outputs": [
        {
          "internalType": "UD60x18",
          "name": "",
          "type": "uint256"
        }
      ],
      "stateMutability": "view",
      "type": "function"
    },
    {
      "inputs": [],
      "name": "TRADE_COOLDOWN",
      "outputs": [
        {
          "internalType": "uint256",
          "name": "",
          "type": "uint256"
        }
      ],
      "stateMutability": "view",
      "type": "function"
    },
    {
      "inputs": [],
      "name": "addLiquidity",
      "outputs": [],
      "stateMutability": "payable",
      "type": "function"
    },
    {
      "inputs": [],
      "name": "agentToken",
      "outputs": [
        {
          "internalType": "contract AiAgentToken",
          "name": "",
          "type": "address"
        }
      ],
      "stateMutability": "view",
      "type": "function"
    },
    {
      "inputs": [],
      "name": "buyTokens",
      "outputs": [],
      "stateMutability": "payable",
      "type": "function"
    },
    {
      "inputs": [
        {
          "internalType": "uint256",
          "name": "_ethAmount",
          "type": "uint256"
        }
      ],
      "name": "calculatePurchaseReturn",
      "outputs": [
        {
          "internalType": "uint256",
          "name": "",
          "type": "uint256"
        }
      ],
      "stateMutability": "view",
      "type": "function"
    },
    {
      "inputs": [
        {
          "internalType": "uint256",
          "name": "tokenAmount",
          "type": "uint256"
        }
      ],
      "name": "calculateSaleReturn",
      "outputs": [
        {
          "internalType": "uint256",
          "name": "",
          "type": "uint256"
        }
      ],
      "stateMutability": "view",
      "type": "function"
    },
    {
      "inputs": [
        {
          "internalType": "address",
          "name": "buyer",
          "type": "address"
        },
        {
          "internalType": "uint256",
          "name": "ethValue",
          "type": "uint256"
        },
        {
          "internalType": "uint256",
          "name": "tokenAmount",
          "type": "uint256"
        }
      ],
      "name": "creatorBuyEvent",
      "outputs": [],
      "stateMutability": "nonpayable",
      "type": "function"
    },
    {
      "inputs": [],
      "name": "getCurrentPrice",
      "outputs": [
        {
          "internalType": "uint256",
          "name": "",
          "type": "uint256"
        }
      ],
      "stateMutability": "view",
      "type": "function"
    },
    {
      "inputs": [
        {
          "internalType": "uint256",
          "name": "tokenAmount",
          "type": "uint256"
        }
      ],
      "name": "getETHForTokens",
      "outputs": [
        {
          "internalType": "uint256",
          "name": "",
          "type": "uint256"
        }
      ],
      "stateMutability": "view",
      "type": "function"
    },
    {
      "inputs": [],
      "name": "getRaisedAmount",
      "outputs": [
        {
          "internalType": "uint256",
          "name": "",
          "type": "uint256"
        }
      ],
      "stateMutability": "view",
      "type": "function"
    },
    {
      "inputs": [
        {
          "internalType": "uint256",
          "name": "_ethAmount",
          "type": "uint256"
        }
      ],
      "name": "getTokensForETH",
      "outputs": [
        {
          "internalType": "uint256",
          "name": "",
          "type": "uint256"
        }
      ],
      "stateMutability": "view",
      "type": "function"
    },
    {
      "inputs": [],
      "name": "getTotalSoldAmount",
      "outputs": [
        {
          "internalType": "uint256",
          "name": "",
          "type": "uint256"
        }
      ],
      "stateMutability": "view",
      "type": "function"
    },
    {
      "inputs": [
        {
          "internalType": "address",
          "name": "",
          "type": "address"
        }
      ],
      "name": "lastTradeTime",
      "outputs": [
        {
          "internalType": "uint256",
          "name": "",
          "type": "uint256"
        }
      ],
      "stateMutability": "view",
      "type": "function"
    },
    {
      "inputs": [],
      "name": "owner",
      "outputs": [
        {
          "internalType": "address",
          "name": "",
          "type": "address"
        }
      ],
      "stateMutability": "view",
      "type": "function"
    },
    {
      "inputs": [],
      "name": "pair",
      "outputs": [
        {
          "internalType": "address",
          "name": "",
          "type": "address"
        }
      ],
      "stateMutability": "view",
      "type": "function"
    },
    {
      "inputs": [],
      "name": "pancakeSwapRouter",
      "outputs": [
        {
          "internalType": "contract IUniswapV2Router01",
          "name": "",
          "type": "address"
        }
      ],
      "stateMutability": "view",
      "type": "function"
    },
    {
      "inputs": [],
      "name": "renounceOwnership",
      "outputs": [],
      "stateMutability": "nonpayable",
      "type": "function"
    },
    {
      "inputs": [
        {
          "internalType": "uint256",
          "name": "tokenAmount",
          "type": "uint256"
        }
      ],
      "name": "sellTokens",
      "outputs": [],
      "stateMutability": "nonpayable",
      "type": "function"
    },
    {
      "inputs": [],
      "name": "totalRaisedAmount",
      "outputs": [
        {
          "internalType": "uint256",
          "name": "",
          "type": "uint256"
        }
      ],
      "stateMutability": "view",
      "type": "function"
    },
    {
      "inputs": [],
      "name": "totalSoldAmount",
      "outputs": [
        {
          "internalType": "uint256",
          "name": "",
          "type": "uint256"
        }
      ],
      "stateMutability": "view",
      "type": "function"
    },
    {
      "inputs": [
        {
          "internalType": "address",
          "name": "newOwner",
          "type": "address"
        }
      ],
      "name": "transferOwnership",
      "outputs": [],
      "stateMutability": "nonpayable",
      "type": "function"
    },
    {
      "stateMutability": "payable",
      "type": "receive"
    }
  ],
  "bytecode": "0x60a06040818152346200035d5760608262001a80803803809162000024828562000394565b8339810103126200035d576200003a82620003b8565b91602092826200004c858401620003b8565b9201516001600160a01b0392909190831680156200034557600080546001600160a01b0319808216841783558751929692949093909183167f8be0079c531659141344cd1fd0a4f28419497f9722a3daafe3b4186f6b6457e08880a3600180558560075585600855169182156200030357508215620002ce5760025416176002558060045573d99d1c33f9fc3444f8101754abc46c52416550d160805262000128816f120e3b5b8220bb85d54f147ade00000004806005558451620001118162000362565b6005815264534c4f504560d81b87820152620003cd565b8251620001358162000362565b600d81526c494e495449414c5f505249434560981b85820152835194808601928487632d839cb360e21b9485875288602483015280519081606484015285845b838110620002b2575050509180601f9492620001bf620001fa9560849d818f92838791840101526401c7f9bc8060448301528919998a910116810103606481018452018262000394565b516a636f6e736f6c652e6c6f6798895afa508751620001de8162000362565b600a8152694d41585f535550504c5960b01b85820152620003cd565b8551620002078162000362565b600e81526d1093d391125391d7d5105491d15560921b83820152865192808401948552876024850152815191826064860152875b8381106200029e5750505096826200027b92601f8a8985819c9d8601015268014d1120d7b160000060448501520116810103606481018452018262000394565b51915afa505161162490816200045c82396080518181816102aa0152610e840152f35b8181018301518682018c015282016200023b565b8083018201518d8201608401528a95508c945087910162000175565b845162461bcd60e51b815260048101879052600e60248201526d496e76616c696420737570706c7960901b6044820152606490fd5b62461bcd60e51b815260048101879052601560248201527f496e76616c696420746f6b656e206164647265737300000000000000000000006044820152606490fd5b8451631e4fbdf760e01b815260006004820152602490fd5b600080fd5b604081019081106001600160401b038211176200037e57604052565b634e487b7160e01b600052604160045260246000fd5b601f909101601f19168101906001600160401b038211908210176200037e57604052565b51906001600160a01b03821682036200035d57565b6040519060209283830193632d839cb360e21b85526040602485015282519283606486015260005b8481106200044657505050916200043360848284600097959688848199850101526044830152601f8019910116810103606481018452018262000394565b51906a636f6e736f6c652e6c6f675afa50565b818101830151868201608401528201620003f556fe6080604081815260048036101561001e575b505050361561001c57005b005b600092833560e01c90816303186eef14610ed757508063031c439d14610eb35780632455899514610e6f578063322d210014610e4f57806332cb6b0c14610e32578063617d79401461087b57806362064ca014610e0b57806366cb3a4214610deb57806369fcd4ac14610daf5780636c11bcd3146109e55780636c1516e1146109c25780636dbaadfe14610993578063715018a6146109395780637bfe170d1461091e5780637c5e2795146108fe57806388d9f5ea1461051c5780638b7cc629146108df5780638da5cb5b146108b75780638e75e48214610833578063918f86741461089a578063933bdb901461087b5780639c9867641461024d578063a8aa1b3114610852578063ac369bb514610833578063b05707e91461080a578063b5e19d23146107e7578063d0febe4c14610521578063db0e1bdf1461051c578063e371d01b1461046b578063e8078d9414610252578063eaf98d231461024d578063eb91d37e146102255763f2fde38b036100115734610221576020366003190112610221576101ab610f0b565b906101b4610f64565b6001600160a01b0391821692831561020b575050600054826bffffffffffffffffffffffff60a01b821617600055167f8be0079c531659141344cd1fd0a4f28419497f9722a3daafe3b4186f6b6457e0600080a380f35b51631e4fbdf760e01b8152908101849052602490fd5b8280fd5b505034610249578160031936011261024957602090610242610f90565b9051908152f35b5080fd5b610f48565b50826003193601126102215760025482516370a0823160e01b815230838201529260209290916001600160a01b0391908216908486602481855afa95861561046157879661042d575b50835163095ea7b360e01b81527f000000000000000000000000000000000000000000000000000000000000000084166001600160a01b0381168383019081526020810189905247959194919291889183919082908d90829060400103925af18015610423576103e4575b509060609360c49260025416938651988995869463f305d71960e01b865285015260248401528960448401528160648401523360848401524260a48401525af19283156103da578492859461039a575b505051908152602081019190915242604082015233907f64b83944e79c3ce8d4c297411de637c3e102d064677aac0c163976ebdcd6f50e9080606081015b0390a280f35b91935091506060823d82116103d2575b816103b7606093836112b8565b810103126103ce5781519101519181610394610356565b8380fd5b3d91506103aa565b81513d86823e3d90fd5b8681819493943d831161041c575b6103fc81836112b8565b81010312610418575180151503610414579038610306565b8780fd5b8880fd5b503d6103f2565b86513d8b823e3d90fd5b9095508481813d831161045a575b61044581836112b8565b810103126104555751943861029b565b600080fd5b503d61043b565b84513d89823e3d90fd5b505034610249576060366003190112610249577f150edd20b748bc680273d4bc59d5659c3229edf2f102c013595b9b3238e158866104a7610f0b565b602435610394604435926104b9610f64565b8551838152602081018590524260408201526001600160a01b0391909116959086907f0d1a0d5e3d583a0e92588799dd06e50fd78c07daf05f0cc06d7b848b1ca445f190606090a251928352602083019190915242604083015281906060820190565b610f21565b50826003193601126102215761053561149b565b34156107b557338352600660205261055282842054421015611464565b61055b34611402565b906b033b2e3c9fd0803ce800000082116107805761057b826007546114be565b81541061073d5783906103e861059084611570565b049061059c8285611517565b6002546001600160a01b0391908216803b15610739578751634c420c3b60e01b8152338582019081526020810193909352918691839182908490829060400103925af190811561072f57859161071b575b50506105fb856007546114be565b60075561060a346008546114be565b6008556002541691823b156103ce578551632770a7eb60e21b815233928101928352602083019190915291839183919082908490829060400103925af18015610711576106fd575b50506106f37f150edd20b748bc680273d4bc59d5659c3229edf2f102c013595b9b3238e15886913385526006602052428486205583517f0d1a0d5e3d583a0e92588799dd06e50fd78c07daf05f0cc06d7b848b1ca445f13391806106c9428634846040919493926060820195825260208201520152565b0390a26106d4610f90565b9351908152602081019390935242604084015233929081906060820190565b0390a26001805580f35b6107069061128e565b610221578238610652565b84513d84823e3d90fd5b6107249061128e565b6103ce5783386105ed565b87513d87823e3d90fd5b8580fd5b606490602084519162461bcd60e51b8352820152601860248201527f4578636565647320617661696c61626c6520737570706c7900000000000000006044820152fd5b606490602084519162461bcd60e51b8352820152600f60248201526e45786365656473206d61782062757960881b6044820152fd5b6020606492519162461bcd60e51b8352820152600d60248201526c09aeae6e840e6cadcc8408aa89609b1b6044820152fd5b509134610807576020366003190112610807575061024260209235611402565b80fd5b50503461024957816003193601126102495760025490516001600160a01b039091168152602090f35b5050346102495781600319360112610249576020906008549051908152f35b50503461024957816003193601126102495760035490516001600160a01b039091168152602090f35b5050346102495781600319360112610249576020906007549051908152f35b505034610249578160031936011261024957602090516103e88152f35b505034610249578160031936011261024957905490516001600160a01b039091168152602090f35b5050346102495781600319360112610249576020906005549051908152f35b505034610249578160031936011261024957602090516401c7f9bc808152f35b50503461024957816003193601126102495751908152602090f35b8334610807578060031936011261080757610952610f64565b600080546001600160a01b0319811682556001600160a01b03167f8be0079c531659141344cd1fd0a4f28419497f9722a3daafe3b4186f6b6457e08280a380f35b5050346102495781600319360112610249576020905173d99d1c33f9fc3444f8101754abc46c52416550d18152f35b50503461024957816003193601126102495760209051670de0b6b3a76400008152f35b503461022157602090816003193601126103ce57803591610a0461149b565b8215610d785760025484516370a0823160e01b815233818501526001600160a01b03918216939160249184818481895afa8015610d6e5787918a91610d3d575b5010610d05576b033b2e3c9fd0803ce80000008611610cd15733885260068452610a7387892054421015611464565b610a7c86611431565b94854710610c8f576103e8610a9088611570565b0491610a9c8389611517565b91803b15610c8b578951632770a7eb60e21b8082523388830190815260208101959095529390918c9183919082908490829060400103925af18015610c8157610c6a575b50908992916002541691823b156103ce5789519182523386830190815260208101919091529091839183919082908490829060400103925af18015610c6057610c48575b5080808087335af13d15610c43573d67ffffffffffffffff8111610c2f57875190610b58601f8201601f19168701836112b8565b815288853d92013e5b15610bf9575050916106f39160067f150edd20b748bc680273d4bc59d5659c3229edf2f102c013595b9b3238e1588694338852524285872055610ba682600754611517565b600755610bb581600854611517565b6008558451828152602081019190915242604082015233907f6db63bebf1e6540277744df32846ebdb98385b1a73f2d5de49b28348add63f509080606081016106c9565b60139060649387519362461bcd60e51b855284015282015272115512081d1c985b9cd9995c8819985a5b1959606a1b6044820152fd5b82604185634e487b7160e01b600052526000fd5b610b61565b610c519061128e565b610c5c578638610b24565b8680fd5b88513d84823e3d90fd5b610c78909a9193929a61128e565b98909138610ae0565b8a513d8d823e3d90fd5b8a80fd5b875162461bcd60e51b8152808501869052601d818501527f496e73756666696369656e7420636f6e74726163742062616c616e63650000006044820152606490fd5b5060109060649387519362461bcd60e51b85528401528201526f115e18d959591cc81b585e081cd95b1b60821b6044820152fd5b5060149060649387519362461bcd60e51b855284015282015273496e73756666696369656e742062616c616e636560601b6044820152fd5b809250868092503d8311610d67575b610d5681836112b8565b810103126104185786905138610a44565b503d610d4c565b88513d8b823e3d90fd5b835162461bcd60e51b81529182015260126024820152710416d6f756e74206d757374206265203e20360741b604482015260649150fd5b5091346108075760203660031901126108075750610242610de6602093610dd4610f90565b90610de08215156112da565b356111f8565b61100a565b509134610807576020366003190112610807575061024260209235611431565b505034610249578160031936011261024957602090516b01180b991d7c9ff2584000008152f35b503461022157826003193601126102215760209250549051908152f35b509134610807576020366003190112610807575061024260209235611316565b505034610249578160031936011261024957517f00000000000000000000000000000000000000000000000000000000000000006001600160a01b03168152602090f35b5050346102495781600319360112610249576020905168014d1120d7b16000008152f35b84908434610221576020366003190112610221576020926001600160a01b03610efe610f0b565b1681526006845220548152f35b600435906001600160a01b038216820361045557565b346104555760003660031901126104555760206040516b033b2e3c9fd0803ce80000008152f35b34610455576000366003190112610455576020604051600a8152f35b6000546001600160a01b03163303610f7857565b60405163118cdaa760e01b8152336004820152602490fd5b6007548015610fe057610faf90610fa96005549161100a565b906111f8565b6401c7f9bc808101809111610fca57610fc79061109d565b90565b634e487b7160e01b600052601160045260246000fd5b506401c7f9bc8090565b8115610ff4570490565b634e487b7160e01b600052601260045260246000fd5b670de0b6b3a764000091906000198382098382029182808310920391808303921461109457848210156110705793807faccb18165bd6fe31ae1cf318dc5b51eee0e1ba569b88cd74c1773b91fac1066994950990828211900360ee1b910360121c170290565b6064908560405191630c740aef60e31b835260048301528060248301526044820152fd5b50509190910490565b670de0b6b3a7640000919060001983820983820291828083109203918083039214611133576b01180b991d7c9ff258400000908183101561111057947fb9342bbdee8b358a6c0ef32db5914bc4d397c610a928339f2b1fded0793e9aa194950990828211900360ea1b910360161c170290565b6064918660405192630c740aef60e31b8452600484015260248301526044820152fd5b50506b01180b991d7c9ff25840000090049150565b670de0b6b3a76400009160001983830992808302928380861095039480860395146111eb57828510156111c857908291096001821901821680920460028082600302188083028203028083028203028083028203028083028203028083028203028092029003029360018380600003040190848311900302920304170290565b8260649260405192630c740aef60e31b8452600484015260248301526044820152fd5b505090610fc79250610fea565b9091906000198382098382029182808310920391808303921461127d57670de0b6b3a7640000908183101561125f57947faccb18165bd6fe31ae1cf318dc5b51eee0e1ba569b88cd74c1773b91fac1066994950990828211900360ee1b910360121c170290565b6044908660405191635173648d60e01b835260048301526024820152fd5b5050670de0b6b3a764000090049150565b67ffffffffffffffff81116112a257604052565b634e487b7160e01b600052604160045260246000fd5b90601f8019910116810190811067ffffffffffffffff8211176112a257604052565b156112e157565b60405162461bcd60e51b815260206004820152600d60248201526c496e76616c696420707269636560981b6044820152606490fd5b9061131f610f90565b604051926040840184811067ffffffffffffffff8211176112a257604052601d84526020937f63616c63756c617465507572636861736552657475726e205052494345000000858201526040519085820195632d839cb360e21b87526040602484015281519182606485015260005b8381106113ee57505050610fc79495826113cd608482856000838199988299010152896044830152601f801991011681010360648101845201826112b8565b51906a636f6e736f6c652e6c6f675afa506113e98215156112da565b611148565b81810183015185820160840152820161138e565b61140b90611316565b60075461141882826114be565b60045480911161142757505090565b610fc79250611517565b610de661145191611440610f90565b9061144c8215156112da565b6111f8565b60085481811061145f575090565b905090565b1561146b57565b60405162461bcd60e51b81526020600482015260086024820152672a37b79039b7b7b760c11b6044820152606490fd5b6002600154146114ac576002600155565b604051633ee5aeb560e01b8152600490fd5b90810190818111610fca5781106114d25790565b60405162461bcd60e51b815260206004820152601b60248201527f536166654d6174683a206164646974696f6e206f766572666c6f7700000000006044820152606490fd5b9081811161152b578103908111610fca5790565b60405162461bcd60e51b815260206004820152601e60248201527f536166654d6174683a207375627472616374696f6e206f766572666c6f7700006044820152606490fd5b80156115e857600a810290808204600a03610fca57611591600a9183610fea565b036115995790565b60405162461bcd60e51b815260206004820152602160248201527f536166654d6174683a206d756c7469706c69636174696f6e206f766572666c6f6044820152607760f81b6064820152608490fd5b5060009056fea2646970667358221220e46f20de7a7a9b5fe3cbc6c027cdb1c096acecde552931689e7ef860e0d2e53764736f6c63430008140033",
  "linkReferences": {},
  "deployedLinkReferences": {}
}