{
  "_format": "hh-sol-artifact-1",
  "contractName": "BondingCurve",
  "sourceName": "contracts/BondingCurve.sol",
  "abi": [
    {
      "inputs": [
        {
          "internalType": "address",
          "name": "_token",
          "type": "address"
        },
        {
          "internalType": "address",
          "name": "initialOwner",
          "type": "address"
        },
        {
          "internalType": "uint256",
          "name": "initSupply",
          "type": "uint256"
        }
      ],
      "stateMutability": "nonpayable",
      "type": "constructor"
    },
    {
      "inputs": [
        {
          "internalType": "address",
          "name": "owner",
          "type": "address"
        }
      ],
      "name": "OwnableInvalidOwner",
      "type": "error"
    },
    {
      "inputs": [
        {
          "internalType": "address",
          "name": "account",
          "type": "address"
        }
      ],
      "name": "OwnableUnauthorizedAccount",
      "type": "error"
    },
    {
      "inputs": [],
      "name": "ReentrancyGuardReentrantCall",
      "type": "error"
    },
    {
      "anonymous": false,
      "inputs": [
        {
          "indexed": true,
          "internalType": "address",
          "name": "previousOwner",
          "type": "address"
        },
        {
          "indexed": true,
          "internalType": "address",
          "name": "newOwner",
          "type": "address"
        }
      ],
      "name": "OwnershipTransferred",
      "type": "event"
    },
    {
      "anonymous": false,
      "inputs": [
        {
          "indexed": true,
          "internalType": "address",
          "name": "buyer",
          "type": "address"
        },
        {
          "indexed": false,
          "internalType": "uint256",
          "name": "ethAmount",
          "type": "uint256"
        },
        {
          "indexed": false,
          "internalType": "uint256",
          "name": "tokenAmount",
          "type": "uint256"
        },
        {
          "indexed": false,
          "internalType": "uint256",
          "name": "timestamp",
          "type": "uint256"
        }
      ],
      "name": "TokensPurchased",
      "type": "event"
    },
    {
      "anonymous": false,
      "inputs": [
        {
          "indexed": true,
          "internalType": "address",
          "name": "seller",
          "type": "address"
        },
        {
          "indexed": false,
          "internalType": "uint256",
          "name": "tokenAmount",
          "type": "uint256"
        },
        {
          "indexed": false,
          "internalType": "uint256",
          "name": "ethAmount",
          "type": "uint256"
        },
        {
          "indexed": false,
          "internalType": "uint256",
          "name": "timestamp",
          "type": "uint256"
        }
      ],
      "name": "TokensSold",
      "type": "event"
    },
    {
      "anonymous": false,
      "inputs": [
        {
          "indexed": true,
          "internalType": "address",
          "name": "trader",
          "type": "address"
        },
        {
          "indexed": false,
          "internalType": "uint256",
          "name": "amount",
          "type": "uint256"
        },
        {
          "indexed": false,
          "internalType": "uint256",
          "name": "price",
          "type": "uint256"
        },
        {
          "indexed": false,
          "internalType": "uint256",
          "name": "timestamp",
          "type": "uint256"
        }
      ],
      "name": "Trade",
      "type": "event"
    },
    {
      "stateMutability": "payable",
      "type": "fallback"
    },
    {
      "inputs": [],
      "name": "BONDING_TARGET",
      "outputs": [
        {
          "internalType": "uint256",
          "name": "",
          "type": "uint256"
        }
      ],
      "stateMutability": "view",
      "type": "function"
    },
    {
      "inputs": [],
      "name": "BURN_PERCENT",
      "outputs": [
        {
          "internalType": "uint256",
          "name": "",
          "type": "uint256"
        }
      ],
      "stateMutability": "view",
      "type": "function"
    },
    {
      "inputs": [],
      "name": "DENOMINATOR",
      "outputs": [
        {
          "internalType": "uint256",
          "name": "",
          "type": "uint256"
        }
      ],
      "stateMutability": "view",
      "type": "function"
    },
    {
      "inputs": [],
      "name": "FEE_PERCENT",
      "outputs": [
        {
          "internalType": "uint256",
          "name": "",
          "type": "uint256"
        }
      ],
      "stateMutability": "view",
      "type": "function"
    },
    {
      "inputs": [],
      "name": "INITIAL_PRICE",
      "outputs": [
        {
          "internalType": "uint256",
          "name": "",
          "type": "uint256"
        }
      ],
      "stateMutability": "view",
      "type": "function"
    },
    {
      "inputs": [],
      "name": "MAX_BUY_AMOUNT",
      "outputs": [
        {
          "internalType": "uint256",
          "name": "",
          "type": "uint256"
        }
      ],
      "stateMutability": "view",
      "type": "function"
    },
    {
      "inputs": [],
      "name": "MAX_SELL_AMOUNT",
      "outputs": [
        {
          "internalType": "uint256",
          "name": "",
          "type": "uint256"
        }
      ],
      "stateMutability": "view",
      "type": "function"
    },
    {
      "inputs": [],
      "name": "MAX_SUPPLY",
      "outputs": [
        {
          "internalType": "uint256",
          "name": "",
          "type": "uint256"
        }
      ],
      "stateMutability": "view",
      "type": "function"
    },
    {
      "inputs": [],
      "name": "PRICE_DENOMINATOR",
      "outputs": [
        {
          "internalType": "uint256",
          "name": "",
          "type": "uint256"
        }
      ],
      "stateMutability": "view",
      "type": "function"
    },
    {
      "inputs": [],
      "name": "SLOPE",
      "outputs": [
        {
          "internalType": "uint256",
          "name": "",
          "type": "uint256"
        }
      ],
      "stateMutability": "view",
      "type": "function"
    },
    {
      "inputs": [],
      "name": "TRADE_COOLDOWN",
      "outputs": [
        {
          "internalType": "uint256",
          "name": "",
          "type": "uint256"
        }
      ],
      "stateMutability": "view",
      "type": "function"
    },
    {
      "inputs": [],
      "name": "agentToken",
      "outputs": [
        {
          "internalType": "contract AiAgentToken",
          "name": "",
          "type": "address"
        }
      ],
      "stateMutability": "view",
      "type": "function"
    },
    {
      "inputs": [],
      "name": "buyTokens",
      "outputs": [],
      "stateMutability": "payable",
      "type": "function"
    },
    {
      "inputs": [
        {
          "internalType": "uint256",
          "name": "_ethAmount",
          "type": "uint256"
        }
      ],
      "name": "calculatePurchaseReturn",
      "outputs": [
        {
          "internalType": "uint256",
          "name": "",
          "type": "uint256"
        }
      ],
      "stateMutability": "view",
      "type": "function"
    },
    {
      "inputs": [
        {
          "internalType": "uint256",
          "name": "tokenAmount",
          "type": "uint256"
        }
      ],
      "name": "calculateSaleReturn",
      "outputs": [
        {
          "internalType": "uint256",
          "name": "",
          "type": "uint256"
        }
      ],
      "stateMutability": "view",
      "type": "function"
    },
    {
      "inputs": [
        {
          "internalType": "address",
          "name": "buyer",
          "type": "address"
        },
        {
          "internalType": "uint256",
          "name": "ethValue",
          "type": "uint256"
        },
        {
          "internalType": "uint256",
          "name": "tokenAmount",
          "type": "uint256"
        }
      ],
      "name": "creatorBuyEvent",
      "outputs": [],
      "stateMutability": "nonpayable",
      "type": "function"
    },
    {
      "inputs": [],
      "name": "getBuyPrice",
      "outputs": [
        {
          "internalType": "uint256",
          "name": "",
          "type": "uint256"
        }
      ],
      "stateMutability": "view",
      "type": "function"
    },
    {
      "inputs": [],
      "name": "getCurrentPrice",
      "outputs": [
        {
          "internalType": "uint256",
          "name": "",
          "type": "uint256"
        }
      ],
      "stateMutability": "view",
      "type": "function"
    },
    {
      "inputs": [
        {
          "internalType": "uint256",
          "name": "tokenAmount",
          "type": "uint256"
        }
      ],
      "name": "getETHForTokens",
      "outputs": [
        {
          "internalType": "uint256",
          "name": "",
          "type": "uint256"
        }
      ],
      "stateMutability": "view",
      "type": "function"
    },
    {
      "inputs": [],
      "name": "getRaisedAmount",
      "outputs": [
        {
          "internalType": "uint256",
          "name": "",
          "type": "uint256"
        }
      ],
      "stateMutability": "view",
      "type": "function"
    },
    {
      "inputs": [],
      "name": "getSellPrice",
      "outputs": [
        {
          "internalType": "uint256",
          "name": "",
          "type": "uint256"
        }
      ],
      "stateMutability": "view",
      "type": "function"
    },
    {
      "inputs": [
        {
          "internalType": "uint256",
          "name": "_ethAmount",
          "type": "uint256"
        }
      ],
      "name": "getTokensForETH",
      "outputs": [
        {
          "internalType": "uint256",
          "name": "",
          "type": "uint256"
        }
      ],
      "stateMutability": "view",
      "type": "function"
    },
    {
      "inputs": [],
      "name": "getTotalSoldAmount",
      "outputs": [
        {
          "internalType": "uint256",
          "name": "",
          "type": "uint256"
        }
      ],
      "stateMutability": "view",
      "type": "function"
    },
    {
      "inputs": [
        {
          "internalType": "uint256",
          "name": "amout",
          "type": "uint256"
        }
      ],
      "name": "increaseTotalSold",
      "outputs": [],
      "stateMutability": "nonpayable",
      "type": "function"
    },
    {
      "inputs": [
        {
          "internalType": "address",
          "name": "",
          "type": "address"
        }
      ],
      "name": "lastTradeTime",
      "outputs": [
        {
          "internalType": "uint256",
          "name": "",
          "type": "uint256"
        }
      ],
      "stateMutability": "view",
      "type": "function"
    },
    {
      "inputs": [],
      "name": "owner",
      "outputs": [
        {
          "internalType": "address",
          "name": "",
          "type": "address"
        }
      ],
      "stateMutability": "view",
      "type": "function"
    },
    {
      "inputs": [],
      "name": "renounceOwnership",
      "outputs": [],
      "stateMutability": "nonpayable",
      "type": "function"
    },
    {
      "inputs": [
        {
          "internalType": "uint256",
          "name": "tokenAmount",
          "type": "uint256"
        }
      ],
      "name": "sellTokens",
      "outputs": [],
      "stateMutability": "nonpayable",
      "type": "function"
    },
    {
      "inputs": [],
      "name": "totalSoldAmount",
      "outputs": [
        {
          "internalType": "uint256",
          "name": "",
          "type": "uint256"
        }
      ],
      "stateMutability": "view",
      "type": "function"
    },
    {
      "inputs": [
        {
          "internalType": "address",
          "name": "newOwner",
          "type": "address"
        }
      ],
      "name": "transferOwnership",
      "outputs": [],
      "stateMutability": "nonpayable",
      "type": "function"
    },
    {
      "stateMutability": "payable",
      "type": "receive"
    }
  ],
  "bytecode": "0x60806040818152346200027b57606082620012d58038038091620000248285620002b2565b8339810103126200027b576200003a82620002d6565b916020826200004b828401620002d6565b920151936001600160a01b0392831680156200026357600080546001600160a01b0319808216841783558751929692949093909183167f8be0079c531659141344cd1fd0a4f28419497f9722a3daafe3b4186f6b6457e08880a3600180556001600755169182156200022157506002541617600255629896809384600455600355825193620000da8562000280565b600d85526c494e495449414c5f505249434560981b828601528351918083019284632d839cb360e21b9384865287602484015288519889606485015284835b8b8110620002085750505082620001578392601f9560849c8d92868483850101526044830152871997889101168101036064810184520182620002b2565b516a636f6e736f6c652e6c6f6796875afa5062053b49806005558651906200017f8262000280565b6005825264534c4f504560d81b84830152875193808501958652886024860152825192836064870152885b848110620001f457505050620001e192601f8386938a8d819d9e9787010152604485015201168101036064810184520182620002b2565b51915afa5051610fe99081620002ec8239f35b8181018301518782018d01528201620001aa565b8281018201518682016084015289945086910162000119565b62461bcd60e51b815260048101849052601560248201527f496e76616c696420746f6b656e206164647265737300000000000000000000006044820152606490fd5b8451631e4fbdf760e01b815260006004820152602490fd5b600080fd5b604081019081106001600160401b038211176200029c57604052565b634e487b7160e01b600052604160045260246000fd5b601f909101601f19168101906001600160401b038211908210176200029c57604052565b51906001600160a01b03821682036200027b5756fe6040608081526004908136101561001d575b5050361561001b57005b005b600091823560e01c8063018a25e814610ca957806303186eef14610c71578063031c439d14610c4d578063322d210014610c2d57806332cb6b0c14610c0e5780633f8a32a914610be057806343d32e9c14610bc3578063617d79401461063557806366cb3a4214610ba357806369fcd4ac14610b5e5780636c11bcd3146107885780636c1516e114610765578063715018a61461070b5780637bfe170d146106f05780637c5e2795146106d357806388d9f5ea146102eb5780638b7cc629146106b45780638da5cb5b1461068c5780638e75e48214610671578063918f867414610654578063933bdb90146106355780639c9867641461022f578063b05707e91461060c578063b5e19d23146105e9578063d0febe4c146102f0578063db0e1bdf146102eb578063e371d01b14610234578063eaf98d231461022f578063eb91d37e146102075763f2fde38b146101745750610011565b346102035760203660031901126102035761018d610cc6565b90610196610d1f565b6001600160a01b039182169283156101ed575050600054826bffffffffffffffffffffffff60a01b821617600055167f8be0079c531659141344cd1fd0a4f28419497f9722a3daafe3b4186f6b6457e0600080a380f35b51631e4fbdf760e01b8152908101849052602490fd5b8280fd5b50503461022b578160031936011261022b57602090610224610d81565b9051908152f35b5080fd5b610d03565b50503461022b57606036600319011261022b577f150edd20b748bc680273d4bc59d5659c3229edf2f102c013595b9b3238e15886610270610cc6565b6024356102e560443592610282610d1f565b8551838152602081018590524260408201526001600160a01b0391909116959086907f0d1a0d5e3d583a0e92588799dd06e50fd78c07daf05f0cc06d7b848b1ca445f190606090a251928352602083019190915242604083015281906060820190565b0390a280f35b610cdc565b508260031936011261020357610304610f90565b34156105b757338352600660205281832054836105a45761032790421015610f0d565b61033034610ea8565b906b033b2e3c9fd0803ce8000000821161056f5761035082600754610d74565b6003541061052c57600a8202828104600a1483151715610517576103e890049061037a8284610dd2565b6002546001600160a01b0391908216803b15610512578651634c420c3b60e01b815233858201908152602081019390935291600091839182908490829060400103925af18015610507576104ef575b50908592916103da85600754610d74565b6007556002541691823b156104eb578551632770a7eb60e21b815233928101928352602083019190915291839183919082908490829060400103925af180156104e1576104cd575b50506104c37f150edd20b748bc680273d4bc59d5659c3229edf2f102c013595b9b3238e15886913385526006602052428486205583517f0d1a0d5e3d583a0e92588799dd06e50fd78c07daf05f0cc06d7b848b1ca445f1339180610499428634846040919493926060820195825260208201520152565b0390a26104a4610d81565b9351908152602081019390935242604084015233929081906060820190565b0390a26001805580f35b6104d690610f44565b610203578238610422565b84513d84823e3d90fd5b8380fd5b6104fc9193929650610f44565b6000949091386103c9565b86513d6000823e3d90fd5b600080fd5b601182634e487b7160e01b6000525260246000fd5b606490602084519162461bcd60e51b8352820152601860248201527f4578636565647320617661696c61626c6520737570706c7900000000000000006044820152fd5b606490602084519162461bcd60e51b8352820152600f60248201526e45786365656473206d61782062757960881b6044820152fd5b634e487b7160e01b845260118252602484fd5b6020606492519162461bcd60e51b8352820152600d60248201526c09aeae6e840e6cadcc8408aa89609b1b6044820152fd5b509134610609576020366003190112610609575061022460209235610ea8565b80fd5b50503461022b578160031936011261022b5760025490516001600160a01b039091168152602090f35b50503461022b578160031936011261022b576020906007549051908152f35b50503461022b578160031936011261022b57602090516103e88152f35b50503461022b578160031936011261022b5751478152602090f35b50503461022b578160031936011261022b57905490516001600160a01b039091168152602090f35b50503461022b578160031936011261022b576020906005549051908152f35b503461020357826003193601126102035760209250549051908152f35b50503461022b578160031936011261022b5751908152602090f35b8334610609578060031936011261060957610724610d1f565b600080546001600160a01b0319811682556001600160a01b03167f8be0079c531659141344cd1fd0a4f28419497f9722a3daafe3b4186f6b6457e08280a380f35b50503461022b578160031936011261022b5760209051670de0b6b3a76400008152f35b503461020357602090816003193601126104eb578035916107a7610f90565b8215610b275760025484516370a0823160e01b815233818501526001600160a01b03918216939160249184818481895afa8015610b1d5787918a91610ae8575b5010610ab0576b033b2e3c9fd0803ce80000008611610a7c573388526006845261081687892054421015610f0d565b61081f86610ed7565b94854710610a3a57600a8702878104600a03610a26576103e89004916108458389610dd2565b91803b15610512578951632770a7eb60e21b80825233888301908152602081019590955293909160009183919082908490829060400103925af18015610a1b57610a03575b50908992916002541691823b156104eb5789519182523386830190815260208101919091529091839183919082908490829060400103925af180156109f9576109e1575b5080808087335af13d156109dc573d67ffffffffffffffff81116109ca57875190610902601f8201601f1916870183610f6e565b815288853d92013e5b15610994575050916104c39160067f150edd20b748bc680273d4bc59d5659c3229edf2f102c013595b9b3238e158869433885252428587205561095082600754610dd2565b6007558451828152602081019190915242604082015233907f6db63bebf1e6540277744df32846ebdb98385b1a73f2d5de49b28348add63f50908060608101610499565b60139060649387519362461bcd60e51b855284015282015272115512081d1c985b9cd9995c8819985a5b1959606a1b6044820152fd5b634e487b7160e01b8952604184528289fd5b61090b565b6109ea90610f44565b6109f55786386108ce565b8680fd5b88513d84823e3d90fd5b610a109193929a50610f44565b60009890913861088a565b8a513d6000823e3d90fd5b83601186634e487b7160e01b600052526000fd5b875162461bcd60e51b8152808501869052601d818501527f496e73756666696369656e7420636f6e74726163742062616c616e63650000006044820152606490fd5b5060109060649387519362461bcd60e51b85528401528201526f115e18d959591cc81b585e081cd95b1b60821b6044820152fd5b5060149060649387519362461bcd60e51b855284015282015273496e73756666696369656e742062616c616e636560601b6044820152fd5b809250868092503d8311610b16575b610b018183610f6e565b81010312610b1257869051386107e7565b8880fd5b503d610af7565b88513d8b823e3d90fd5b835162461bcd60e51b81529182015260126024820152710416d6f756e74206d757374206265203e20360741b604482015260649150fd5b5091346106095760203660031901126106095750670de0b6b3a7640000610b9b602093610b89610ddf565b90610b95821515610e1f565b35610d4b565b049051908152f35b509134610609576020366003190112610609575061022460209235610ed7565b50503461022b578160031936011261022b57602090610224610ddf565b83823461022b57602036600319011261022b57610c0890610bff610d1f565b35600754610d74565b60075580f35b50503461022b578160031936011261022b576020906003549051908152f35b509134610609576020366003190112610609575061022460209235610e5b565b50503461022b578160031936011261022b576020905168014d1120d7b16000008152f35b50503461022b57602036600319011261022b5760209181906001600160a01b03610c99610cc6565b1681526006845220549051908152f35b50503461022b578160031936011261022b57602090610224610da9565b600435906001600160a01b038216820361051257565b346105125760003660031901126105125760206040516b033b2e3c9fd0803ce80000008152f35b34610512576000366003190112610512576020604051600a8152f35b6000546001600160a01b03163303610d3357565b60405163118cdaa760e01b8152336004820152602490fd5b81810292918115918404141715610d5e57565b634e487b7160e01b600052601160045260246000fd5b91908201809211610d5e57565b610da6670de0b6b3a7640000610d9c60055460075490610d4b565b0460045490610d74565b90565b610db1610d81565b600a810290808204600a1481151715610d5e576103e8610da6920490610d74565b91908203918211610d5e57565b670de0b6b3a76400006007541115610e1a57610df9610d81565b600a810290808204600a1481151715610d5e576103e8610da6920490610dd2565b600090565b15610e2657565b60405162461bcd60e51b815260206004820152600d60248201526c496e76616c696420707269636560981b6044820152606490fd5b610e63610da9565b908115610e708115610e1f565b670de0b6b3a764000091828102928184041490151715610d5e57610e92570490565b634e487b7160e01b600052601260045260246000fd5b610eb190610e5b565b600754610ebe8282610d74565b600354809111610ecd57505090565b610da69250610dd2565b610efd670de0b6b3a764000091610eec610ddf565b90610ef8821515610e1f565b610d4b565b04804710610f085790565b504790565b15610f1457565b60405162461bcd60e51b81526020600482015260086024820152672a37b79039b7b7b760c11b6044820152606490fd5b67ffffffffffffffff8111610f5857604052565b634e487b7160e01b600052604160045260246000fd5b90601f8019910116810190811067ffffffffffffffff821117610f5857604052565b600260015414610fa1576002600155565b604051633ee5aeb560e01b8152600490fdfea264697066735822122014f33d188390e83095f33c35c9763a935fd67cb98ab3321d6e5defe131d3748064736f6c63430008140033",
  "linkReferences": {},
  "deployedLinkReferences": {}
}