{
  "_format": "hh-sol-artifact-1",
  "contractName": "BondingCurve",
  "sourceName": "contracts/BondingCurve.sol",
  "abi": [
    {
      "inputs": [
        {
          "internalType": "address",
          "name": "_token",
          "type": "address"
        },
        {
          "internalType": "address",
          "name": "initialOwner",
          "type": "address"
        },
        {
          "internalType": "uint256",
          "name": "initSupply",
          "type": "uint256"
        }
      ],
      "stateMutability": "nonpayable",
      "type": "constructor"
    },
    {
      "inputs": [
        {
          "internalType": "address",
          "name": "owner",
          "type": "address"
        }
      ],
      "name": "OwnableInvalidOwner",
      "type": "error"
    },
    {
      "inputs": [
        {
          "internalType": "address",
          "name": "account",
          "type": "address"
        }
      ],
      "name": "OwnableUnauthorizedAccount",
      "type": "error"
    },
    {
      "inputs": [],
      "name": "ReentrancyGuardReentrantCall",
      "type": "error"
    },
    {
      "anonymous": false,
      "inputs": [
        {
          "indexed": true,
          "internalType": "address",
          "name": "previousOwner",
          "type": "address"
        },
        {
          "indexed": true,
          "internalType": "address",
          "name": "newOwner",
          "type": "address"
        }
      ],
      "name": "OwnershipTransferred",
      "type": "event"
    },
    {
      "anonymous": false,
      "inputs": [
        {
          "indexed": true,
          "internalType": "address",
          "name": "buyer",
          "type": "address"
        },
        {
          "indexed": false,
          "internalType": "uint256",
          "name": "ethAmount",
          "type": "uint256"
        },
        {
          "indexed": false,
          "internalType": "uint256",
          "name": "tokenAmount",
          "type": "uint256"
        },
        {
          "indexed": false,
          "internalType": "uint256",
          "name": "timestamp",
          "type": "uint256"
        }
      ],
      "name": "TokensPurchased",
      "type": "event"
    },
    {
      "anonymous": false,
      "inputs": [
        {
          "indexed": true,
          "internalType": "address",
          "name": "seller",
          "type": "address"
        },
        {
          "indexed": false,
          "internalType": "uint256",
          "name": "tokenAmount",
          "type": "uint256"
        },
        {
          "indexed": false,
          "internalType": "uint256",
          "name": "ethAmount",
          "type": "uint256"
        },
        {
          "indexed": false,
          "internalType": "uint256",
          "name": "timestamp",
          "type": "uint256"
        }
      ],
      "name": "TokensSold",
      "type": "event"
    },
    {
      "anonymous": false,
      "inputs": [
        {
          "indexed": true,
          "internalType": "address",
          "name": "trader",
          "type": "address"
        },
        {
          "indexed": false,
          "internalType": "uint256",
          "name": "amount",
          "type": "uint256"
        },
        {
          "indexed": false,
          "internalType": "uint256",
          "name": "price",
          "type": "uint256"
        },
        {
          "indexed": false,
          "internalType": "uint256",
          "name": "timestamp",
          "type": "uint256"
        }
      ],
      "name": "Trade",
      "type": "event"
    },
    {
      "stateMutability": "payable",
      "type": "fallback"
    },
    {
      "inputs": [],
      "name": "BONDING_TARGET",
      "outputs": [
        {
          "internalType": "uint256",
          "name": "",
          "type": "uint256"
        }
      ],
      "stateMutability": "view",
      "type": "function"
    },
    {
      "inputs": [],
      "name": "BURN_PERCENT",
      "outputs": [
        {
          "internalType": "uint256",
          "name": "",
          "type": "uint256"
        }
      ],
      "stateMutability": "view",
      "type": "function"
    },
    {
      "inputs": [],
      "name": "DENOMINATOR",
      "outputs": [
        {
          "internalType": "uint256",
          "name": "",
          "type": "uint256"
        }
      ],
      "stateMutability": "view",
      "type": "function"
    },
    {
      "inputs": [],
      "name": "FEE_PERCENT",
      "outputs": [
        {
          "internalType": "uint256",
          "name": "",
          "type": "uint256"
        }
      ],
      "stateMutability": "view",
      "type": "function"
    },
    {
      "inputs": [],
      "name": "INITIAL_PRICE",
      "outputs": [
        {
          "internalType": "uint256",
          "name": "",
          "type": "uint256"
        }
      ],
      "stateMutability": "view",
      "type": "function"
    },
    {
      "inputs": [],
      "name": "MAX_BUY_AMOUNT",
      "outputs": [
        {
          "internalType": "uint256",
          "name": "",
          "type": "uint256"
        }
      ],
      "stateMutability": "view",
      "type": "function"
    },
    {
      "inputs": [],
      "name": "MAX_SELL_AMOUNT",
      "outputs": [
        {
          "internalType": "uint256",
          "name": "",
          "type": "uint256"
        }
      ],
      "stateMutability": "view",
      "type": "function"
    },
    {
      "inputs": [],
      "name": "MAX_SUPPLY",
      "outputs": [
        {
          "internalType": "uint256",
          "name": "",
          "type": "uint256"
        }
      ],
      "stateMutability": "view",
      "type": "function"
    },
    {
      "inputs": [],
      "name": "PRICE_DENOMINATOR",
      "outputs": [
        {
          "internalType": "uint256",
          "name": "",
          "type": "uint256"
        }
      ],
      "stateMutability": "view",
      "type": "function"
    },
    {
      "inputs": [],
      "name": "SLOPE",
      "outputs": [
        {
          "internalType": "uint256",
          "name": "",
          "type": "uint256"
        }
      ],
      "stateMutability": "view",
      "type": "function"
    },
    {
      "inputs": [],
      "name": "TRADE_COOLDOWN",
      "outputs": [
        {
          "internalType": "uint256",
          "name": "",
          "type": "uint256"
        }
      ],
      "stateMutability": "view",
      "type": "function"
    },
    {
      "inputs": [],
      "name": "agentToken",
      "outputs": [
        {
          "internalType": "contract AiAgentToken",
          "name": "",
          "type": "address"
        }
      ],
      "stateMutability": "view",
      "type": "function"
    },
    {
      "inputs": [],
      "name": "buyTokens",
      "outputs": [],
      "stateMutability": "payable",
      "type": "function"
    },
    {
      "inputs": [
        {
          "internalType": "uint256",
          "name": "_ethAmount",
          "type": "uint256"
        }
      ],
      "name": "calculatePurchaseReturn",
      "outputs": [
        {
          "internalType": "uint256",
          "name": "",
          "type": "uint256"
        }
      ],
      "stateMutability": "view",
      "type": "function"
    },
    {
      "inputs": [
        {
          "internalType": "uint256",
          "name": "tokenAmount",
          "type": "uint256"
        }
      ],
      "name": "calculateSaleReturn",
      "outputs": [
        {
          "internalType": "uint256",
          "name": "",
          "type": "uint256"
        }
      ],
      "stateMutability": "view",
      "type": "function"
    },
    {
      "inputs": [
        {
          "internalType": "address",
          "name": "buyer",
          "type": "address"
        },
        {
          "internalType": "uint256",
          "name": "ethValue",
          "type": "uint256"
        },
        {
          "internalType": "uint256",
          "name": "tokenAmount",
          "type": "uint256"
        }
      ],
      "name": "creatorBuyEvent",
      "outputs": [],
      "stateMutability": "nonpayable",
      "type": "function"
    },
    {
      "inputs": [],
      "name": "getBuyPrice",
      "outputs": [
        {
          "internalType": "uint256",
          "name": "",
          "type": "uint256"
        }
      ],
      "stateMutability": "view",
      "type": "function"
    },
    {
      "inputs": [],
      "name": "getCurrentPrice",
      "outputs": [
        {
          "internalType": "uint256",
          "name": "",
          "type": "uint256"
        }
      ],
      "stateMutability": "view",
      "type": "function"
    },
    {
      "inputs": [
        {
          "internalType": "uint256",
          "name": "tokenAmount",
          "type": "uint256"
        }
      ],
      "name": "getETHForTokens",
      "outputs": [
        {
          "internalType": "uint256",
          "name": "",
          "type": "uint256"
        }
      ],
      "stateMutability": "view",
      "type": "function"
    },
    {
      "inputs": [],
      "name": "getRaisedAmount",
      "outputs": [
        {
          "internalType": "uint256",
          "name": "",
          "type": "uint256"
        }
      ],
      "stateMutability": "view",
      "type": "function"
    },
    {
      "inputs": [],
      "name": "getSellPrice",
      "outputs": [
        {
          "internalType": "uint256",
          "name": "",
          "type": "uint256"
        }
      ],
      "stateMutability": "view",
      "type": "function"
    },
    {
      "inputs": [
        {
          "internalType": "uint256",
          "name": "_ethAmount",
          "type": "uint256"
        }
      ],
      "name": "getTokensForETH",
      "outputs": [
        {
          "internalType": "uint256",
          "name": "",
          "type": "uint256"
        }
      ],
      "stateMutability": "view",
      "type": "function"
    },
    {
      "inputs": [],
      "name": "getTotalSoldAmount",
      "outputs": [
        {
          "internalType": "uint256",
          "name": "",
          "type": "uint256"
        }
      ],
      "stateMutability": "view",
      "type": "function"
    },
    {
      "inputs": [
        {
          "internalType": "uint256",
          "name": "amout",
          "type": "uint256"
        }
      ],
      "name": "increaseTotalSold",
      "outputs": [],
      "stateMutability": "nonpayable",
      "type": "function"
    },
    {
      "inputs": [
        {
          "internalType": "address",
          "name": "",
          "type": "address"
        }
      ],
      "name": "lastTradeTime",
      "outputs": [
        {
          "internalType": "uint256",
          "name": "",
          "type": "uint256"
        }
      ],
      "stateMutability": "view",
      "type": "function"
    },
    {
      "inputs": [],
      "name": "owner",
      "outputs": [
        {
          "internalType": "address",
          "name": "",
          "type": "address"
        }
      ],
      "stateMutability": "view",
      "type": "function"
    },
    {
      "inputs": [],
      "name": "renounceOwnership",
      "outputs": [],
      "stateMutability": "nonpayable",
      "type": "function"
    },
    {
      "inputs": [
        {
          "internalType": "uint256",
          "name": "tokenAmount",
          "type": "uint256"
        }
      ],
      "name": "sellTokens",
      "outputs": [],
      "stateMutability": "nonpayable",
      "type": "function"
    },
    {
      "inputs": [],
      "name": "totalSoldAmount",
      "outputs": [
        {
          "internalType": "uint256",
          "name": "",
          "type": "uint256"
        }
      ],
      "stateMutability": "view",
      "type": "function"
    },
    {
      "inputs": [
        {
          "internalType": "address",
          "name": "newOwner",
          "type": "address"
        }
      ],
      "name": "transferOwnership",
      "outputs": [],
      "stateMutability": "nonpayable",
      "type": "function"
    },
    {
      "stateMutability": "payable",
      "type": "receive"
    }
  ],
  "bytecode": "0x60806040818152346200027a57606082620012548038038091620000248285620002b1565b8339810103126200027a576200003a82620002d5565b916020826200004b828401620002d5565b920151936001600160a01b0392831680156200026257600080546001600160a01b0319808216841783558751929692949093909183167f8be0079c531659141344cd1fd0a4f28419497f9722a3daafe3b4186f6b6457e08880a3600180556001600755169182156200022057506002541617600255629896809384600455600355825193620000da856200027f565b600d85526c494e495449414c5f505249434560981b828601528351918083019284632d839cb360e21b9384865287602484015288519889606485015284835b8b8110620002075750505082620001578392601f9560849c8d92868483850101526044830152871997889101168101036064810184520182620002b1565b516a636f6e736f6c652e6c6f6796875afa50618205806005558651906200017e826200027f565b6005825264534c4f504560d81b84830152875193808501958652886024860152825192836064870152885b848110620001f357505050620001e092601f8386938a8d819d9e9787010152604485015201168101036064810184520182620002b1565b51915afa5051610f699081620002eb8239f35b8181018301518782018d01528201620001a9565b8281018201518682016084015289945086910162000119565b62461bcd60e51b815260048101849052601560248201527f496e76616c696420746f6b656e206164647265737300000000000000000000006044820152606490fd5b8451631e4fbdf760e01b815260006004820152602490fd5b600080fd5b604081019081106001600160401b038211176200029b57604052565b634e487b7160e01b600052604160045260246000fd5b601f909101601f19168101906001600160401b038211908210176200029b57604052565b51906001600160a01b03821682036200027a5756fe6040608081526004908136101561001d575b5050361561001b57005b005b600091823560e01c8063018a25e814610c8e57806303186eef14610c56578063031c439d14610c32578063322d2100146105d757806332cb6b0c14610c135780633f8a32a914610be557806343d32e9c14610bc8578063617d79401461062357806366cb3a4214610b8357806369fcd4ac14610b835780636c11bcd3146107765780636c1516e114610753578063715018a6146106f95780637bfe170d146106de5780637c5e2795146106c157806388d9f5ea146102eb5780638b7cc629146106a25780638da5cb5b1461067a5780638e75e4821461065f578063918f867414610642578063933bdb90146106235780639c9867641461022f578063b05707e9146105fa578063b5e19d23146105d7578063d0febe4c146102f0578063db0e1bdf146102eb578063e371d01b14610234578063eaf98d231461022f578063eb91d37e146102075763f2fde38b146101745750610011565b346102035760203660031901126102035761018d610cab565b90610196610d04565b6001600160a01b039182169283156101ed575050600054826bffffffffffffffffffffffff60a01b821617600055167f8be0079c531659141344cd1fd0a4f28419497f9722a3daafe3b4186f6b6457e0600080a380f35b51631e4fbdf760e01b8152908101849052602490fd5b8280fd5b50503461022b578160031936011261022b57602090610224610d66565b9051908152f35b5080fd5b610ce8565b50503461022b57606036600319011261022b577f150edd20b748bc680273d4bc59d5659c3229edf2f102c013595b9b3238e15886610270610cab565b6024356102e560443592610282610d04565b8551838152602081018590524260408201526001600160a01b0391909116959086907f0d1a0d5e3d583a0e92588799dd06e50fd78c07daf05f0cc06d7b848b1ca445f190606090a251928352602083019190915242604083015281906060820190565b0390a280f35b610cc1565b50908260031936011261020357610305610f10565b34156105a457338352600660205280832054836105915761032890421015610e8d565b61033134610e40565b916b033b2e3c9fd0803ce8000000831161055d5761035183600754610d59565b6003541061051b57600a8302838104600a1484151715610506576103e890049061037b8285610db7565b6002546001600160a01b0391908216803b15610501578551634c420c3b60e01b815233858201908152602081019390935291600091839182908490829060400103925af180156104f6576104de575b50908592916103db86600754610d59565b6007556002541691823b156104da578451632770a7eb60e21b815233928101928352602083019190915291839183919082908490829060400103925af180156104d0576104bc575b50507f150edd20b748bc680273d4bc59d5659c3229edf2f102c013595b9b3238e15886903384526006602052428185205580517f0d1a0d5e3d583a0e92588799dd06e50fd78c07daf05f0cc06d7b848b1ca445f1339180610497428834846040919493926060820195825260208201520152565b0390a251918252346020830152426040830152339180606081015b0390a26001805580f35b6104c590610ec4565b610203578238610423565b83513d84823e3d90fd5b8380fd5b6104eb9193929650610ec4565b6000949091386103ca565b85513d6000823e3d90fd5b600080fd5b601182634e487b7160e01b6000525260246000fd5b6020606492519162461bcd60e51b8352820152601860248201527f4578636565647320617661696c61626c6520737570706c7900000000000000006044820152fd5b6020606492519162461bcd60e51b8352820152600f60248201526e45786365656473206d61782062757960881b6044820152fd5b634e487b7160e01b845260118352602484fd5b906020606492519162461bcd60e51b8352820152600d60248201526c09aeae6e840e6cadcc8408aa89609b1b6044820152fd5b5091346105f75760203660031901126105f7575061022460209235610e40565b80fd5b50503461022b578160031936011261022b5760025490516001600160a01b039091168152602090f35b50503461022b578160031936011261022b576020906007549051908152f35b50503461022b578160031936011261022b57602090516103e88152f35b50503461022b578160031936011261022b5751478152602090f35b50503461022b578160031936011261022b57905490516001600160a01b039091168152602090f35b50503461022b578160031936011261022b576020906005549051908152f35b503461020357826003193601126102035760209250549051908152f35b50503461022b578160031936011261022b5751908152602090f35b83346105f757806003193601126105f757610712610d04565b600080546001600160a01b0319811682556001600160a01b03167f8be0079c531659141344cd1fd0a4f28419497f9722a3daafe3b4186f6b6457e08280a380f35b50503461022b578160031936011261022b5760209051670de0b6b3a76400008152f35b50903461020357602090816003193601126104da57823591610796610f10565b8215610b4c5760025482516370a0823160e01b815233818701526001600160a01b039182169591602491848184818b5afa908115610b42579087918a91610b0d575b5010610ad5576b033b2e3c9fd0803ce80000008611610aa1573388526006845261080785892054421015610e8d565b670de0b6b3a764000061082c61081b610dc4565b610826811515610e04565b88610d30565b0496874710610a5f57600a8702878104600a03610a4b576103e89004916108538389610db7565b91803b15610501578751632770a7eb60e21b80825233888301908152602081019590955293909160009183919082908490829060400103925af18015610a4057610a28575b50908992916002541691823b156104da5787519182523386830190815260208101919091529091839183919082908490829060400103925af18015610a1e57610a06575b5080808089335af13d15610a01573d67ffffffffffffffff81116109ef57855190610910601f8201601f1916870183610eee565b815288853d92013e5b156109b9575050916104b29160067f150edd20b748bc680273d4bc59d5659c3229edf2f102c013595b9b3238e158869433885252428187205561095e82600754610db7565b60075580518281526020810186905242604082015233907f6db63bebf1e6540277744df32846ebdb98385b1a73f2d5de49b28348add63f5090606090a251908152602081019390935242604084015233929081906060820190565b60139192606494519362461bcd60e51b855284015282015272115512081d1c985b9cd9995c8819985a5b1959606a1b6044820152fd5b634e487b7160e01b8952604184528289fd5b610919565b610a0f90610ec4565b610a1a5786386108dc565b8680fd5b86513d84823e3d90fd5b610a359193929a50610ec4565b600098909138610898565b88513d6000823e3d90fd5b83601186634e487b7160e01b600052526000fd5b855162461bcd60e51b8152808501869052601d818501527f496e73756666696369656e7420636f6e74726163742062616c616e63650000006044820152606490fd5b5060109192606494519362461bcd60e51b85528401528201526f115e18d959591cc81b585e081cd95b1b60821b6044820152fd5b5060149192606494519362461bcd60e51b855284015282015273496e73756666696369656e742062616c616e636560601b6044820152fd5b809250868092503d8311610b3b575b610b268183610eee565b81010312610b3757869051386107d8565b8880fd5b503d610b1c565b86513d8b823e3d90fd5b8390606492519162461bcd60e51b835282015260126024820152710416d6f756e74206d757374206265203e20360741b6044820152fd5b5091346105f75760203660031901126105f75750670de0b6b3a7640000610bc0602093610bae610dc4565b90610bba821515610e04565b35610d30565b049051908152f35b50503461022b578160031936011261022b57602090610224610dc4565b83823461022b57602036600319011261022b57610c0d90610c04610d04565b35600754610d59565b60075580f35b50503461022b578160031936011261022b576020906003549051908152f35b50503461022b578160031936011261022b576020905168014d1120d7b16000008152f35b50503461022b57602036600319011261022b5760209181906001600160a01b03610c7e610cab565b1681526006845220549051908152f35b50503461022b578160031936011261022b57602090610224610d8e565b600435906001600160a01b038216820361050157565b346105015760003660031901126105015760206040516b033b2e3c9fd0803ce80000008152f35b34610501576000366003190112610501576020604051600a8152f35b6000546001600160a01b03163303610d1857565b60405163118cdaa760e01b8152336004820152602490fd5b81810292918115918404141715610d4357565b634e487b7160e01b600052601160045260246000fd5b91908201809211610d4357565b610d8b670de0b6b3a7640000610d8160055460075490610d30565b0460045490610d59565b90565b610d96610d66565b600a810290808204600a1481151715610d43576103e8610d8b920490610d59565b91908203918211610d4357565b670de0b6b3a76400006007541115610dff57610dde610d66565b600a810290808204600a1481151715610d43576103e8610d8b920490610db7565b600090565b15610e0b57565b60405162461bcd60e51b815260206004820152600d60248201526c496e76616c696420707269636560981b6044820152606490fd5b610e48610d8e565b908115610e558115610e04565b670de0b6b3a764000091828102928184041490151715610d4357610e77570490565b634e487b7160e01b600052601260045260246000fd5b15610e9457565b60405162461bcd60e51b81526020600482015260086024820152672a37b79039b7b7b760c11b6044820152606490fd5b67ffffffffffffffff8111610ed857604052565b634e487b7160e01b600052604160045260246000fd5b90601f8019910116810190811067ffffffffffffffff821117610ed857604052565b600260015414610f21576002600155565b604051633ee5aeb560e01b8152600490fdfea2646970667358221220a47e5e6b361b01aa8fedd8b6922e8c2371df85a3649142035dcc2056d3aa7b8864736f6c63430008140033",
  "linkReferences": {},
  "deployedLinkReferences": {}
}