{
  "_format": "hh-sol-artifact-1",
  "contractName": "BancorFormula",
  "sourceName": "contracts/lib/BancorFormula.sol",
  "abi": [
    {
      "inputs": [
        {
          "internalType": "uint256",
          "name": "_supply",
          "type": "uint256"
        },
        {
          "internalType": "uint256",
          "name": "_reserveBalance",
          "type": "uint256"
        },
        {
          "internalType": "uint32",
          "name": "_reserveRatio",
          "type": "uint32"
        },
        {
          "internalType": "uint256",
          "name": "_depositAmount",
          "type": "uint256"
        }
      ],
      "name": "calculatePurchaseReturn",
      "outputs": [
        {
          "internalType": "uint256",
          "name": "",
          "type": "uint256"
        }
      ],
      "stateMutability": "view",
      "type": "function"
    },
    {
      "inputs": [
        {
          "internalType": "uint256",
          "name": "_supply",
          "type": "uint256"
        },
        {
          "internalType": "uint256",
          "name": "_reserveBalance",
          "type": "uint256"
        },
        {
          "internalType": "uint32",
          "name": "_reserveRatio",
          "type": "uint32"
        },
        {
          "internalType": "uint256",
          "name": "_sellAmount",
          "type": "uint256"
        }
      ],
      "name": "calculateSaleReturn",
      "outputs": [
        {
          "internalType": "uint256",
          "name": "",
          "type": "uint256"
        }
      ],
      "stateMutability": "view",
      "type": "function"
    }
  ],
  "bytecode": "0x6080806040523461073f576001641c35fedd1560601b036020556001646c3390ecc9605e1b036021556001640cf801476160611b0360225560016431bdb23e1d605f1b0360235560016502fb1d8fe083605b1b0360245560016505b771955b37605a1b036025556001650af67a93bb5160591b0360265560016515060c256cb360581b036027556001651428a2f98d7360581b036028556001654d515663970960561b03602955600165944620b0e70f60551b03602a55600166011c592761c66760541b03602b5560016602214d10d014eb60531b03602c55600166020ade36b7dbef60531b03602d5560016603eab73b3bbfe360521b03602e556001660782ee3593f6d760511b03602f556001661ccf4b44bb4821604f1b0360305560016606e7f88ad8a77760511b0360315560016669f3d1c921891d604d1b03603255600166cb2ff529eb71e5604c1b03603355600166c2d415c3db974b604c1b0360345560016702eb40f9f620fda7604a1b0360355560016705990681d961a1eb60491b03603655600167055e12902701414760491b0360375560016714962dee9dc9764160471b0360385560016704ef57b9b560fab560491b0360395560016712ed7b32a58f552b60471b03603a556001679131271922eaa60760441b03603b556001678b380f3558668c4760441b03603c556001680215f77c045fbe885760421b03603d556001600160831b03603e556001670f577eded5773a1160471b03603f556001680eb5ec597592befbf5603f1b036040556001681c35fedd14b861eb05603e1b036041556001683619c87664579bc94b603d1b0360425560016867c00a3b07ffc01fd7603c1b03604355600168c6f6c8f8739773a7a5603b1b03604455600168bec763f8209b7a72b1603b1b0360455560016902dbb8caad9b7097b91b60391b03604655600169057b3d49dda84556d6f760381b03604755600169054183095b2c8ececf3160381b036048556001690a14517cc6b9457111ef60371b0360495560016913545598e5c23276ccf160361b03604a556001692511882c39c3adea96ff60351b03604b55600169471649d87199aa99075760341b03604c557004429a21a029d4c1457cfbffffffffffff604d55700415bc6d6fb7dd71af2cb3ffffffffffff604e557003eab73b3bbfe282243ce1ffffffffffff604f557003c1771ac9fb6b4c18e229ffffffffffff605055700399e96897690418f785257fffffffffff605155700373fc456c53bb779bf0ea9fffffffffff60525570034f9e8e490c48e67e6ab8bfffffffffff60535570032cbfd4a7adc790560b3337ffffffffff60545570030b50570f6e5d2acca94613ffffffffff6055557002eb40f9f620fda6b56c2861ffffffffff6056557002cc8340ecb0d0f520a6af58ffffffffff6057557002af09481380a0a35cf1ba02ffffffffff605855700292c5bdd3b92ec810287b1b3fffffffff605955700277abdcdab07d5a77ac6d6b9fffffffff605a5570025daf6654b1eaa55fd64df5efffffffff605b55700244c49c648baa98192dce88b7ffffffff605c5570022ce03cd5619a311b2471268bffffffff605d55700215f77c045fbe885654a44a0fffffffff605e556001600160811b03605f557001eaefdbdaaee7421fc4d3ede5ffffffff6060557001d6bd8b2eb257df7e8ca57b09bfffffff6061557001c35fedd14b861eb0443f7f133fffffff6062557001b0ce43b322bcde4a56e8ada5afffffff60635570019f0028ec1fff007f5a195a39dfffffff60645570018ded91f0e72ee74f49b15ba527ffffff60655570017d8ec7f04136f4e5615fd41a63ffffff60665570016ddc6556cdb84bdc8d12d22e6fffffff60675570015ecf52776a1155b5bd8395814f7fffff60685570015060c256cb23b3b3cc3754cf40ffffff6069557001428a2f98d728ae223ddab715be3fffff606a5570013545598e5c23276ccf0ede68034fffff606b557001288c4161ce1d6f54b7f61081194fffff606c5570011c592761c666aa641d5a01a40f17ffff606d55700110a688680a7530515f3e6e6cfdcdffff606e557001056f1b5bedf75c6bcb2ce8aed428ffff606f556ffaadceceeff8a0890f3875f008277fff6070556ff05dc6b27edad306388a600f6ba0bfff6071556fe67a5a25da41063de1495d5b18cdbfff6072556fdcff115b14eedde6fc3aa5353f2e4fff6073556fd3e7a3924312399f9aae2e0f868f8fff6074556fcb2ff529eb71e41582cccd5a1ee26fff6075556fc2d415c3db974ab32a51840c0b67edff6076556fbad03e7d883f69ad5b0a186184e06bff6077556fb320d03b2c343d4829abd6075f0cc5ff6078556fabc25204e02828d73c6e80bcdb1a95bf6079556fa4b16f74ee4bb2040a1ec6c15fbbf2df607a556f9deaf736ac1f569deb1b5ae3f36c130f607b556f976bd9952c7aa957f5937d790ef65037607c556f9131271922eaa6064b73a22d0bd4f2bf607d556f8b380f3558668c46c91c49a2f8e967b9607e556f857ddf0117efa215952912839f6473e6607f55611daf90816107458239f35b600080fdfe6080604052600436101561001257600080fd5b60003560e01c806329a00e7c1461005b576349f9b0f71461003257600080fd5b3461005657602061004e61004536610077565b92919091610287565b604051908152f35b600080fd5b3461005657602061004e61006e36610077565b929190916100c5565b608090600319011261005657600435906024359060443563ffffffff81168103610056579060643590565b919082039182116100af57565b634e487b7160e01b600052601160045260246000fd5b928315158061027e575b8061026f575b8061025c575b1561022257801561021957811981116101d457620f424063ffffffff8416146101c0576101088282611bb3565b90811061017b576101279260ff9261011f926103d7565b929084611cab565b91161c9080821061013e5761013b916100a2565b90565b60405162461bcd60e51b815260206004820152601560248201527443616c63756c6174696f6e20756e646572666c6f7760581b6044820152606490fd5b60405162461bcd60e51b815260206004820152601b60248201527f536166654d6174683a206164646974696f6e206f766572666c6f7700000000006044820152606490fd5b6101cf91925061013b93611cab565b611d24565b60405162461bcd60e51b815260206004820152601860248201527f4465706f73697420616d6f756e7420746f6f206c6172676500000000000000006044820152606490fd5b50505050600090565b60405162461bcd60e51b8152602060048201526012602482015271496e76616c696420706172616d657465727360701b6044820152606490fd5b50620f424063ffffffff841611156100db565b5063ffffffff831615156100d5565b508115156100cf565b909281151580610377575b80610368575b80610355575b8061034b575b156100565780156102195781811461034557620f424063ffffffff8416146101c057906102d56102db9392826100a2565b906115b5565b9160ff6102e88383611cab565b93161b918083116103005761013b926101cf916100a2565b60405162461bcd60e51b815260206004820152601e60248201527f536166654d6174683a207375627472616374696f6e206f766572666c6f7700006044820152606490fd5b50505090565b50818111156102a4565b50620f424063ffffffff8416111561029e565b5063ffffffff83161515610298565b50831515610292565b818102929181159184041417156100af57565b811561039d570490565b634e487b7160e01b600052601260045260246000fd5b60ff6000199116019060ff82116100af57565b60ff16607f039060ff82116100af57565b909291600160811b90818310156115705784831061152b576000607f9584871b6001607f1b958082048714901517156114ca579061041491610393565b9070015bf0a8b1457695355fb8ac404e7a79e3821015611366575080916000916fd3094c70f034de4b96ff7d5b6f99fcd880821015611342575b50506fa45af1e1f40c333b3de1db4dd55f29a780841015611317575b506f910b022db7ae67ce76b441c27035c6a1808410156112ec575b506f88415abbe9a76bead8d00cf112e4d4a8808410156112c1575b506f84102b00893f64c705e841d5d4064bd380841015611296575b506f8204055aaef1c8bd5c3259f4822735a28084101561126b575b506f810100ab00222d861931c15e39b44e9980841015611240575b506f808040155aabbbe9451521693554f73380841015611215575b5060016001607f1b031983018381116100af576105298180610380565b881c92600160801b8581038801919082116100af57610559859161055061055f9486610380565b60801c90611bb3565b92610380565b881c906faaaaaaaaaaaaaaaaaaaaaaaaaaaaaaaa9087868303019182116100af57610559859161059261059b9486610380565b60811c90611bb3565b881c906f999999999999999999999999999999999087868303019182116100af5761055985916105db936105d4600360801b9187610380565b0490611bb3565b881c906f924924924924924924924924924924929087868303019182116100af57610559859161060e6106179486610380565b60821c90611bb3565b881c906f8e38e38e38e38e38e38e38e38e38e38e9087868303019182116100af576105598591610650936105d4600560801b9187610380565b881c906f8ba2e8ba2e8ba2e8ba2e8ba2e8ba2e8b9087868303019182116100af576105598591610689936105d4600360811b9187610380565b881c926f89d89d89d89d89d89d89d89d89d89d8987868203019081116100af576106c7926106c191600760801b906105d49088610380565b93610380565b871c856f88888888888888888888888888888888948503019384116100af5761070961071293610700620f42409663ffffffff94610380565b60831c90611bb3565b915b1690610380565b0490600160831b821015610c6c5760009260016001607c1b0383166107378180610380565b871c6710e1b3be415a000090818102918183041481151715610c44578261075d91610380565b881c906705a0913f6b1e000090818302918383041483151715610c5857610559610788928592611bb3565b881c90670168244fdac7800090818302918383041483151715610c58576105596107b3928592611bb3565b881c90664807432bc1800090818302918383041483151715610c58576105596107dd928592611bb3565b881c90660c0135dca0400090818302918383041483151715610c5857610559610807928592611bb3565b881c906601b707b1cdc00090818302918383041483151715610c5857610559610831928592611bb3565b881c906536e0f639b80090818302918383041483151715610c585761055961085a928592611bb3565b881c90650618fee9f80090818302918383041483151715610c5857610559610883928592611bb3565b881c90649c197dcc0090818302918383041483151715610c58576105596108ab928592611bb3565b881c90640e30dce40090818302918383041483151715610c58576105596108d3928592611bb3565b881c9064012ebd130090818302918383041483151715610c58576105596108fb928592611bb3565b881c906317499f0090818302918383041483151715610c5857610559610922928592611bb3565b881c906301a9d48090818302918383041483151715610c5857610559610949928592611bb3565b881c90621c638090818302918383041483151715610c585761055961096f928592611bb3565b881c906201c63890818302918383041483151715610c5857610559610995928592611bb3565b881c90611ab890818302918383041483151715610c58576105596109ba928592611bb3565b881c9061017c90818302918383041483151715610c58576105596109df928592611bb3565b881c90601482029082820460141483151715610c5857610559610a03928592611bb3565b881c9081800460011482151715610c4457610a2b610a3193926721c3677c82b4000092611bb3565b04611bb3565b93818501809511610c305750836001607c1b8416610bef575b506001607d1b8316610bb1575b6001607e1b8316610b74575b8216610b38575b600160801b8216610afc575b8116610ac1575b600160821b16610a8b579190565b6e2bf84208204f5977f9a8cf01fdc307908181029181830414901517156100af576d03c6ab775dd0b95b4cbee7e65d1190049190565b906f0960aadc109e7a3bf4578099615711d7908181029181830414901517156100af576e2bf84208204f5977f9a8cf01fdce3d900490610a7d565b916f454aaa8efe072e7f6ddbab84b40a55c5908181029181830414901517156100af576f0960aadc109e7a3bf4578099615711ea900491610a76565b916fbc5ab1b16779be3575bd8f0520a9f21e908181029181830414901517156100af576f454aaa8efe072e7f6ddbab84b40a55c9900491610a6a565b927001368b2fc6f9609fe7aceb46aa619baed5908181029181830414901517156100af576fbc5ab1b16779be3575bd8f0520a9f21f900492610a63565b9270018ebef9eac820ae8682b9793ac6d1e778908181029181830414901517156100af577001368b2fc6f9609fe7aceb46aa619baed4900492610a57565b9093507001c3d6a24ed82218787d624d3e5eba95f9908181029181830414901517156100af5770018ebef9eac820ae8682b9793ac6d1e77690049238610a4a565b634e487b7160e01b81526011600452602490fd5b634e487b7160e01b87526011600452602487fd5b634e487b7160e01b88526011600452602488fd5b50809350610c7a9150611bd2565b9160ff610c86846103c6565b161c610c928180610380565b60ff841690811c6f03442c4e6074a82f1797f72ac0000000908181029181830414811517156100af5783610cc591610380565b821c906f0116b96f757c380fb287fd0e400000008083029083820414831517156100af576105598591610cf793611bb3565b821c906e45ae5bdd5f0e03eca1ff43900000008083029083820414831517156100af576105598591610d2893611bb3565b821c906e0defabf91302cd95b9ffda500000008083029083820414831517156100af576105598591610d5993611bb3565b821c906e02529ca9832b22439efff9b80000008083029083820414831517156100af576105598591610d8a93611bb3565b821c906d54f1cf12bd04e516b6da880000008083029083820414831517156100af576105598591610dba93611bb3565b821c906d0a9e39e257a09ca2d6db510000008083029083820414831517156100af576105598591610dea93611bb3565b821c906d012e066e7b839fa050c3090000008083029083820414831517156100af576105598591610e1a93611bb3565b821c906c1e33d7d926c329a1ad1a8000008083029083820414831517156100af576105598591610e4993611bb3565b821c906c02bee513bdb4a6b19b5f8000008083029083820414831517156100af576105598591610e7893611bb3565b821c906b3a9316fa79b88eccf2a000008083029083820414831517156100af576105598591610ea693611bb3565b821c906b048177ebe1fa8123752000008083029083820414831517156100af576105598591610ed493611bb3565b821c906a5263fe90242dcbacf000008083029083820414831517156100af576105598591610f0193611bb3565b821c906a057e22099c030d941000008083029083820414831517156100af576105598591610f2e93611bb3565b821c906957e22099c030d94100008083029083820414831517156100af576105598591610f5a93611bb3565b821c9069052b6b545699763100008083029083820414831517156100af576105598591610f8693611bb3565b821c90684985f67696bf7480008083029083820414831517156100af576105598591610fb193611bb3565b821c906803dea12ea99e4980008083029083820414831517156100af576105598591610fdc93611bb3565b821c906731880f2214b6e0008083029083820414831517156100af57610559859161100693611bb3565b821c9067025bcff56eb360008083029083820414831517156100af57610559859161103093611bb3565b821c90661b722e10ab10008083029083820414831517156100af57610559859161105993611bb3565b821c906601317c700770008083029083820414831517156100af57610559859161108293611bb3565b821c90650cba84aafa008083029083820414831517156100af5761055985916110aa93611bb3565b821c906482573a0a008083029083820414831517156100af5761055985916110d193611bb3565b821c906405035ad9008083029083820414831517156100af5761055985916110f893611bb3565b821c90632f881b008083029083820414831517156100af57610559859161111e93611bb3565b821c906301b293408083029083820414831517156100af57610559859161114493611bb3565b821c90620efc408083029083820414831517156100af57610559859161116993611bb3565b821c90617fe08083029083820414831517156100af57610559859161118d93611bb3565b821c906104208083029083820414831517156100af5761055985916111b193611bb3565b821c9060218202828104602114831517156100af5761055985916111d493611bb3565b821c90818004600114821517156100af57611211936f0688589cc0e9505e2f2fee5580000000610a2b60019461120994611bb3565b911b90611bb3565b9190565b909291600160771b81019081106100af579180881b908082048714901517156100af5704913861050c565b909291600160781b81019081106100af579180881b908082048714901517156100af570491386104f1565b909291600160791b81019081106100af579180881b908082048714901517156100af570491386104d6565b9092916001607a1b81019081106100af579180881b908082048714901517156100af570491386104bb565b9092916001607b1b81019081106100af579180881b908082048714901517156100af570491386104a0565b9092916001607c1b81019081106100af579180881b908082048714901517156100af57049138610485565b9092916001607d1b81019081106100af579180881b908082048714901517156100af5704913861046a565b9193506001607e1b925080881b908015908204871417156100af570491388061044e565b908190600160801b818181101561145d575b508682116113cc575b50506f03f80fe03f80fe03f80fe03f80fe03f891828102928184041490151715610c305750620f42409163ffffffff6f05b9de1d10bf4103d647b0955897ba8061071293049161070b565b9196909792939495835b60ff998a82161561144b57806113eb91610380565b998a861c9a858c1015611421575b505060ff16801561140d57600019016113d6565b634e487b7160e01b89526011600452602489fd5b611443919b5096600160ff939860801c9c61143b8a6103b3565b161b90611bb3565b9590386113f9565b50509594939297509590503880611381565b988991989450809597939692501c95859761010088106000146114de5797965b600180821115611498571c9661149290611bc0565b9661147d565b5050939796929695909491955b60ff821690811c91891b60ff607f1b16908015908204881417156114ca579238611378565b634e487b7160e01b83526011600452602483fd5b8560809a95999798969a5b60ff81168015611519576001811b89101561150b575b5060011c168a906114e9565b978199981c971797386114ff565b505050939094509591959490946114a5565b60405162461bcd60e51b815260206004820152601c60248201527f4261736573203c203120617265206e6f7420737570706f727465642e000000006044820152606490fd5b60405162461bcd60e51b815260206004820152601860248201527f626173654e2065786365656473206d61782076616c75652e00000000000000006044820152606490fd5b909291600160811b90818310156115705784831061152b576000607f9584871b6001607f1b958082048714901517156114ca57906115f291610393565b9070015bf0a8b1457695355fb8ac404e7a79e3821015611a2c57506000816fd3094c70f034de4b96ff7d5b6f99fcd880821015611a09575b50506fa45af1e1f40c333b3de1db4dd55f29a7808310156119e0575b506f910b022db7ae67ce76b441c27035c6a1808310156119b7575b506f88415abbe9a76bead8d00cf112e4d4a88083101561198e575b506f84102b00893f64c705e841d5d4064bd380831015611965575b506f8204055aaef1c8bd5c3259f4822735a28083101561193c575b506f810100ab00222d861931c15e39b44e9980831015611913575b506f808040155aabbbe9451521693554f733808310156118ea575b5060016001607f1b031982018281116100af576117058180610380565b881c91600160801b8481038801919082116100af57610559849161055061172c9486610380565b881c906faaaaaaaaaaaaaaaaaaaaaaaaaaaaaaaa9087858303019182116100af57610559849161059261175f9486610380565b881c906f999999999999999999999999999999999087858303019182116100af576105598491611798936105d4600360801b9187610380565b881c906f924924924924924924924924924924929087858303019182116100af57610559849161060e6117cb9486610380565b881c906f8e38e38e38e38e38e38e38e38e38e38e9087858303019182116100af576105598491611804936105d4600560801b9187610380565b881c906f8ba2e8ba2e8ba2e8ba2e8ba2e8ba2e8b9087858303019182116100af57610559849161183d936105d4600360811b9187610380565b881c916f89d89d89d89d89d89d89d89d89d89d8987858203019081116100af576118759261055991600760801b906105d49087610380565b871c856f88888888888888888888888888888888938403019283116100af576118a19261070091610380565b620f4240908181029181830414901517156100af5763ffffffff6118c6921690610393565b90600160831b821015610c6c5760009260016001607c1b0383166107378180610380565b90600160771b81019081106100af579180881b908082048714901517156100af570490386116e8565b90600160781b81019081106100af579180881b908082048714901517156100af570490386116cd565b90600160791b81019081106100af579180881b908082048714901517156100af570490386116b2565b906001607a1b81019081106100af579180881b908082048714901517156100af57049038611697565b906001607b1b81019081106100af579180881b908082048714901517156100af5704903861167c565b906001607c1b81019081106100af579180881b908082048714901517156100af57049038611661565b906001607d1b81019081106100af579180881b908082048714901517156100af57049038611646565b6001607e1b9350915080881b908015908204871417156100af570490388061162a565b908190600160801b8181811015611af9575b50868211611a84575b50506f03f80fe03f80fe03f80fe03f80fe03f891828102928184041490151715610c3057506f05b9de1d10bf4103d647b0955897ba8090046118a1565b9196909792939495835b60ff998a821615611ae75780611aa391610380565b998a861c9a858c1015611ac5575b505060ff16801561140d5760001901611a8e565b611adf919b5096600160ff939860801c9c61143b8a6103b3565b959038611ab1565b50509594939297509590503880611a47565b988991989450809597939692501c9585976101008810600014611b665797965b600180821115611b34571c96611b2e90611bc0565b96611b19565b5050939796929695909491955b60ff821690811c91891b60ff607f1b16908015908204881417156114ca579238611a3e565b8560809a95999798969a5b60ff81168015611ba1576001811b891015611b93575b5060011c168a90611b71565b978199981c97179738611b87565b50505093909450959195949094611b41565b919082018092116100af57565b60ff60019116019060ff82116100af57565b906020607f9182915b611be481611bc0565b60ff8091818616918291161015611c4f5781831601908111611c3a5760011c8416906080821015611c255781548611611c1d5750611bdb565b925091611bdb565b60246000634e487b7160e01b81526032600452fd5b60246000634e487b7160e01b81526011600452fd5b5050925092906080811015611c8f578181541015611ca557506080821015611c8f578154101561013b57634e487b7160e01b600052600160045260246000fd5b634e487b7160e01b600052603260045260246000fd5b91505090565b908115611d1d57611cc6611cbf8284610380565b9283610393565b03611cce5790565b60405162461bcd60e51b815260206004820152602160248201527f536166654d6174683a206d756c7469706c69636174696f6e206f766572666c6f6044820152607760f81b6064820152608490fd5b5050600090565b908015611d345761013b91610393565b60405162461bcd60e51b815260206004820152601a60248201527f536166654d6174683a206469766973696f6e206279207a65726f0000000000006044820152606490fdfea26469706673582212205ecd96a86fa8344fa486591276e09d996371e56b71195cbc27b0c9d4f7b8503464736f6c63430008140033",
  "linkReferences": {},
  "deployedLinkReferences": {}
}