{
  "_format": "hh-sol-artifact-1",
  "contractName": "BancorFormula",
  "sourceName": "contracts/lib/BancorFormula.sol",
  "abi": [
    {
      "inputs": [
        {
          "internalType": "uint256",
          "name": "_supply",
          "type": "uint256"
        },
        {
          "internalType": "uint256",
          "name": "_reserveBalance",
          "type": "uint256"
        },
        {
          "internalType": "uint32",
          "name": "_reserveRatio",
          "type": "uint32"
        },
        {
          "internalType": "uint256",
          "name": "_depositAmount",
          "type": "uint256"
        }
      ],
      "name": "calculatePurchaseReturn",
      "outputs": [
        {
          "internalType": "uint256",
          "name": "",
          "type": "uint256"
        }
      ],
      "stateMutability": "view",
      "type": "function"
    },
    {
      "inputs": [
        {
          "internalType": "uint256",
          "name": "_supply",
          "type": "uint256"
        },
        {
          "internalType": "uint256",
          "name": "_reserveBalance",
          "type": "uint256"
        },
        {
          "internalType": "uint32",
          "name": "_reserveRatio",
          "type": "uint32"
        },
        {
          "internalType": "uint256",
          "name": "_sellAmount",
          "type": "uint256"
        }
      ],
      "name": "calculateSaleReturn",
      "outputs": [
        {
          "internalType": "uint256",
          "name": "",
          "type": "uint256"
        }
      ],
      "stateMutability": "view",
      "type": "function"
    }
  ],
  "bytecode": "0x608060405234801561001057600080fd5b506001641c35fedd1560601b036020556001646c3390ecc9605e1b036021556001640cf801476160611b0360225560016431bdb23e1d605f1b0360235560016502fb1d8fe083605b1b0360245560016505b771955b37605a1b036025556001650af67a93bb5160591b0360265560016515060c256cb360581b036027556001651428a2f98d7360581b036028556001654d515663970960561b03602955600165944620b0e70f60551b03602a55600166011c592761c66760541b03602b5560016602214d10d014eb60531b03602c55600166020ade36b7dbef60531b03602d5560016603eab73b3bbfe360521b03602e556001660782ee3593f6d760511b03602f556001661ccf4b44bb4821604f1b0360305560016606e7f88ad8a77760511b0360315560016669f3d1c921891d604d1b03603255600166cb2ff529eb71e5604c1b03603355600166c2d415c3db974b604c1b0360345560016702eb40f9f620fda7604a1b0360355560016705990681d961a1eb60491b03603655600167055e12902701414760491b0360375560016714962dee9dc9764160471b0360385560016704ef57b9b560fab560491b0360395560016712ed7b32a58f552b60471b03603a556001679131271922eaa60760441b03603b556001678b380f3558668c4760441b03603c556001680215f77c045fbe885760421b03603d556001600160831b03603e556001670f577eded5773a1160471b03603f556001680eb5ec597592befbf5603f1b036040556001681c35fedd14b861eb05603e1b036041556001683619c87664579bc94b603d1b0360425560016867c00a3b07ffc01fd7603c1b03604355600168c6f6c8f8739773a7a5603b1b03604455600168bec763f8209b7a72b1603b1b0360455560016902dbb8caad9b7097b91b60391b03604655600169057b3d49dda84556d6f760381b03604755600169054183095b2c8ececf3160381b036048556001690a14517cc6b9457111ef60371b0360495560016913545598e5c23276ccf160361b03604a556001692511882c39c3adea96ff60351b03604b55600169471649d87199aa99075760341b03604c557004429a21a029d4c1457cfbffffffffffff604d55700415bc6d6fb7dd71af2cb3ffffffffffff604e557003eab73b3bbfe282243ce1ffffffffffff604f557003c1771ac9fb6b4c18e229ffffffffffff605055700399e96897690418f785257fffffffffff605155700373fc456c53bb779bf0ea9fffffffffff60525570034f9e8e490c48e67e6ab8bfffffffffff60535570032cbfd4a7adc790560b3337ffffffffff60545570030b50570f6e5d2acca94613ffffffffff6055557002eb40f9f620fda6b56c2861ffffffffff6056557002cc8340ecb0d0f520a6af58ffffffffff6057557002af09481380a0a35cf1ba02ffffffffff605855700292c5bdd3b92ec810287b1b3fffffffff605955700277abdcdab07d5a77ac6d6b9fffffffff605a5570025daf6654b1eaa55fd64df5efffffffff605b55700244c49c648baa98192dce88b7ffffffff605c5570022ce03cd5619a311b2471268bffffffff605d55700215f77c045fbe885654a44a0fffffffff605e556001600160811b03605f557001eaefdbdaaee7421fc4d3ede5ffffffff6060557001d6bd8b2eb257df7e8ca57b09bfffffff6061557001c35fedd14b861eb0443f7f133fffffff6062557001b0ce43b322bcde4a56e8ada5afffffff60635570019f0028ec1fff007f5a195a39dfffffff60645570018ded91f0e72ee74f49b15ba527ffffff60655570017d8ec7f04136f4e5615fd41a63ffffff60665570016ddc6556cdb84bdc8d12d22e6fffffff60675570015ecf52776a1155b5bd8395814f7fffff60685570015060c256cb23b3b3cc3754cf40ffffff6069557001428a2f98d728ae223ddab715be3fffff606a5570013545598e5c23276ccf0ede68034fffff606b557001288c4161ce1d6f54b7f61081194fffff606c5570011c592761c666aa641d5a01a40f17ffff606d55700110a688680a7530515f3e6e6cfdcdffff606e557001056f1b5bedf75c6bcb2ce8aed428ffff606f556ffaadceceeff8a0890f3875f008277fff6070556ff05dc6b27edad306388a600f6ba0bfff6071556fe67a5a25da41063de1495d5b18cdbfff6072556fdcff115b14eedde6fc3aa5353f2e4fff6073556fd3e7a3924312399f9aae2e0f868f8fff6074556fcb2ff529eb71e41582cccd5a1ee26fff6075556fc2d415c3db974ab32a51840c0b67edff6076556fbad03e7d883f69ad5b0a186184e06bff6077556fb320d03b2c343d4829abd6075f0cc5ff6078556fabc25204e02828d73c6e80bcdb1a95bf6079556fa4b16f74ee4bb2040a1ec6c15fbbf2df607a556f9deaf736ac1f569deb1b5ae3f36c130f607b556f976bd9952c7aa957f5937d790ef65037607c556f9131271922eaa6064b73a22d0bd4f2bf607d556f8b380f3558668c46c91c49a2f8e967b9607e556f857ddf0117efa215952912839f6473e6607f55610f5d806107496000396000f3fe608060405234801561001057600080fd5b50600436106100365760003560e01c806329a00e7c1461003b57806349f9b0f714610060575b600080fd5b61004e610049366004610dc5565b610073565b60405190815260200160405180910390f35b61004e61006e366004610dc5565b610227565b600080851180156100845750600084115b8015610096575060008363ffffffff16115b80156100ab5750620f424063ffffffff841611155b6100f15760405162461bcd60e51b8152602060048201526012602482015271496e76616c696420706172616d657465727360701b60448201526064015b60405180910390fd5b816000036101015750600061021f565b61010d84600019610e23565b82111561015c5760405162461bcd60e51b815260206004820152601860248201527f4465706f73697420616d6f756e7420746f6f206c61726765000000000000000060448201526064016100e8565b620f423f1963ffffffff841601610188576101818461017b8785610306565b90610391565b905061021f565b6000808061019685886103ee565b90506101ad81888863ffffffff16620f424061044d565b9093509150600060ff83166101c28a86610306565b901c90508881101561020e5760405162461bcd60e51b815260206004820152601560248201527443616c63756c6174696f6e20756e646572666c6f7760581b60448201526064016100e8565b6102188982610e23565b9450505050505b949350505050565b600080851180156102385750600084115b801561024a575060008363ffffffff16115b801561025f5750620f424063ffffffff841611155b801561026b5750848211155b61027457600080fd5b816000036102845750600061021f565b84820361029257508261021f565b620f423f1963ffffffff8416016102b1576101818561017b8685610306565b600080806102bf8589610e23565b90506102d08882620f42408961044d565b909350915060006102e18885610306565b905060ff831688901b6102f88561017b84846104ae565b9a9950505050505050505050565b6000826000036103185750600061038b565b60006103248385610e36565b9050826103318583610e63565b146103885760405162461bcd60e51b815260206004820152602160248201527f536166654d6174683a206d756c7469706c69636174696f6e206f766572666c6f6044820152607760f81b60648201526084016100e8565b90505b92915050565b60008082116103e25760405162461bcd60e51b815260206004820152601a60248201527f536166654d6174683a206469766973696f6e206279207a65726f00000000000060448201526064016100e8565b600061021f8385610e63565b6000806103fb8385610e77565b9050838110156103885760405162461bcd60e51b815260206004820152601b60248201527f536166654d6174683a206164646974696f6e206f766572666c6f77000000000060448201526064016100e8565b60008060008363ffffffff1685610464898961050c565b61046e9190610e36565b6104789190610e63565b905060006104858261062a565b90506104a161049582607f610e8a565b60ff1683901c826106ef565b9890975095505050505050565b6000828211156105005760405162461bcd60e51b815260206004820152601e60248201527f536166654d6174683a207375627472616374696f6e206f766572666c6f77000060448201526064016100e8565b600061021f8385610e23565b60007001ffffffffffffffffffffffffffffffff83111561052f5761052f610ea3565b600080836105416001607f1b87610e36565b61054b9190610e63565b9050600160801b811061058e57600061057061056b6001607f1b84610e63565b610d56565b60ff811692831c9290915061058a906001607f1b90610e36565b9250505b6001607f1b81111561060357607f5b60ff811615610601576001607f1b6105b58380610e36565b6105bf9190610e63565b9150600160801b82106105f157600191821c916105dc9082610e8a565b60ff166001901b836105ee9190610e77565b92505b6105fa81610eb9565b905061059d565b505b607a61061f6f02c5c85fdf473de6af278ece600fcbda84610e36565b901c95945050505050565b60006020607f5b60ff8116610640836001610ed6565b60ff16101561069357600060026106578385610ed6565b6106619190610eef565b90508460008260ff166080811061067a5761067a610f11565b0154106106895780925061068d565b8091505b50610631565b8360008260ff16608081106106aa576106aa610f11565b0154106106b8579392505050565b8360008360ff16608081106106cf576106cf610f11565b0154106106dd575092915050565b6106e5610ea3565b5060009392505050565b6000828160ff84166107018380610e36565b901c915061071f826f03442c4e6074a82f1797f72ac0000000610e36565b6107299082610e77565b905060ff84166107398684610e36565b901c9150610757826f0116b96f757c380fb287fd0e40000000610e36565b6107619082610e77565b905060ff84166107718684610e36565b901c915061078e826e45ae5bdd5f0e03eca1ff4390000000610e36565b6107989082610e77565b905060ff84166107a88684610e36565b901c91506107c5826e0defabf91302cd95b9ffda50000000610e36565b6107cf9082610e77565b905060ff84166107df8684610e36565b901c91506107fc826e02529ca9832b22439efff9b8000000610e36565b6108069082610e77565b905060ff84166108168684610e36565b901c9150610832826d54f1cf12bd04e516b6da88000000610e36565b61083c9082610e77565b905060ff841661084c8684610e36565b901c9150610868826d0a9e39e257a09ca2d6db51000000610e36565b6108729082610e77565b905060ff84166108828684610e36565b901c915061089e826d012e066e7b839fa050c309000000610e36565b6108a89082610e77565b905060ff84166108b88684610e36565b901c91506108d3826c1e33d7d926c329a1ad1a800000610e36565b6108dd9082610e77565b905060ff84166108ed8684610e36565b901c9150610908826c02bee513bdb4a6b19b5f800000610e36565b6109129082610e77565b905060ff84166109228684610e36565b901c915061093c826b3a9316fa79b88eccf2a00000610e36565b6109469082610e77565b905060ff84166109568684610e36565b901c9150610970826b048177ebe1fa812375200000610e36565b61097a9082610e77565b905060ff841661098a8684610e36565b901c91506109a3826a5263fe90242dcbacf00000610e36565b6109ad9082610e77565b905060ff84166109bd8684610e36565b901c91506109d6826a057e22099c030d94100000610e36565b6109e09082610e77565b905060ff84166109f08684610e36565b901c9150610a08826957e22099c030d9410000610e36565b610a129082610e77565b905060ff8416610a228684610e36565b901c9150610a3a8269052b6b54569976310000610e36565b610a449082610e77565b905060ff8416610a548684610e36565b901c9150610a6b82684985f67696bf748000610e36565b610a759082610e77565b905060ff8416610a858684610e36565b901c9150610a9c826803dea12ea99e498000610e36565b610aa69082610e77565b905060ff8416610ab68684610e36565b901c9150610acc826731880f2214b6e000610e36565b610ad69082610e77565b905060ff8416610ae68684610e36565b901c9150610afc8267025bcff56eb36000610e36565b610b069082610e77565b905060ff8416610b168684610e36565b901c9150610b2b82661b722e10ab1000610e36565b610b359082610e77565b905060ff8416610b458684610e36565b901c9150610b5a826601317c70077000610e36565b610b649082610e77565b905060ff8416610b748684610e36565b901c9150610b8882650cba84aafa00610e36565b610b929082610e77565b905060ff8416610ba28684610e36565b901c9150610bb5826482573a0a00610e36565b610bbf9082610e77565b905060ff8416610bcf8684610e36565b901c9150610be2826405035ad900610e36565b610bec9082610e77565b905060ff8416610bfc8684610e36565b901c9150610c0e82632f881b00610e36565b610c189082610e77565b905060ff8416610c288684610e36565b901c9150610c3a826301b29340610e36565b610c449082610e77565b905060ff8416610c548684610e36565b901c9150610c6582620efc40610e36565b610c6f9082610e77565b905060ff8416610c7f8684610e36565b901c9150610c8f82617fe0610e36565b610c999082610e77565b905060ff8416610ca98684610e36565b901c9150610cb982610420610e36565b610cc39082610e77565b905060ff8416610cd38684610e36565b901c9150610ce2826021610e36565b610cec9082610e77565b905060ff8416610cfc8684610e36565b901c9150610d0b826001610e36565b610d159082610e77565b9050600160ff85161b85610d396f0688589cc0e9505e2f2fee558000000084610e63565b610d439190610e77565b610d4d9190610e77565b95945050505050565b60008082610100811015610d8a575b6001811115610d8557600190811c90610d7e9083610ed6565b9150610d65565b610dbe565b60805b60ff811615610dbc57600160ff82161b8210610db1579182179160ff81169190911c905b60011c607f16610d8d565b505b5092915050565b60008060008060808587031215610ddb57600080fd5b8435935060208501359250604085013563ffffffff81168114610dfd57600080fd5b9396929550929360600135925050565b634e487b7160e01b600052601160045260246000fd5b8181038181111561038b5761038b610e0d565b808202811582820484141761038b5761038b610e0d565b634e487b7160e01b600052601260045260246000fd5b600082610e7257610e72610e4d565b500490565b8082018082111561038b5761038b610e0d565b60ff828116828216039081111561038b5761038b610e0d565b634e487b7160e01b600052600160045260246000fd5b600060ff821680610ecc57610ecc610e0d565b6000190192915050565b60ff818116838216019081111561038b5761038b610e0d565b600060ff831680610f0257610f02610e4d565b8060ff84160491505092915050565b634e487b7160e01b600052603260045260246000fdfea264697066735822122038c15b0097b5cd8e7ba4418afc3aae4e06e4bf8330a793dfb92e044340ab2ce264736f6c63430008140033",
  "linkReferences": {},
  "deployedLinkReferences": {}
}